:020000040000FA
:06000000A8EF23F012003E
:020006001200E6
:0600080034EF20F01200AD
:02000E001200DE
:0400100000000000EC
:03001400090300DD
:060018009AEF20F0120037
:02001E000300DD
:10002000140000003C0E000003000000994700008F
:10003000000E00002E00000010000000380E00002E
:0400400004000000B8
:0C004400D9CFE6FFE1CFD9FFE6526E50A5
:10005000E00BE842E842E842E842E842DF6E6E50D8
:10006000E00BE842E842E842E842E842040805E0E2
:10007000040EE66EEBEC04F0E552FE0EDB50766EFD
:10008000FE0EDBCF7FFEFD0EDBCFE6FFFE0EDB506C
:10009000030BE552E7100E017E6F6E50E00BE84255
:1000A000E842E842E842E842DF5C05E0DFCFE6FFF5
:1000B000EBEC04F0E552E552E552E7CFD9FF120030
:1000C000D9CFE6FFE1CFD9FFE6526E50E00BE84210
:1000D000E842E842E842E842DF6E6E50E00BE84258
:1000E000E842E842E842E842040805E0040EE66E11
:1000F000EBEC04F0E552FE0EDBCF7DFE6E50E00B24
:10010000E842E842E842E842E842DF5C05E0DFCF4F
:10011000E6FFEBEC04F0E552E552E552E7CFD9FFFC
:100120001200D9CFE6FFE1CFD9FFE6526E50E00BC7
:10013000E842E842E842E842E842DF6E6E50E00BF7
:10014000E842E842E842E842E842040805E0040EDA
:10015000E66EEBEC04F0E552FE0EDB50010A1FE008
:10016000010A01E038D0F90EDBCFE6FFD950FA0FD3
:10017000E96EFF0EDA20EA6EEECFE6FFEECFE6FF85
:10018000EECFE6FFEFCFE6FFF80EE66E0E0EE66E60
:10019000FDEC07F0146E070EE15E14501CD0F90E52
:1001A000DBCFE6FFD950FA0FE96EFF0EDA20EA6ED8
:1001B000EECFE6FFEECFE6FFEECFE6FFEFCFE6FFB6
:1001C000FC0EE66E0E0EE66EFDEC07F0146E070EEA
:1001D000E15E145000D06E50E00BE842E842E84285
:1001E000E842E842DF5C05E0DFCFE6FFEBEC04F03D
:1001F000E552E552E552E7CFD9FF1200D9CFE6FF2D
:10020000E1CFD9FFE6526E50E00BE842E842E84207
:10021000E842E842DF6E6E50E00BE842E842E84216
:10022000E842E842040804E0040EE66ED4DBE5523E
:10023000FF0EE76EFD0EDBCF14F0FE0EDBCF15F0E8
:10024000E7501416156A14C046FEFD0EDBCF14F0FD
:10025000FE0EDBCF15F015C014F0156A14500E0118
:10026000476F6E50E00BE842E842E842E842E8425D
:10027000DF5C04E0DFCFE6FFAEDBE552E552E5529E
:10028000E7CFD9FF1200D9CFE6FFE1CFD9FFE65281
:100290006E50E00BE842E842E842E842E842DF6E96
:1002A000010EF36EFD0EDB5004E0D890F336E80645
:1002B000FCE1F3500E017D1502E0000E06D16E50F8
:1002C000E00BE842E842E842E842E842040804E081
:1002D000040EE66E80DBE552FE0EDB500F0A01E1F4
:1002E000D7D0010A01E1CAD0030A01E1B9D0010A5D
:1002F00001E1ACD0070A01E19BD0010A01E18ED0F7
:10030000030A01E17DD0010A71E00F0A61E0010AF0
:1003100055E0030A45E0010A39E0070A29E0010A2D
:100320001DE0030A0DE0010A01E0C0D0FD0EDB5024
:100330000E010F0BF36EF00E7115F310716FB6D046
:10034000FD0EDB500E010F0BF36EF346F346F34642
:10035000F3460F0E7115F310716FA8D0FD0EDB5030
:100360000E010F0BF36EF00E7215F310726F9ED02C
:10037000FD0EDB500E010F0BF36EF346F346F34612
:10038000F3460F0E7215F310726F90D0FD0EDB5016
:100390000E010F0BF36EF00E7315F310736F86D012
:1003A000FD0EDB500E010F0BF36EF346F346F346E2
:1003B000F3460F0E7315F310736F78D0FD0EDB50FC
:1003C0000E010F0BF36EF00E7415F310746F6ED0F8
:1003D000FD0EDB500E010F0BF36EF346F346F346B2
:1003E000F3460F0E7415F310746F60D0FD0EDB50E2
:1003F0000E010F0BF36EF00E7515F310756F56D0DE
:10040000FD0EDB500E010F0BF36EF346F346F34681
:10041000F3460F0E7515F310756F48D0FD0EDB50C7
:100420000E010F0BF36EF00E7615F310766F3ED0C3
:10043000FD0EDB500E010F0BF36EF346F346F34651
:10044000F3460F0E7615F310766F30D0FD0EDB50AD
:100450000E010F0BF36EF00E7715F310776F26D0A9
:10046000FD0EDB500E010F0BF36EF346F346F34621
:10047000F3460F0E7715F310776F18D0FD0EDB5093
:100480000E010F0BF36EF00E7815F310786F0ED08F
:10049000FD0EDB500E010F0BF36EF346F346F346F1
:1004A000F3460F0E7815F310786F00D06E50E00B06
:1004B000E842E842E842E842E842DF5C04E0DFCF9D
:1004C000E6FF89DAE552010E00D0E552E552E7CFAA
:1004D000D9FF1200D9CFE6FFE1CFD9FFE6526E5027
:1004E000E00BE842E842E842E842E842DF6E6E5044
:1004F000E00BE842E842E842E842E842040804E04F
:10050000040EE66E68DAE552FE0EDB500F0A01E1DA
:10051000E6D0010A01E1D5D0030A01E1C6D0010A03
:1005200001E1B9D0070A01E1A6D0010A01E195D0A5
:10053000030A01E186D0010A01E179D00F0A67E0E0
:10054000010A57E0030A49E0010A3DE0070A2BE0EF
:10055000010A1BE0030A0DE0010A01E0D0D0FD0E04
:10056000DB500E01030BF36EFC0E7915F310796F5F
:10057000C6D0FD0EDB500E01030BF36EF346F346BF
:10058000F30E7915F310796FBAD0FD0EDB500E0122
:10059000030BF36EF346F346F346F346CF0E79159D
:1005A000F310796FACD0FD0EDB500E01030BF36E30
:1005B000F346F346F346F346F346F3463F0E79150A
:1005C000F310796F9CD0FD0EDB500E01030BF36E20
:1005D000FC0E7A15F3107A6F92D0FD0EDB500E01EF
:1005E000030BF36EF346F346F30E7A15F3107A6FAE
:1005F00086D0FD0EDB500E01030BF36EF346F3467F
:10060000F346F346CF0E7A15F3107A6F78D0FD0ECD
:10061000DB500E01030BF36EF346F346F346F3464D
:10062000F346F3463F0E7A15F3107A6F68D0FD0E4D
:10063000DB500E01030BF36EFC0E7B15F3107B6F8A
:100640005ED0FD0EDB500E01030BF36EF346F34656
:10065000F30E7B15F3107B6F52D0FD0EDB500E01B5
:10066000030BF36EF346F346F346F346CF0E7B15CA
:10067000F3107B6F44D0FD0EDB500E01030BF36EC5
:10068000F346F346F346F346F346F3463F0E7B1537
:10069000F3107B6F34D0FD0EDB500E01030BF36EB5
:1006A000FC0E7C15F3107C6F2AD0FD0EDB500E0182
:1006B000030BF36EF346F346F30E7C15F3107C6FD9
:1006C0001ED0FD0EDB500E01030BF36EF346F34616
:1006D000F346F346CF0E7C15F3107C6F10D0FD0E61
:1006E000DB500E01030BF36EF346F346F346F3467D
:1006F000F346F3463F0E7C15F3107C6F00D06E502E
:10070000E00BE842E842E842E842E842DF5C04E00D
:10071000DFCFE6FF60D9E552E552E552E7CFD9FFDA
:100720001200D9CFE6FFE1CFD9FFE6526E50E00BC1
:10073000E842E842E842E842E842DF6E6E50E00BF1
:10074000E842E842E842E842E842040804E0040ED5
:10075000E66E41D9E552F90EDBCFE6FFD950FA0F2C
:10076000E96EFF0EDA20EA6EEECFE6FFEECFE6FF8F
:10077000EECFE6FFEFCFE6FFFE0EF76ADB34FE0BAF
:10078000F736F66EAE0EF626450EF7220900F5CFC7
:10079000E6FF0800F5CFE6FFFDEC07F0146E070E4C
:1007A000E15E14506E50E00BE842E842E842E84255
:1007B000E842DF5C04E0DFCFE6FF0DD9E552E55209
:1007C000E552E7CFD9FF1200D9CFE6FFE1CFD9FF3D
:1007D000E6526E50E00BE842E842E842E842E84266
:1007E000DF6EFD0EDB5000084DE2090EF36EFD0ECC
:1007F000DBCFF4FFF350F45C45E2FC0EDB50000865
:1008000041E2090EF36EFC0EDBCFF4FFF350F45C13
:1008100039E2FB0EDB50010835E2090EF36EFB0EE8
:10082000DBCFF4FFF350F45C2DE2FE0EDB5000084A
:1008300029E2050EF36EFE0EDBCFF4FFF350F45CFD
:1008400021E2FC0EDBCFE6FFFD0EDB50E552E72494
:10085000146EFB0EDB50145C09E3FE0EDB50F36EEE
:10086000FB0EDBCFF4FFF350F45C02E2000E5AD033
:100870006E50E00BE842E842E842E842E8420408F1
:1008800007E002D0000E4ED0040EE66EA4D8E5526A
:10089000FC0EDB50010803E20E01448D02D00E0174
:1008A000449D448FFE0EDB04030BF36EF346F346C8
:1008B000F346F346F346F3463F0E4315F310436FFA
:1008C000FD0EDB04070BF36EF80E4415F310446FB6
:1008D000FC0EDB04070BF36EF346F346F346C70E3C
:1008E0004415F310446FFB0EDB04070BF36EF80E98
:1008F0004515F310456FFA0EDB503F0BF36EC00E3B
:100900004315F310436F6E50E00BE842E842E842B3
:10091000E842E842DF5C04E0DFCFE6FF5CD8E55266
:10092000010E00D0E552E552E7CFD9FF1200D9CF32
:10093000E6FFE1CFD9FFFD0EDB500F0809E3FE0E05
:10094000DB50020F146E020E0E017D15141803E128
:10095000000E20D01DD0FE0EDB50030FE66EFD0E04
:10096000DBCFE6FF90DCE552E552FE0EDB50030FD5
:10097000F66EF76AD890F636F736DE0EF626450E96
:10098000F7220900F5CFE9FF0800F5CFEAFFEF8471
:10099000010E00D0E552E7CFD9FF1200D9CFE6FF14
:1009A000E1CFD9FFFE0EDB0402E0000E10D0FE0EF8
:1009B000DB50030BF36EF346F346F346F346F34680
:1009C000F3463F0E7214F310726E010E00D0E55222
:1009D000E7CFD9FF1200D9CFE6FFE1CFD9FFFE0E56
:1009E000DB50070BF36EF346F346F346F346F3464C
:1009F0001F0E6F14F3106F6E6E50E00BE842E8426A
:100A0000E842E842E842146EFE0EDB50145C01E05E
:100A1000F3D7E552E7CFD9FF1200D9CFE6FFE1CFF8
:100A2000D9FFE652080EDF6E000EDF5C28E3DF50D0
:100A300002080FE2DF50020820E2DF04146E010E0C
:100A4000145204E0E846FE0B1406FCE10E017D158D
:100A500014E0F76ADF34FE0BF736F66EDE0EF6268C
:100A6000450EF7220900F5CFE9FF0800F5CFEAFFB0
:100A7000EF50080B02E1DF5004D0DF06D5D7FF0EA0
:100A800000D0E552E552E7CFD9FF1200D9CFE6FFFB
:100A9000E1CFD9FFE652DF6A080EDF5C27E2DF50C4
:100AA00001080EE2010EDF5206E0DFCFF3FFE84659
:100AB000FE0BF306FCE10E017D1502E015D014D00B
:100AC000F76ADF34FE0BF736F66ECE0EF626450ECD
:100AD000F7220900F5CFE9FF0800F5CFEAFFEF5054
:100AE000800B02E0DF5004D0DF2AD6D7FF0E00D003
:100AF000E552E552E7CFD9FF1200D9CFE6FFE1CFAB
:100B0000D9FF040EE126FE0EDB50FF0813E0FE0EB7
:100B1000F76ADB34FE0BF736F66EDE0EF626450E70
:100B2000F7220900F5CFE9FF0800F5CFEAFFEF5003
:100B3000080B08E072DFDF6EFF0EDF5C02E1FF0EE4
:100B4000CCD016D0FE0EDB5002080FE2FE0EDB0406
:100B5000146E010E145204E0E846FE0B1406FCE18C
:100B60000E017D1502E1FF0EB8D0FE0EDB50DF6EE8
:100B7000DF50FF0A24E0FC0A19E0070A17E0010A27
:100B800015E0030A13E0010A11E0070A06E0010A72
:100B900004E0030A02E0FF0EA0D0030EDF241F0BC7
:100BA000F36EE00E7214F310726E0BD0DF041F0BA5
:100BB000F36EE00E7214F310726E728802D001D0E0
:100BC00000D0FC0EDBCFE9FFFD0EDBCFEAFF0E0EFF
:100BD000E926000EEA22EF50E66EFC0EDBCFE9FFBD
:100BE000FD0EDBCFEAFFEECFE6FFEECFE6FFEECF66
:100BF000E6FFEFCFE6FF610EE66E0F0EE66EFDD963
:100C0000146E070EE15E1450FC0EDBCFE9FFFD0E03
:100C1000DBCFEAFF0C0EE926000EEA22EF50656EEC
:100C2000FC0EDBCFE9FFFD0EDBCFEAFF0F0EE9265E
:100C3000000EEA22EF50E8B0658CE8A0659CD95020
:100C4000020FE96EDACFEAFF660EEE6E0F0EED6E62
:100C5000010EDB6AFC0EDBCFE9FFFD0EDBCFEAFF06
:100C60000C0EE926000EEA22EF50F36E010EDBCFE8
:100C7000F4FFF350F45C2BE2FC0EDBCFE9FFFD0E3A
:100C8000DBCFEAFF040EE926000EEA22E9CF14F0DA
:100C9000EACF15F0010EDB500F011424E96E000EAF
:100CA0001520EA6EEF50E66E010EDB50E76E020E85
:100CB000DBCFE9FF030EDBCFEAFFE750E926000EAA
:100CC000EA22E552E750EF6E010EDB2AC3D7E00EB1
:100CD00072141009726EDF5000D0146E040EE15CC5
:100CE00002E2E16AE552E16E1450E552E7CFD9FF26
:100CF0001200D9CFE6FFE1CFD9FFFE0EDB5002088C
:100D00000FE2FE0EDB04146E010E145204E0E846FE
:100D1000FE0B1406FCE10E017D1502E1000E13D05E
:100D2000FE0EF76ADB34FE0BF736F66EDE0EF626A5
:100D3000450EF7220900F5CFE9FF0800F5CFEAFFDD
:100D4000EF86010E00D0E552E7CFD9FF1200D9CFD0
:100D5000E6FFE1CFD9FF030EE126FD0EDBCFE9FF71
:100D6000FE0EDBCFEAFF0F0EE926000EEA22EF6A45
:100D7000FD0EDBCFE9FFFE0EDBCFEAFF0E0EE9260C
:100D8000000EEA22EF6AFC0EF76ADB34FE0BF73640
:100D9000F66ECE0EF626450EF7220900F5CFE9FFD6
:100DA0000800F5CFEAFFEF50200B0CE0FD0EDBCF83
:100DB000E9FFFE0EDBCFEAFF0F0EE926000EEA2266
:100DC000010EEF6EFC0EF76ADB34FE0BF736F66EA3
:100DD000CE0EF626450EF7220900F5CFE9FF0800F2
:100DE000F5CFEAFFEF501F0BE66EFD0EDBCFE9FFFC
:100DF000FE0EDBCFEAFF0D0EE926000EEA22E552D9
:100E0000E750EF6EFC0EDB501F0BF36EE00E72141A
:100E1000F310726E7288FD0EDBCFE9FFFE0EDBCFA2
:100E2000EAFF0C0EE926000EEA2265CFEFFF62A66C
:100E300039D0FD0EDBCFE9FFFE0EDBCFEAFF0E0E51
:100E4000E926000EEA22010EEF6E6350000EF3CF8A
:100E50001AF06250030BF36EF3CF19F06250E00BFF
:100E6000E842E842E842E842E842F36EF3CF18F085
:100E70006150F36EF350181019101A106410146EAC
:100E8000156A166A176AFD0EDBCFE9FFFE0EDBCF8F
:100E9000EAFF14C0EEFF15C0EEFF16C0EEFF17C04C
:100EA000EEFF4CD06150146E156A166A176AFD0E7B
:100EB000DBCFE9FFFE0EDBCFEAFF14C0EEFF15C06B
:100EC000EEFF16C0EEFF17C0EEFFFD0EDBCFE9FF11
:100ED000FE0EDBCFEAFFEECF14F0EECF15F0EECF33
:100EE00016F0EFCF17F0030E1F0B07E0D890143663
:100EF000153616361736E806F9E16250E00BE8427F
:100F0000E842E842E842E842186E196A1A6A1B6A27
:100F100018501412195015121A5016121B5017128D
:100F2000FD0EDBCFE9FFFE0EDBCFEAFF14C0EEFFC4
:100F300015C0EEFF16C0EEFF17C0EEFFD950010F2F
:100F4000E96EDACFEAFF660EEE6E0F0EED6EDF6A27
:100F5000FD0EDBCFE9FFFE0EDBCFEAFF0C0EE9262C
:100F6000000EEA22EF50DF5C28E2DF50E76E010E50
:100F7000DBCFE9FF020EDBCFEAFFE750E926000EE8
:100F8000EA22EF50E66EFD0EDBCFE9FFFE0EDBCF6F
:100F9000EAFF040EE926000EEA22E9CF14F0EACFB8
:100FA00015F0DF500F011424E96E000E1520EA6ED3
:100FB000E552E750EF6EDF2ACBD7E00E721410092E
:100FC000726EFC0EF76ADB34FE0BF736F66ECE0E51
:100FD000F626450EF7220900F5CFE9FF0800F5CF08
:100FE000EAFFEF9E7792030EE15C02E2E16AE552CE
:100FF000E16EE552E7CFD9FF1200D9CFE6FFE1CF8E
:10100000D9FFF80EDB5001E1B3D0F90EDBCF14F0BD
:10101000FA0EDBCF15F0FB0EDBCF16F0FC0EDBCFAC
:1010200017F0150ED8901732163215321432E80622
:10103000F9E1FD0EDBCFE9FFFE0EDBCFEAFF14C0C6
:10104000EFFFFD0EDB2AFE0E01E3DB2AFD0EDBCFF8
:10105000E9FFFE0EDBCFEAFF010EEF6EF90EDBCFEC
:1010600014F0FA0EDBCF15F0FB0EDBCF16F0FC0E02
:10107000DBCF17F00D0ED89017321632153214321E
:10108000E806F9E1E00E186E196A1A6A1B6A185030
:101090001416195015161A5016161B501716FD0E59
:1010A000DBCFE9FFFE0EDBCFEAFF1450EF12F90EA3
:1010B000DBCF18F0FA0EDBCF19F0FB0EDBCF1AF006
:1010C000FC0EDBCF1BF01AC014F01BC015F00001A2
:1010D000166A176A030E1416156A166A176AFD0E49
:1010E000DBCFE9FFFE0EDBCFEAFF1450EF12FD0E5F
:1010F000DB2AFE0E01E3DB2AF90EDBCF14F0FA0E39
:10110000DBCF15F0FB0EDBCF16F0FC0EDBCF17F0BC
:10111000080ED8901732163215321432E806F9E16B
:101120001450E66EFD0EDBCFE9FFFE0EDBCFEAFFCB
:10113000E552E750EF6EFD0EDB2AFE0E01E3DB2ADF
:10114000F90EDBCF14F0FA0EDBCF15F0FB0EDBCF80
:1011500016F0FC0EDBCF17F01450E66EFD0EDBCF61
:10116000E9FFFE0EDBCFEAFFE552E750EF6E46D017
:10117000F90EDBCF14F0FA0EDBCF15F0FB0EDBCF50
:1011800016F0FC0EDBCF17F0030ED8901732163294
:1011900015321432E806F9E1FD0EDBCFE9FFFE0E51
:1011A000DBCFEAFF14C0EFFFFD0EDB2AFE0E01E3EA
:1011B000DB2A070E146E156A166A176AD950F90FE2
:1011C000E96EFF0EDA20EA6EEE501416EE50151698
:1011D000EE501616EE501716050E1F0B07E0D890AE
:1011E0001436153616361736E806F9E1FD0EDBCF54
:1011F000E9FFFE0EDBCFEAFF14C0EFFFE552E7CFB9
:10120000D9FF1200D9CFE6FFE1CFD9FFFE0EF76A72
:10121000DB34FE0BF736F66EDE0EF626450EF722B1
:101220000900F5CFE9FF0800F5CFEAFFFD0EDB501E
:10123000EF16FE0EF76ADB34FE0BF736F66EDE0EA7
:10124000F626450EF7220900F5CFE9FF0800F5CF95
:10125000EAFFFD0EDB50EF12E552E7CFD9FF120097
:10126000D9CFE6FFE1CFD9FFE65205010091008317
:10127000009500970099026B036B046B009B008D37
:101280000191009F01930195056B066B076B019718
:101290000199070E086F096B0A6F0B6B0C6B939427
:1012A000938695968396040EE66EEBEC04F0E55279
:1012B000010EE66ECEEC04F0E552000906E1E66AA6
:1012C000EBEC04F0E552000EC5D0FC0EDBCFE6FFE0
:1012D00060EC00F0E5520E017D51E8240709090198
:1012E000086F096B08C90AF909C90BF9FD0EDBCFB4
:1012F000E6FFFE0EDBCFE6FF22EC00F0E552E55202
:10130000E66AE66AE66AE66AE66AE66A91EC00F090
:10131000146E060EE15E1450E66AE66AE66AE66A54
:10132000E66A010EE66E91EC00F0146E060EE15EC8
:101330001450DF6A100EDF5C0FE2E66AE66AE66AC6
:10134000E66AE66ADFCFE6FF91EC03F0146E060E64
:10135000E15E1450DF2AEED7000EE66EE66AFEEC80
:1013600000F0E552E552DF6A100EDF5C0BE2DF4071
:101370007F0BE66EDFCFE6FF43EC01F0E552E5526E
:10138000DF2AF2D7DF6A100EDF5C0EE2DF50E840A2
:10139000E840E8401F0BE66EDFCFE6FF6AEC02F0A4
:1013A000E552E552DF2AEFD7040EE76EFA0EDBCFE7
:1013B000E9FFFB0EDBCFEAFFE750E926000EEA2249
:1013C000EF50E66E030EE76EFA0EDBCFE9FFFB0E81
:1013D000DBCFEAFFE750E926000EEA22EF50E66E87
:1013E000020EE76EFA0EDBCFE9FFFB0EDBCFEAFF62
:1013F000E750E926000EEA22EF50E66E010EE76E96
:10140000FA0EDBCFE9FFFB0EDBCFEAFFE750E92660
:10141000000EEA22EF50E66EFA0EDBCFE9FFFB0E7C
:10142000DBCFEAFFEF50E66EE4EC03F0146E050E3E
:10143000E15E1450000908E105010187E66AEBEC62
:1014400004F0E552000E06D0E66AEBEC04F0E5523B
:10145000010E00D0E552E552E7CFD9FF1200D9CFF7
:10146000E6FFE1CFD9FFE652050100A102D0000E50
:10147000D9D0FD0EDBCFE9FFFE0EDBCFEAFF0C0E6D
:10148000E926000EEA22EF50080803E20189000E67
:10149000C9D0FD0EDBCFE9FFFE0EDBCFEAFFEECFBA
:1014A00014F0EECF15F0EECF16F0EFCF17F003519A
:1014B000100DF3CFE9FFF4CFEAFF020EE926050E87
:1014C000EA2214C0EEFF15C0EEFF16C0EEFF17C0F3
:1014D000EEFFFD0EDBCFE9FFFE0EDBCFEAFF0E0EC7
:1014E000E926000EEA22EF50E66E0351100DF3CF0D
:1014F000E9FFF4CFEAFF020EE926050EEA220E0EFE
:10150000E926000EEA22E552E750EF6EFD0EDBCF32
:10151000E9FFFE0EDBCFEAFF0F0EE926000EEA22FE
:10152000EF50E66E0351100DF3CFE9FFF4CFEAFF61
:10153000020EE926050EEA220F0EE926000EEA2227
:10154000E552E750EF6EFD0EDBCFE9FFFE0EDBCF7D
:10155000EAFF0C0EE926000EEA22EF50E66E035178
:10156000100DF3CFE9FFF4CFEAFF020EE926050ED6
:10157000EA220C0EE926000EEA22E552E750EF6E51
:10158000DF6AFD0EDBCFE9FFFE0EDBCFEAFF0C0EBC
:10159000E926000EEA22EF50DF5C36E2FD0EDBCFDB
:1015A000E9FFFE0EDBCFEAFF040EE926000EEA2279
:1015B000E9CF16F0EACF17F0DF500F011624E96EDD
:1015C000000E1720EA6EEF50E66E09010351100D70
:1015D000F3CFE9FFF4CFEAFF020EE926050EEA2277
:1015E000040EE926000EEA22E9CF14F0EACF15F046
:1015F000DF500F011424E96E000E1520EA6EE5524B
:10160000E750EF6EDF2ABDD705010093022B400E95
:10161000025D01E10081032B400E035D01E1036BDC
:10162000010E00D0E552E552E7CFD9FF1200D9CF25
:10163000E6FFE1CFD9FF030EE126020EDB6A0501CA
:1016400000B386D03CDA09010A510B1101E17ED0CA
:1016500008510A1902E109510B1903E10E01030EA9
:101660003D6F0E013C5107E13D5102E1000E72D089
:10167000090E3C6F3D07010E3CCEDBFFDB5000083E
:1016800033E2010EDB040AC914F00BC915F005E0C2
:10169000D89015321432E804FBE11450010B21E01C
:1016A000010EDB04DF6EDFCF3CFE010EDF5206E0F1
:1016B000DFCFF3FFE846FE0BF306FCE1E81C146EF7
:1016C000156A14BE1568145009010A1715500B1736
:1016D0003DCEE6FFDFCFE6FF02EC09F0E552E55232
:1016E00003D0010EDB06CAD709010451100DF3CF58
:1016F00014F0F4CF15F0020E1426050E152214C0B6
:10170000E6FF15C0E6FFDFCFE6FF7DEC05F0E55212
:10171000E552E552DF6EFF0EDF5C02E1000E1AD0EB
:10172000DFCFE6FF79EC06F0E552000902E1000E9A
:1017300011D0050100B100910207025101E10083BF
:10174000042B400E045D01E1046B02D0000E02D0B8
:10175000010E00D0146E030EE15C02E2E16AE55274
:10176000E16E1450E552E7CFD9FF1200400E090197
:10177000025D05E2400ED880025503D002D0000E73
:1017800000D01200D9CFE6FFE1CFD9FF020EE1264B
:10179000050100BB5CD0F2D909010C5156E03ECEE8
:1017A000DFFF080EDF5C2EE209010C51DF5206E07C
:1017B000DFCFF3FFE8327F0BF306FCE1010B20E003
:1017C000010EDFCFDBFFDB280E013E6F010EF36E53
:1017D000DB5004E0D890F336E806FCE1F350E81C57
:1017E00009010C170C51DF5206E0DFCFF3FFE8329E
:1017F0007F0BF306FCE1000902E10E013E6B02D013
:10180000DF2ACFD7010EDBCFE6FF09010651100D0D
:10181000F3CF14F0F4CF15F0000E1426010E1522AC
:1018200014C0E6FF15C0E6FFA7EC06F0E552E5524E
:10183000E5520501009D052B400E055D01E1008B81
:10184000062B400E065D01E1066B010E03D0769279
:10185000000E00D0146E020EE15C02E2E16AE55275
:10186000E16E1450E552E7CFD9FF1200D9CFE6FF61
:10187000E1CFD9FF050100AD02D0000EE0D0009B02
:101880000751100DF3CFE9FFF4CFEAFF000EE92670
:10189000010EEA22EECF14F0EECF15F0EECF16F0E7
:1018A000EFCF17F0FD0EDBCFE9FFFE0EDBCFEAFF37
:1018B00014C0EEFF15C0EEFF16C0EEFF17C0EEFF1E
:1018C0000751100DF3CFE9FFF4CFEAFF000EE92630
:1018D000010EEA220E0EE926000EEA22EF50E66E15
:1018E000FD0EDBCFE9FFFE0EDBCFEAFF0E0EE92691
:1018F000000EEA22E552E750EF6E0751100DF3CFCC
:10190000E9FFF4CFEAFF000EE926010EEA220F0EEE
:10191000E926000EEA22EF50E66EFD0EDBCFE9FF6E
:10192000FE0EDBCFEAFF0F0EE926000EEA22E5529B
:10193000E750EF6E0751100DF3CFE9FFF4CFEAFF48
:10194000000EE926010EEA220C0EE926000EEA221C
:10195000EF50E66EFD0EDBCFE9FFFE0EDBCFEAFFB8
:101960000C0EE926000EEA22E552E750EF6E075111
:10197000100DF3CFE9FFF4CFEAFF000EE926010EC8
:10198000EA220D0EE926000EEA22EF50E66EFD0E69
:10199000DBCFE9FFFE0EDBCFEAFF0D0EE926000EDE
:1019A000EA22E552E750EF6E0751100DF3CFE9FF41
:1019B000F4CFEAFF000EE926010EEA220C0EE9261A
:1019C000000EEA22EF50E66EE66A0751100DF3CFE3
:1019D000E9FFF4CFEAFF000EE926010EEA22040E29
:1019E000E926000EEA22E9CF14F0EACF15F014C080
:1019F000E6FF15C0E6FFFD0EDBCFE9FFFE0EDBCFF5
:101A0000EAFF040EE926000EEA22E9CF16F0EACF3B
:101A100017F016C0E6FF17C0E6FF59EC1FF0186E6E
:101A2000060EE15E185009010507055101E1008D20
:101A3000072B400E075D01E1076B010E00D0E55258
:101A4000E7CFD9FF12000901055100D01200D9CF0C
:101A5000E6FFE1CFD9FFE6527750800B06E07650E3
:101A6000800B03E0779E0501008F7750200B22E06A
:101A70007650200B1FE0779A71AC04D005010181EC
:101A8000719C18D071AA03D00501008913D071A8E8
:101A900003D0050100870ED071A603D00501018592
:101AA00009D071A403D00501008504D071A202D031
:101AB00005010183E552E552E7CFD9FF1200D9CFE6
:101AC000E6FFE1CFD9FFE652DF6A090EDF5C51E2A3
:101AD000010EDF5206E0DFCFF3FFE846FE0BF30610
:101AE000FCE1166E176A16BE176809010851161434
:101AF000146E09511714156E1450151038E0F76A5A
:101B0000DF34FE0BF736F66EDE0EF626450EF722B4
:101B10000900F5CFE9FF0800F5CFEAFFEF50080B09
:101B200014E0010EDF5206E0DFCFF3FFE846FE0BC4
:101B3000F306FCE1E81C146E156A14BE1568145017
:101B400009010A1715500B1712D0010EDF5206E0DB
:101B5000DFCFF3FFE846FE0BF306FCE1146E156AD7
:101B600014BE1568145009010A1315500B13DF2A0F
:101B7000ACD7E552E552E7CFD9FF1200D9CFE6FF47
:101B8000E1CFD9FFE652DF6A080EDF5C4FE208C9F9
:101B900016F009C917F0161E171ED8901732163204
:101BA000030E1612000E1712010EDF5206E0DFCFF1
:101BB000F3FFE846FE0BF306FCE1186E196A18BE47
:101BC000196816501814146E17501914156E145005
:101BD00015102AE0F76ADF34FE0BF736F66ECE0EEC
:101BE000F626450EF7220900F5CFE9FF0800F5CFEC
:101BF000EAFFEF50800B0CE0010EDF5206E0DFCF72
:101C0000F3FFE846FE0BF306FCE109010C130CD0D0
:101C1000010EDF5206E0DFCFF3FFE846FE0BF306CE
:101C2000FCE1E81C09010C17DF2AAED7E552E552AA
:101C3000E7CFD9FF1200D9CFE6FFE1CFD9FF0501E9
:101C400001A725D0250E146E400E156E166A14C01D
:101C5000E6FF15C0E6FF16C0E6FFFD0EDBCFE6FF90
:101C6000FE0EDBCFE6FFADEC20F0176E050EE15E59
:101C70001750F350E66EFB0EDBCFE9FFFC0EDBCF17
:101C8000EAFFE552E750EF6E050101973AD101A155
:101C900025D00C0E146E400E156E166A14C0E6FFA9
:101CA00015C0E6FF16C0E6FFFD0EDBCFE6FFFE0E19
:101CB000DBCFE6FFADEC20F0176E050EE15E1750AE
:101CC000F350E66EFB0EDBCFE9FFFC0EDBCFEAFF45
:101CD000E552E750EF6E0501019113D100A925D01F
:101CE000F40E146E3F0E156E166A14C0E6FF15C092
:101CF000E6FF16C0E6FFFD0EDBCFE6FFFE0EDBCFF4
:101D0000E6FFADEC20F0176E050EE15E1750F350C4
:101D1000E66EFB0EDBCFE9FFFC0EDBCFEAFFE55200
:101D2000E750EF6E05010099ECD000A725D0D80E42
:101D3000146E3F0E156E166A14C0E6FF15C0E6FF5E
:101D400016C0E6FFFD0EDBCFE6FFFE0EDBCFE6FFA3
:101D5000ADEC20F0176E050EE15E1750F350E66E05
:101D6000FB0EDBCFE9FFFC0EDBCFEAFFE552E750CD
:101D7000EF6E05010097C5D001A525D0BC0E146EED
:101D80003F0E156E166A14C0E6FF15C0E6FF16C0BA
:101D9000E6FFFD0EDBCFE6FFFE0EDBCFE6FFADEC90
:101DA00020F0176E050EE15E1750F350E66EFB0E45
:101DB000DBCFE9FFFC0EDBCFEAFFE552E750EF6E29
:101DC000050101959ED000A525D0A40E146E3F0EEE
:101DD000156E166A14C0E6FF15C0E6FF16C0E6FFD2
:101DE000FD0EDBCFE6FFFE0EDBCFE6FFADEC20F015
:101DF000176E050EE15E1750F350E66EFB0EDBCF5B
:101E0000E9FFFC0EDBCFEAFFE552E750EF6E05017C
:101E1000009577D001A325D08C0E146E3F0E156E61
:101E2000166A14C0E6FF15C0E6FF16C0E6FFFD0EF9
:101E3000DBCFE6FFFE0EDBCFE6FFADEC20F0176E4A
:101E4000050EE15E1750F350E66EFB0EDBCFE9FFA7
:101E5000FC0EDBCFEAFFE552E750EF6E0501019380
:101E600050D000AF25D0800E146E3F0E156E166A4E
:101E700014C0E6FF15C0E6FF16C0E6FFFD0EDBCF7F
:101E8000E6FFFE0EDBCFE6FFADEC20F0176E050E91
:101E9000E15E1750F350E66EFB0EDBCFE9FFFC0E60
:101EA000DBCFEAFFE552E750EF6E0501009F29D036
:101EB00001A925D06E0E146E3F0E156E166A14C061
:101EC000E6FF15C0E6FF16C0E6FFFD0EDBCFE6FF1E
:101ED000FE0EDBCFE6FFADEC20F0176E050EE15EE7
:101EE0001750F350E66EFB0EDBCFE9FFFC0EDBCFA5
:101EF000EAFFE552E750EF6E0501019902D0000EAE
:0E1F000002D0010E00D0E552E7CFD9FF12004B
:021F0E00C3EC22
:101F100014F0FB0EDBCFF3FFDB06F35000090AE001
:101F200011EC15F0FA0E7CEC15F0F3E1151CF1E163
:101F3000010E01D0000EF2EF14F0C3EC14F03B0ED2
:101F4000E12402E3E168E652E16E010EDB6A020E73
:101F5000DB6AF90EDBCFF6FFFA0EDBCFF7FFFB0EE5
:101F6000DBCFF8FF0800F550DF6EDF5002E116EF1F
:101F700014F0250EDF5C02E009EF14F0030EDB6ABB
:101F8000040EDB6A050EDB6A060EDB6A070EDB6AEF
:101F90002BEC14F02D0EDF5C0CE02B0EDF5C09E067
:101FA000200EDF5C06E0230EDF5C03E0300EDF5C1A
:101FB0001AE1DF50300A14E0130A0FE0030A0AE0C6
:101FC0000B0A05E0060AE4E1030EDB80E1D7030E0D
:101FD000DB82DED7030EDB84DBD7030EDB86D8D7AC
:101FE000030EDB88D5D72A0EDF5C1BE127EC14F04B
:101FF00075EC14F010E0030EDB8006680768130E22
:10200000DBCF0BF0140EDBCF0CF086EC22F0040ECD
:1020100004C0DBFF03D0130E5EEC14F02BEC14F0C5
:102020000BD0090EDB6ACCEC14F003E040EC15F0A9
:10203000FAD7090E5EEC14F0030EDBB0DB982E0E1F
:10204000DF5C1BE12BEC14F02A0EDF5C0BE127ECCC
:1020500014F075EC14F003E1130EB0EC14F02BEC5B
:1020600014F00BD0090EDB6ACCEC14F003E040EC6A
:1020700015F0FAD7090EB0EC14F0680EDF5C07E13A
:102080002BEC14F0680EDF5C1DE1030E18D0740E0B
:10209000DF5C17E07A0EDF5C14E0480EDF5C06E0E0
:1020A000540EDF5C03E05A0EDF5C02E1020E07D043
:1020B0006C0EDF5C03E06A0EDF5C04E1010E03ECF2
:1020C00015F0C9DBDF506E0A01E17FD31E0A01E182
:1020D00092D1200A01E18FD13F0A01E149D11A0AC8
:1020E00001E146D10D0A01E143D1200A01E140D1CD
:1020F0003A0A01E13DD1200A01E13AD1260A01E183
:1021000035D10D0A01E132D11A0A01E1D9D0200AF4
:102110004AE0300A1FE0460A0EE0250A01E083D3B8
:10212000D950F90FE96EFF0EDA20EA6E010EEE5E6D
:10213000000EEE5AEE5A11EC15F0250EE66E95DB08
:1021400003E1151C01E169D30DEC15F001E26BD33D
:10215000DB2A69D3080EDB6A040EDB50010806E2B5
:10216000040EDB04D5EC14F0DB508BDB080EDB50E7
:1021700009E0030EDB50010B05E172DB01E04DD3FA
:10218000080EDB6A64DBEFCFDFFF85EC15F003E1BF
:10219000151C01E142D30DEC15F001E3DB2A60DBF5
:1021A00001E141D33AD3070EDB5002080FE151ECB5
:1021B00015F0030E18EC15F00E0EEECFDBFF0F0E30
:1021C000EECFDBFF100EEECFDBFF20D0F70EDBCF24
:1021D00017F0F80EDBCF18F0020E175E000E185A3B
:1021E000F70E17C0DBFFF80E18C0DBFF17C0E9FFC2
:1021F00018C0EAFF08EC15F0166A0E0E14C0DBFFDB
:102200000F0E15C0DBFF100E16C0DBFF0E0EDBCF6E
:10221000E6FF0F0EDBCFE6FF100EDBCFE6FF92EC02
:102220001FF0E552E552E552130E05C0DBFF140E18
:1022300006C0DBFF060EDB5005E0130E4CEC15F07C
:1022400001E26ADB70EC15F002E2130E37DB33ECCF
:1022500015F006E0040E4CEC15F002E2050E2EDB44
:10226000030EDBB005D0FCDA01E0D7D2080EDB6A42
:10227000090EDB6A0E0EDBCFF6FF0F0EDBCFF7FF8A
:10228000100EDBCFF8FF0800F550DF6EDF5014E0D2
:1022900076EC15F011E285EC15F003E1151C01E177
:1022A000BCD2BBDB01E3DB2A090EDB2AD9500E0FBF
:1022B000E96E000ECBDBE7D7D3DA01E1B4D2ADD2C1
:1022C000C6DA110EEECFDBFF120EEDCFDBFF110EE3
:1022D000DBCFE6FF120EDBCFE6FF84EC1FF0E5520A
:1022E000E552130EF3CFDBFF140EF4CFDBFF060E27
:1022F000DB5004E0130ED0DB01E20EDB70EC15F0D6
:1023000002E2130EDBDAAFDB05E0040EC5DB02E20E
:10231000050ED4DA030EDBB005D0A2DA01E07DD2DF
:10232000080EDB6A090EDB6A110EDBCFE9FF120E25
:10233000DBCFEAFFEFCFDFFFDF5014E0D7DB12E2A5
:10234000E4DB03E1151C01E168D267DB01E3DB2A72
:10235000090EDB2A110EDB2ADBCFE9FF120EE8E3C0
:10236000DB2AE6D77DDA01E15ED257D2030EDB8E9F
:10237000070EDB0410E195DB040E5ADB0A0EEECFEC
:10238000DBFF0B0EEECFDBFF0C0EEECFDBFF0D0EF7
:10239000EECFDBFF6CD0070EDB5003082CE1030E01
:1023A000DBAE0DD0B2DA020E76DAEFCF14F0156A9A
:1023B000166A176A14AE39D01568166835D0F70E4C
:1023C000DBCF15F0F80EDBCF16F0020E155E000E17
:1023D000165AF70E15C0DBFFF80E16C0DBFF15C04E
:1023E000E9FF16C0EAFFEFCF14F00A0E14C0DBFFBE
:1023F0000B0EDB6A38D0070EDB50020809E1030E32
:10240000DBAE04D059DB16AE10D00ED055DB0DD0AC
:10241000030EDBAE12D079DA020E3DDAF9DA166A73
:10242000176A15AE02D016681768E2DA0C0E16C0ED
:10243000DBFF0D0E17C0DBFF1AD0F70EDBCF16F057
:10244000F80EDBCF17F0020E165E000E175AF70ECD
:1024500016C0DBFFF80E17C0DBFF16C0E9FF17C080
:10246000EAFFD6DAC5DA0C0EDB6A0D0EDB6A060E61
:10247000DB5005E1010EF36E050EF3CFDBFF150E09
:10248000DB6A160EDB6AD950370F146E000EDA20A5
:10249000156E390E14C0DBFF3A0E15C0DBFF380E87
:1024A000DB6A080EDB6A0A0EAEDADF50780A12E049
:1024B000200A10E0280A0CE0200A0AE03F0A06E0A1
:1024C0000D0A02E0200A08E1020E05D0080E03D032
:1024D000080EDF26100E97DA030EDBBE02D0DB9269
:1024E000DB94DB50800B24E08ADAD890030EEB50AB
:1024F000000A08E6000EEE5C000EEE58000EEE58E4
:10250000000EEE5815E213DA09680A680B680C68C9
:102510004EEC22F00A0E00C0DBFF0B0E01C0DBFF09
:102520000C0E02C0DBFF0D0E03C0DBFF2D0E08D02A
:10253000030EDBA202D02B0E03D0DBA408D0200EAA
:10254000F36E170EF3CFDBFF150EDB2A02D0170E4A
:10255000DB6A050EDB5003E1B7D901E189D0880EB3
:10256000146E470E156E000E166E070EDBCF17F0B9
:10257000186A196A1A6A17C009F018C00AF019C057
:102580000BF01AC00CF0D3D9B3EC22F01450002495
:10259000F36E15500120F46E16500220F86EF4CF41
:1025A000F7FFF3CFF6FF0800090EF5CFDBFF580E5B
:1025B000DF5C0FE1610EF36E090E7BD90AE3200E9A
:1025C000146E090EDBCFE7FF1450E75E090EE7CF6C
:1025D000DBFF070EDBCF14F0156A166A176A0FDAF5
:1025E00014C009F015C00AF016C00BF017C00CF0AB
:1025F000EECF04F0EECF05F0EECF06F0EFCF07F010
:10260000B3EC22F007C0EDFF06C0EDFF05C0EDFF03
:1026100004C0EFFF390EDBCFE9FFDB063A0EDBCF5C
:10262000EAFF01E2DB06090EDBCFEFFF150EDB2A26
:102630004BD995E1030EDBA61DD06F0EDF5C06E1E2
:10264000C1D918E3150EDB285BDA14D0780EDF5CF5
:1026500009E0580EDF5C06E0620EDF5C03E0420E2C
:10266000DF5C08E1020EF36E160EF3CFDBFF02D043
:10267000150EDB6A030EDB50100B0EE0040EDBCFF1
:1026800014F0050EDB50D880145406E2060EDB5021
:1026900003E1040EDB5034DA95D90AE2050EDBCFF4
:1026A000E7FF150EDB50E75E050EE7CFDBFF02D03C
:1026B000050EDB6A040EDBCF14F0160E45D9D88068
:1026C000145414E2160EDBCFE6FF150EDBCFE6FF47
:1026D000040EDBCFE6FF050EDB50E552E75CE5526A
:1026E000D880E754E552D880E7545FD9030EDB5019
:1026F000010B0BE1080EDB5008E0B2D801E08DD0F1
:10270000080EDB50BED8080EDB6A170EDB5007E060
:1027100088D9170EF1D903E1151C01E17ED0160E00
:10272000DB5016E07ED9300EE66E9FD802E1151C14
:1027300074E077D9DFCFE6FF97EC21F0E552E55260
:10274000E552F4CF15F00001F31C02E1151C65E021
:10275000050EDBCF14F0160EDB50D880145409E2BE
:10276000050EDBCFE7FF160EDB50E75E050EE7CF69
:10277000DBFF300EE66E050ECBD94FE1390EDB2ABA
:10278000DBCFE9FF3A0E01E3DB2ADBCFEAFF090EDC
:10279000EFCFDBFFDB500EE044D9090EADD902E1EB
:1027A000151C3BE0390EDB2ADBCFE9FF3A0EEDE3E7
:1027B000DB2AEBD755D831E1160EDBCFE6FF080E4A
:1027C000C3D8E552E7245DD82ED0070EDB50030AAC
:1027D0001CE0010A14E0030A07E07BD9DBCFEEFF1F
:1027E000020EDBCFEDFF1FD0F5D8196A17AE02D06D
:1027F000186819682CD8BCD819C0EEFF14D0EAD8D4
:1028000017BE186824D8B4D80ED063D9DBCFEFFF39
:102810000AD07BD905E1151C03E1F368F46810D0F8
:10282000FCD801E3DB2A79D9B2EF0FF0010EDBCF40
:1028300014F0020EDBCF15F014C0F3FF15C0F4FF47
:102840003B0EE15C02E2E16AE552E16ECBD029D9B0
:10285000020E18EF15F061D90800F550DF6E120076
:10286000200EE66E080E88EF15F097EC21F0E55289
:10287000E552E552F3CF14F0F4CF15F00001F31C4C
:102880001200146E156AD950010F4DD91450EE265E
:102890001550ED221200185E000E195AF70E18C0DE
:1028A000DBFFF80E19C0DBFF18C0E9FF19C0EAFF13
:1028B0001200DBCFF4FFF350F45C1200DB50E76E44
:1028C000040EE7CFDBFF12000A0EDBCF14F00B0E75
:1028D000DBCF15F00C0EDBCF16F00D0EDBCF17F0B3
:1028E00014501510161017101200130EEECFDBFF48
:1028F000140EEDCFDBFF130EDBCF14F0140EDBCF85
:1029000015F00001800E15141200F70EDBCF18F041
:10291000F80EDBCF19F01200050EDB50E66ED95031
:10292000130F01D9E552E750EE6EED6A12000A0E60
:10293000DBCF04F00B0EDBCF05F00C0EDBCF06F087
:102940000D0EDBCF07F01200DBCFE6FF150EDBCF5D
:10295000E6FF050EDB50E552E724E552E7241200BE
:10296000DB50CED8010EF36E060EF3CFDBFF120064
:10297000EE50EFCFEAFFE96E16C0EEFF17C0EEFF94
:1029800018C0EEFF1200D9CFE6FFDACFE6FFE1CFA5
:10299000D9FFE2CFDAFF1200DFCFE6FFE66A64EC90
:1029A00023F0E552E552F3501200E76E080EE7CF30
:1029B000DBFF1200EECF14F0EECF15F0EFCF16F0E4
:1029C000176A1200050EDBCF14F0150EDB50D8800D
:1029D00014541200010EDBCF16F0020EDBCF17F0FD
:1029E000186A1200E552E5CFDAFFE7CFD9FF1200EF
:1029F0000A0E14C0DBFF0B0E15C0DBFF1200D9500E
:102A00000A0F93EF15F0F36E070EF3CFDBFF120002
:102A1000EECF14F0EFCF15F01200010EDB2A020EFC
:102A20001200FC0EDBCFE6FFFD0EDBCFE6FF12004F
:102A3000145E000E155AF70E14C0DBFFF80E15C019
:102A4000DBFF14C0E9FF15C0EAFF1200DA20EA6ECE
:102A5000EF2AEECFF6FF000EEF22EECFF7FFEF22C8
:102A6000EECFF8FF1200040EDBCFE6FF130EDB50B3
:102A7000E552E75C9ADFDB5004DF060EDB50120004
:102A8000090EDB500A0DF350DF24D00FE76E090E5C
:102A9000E7CFDBFF2BEF14F0DB50F36E050E59EFA1
:102AA00014F0F70EDBCF14F0F80EDBCF15F01200A8
:102AB000DFCFE6FF35EF14F028DF030EECDEDAEFB0
:102AC00014F087EC0FF0E552E552E552E5520009AB
:102AD0001200BDDEEE50EFCFEAFFE96E010E1200EC
:102AE000130EDB50F36E040E59EF14F0040EDB509E
:102AF000F36E090E59EF14F0DBCFE6FF35EF14F05B
:102B0000E76E050EE7CFDBFF12008BDF58EF15F005
:102B1000DBCFE6FF86DF61EF15F0D950F90FE96EE4
:102B2000FF0E26EF15F0E96E000EDA20EA6E1200B5
:102B3000D9CFE6FFE1CFD9FF0B0187918783896B5E
:102B40008A6B8B6B8C6B8D6B8E6B87958787879968
:102B5000879B8F6B906B916B926BFE0EDBCF93FB21
:102B6000CC0EE66E87EC23F0E5529D989D9AE552D7
:102B7000E7CFD9FF1200D9CFE6FFE1CFD9FF0B0194
:102B800088918883946B956B966B976B986B996B18
:102B9000889588878899889B9A6B9B6B9C6B9D6BAB
:102BA000FE0EDBCF93FBCC0EE66E76EC23F0E55207
:102BB000A398A39AE552E7CFD9FF1200D9CFE6FF39
:102BC000E1CFD9FF0B0187A102D0000E21D0000E6A
:102BD0008B25E96E0A0E8C21EA6EFE0EDBCFEFFF2D
:102BE0008793892B000E8A235E0E891902E1010E5C
:102BF0008A1901E187818B2B000E8C235E0E8B19C5
:102C000002E1010E8C1902E18B6B8C6B010E00D07E
:102C1000E552E7CFD9FF1200D9CFE6FFE1CFD9FFC8
:102C20000B0188A102D0000E1FD0680E9625E96E18
:102C30000B0E9721EA6EFE0EDBCFEFFF8893942BED
:102C4000000E95231E0E941901E1955101E1888132
:102C5000962B000E97231E0E961901E1975102E163
:102C6000966B976B010E00D0E552E7CFD9FF1200AB
:102C7000D9CFE6FFE1CFD9FF020EE12604D9F3CF89
:102C800014F0F4CF15F0FB0EDBCF16F0FC0EDBCF0B
:102C900017F01650145C1750155802E2000E2CD095
:102CA000DE6ADD6ADECF14F0DDCF15F0FB0EDBCF80
:102CB00016F0FC0EDBCF17F01650145C17501558A9
:102CC00019E2FD0EDBCF14F0FE0EDBCF15F0DE5067
:102CD0001424E96EDD501520EA6EEF50E66E6EDFCB
:102CE000E552000902E1000E07D0DF2A010E01E3E0
:102CF000DB2AD8D7010E00D0146E020EE15C02E28E
:102D0000E16AE552E16E1450E552E7CFD9FF1200B7
:102D1000D9CFE6FFE1CFD9FF020EE126CDD8F3CF20
:102D200014F0F4CF15F0FB0EDBCF16F0FC0EDBCF6A
:102D300017F01650145C1750155802E2000E2CD0F4
:102D4000DE6ADD6ADECF14F0DDCF15F0FB0EDBCFDF
:102D500016F0FC0EDBCF17F01650145C1750155808
:102D600019E2FD0EDBCF14F0FE0EDBCF15F0DE50C6
:102D70001424E96EDD501520EA6EEF50E66E4CDF4C
:102D8000E552000902E1000E07D0DF2A010E01E33F
:102D9000DB2AD8D7010E00D0146E020EE15C02E2ED
:102DA000E16AE552E16E1450E552E7CFD9FF120017
:102DB0000B0187B332D09EA8FED7000000000B01A4
:102DC000935101E08C88000E0B018D25E96E0A0EEF
:102DD0000B018E21EA6EEF50E66E4DEC23F0E552CA
:102DE0000B0187A102D00B0187910B018907000E0F
:102DF0008A5B0B0189518A1102E10B0187830B0168
:102E00008D2B000E8E235E0E0B018D1902E1010E3B
:102E10008E1903E10B018D6B8E6B12000B0188B3D1
:102E200031D0A4A8FED7000000000B019E5101E0A4
:102E30008C88680E0B019825E96E0B0E0B01992109
:102E4000EA6EEF50E66E36EC23F0E5520B0188A1F6
:102E500002D00B0188910B019407000E955B0B01CA
:102E60009451951102E10B0188830B01982B000E00
:102E700099230B011E0E981901E1995103E10B01F1
:102E8000986B996B12000B015E0E895D010E8A59D9
:102E90000FE289CB14F08ACB15F05E0ED880145661
:102EA000010E155614C0F3FF15C0F4FF04D003D073
:102EB000F36AF46A00D012000B011E0E945D000E3E
:102EC00095590FE294CB14F095CB15F01E0ED880D7
:102ED0001456000E155614C0F3FF15C0F4FF04D0AD
:102EE00003D0F36AF46A00D01200D9CFE6FFE1CF35
:102EF000D9FFE6529EBA02D0000E4ED0ABA20CD043
:102F00000B01878917EC23F0DF6E0000000017EC3F
:102F100023F0DF6EAB98AB880B0187B539D017EC87
:102F200023F0DF6EABA404D00B01878B000E34D0EE
:102F30000B01935105E08C50100B02E0000E2CD0D9
:102F40000B0187990B0187975E0E0B019125E96EA6
:102F50000B0E0B019221EA6EDFCFEFFF0B018F2BDF
:102F6000000E90230B010A0E8F1901E1905102E12E
:102F70000B0187850B01912B000E92230B010A0E8A
:102F8000911901E1925103E10B01916B926B02D017
:102F9000000E02D0010E00D0E552E552E7CFD9FF76
:102FA0001200D9CFE6FFE1CFD9FFE652A4BA02D092
:102FB000000E50D0A6A20CD00B018889F8EC22F0AC
:102FC000DF6E00000000F8EC22F0DF6EA698A68805
:102FD0000B0188B539D0F8EC22F0DF6EA6A404D03E
:102FE0000B01888B000E36D00B019E5105E08C50F2
:102FF000200B02E0000E2ED00B0188990B01889760
:10300000860E0B019C25E96E0B0E0B019D21EA6ECD
:10301000DFCFEFFF0B019A2B000E9B230B01010E5C
:103020009A1901E19B5102E10B0188850B019C2B50
:10303000000E9D230B01010E9C1901E19D5103E13E
:103040000B019C6B9D6B04D00B018889000E02D094
:10305000010E00D0E552E552E7CFD9FF1200D9CFDB
:10306000E6FFE1CFD9FF0B0187A702D0000E28D0E1
:1030700087955E0E0E013825E96E0B0E3921EA6E3A
:10308000EF50E66EFD0EDBCFE9FFFE0EDBCFEAFF71
:10309000E552E750EF6E0B018F07000E905B8F51EA
:1030A000901101E187870E01382B000E39230A0E9B
:1030B000381901E1395102E1386B396B010E00D04A
:1030C000E552E7CFD9FF1200D9CFE6FFE1CFD9FF14
:1030D0000B0188A702D0000E28D08895860E0E011D
:1030E0003A25E96E0B0E3B21EA6EEF50E66EFD0EBF
:1030F000DBCFE9FFFE0EDBCFEAFFE552E750EF6ED4
:103100000B019A07000E9B5B9A519B1101E1888786
:103110000E013A2B000E3B23010E3A1901E13B51FF
:1031200002E13A6B3B6B010E00D0E552E7CFD9FFCD
:1031300012000B018F5100D012000B019A5100D0E8
:103140001200D9CFE6FFE1CFD9FF050EE126FA0E36
:10315000DBCF04F0056A066A076A400E096E420E6C
:103160000A6E0F0E0B6E0C6A4EEC22F000C0DEFFF2
:1031700001C0DEFF02C0DEFF03C0DDFFDD52DD5215
:10318000030EF36E040EF3CFDBFFDB50030A01E105
:1031900083D0020A44E0030A42E0020A03E0F36833
:1031A000F46AB8D0D9CFE9FFDACFEAFFEECF18F052
:1031B000EECF19F0EECF1AF0EFCF1BF018C004F0ED
:1031C00019C005F01AC006F01BC007F0FB0EDBCFDC
:1031D00009F0FC0EDBCF0AF0FD0EDBCF0BF0FE0E8C
:1031E000DBCF0CF0B3EC22F004C014F005C015F0F6
:1031F00006C016F007C017F0060ED8901732163228
:1032000015321432E806F9E11406000E155A165A62
:10321000175A14C0F3FF15C0F4FF7CD07BD0D9CF70
:10322000E9FFDACFEAFFEECF18F0EECF19F0EECFDC
:103230001AF0EFCF1BF018C004F019C005F01AC047
:1032400006F01BC007F0FB0EDBCF09F0FC0EDBCF56
:103250000AF0FD0EDBCF0BF0FE0EDBCF0CF0B3EC73
:1032600022F004C014F005C015F006C016F007C027
:1032700017F0040ED8901732163215321432E806C1
:10328000F9E11406000E155A165A175A14C0F3FF26
:1032900015C0F4FF3FD03ED0D9CFE9FFDACFEAFF27
:1032A000EECF18F0EECF19F0EECF1AF0EFCF1BF003
:1032B00018C004F019C005F01AC006F01BC007F0D2
:1032C000FB0EDBCF09F0FC0EDBCF0AF0FD0EDBCFEF
:1032D0000BF0FE0EDBCF0CF0B3EC22F004C014F0C8
:1032E00005C015F006C016F007C017F0020ED89002
:1032F0001732163215321432E806F9E11406000EC0
:10330000155A165A175A14C0F3FF15C0F4FF02D00D
:1033100001D000D0050EE15C02E2E16AE552E16E07
:10332000E552E7CFD9FF1200D9CFE6FFE1CFD9FFB1
:10333000050EE126FA0EDBCF04F0056A066A076A7D
:10334000400E096E420E0A6E0F0E0B6E0C6A4EECAA
:1033500022F000C0DEFF01C0DEFF02C0DEFF03C0BE
:10336000DDFFDD52DD52030EF36E040EF3CFDBFF03
:10337000DB50030A01E183D0020A44E0030A42E081
:10338000020A03E0F368F46AB8D0D9CFE9FFDACFD4
:10339000EAFFEECF18F0EECF19F0EECF1AF0EFCF34
:1033A0001BF018C004F019C005F01AC006F01BC0CD
:1033B00007F0FB0EDBCF09F0FC0EDBCF0AF0FD0EB1
:1033C000DBCF0BF0FE0EDBCF0CF0B3EC22F004C031
:1033D00014F005C015F006C016F007C017F0060E71
:1033E000D8901732163215321432E806F9E1140675
:1033F000000E155A165A175A14C0F3FF15C0F4FFE1
:103400007CD07BD0D9CFE9FFDACFEAFFEECF18F03E
:10341000EECF19F0EECF1AF0EFCF1BF018C004F08A
:1034200019C005F01AC006F01BC007F0FB0EDBCF79
:1034300009F0FC0EDBCF0AF0FD0EDBCF0BF0FE0E29
:10344000DBCF0CF0B3EC22F004C014F005C015F093
:1034500006C016F007C017F0040ED89017321632C7
:1034600015321432E806F9E11406000E155A165A00
:10347000175A14C0F3FF15C0F4FF3FD03ED0D9CF88
:10348000E9FFDACFEAFFEECF18F0EECF19F0EECF7A
:103490001AF0EFCF1BF018C004F019C005F01AC0E5
:1034A00006F01BC007F0FB0EDBCF09F0FC0EDBCFF4
:1034B0000AF0FD0EDBCF0BF0FE0EDBCF0CF0B3EC11
:1034C00022F004C014F005C015F006C016F007C0C5
:1034D00017F0020ED8901732163215321432E80661
:1034E000F9E11406000E155A165A175A14C0F3FFC4
:1034F00015C0F4FF02D001D000D0050EE15C02E25D
:10350000E16AE552E16EE552E7CFD9FF1200120001
:103510001200ACB28C981200BAB28C9A1200D9CFB9
:10352000E6FFE1CFD9FF0B0187A925D0580E146E15
:10353000400E156E166A14C0E6FF15C0E6FF16C0F1
:10354000E6FFFD0EDBCFE6FFFE0EDBCFE6FFADECC8
:1035500020F0176E050EE15E1750F350E66EFB0E7D
:10356000DBCFE9FFFC0EDBCFEAFFE552E750EF6E61
:103570000B01879929D087AB25D0450E146E400EDC
:10358000156E166A14C0E6FF15C0E6FF16C0E6FF0A
:10359000FD0EDBCFE6FFFE0EDBCFE6FFADEC20F04D
:1035A000176E050EE15E1750F350E66EFB0EDBCF93
:1035B000E9FFFC0EDBCFEAFFE552E750EF6E0B01AF
:1035C000879B02D0000E02D0010E00D0E552E7CF5B
:1035D000D9FF1200D9CFE6FFE1CFD9FF0B0188A9AF
:1035E00025D0580E146E400E156E166A14C0E6FFF4
:1035F00015C0E6FF16C0E6FFFD0EDBCFE6FFFE0EB0
:10360000DBCFE6FFADEC20F0176E050EE15E175044
:10361000F350E66EFB0EDBCFE9FFFC0EDBCFEAFFDB
:10362000E552E750EF6E0B01889929D088AB25D081
:10363000450E146E400E156E166A14C0E6FF15C0D6
:10364000E6FF16C0E6FFFD0EDBCFE6FFFE0EDBCF8A
:10365000E6FFADEC20F0176E050EE15E1750F3505B
:10366000E66EFB0EDBCFE9FFFC0EDBCFEAFFE55297
:10367000E750EF6E0B01889B02D0000E02D0010EC6
:0A36800000D0E552E7CFD9FF120099
:06368A00D9CFE6FFE1CFFD
:10369000D9FFE65294809482948494869488948A84
:1036A000968096820901010E356F870E336F0B0EDF
:1036B000346F800E2F6F250E306F316B326B2D6B98
:1036C0002E6B366B949C948E959C958E350502E1FD
:1036D000898004D0020E355D01E18A8A350503E157
:1036E0008994899A05D0020E355D02E18A988D94FD
:1036F000350505E1E66A98EC15F0E55204D0E66A76
:10370000BBEC15F0E552090135051DE1400EE66EF2
:10371000E66A960EE66EE66AE66AA1EC18F0166EA8
:10372000050EE15E1650F3CF14F0F4CF15F014C07F
:10373000E6FF15C0E6FF3C0EE66E15EC22F0E55202
:10374000E552E5521CD0400EE66EE66A960EE66E35
:10375000E66AE66A94EC19F0166E050EE15E165004
:10376000F3CF14F0F4CF15F014C0E6FF15C0E6FF58
:103770003C0EE66ED9EC21F0E552E552E552090126
:10378000350502E18A8A04D0020E355D01E18980A7
:10379000350503E18A988D9405D0020E355D02E16E
:1037A0008994899A350505E1E66ABBEC15F0E55286
:1037B00004D0E66A98EC15F0E552090135051DE1E3
:1037C000400EE66EE66A960EE66EE66AE66A94ECEF
:1037D00019F0166E050EE15E1650F3CF14F0F4CF1B
:1037E00015F014C0E6FF15C0E6FF3C0EE66ED9ECFE
:1037F00021F0E552E552E5521CD0400EE66EE66A35
:10380000960EE66EE66AE66AA1EC18F0166E050EF4
:10381000E15E1650F3CF14F0F4CF15F014C0E6FFBC
:1038200015C0E6FF3C0EE66E15EC22F0E552E552BF
:10383000E552170EE66E0E0EE66EE66AE66AE66A78
:1038400030EC09F0146E050EE15E1450000901E140
:103850000BD10901320E1D6F060E1E6F1F6B206B00
:10386000E66AE66AE66AE66AE66AE66A91EC00F00B
:10387000146E060EE15E1450E66AE66AE66AE66ACF
:10388000E66A010EE66E91EC00F0146E060EE15E43
:10389000145009012C6B2B6BDF6A100EDF5C0EE2FB
:1038A000DF50E840E840E8401F0BE66EDFCFE6FF60
:1038B0006AEC02F0E552E552DF2AEFD7E66A1DC94D
:1038C00014F01EC915F01FC916F020C917F0146AAC
:1038D0000F0E1516166A176A14C0E6FF15C0E6FF2C
:1038E00016C0E6FF17C0E6FFE66A91EC03F0186E1B
:1038F000060EE15E1850E66A1DC914F01EC915F0E7
:103900001FC916F020C917F0F00E14160F0E151669
:10391000166A176A14C0E6FF15C0E6FF16C0E6FF78
:1039200017C0E6FF010EE66E91EC03F0186E060E6E
:10393000E15E1850020EDF6E100EDF5C13E2E66AE5
:103940001DC9E6FF1EC9E6FF1FC9E6FF20C9E6FF45
:10395000DFCFE6FF91EC03F0146E060EE15E14502B
:10396000DF2AEAD7E66AE66A43EC01F0E552E5525F
:10397000010EE66EE66E43EC01F0E552E552020EF2
:10398000E66EE66E43EC01F0E552E552020EE66E9D
:10399000030EE66E43EC01F0E552E552030EE66ECF
:1039A000040EE66E43EC01F0E552E552030EE66EBE
:1039B000050EE66E43EC01F0E552E552040EE66EAC
:1039C000060EE66E43EC01F0E552E552040EE66E9B
:1039D000070EE66E43EC01F0E552E552050EE66E89
:1039E000080EE66E43EC01F0E552E552050EE66E78
:1039F000090EE66E43EC01F0E552E552060EE66E66
:103A00000A0EE66E43EC01F0E552E552060EE66E54
:103A10000B0EE66E43EC01F0E552E552070EE66E42
:103A20000C0EE66E43EC01F0E552E552070EE66E31
:103A30000D0EE66E43EC01F0E552E552020EE66E25
:103A40000E0EE66E43EC01F0E552E552030EE66E13
:103A50000F0EE66E43EC01F0E552E552E668E668CB
:103A6000FEEC00F0E552E5528386E552E552E7CFE1
:103A7000D9FF1200D9CFE6FFE1CFD9FFE65294D8A3
:103A800017EC0BF0000901E18C8409012D5107E1CD
:103A9000350503E1D8EC16F002D00EEC17F0FF0E5E
:103AA000E66E090EE66E9B0EE66E090EE66E1BECE8
:103AB0000EF0E552E552E552E552000921E08C8412
:103AC000090135050FE1FF51E66EE66A9B0EE66ED1
:103AD000090EE66E88EC16F0E552E552E552E55225
:103AE000DF6E0ED0FF51E66EE66A9B0EE66E090EA3
:103AF000E66E38EC16F0E552E552E552E552DF6E1F
:103B00000901350510E1FF0EE66E090EE66E9B0E0B
:103B1000E66E090EE66E8FEC1AF0E552E552E552BC
:103B2000E552DF6E0FD0FF0EE66E090EE66E9B0EBD
:103B3000E66E090EE66EEAEC1AF0E552E552E55241
:103B4000E552DF6EDF5021E08C84090135050FE17D
:103B5000FF51E66EE66A9B0EE66E090EE66E88EC95
:103B600016F0E552E552E552E552DF6E0ED0FF51F8
:103B7000E66EE66A9B0EE66E090EE66E38EC16F00F
:103B8000E552E552E552E552DF6E0901365107E193
:103B9000350503E10EEC17F002D0D8EC16F0E55233
:103BA000E552E7CFD9FF12000E012B51010A13E0B5
:103BB000010A01E018D0C2EC0BF00D0EE66E090E02
:103BC000E66E36EC0CF0E552E552000901E10BD04F
:103BD0000E012B2B08D0AA0EE66EDEEC15F0E55296
:103BE0000E012B6B00D01200D9CFE6FFE1CFD9FF39
:103BF000030EE126FE0EDB50020A42E0030A03E058
:103C0000FE0EDB6AAFD0640E146E090119510E016D
:103C10002D25145C03E28C842D6BA4D0020EDB6A8C
:103C200009011951F36E020EDBCFF4FFF350F45C7F
:103C300017E2020EDB50EA6A110FE96E090EEA2262
:103C4000EF50E66E0E012D51EA6A370FE96E090E4C
:103C5000EA22E552E750EF6E2D2B020EDB2AE0D769
:103C60000E012D05EA6A370FE96E090EEA22EF50C0
:103C70000D0803E1FE0EDB2A75D0FE0EDB6A72D062
:103C8000030EE66EE66A070EE66E0E0EE66E370E61
:103C9000E66E090EE66E30EC1FF0146E060EE15E65
:103CA0001450010EF3CFDBFF0901350508E1010EC9
:103CB000DBCFE6FFDEEC15F0E552DF6E07D0010E3C
:103CC000DBCFE6FF0CEC16F0E552DF6E010EDB50A9
:103CD00044E18C723C0E146E400E156E166A14C0D0
:103CE000E6FF15C0E6FF16C0E6FF210EE66E090EE0
:103CF000E66EADEC20F0176E050EE15E1750F3CFC7
:103D000029F9090135050FE12951E66EE66A210E10
:103D1000E66E090EE66E38EC16F0E552E552E55215
:103D2000E552DF6E0ED02951E66EE66A210EE66E90
:103D3000090EE66E88EC16F0E552E552E552E552C2
:103D4000DF6E1D0EE66E090EE66E2FEC0AF0E552F0
:103D5000E552000901E106D000D00E012D6BFE0EE8
:103D6000DB6A00D0FE0EDB50146E030EE15C03E252
:103D700000D0E16AE552E16E1450E552E7CFD9FF79
:103D80001200D9CFE6FFE1CFD9FF020EE126010EE6
:103D9000DB6AFE0EDB50020A45E0030A03E0FE0E7A
:103DA000DB6A4FD033C9E9FF34C9EAFFEF50080B93
:103DB0002FE1080EF36E010EDBCFF4FFF350F45C3D
:103DC00027E20901350511E1010EDB50156A210FCB
:103DD000146E090E152214C0E6FF15C0E6FF2FEC85
:103DE00018F0E552E552DF6E10D0010EDB50156A77
:103DF000210F146E090E152214C0E6FF15C0E6FF50
:103E000064EC18F0E552E552DF6E010EDB2ACAD7EA
:103E1000010EDB5006E0010EDBCF29F9FE0EDB2A96
:103E200001D00FD01D0EE66E090EE66E2FEC0AF0E3
:103E3000E552E552000901E104D08C70FE0EDB6A08
:103E400000D0FE0EDB50146E020EE15C03E200D0E7
:103E5000E16AE552E16E1450E552E7CFD9FF120056
:103E6000D9CFE6FFDACFE6FFFA0EE3CFD9FFFB0E9C
:103E7000E3CFDAFFFC0EE3CFE9FFFD0EE3CFEAFF6D
:103E8000F80EE35003E1F90EE35008E0F80EE30604
:103E900002E2F90EE306DE50EE5CF2E0F36EFF0E96
:103EA000E3CFDAFFE552FF0EE3CFD9FFE552F3503F
:103EB0001200D9CFE6FFDACFE6FFFA0EE3CFD9FF43
:103EC000FB0EE3CFDAFFFC0EE3CFE9FFFD0EE3CFFD
:103ED000EAFFE9CFF3FFEACFF4FFF80EE35003E186
:103EE000F90EE35008E0F80EE30602E2F90EE306ED
:103EF000DECFEEFFF2D7FF0EE3CFDAFFE552FF0E83
:103F0000E3CFD9FFE5521200FE0EE3CFE9FFFF0E2B
:103F1000E3CFEAFFF36AF46AEE5203E0F34AF42ACD
:103F2000FBD71200FF0EE3CFF8FFE552FF0EE3CF01
:103F3000F7FFE552FF0EE3CFF6FFE552E66AE66AC9
:103F4000E66A0900F55209E0FD0EE32A05E1FE0EDE
:103F5000E32A02E1FF0EE32AF4D7FD0EE3CF05F0DA
:0E3F6000FE0EE3CF06F0FF0EE3CF07F01200D7
:023F6E00496E9A
:103F700076616C69642063616E206D73670D0A0061
:103F800043616E204572726F720D0A0043414E20EC
:103F9000627566666572207278205761726E696E0E
:103FA000670D0A0043414E20627566666572207493
:103FB00078205761726E696E670D0A0043414E208A
:103FC000627566666572207278204275732D506145
:103FD00073736976650D0A0043414E20627566660B
:103FE0006572207478204275732D50617373697601
:103FF000650D0A0043414E20627566666572207445
:1040000078204275732D6F66660D0A0043414E207D
:10401000627566666572207278206F766572666C6E
:104020006F770D0A0043616E20496E76616C69649A
:104030002062617564726174650D0A007365722097
:10404000333535350055617274204672616D6520D7
:104050006572726F720D0A0055617274204F766539
:074060007272756E0D0A007B
:08406800DACFE4FFE2CFDAFF3A
:10407000E9CFE4FFEACFE4FFF6CFE4FFF7CFE4FFB8
:10408000F5CFE4FFF3CFE4FFF4CFE4FFFACFE4FF92
:1040900000EE00F0140EE80403E3EECFE4FFFBD7DC
:1040A00000EE14F0080EE80403E3EECFE4FFFBD7C4
:1040B000E652D9CFE6FFE1CFD9FF100EE126F2B2EA
:1040C000F29227EC0DF00901350503E187EC1AF0B7
:1040D00002D088EC1AF088EC1AF0100EE15C02E2D3
:1040E000E16AE552E16EE552E7CFD9FFE55200EE15
:1040F0001BF0080EE80403E3E5CFEDFFFBD700EE6D
:1041000013F0140EE80403E3E5CFEDFFFBD7E5CF92
:10411000FAFFE5CFF4FFE5CFF3FFE5CFF5FFE5CFFD
:10412000F7FFE5CFF6FFE5CFEAFFE5CFE9FFE5CF03
:10413000DAFF1100D8CFE4FFE0CFE4FFE46EDACF7E
:10414000E4FFE2CFDAFFE652E552E5CFDAFFE550D1
:0A415000E5CFE0FFE5CFD8FF100037
:06415A00D9CFE6FFDACF29
:10416000E6FFE1CFD9FFE2CFDAFFE652E652E652B0
:10417000E652D950F90F146EFF0EDA20156E020EBA
:1041800014C0DBFF030E15C0DBFF020EDBCFE6FF22
:10419000030EDBCFE6FFF90EDBCFE6FFFA0EDBCF37
:1041A000E6FFFB0EDBCFE6FFD950FC0FE66EFF0EFD
:1041B000DA20E66E9DEC0FF0146E070EE15C02E271
:1041C000E16AE552E16E1450F3CFDEFFF4CFDDFF7C
:1041D000FC0EDBCFE9FFFD0EDBCFEAFFEF6ADECF9F
:1041E00014F0DDCF15F014C0F3FF15C0F4FF040E7A
:1041F000E15C02E2E16AE552E16EE552E5CFDAFF09
:06420000E7CFD9FF120018
:0A4206001E0EF66E000EF76E000E9D
:10421000F86E0E010900F550336F0900F550346F48
:1042200003E1336701D03DD00900F5502E6F09003E
:10423000F5502F6F0900F550306F09000900F55057
:10424000E96E0900F550EA6E090009000900F55011
:10425000316F0900F550326F09000900F6CF35FEC5
:10426000F7CF36FEF8CF37FE2ECEF6FF2FCEF7FF74
:1042700030CEF8FF0E01315302E1325307E009005E
:10428000F550EE6E3107F8E23207F9D735CEF6FF7A
:1042900036CEF7FF37CEF8FF0E013307000E345B42
:0442A000BFD7120072
:0C42A4000FD845EC1BF0D59CD59AD66ACB
:1042B000D76AF19CF288F292F28CF28E3AEC1DF001
:1042C000FDD712000F015D6B5C6B926A936A946A72
:1042D000956A966A926A936A946A956A966A9590C4
:1042E000959295948C908C928C94938094809482E7
:1042F000948494869488948A9680968292909292DE
:104300009294929A939A93929398969489828A829D
:104310008994899A8A988D94899A8D9489908A9A99
:0E4320009598959A8C988C9A95968C8612009A
:02432E00D9CFE5
:10433000E6FFDACFE6FFE1CFD9FFE2CFDAFFFB0EEF
:10434000DBCF14F0FC0EDBCF15F00001800E15144E
:104350001AE1FB0EDBCFE9FFFC0EDBCFEAFFEECF6D
:10436000F3FFEDCFF4FFEE2A000EEF22F3CFE9FFCB
:10437000F4CFEAFFFD0EDBCFEFFFEF50156AF36ECF
:1043800015C0F4FF10D0FB0EDB50FE0806E1FD0E59
:10439000DBCFE6FFB6EC23F005D0FD0EDBCFE6FF6A
:1043A00003EC00F0E552E552E5CFDAFFE7CFD9FFA5
:0243B0001200F9
:0E43B200D9CFE6FFDACFE6FFE1CFD9FFE2CFA9
:1043C000DAFFBA6AA66AFD0EDBB0BA88DBA202D0B9
:1043D000BA8CA68CDBB4BA8EDBA602D0A68801D03C
:1043E000A68ADBA802D0BA8401D0BA94DBBAA6862A
:1043F000DBAC02D0A38A01D0A39ADBAE02D0A388A3
:1044000001D0A398FB0EDB507B6EFC0EDBCF15F0CA
:1044100015C014F0156A14507C6EBA8AA68EE55247
:0A442000E5CFDAFFE7CFD9FF120065
:06442A00D9CFE6FFDACF56
:10443000E6FFE1CFD9FFE2CFDAFFAC6AAB6AFD0E4F
:10444000DBB0AC88DBA202D0AC8CAB8CDBB4AC8E26
:10445000DBA602D0AB8801D0AB8ADBB8AC84DBBA78
:10446000AB86DBAC02D09D8A01D09D9ADBAE02D038
:104470009D8801D09D98FB0EDB50AF6EFC0EDBCF0C
:1044800015F015C014F0156A14507D6EAC8AAB8E11
:0C449000E552E5CFDAFFE7CFD9FF1200BC
:04449C0004500902BD
:1044A000F3CF00F0F4CF01F00A02F3500126000E22
:1044B000F420026E04500B02F3500226000EF4208A
:1044C000036E04500C02F350032605500902F3500A
:1044D0000126F4500222000E032205500A02F35076
:1044E0000226F450032205500B02F3500326065017
:1044F0000902F3500226F450032206500A02F35038
:0C450000032607500902F35003261200A6
:04450C0007C013F0E1
:1045100006C012F006500B02F4CF05F0F3CF04F002
:1045200007500C02F4CF07F0F3CF06F00B02F35064
:104530000526F4500622E86A072212500C02F350B6
:104540000526F4500622E86A07220CAEACEF22F0F2
:104550001250065E1350075A13AE000C0B50065E45
:064560000C50075A000C8C
:0A456600036A026A016A006A200E6F
:10457000E76ED89004360536063607360036013623
:10458000023603360950005C0A5001580B5002589D
:104590000C50035809E30950005E0A50015A0B50B1
:0E45A000025A0C50035A042AE72EE4D71200E8
:0245AE00E00E1D
:1045B000E40EE80EEC0EF00EF40E480E4C0E500E0B
:1045C000540E580E5C0E600E640E680E6C0E600F7A
:1045D000300F800E900EA00EB00EC00ED00E200F29
:1045E000100F000F800E900EA00EB00EC00ED00E59
:1045F000D9CFE6FFDACFE6FFE1CFD9FFE2CFDAFF8E
:10460000E652F20E0E013F17A6AC03D03F91A6B0C2
:104610003F81A6B43F85A6B23F877A50DF6EDF5058
:0E462000E552E552E5CFDAFFE7CFD9FF1200F1
:02462E00D9CFE2
:10463000E6FFDACFE6FFE1CFD9FFE2CFDAFFE652BD
:10464000F20E0E014017ABAC03D04091ABB04081ED
:10465000ABB44085ABB24087AE50DF6EDF50E55261
:0C466000E552E5CFDAFFE7CFD9FF1200EA
:04466C00D9CFE6FFBD
:10467000DACFE6FFE1CFD9FFE2CFDAFFBAAC04D060
:10468000BA900E013FB3BA80FD0EDB50796EE55251
:0A469000E5CFDAFFE7CFD9FF1200F3
:06469A00D9CFE6FFDACFE4
:1046A000E6FFE1CFD9FFE2CFDAFFACAC04D0AC90AB
:1046B0000E0140B3AC80FD0EDB50AD6EE552E5CF90
:0846C000DAFFE7CFD9FF120079
:0846C800F36AF46AFF0EE1241D
:1046D000E96EFF0EE220EA6EED6607D02F0EEF6462
:0C46E00004D03A0EEF6001D0F32A120063
:0446EC00D9CFE6FF3D
:1046F000DACFE6FFE1CFD9FFE2CFDAFFFD0EDB50E4
:0E470000B96EE552E5CFDAFFE7CFD9FF120020
:02470E00D9CF01
:10471000E6FFDACFE6FFE1CFD9FFE2CFDAFFFD0E09
:10472000DB50A76EE552E5CFDAFFE7CFD9FF1200E5
:10473000410EF36E00EE00F00E0E01D81200EA609A
:1047400002D0EE6AFCD7F350E9601200EE6AFCD7A3
:104750001DEE00F02DEE00F0F86A0F9C03EC21F046
:0C47600007EC00F052EC21F0FBD7120037
:04476C00FF0EE35009
:10477000ACBA04D0AF6AAB8EAC8A949CACA2FED724
:08478000AD6EF36EF46A120045
:0847880030313233343536378D
:094790003839616263646566005A
:074799002163733030300092
:1047A00073657200736168003F6373007361730027
:1047B00001040102030203020207040306060404C3
:0747C0000107070F000000D4
:020000040030CA
:0100000015EA
:0100010012EC
:010002001FDE
:010003000CF0
:010005008971
:010006008178
:010008000FE8
:01000900C036
:01000A000FE6
:01000B00E014
:01000C000FE4
:01000D0040B2
:00000001FF
