:020000040000FA
:0600000028EF32F01200AF
:020006001200E6
:06000800DEEF2DF01200F6
:02000E001200DE
:0400100000000000EC
:03001400090300DD
:0600180044EF2EF012007F
:02001E000300DD
:10002000140000002D0E0000030000009964000081
:10003000870B00001E00000010000000FB00000005
:0400400004000000B8
:0C004400D9CFE6FFE1CFD9FFE65294804F
:100050009482948494869488948A968096821F0EC3
:1000600082140001806F8250200B01E0010E010F0D
:10007000816F81050FE1A50E896F0B0E8A6F800ECF
:10008000856F250E866F876B886B836B846B800E04
:100090008B6F0FD0A60E896F0B0E8A6F800E856F47
:1000A000250E866F876B886B800E836F400E846F82
:1000B0008B6B949C948E959C958E8051100A01E1D7
:1000C000D4D0010A01E1D1D01C0A72E00D0A11E07E
:1000D000040A0FE0010A0DE00D0A0BE0010A09E035
:1000E000030A07E0010A05E0070A03E0020A01E04B
:1000F000FFD1810502E1898004D0020E815D01E11A
:100100008A8A810503E18994899A05D0020E815D6E
:1001100002E18A988D94810505E1E66A30EC28F0C9
:10012000E55204D0E66A53EC28F0E552000181055F
:100130001EE1400EE66E800EE66E250EE66EE66A65
:10014000E66A2CEC2BF0166E050EE15E1650F3CF2E
:1001500014F0F4CF15F014C0E6FF15C0E6FF3C0E16
:10016000E66E95EC30F0E552E552E5521DD0400EBA
:10017000E66E800EE66E250EE66EE66AE66A1FEC17
:100180002CF0166E050EE15E1650F3CF14F0F4CF8E
:1001900015F014C0E6FF15C0E6FFFC0EE66E59EC44
:1001A00030F0E552E552E5520001010E826FA0D118
:1001B000810502E1898004D0020E815D01E18A8A15
:1001C000810503E18994899A05D0020E815D02E1DF
:1001D0008A988D94810505E1E66A30EC28F0E552B5
:1001E00004D0E66A53EC28F0E552000181051DE1D8
:1001F000400EE66EE66A960EE66EE66AE66A2CEC5D
:100200002BF0166E050EE15E1650F3CF14F0F4CF0E
:1002100015F014C0E6FF15C0E6FF3C0EE66E95EC47
:1002200030F0E552E552E5521CD0400EE66EE66A2B
:10023000960EE66EE66AE66A1FEC2CF0166E050E68
:10024000E15E1650F3CF14F0F4CF15F014C0E6FFC2
:1002500015C0E6FFFC0EE66E59EC30F0E552E552B3
:10026000E5520001010E826F43D18450020B01E080
:10027000010E146E8450010BE8241424826F825105
:10028000030A01E1D2D0010A6EE0030A0CE0010A80
:1002900001E02DD1810502E1899004D0020E815D3B
:1002A00001E18A9A24D1810502E1898004D0020EFD
:1002B000815D01E18A8A810503E18994899A05D0EB
:1002C000020E815D02E18A988D94810505E1E66A5E
:1002D00030EC28F0E55204D0E66A53EC28F0E55201
:1002E0000001810520E1400EE66E85C0E6FF86C074
:1002F000E6FF87C0E6FF88C0E6FF2CEC2BF0166E09
:10030000050EE15E1650F3CF14F0F4CF15F014C0D3
:10031000E6FF15C0E6FF3C0EE66E95EC30F0E552C8
:10032000E552E5521FD0400EE66E85C0E6FF86C05E
:10033000E6FF87C0E6FF88C0E6FF1FEC2CF0166ED4
:10034000050EE15E1650F3CF14F0F4CF15F014C093
:10035000E6FF15C0E6FFFC0EE66E59EC30F0E55204
:10036000E552E552C4D0810502E1898004D0020E35
:10037000815D01E18A8A810503E18984898A05D04A
:10038000020E815D02E18A888D84810506E1010EFD
:10039000E66E30EC28F0E55205D0010EE66E53EC27
:1003A00028F0E5520001810520E1400EE66E85C08F
:1003B000E6FF86C0E6FF87C0E6FF88C0E6FF2CECBC
:1003C0002BF0166E050EE15E1650F3CF14F0F4CF4D
:1003D00015F014C0E6FF15C0E6FF3C0EE66E95EC86
:1003E00030F0E552E552E5521FD0400EE66E85C072
:1003F000E6FF86C0E6FF87C0E6FF88C0E6FF1FEC89
:100400002CF0166E050EE15E1650F3CF14F0F4CF0B
:1004100015F014C0E6FF15C0E6FFFC0EE66E59ECC1
:1004200030F0E552E552E55262D0810502E1898063
:1004300004D0020E815D01E18A8A810504E189848C
:10044000899A8C8806D0020E815D03E18A888D949A
:100450008C8A810505E1E66A30EC28F0E55204D08B
:10046000E66A53EC28F0E5520001810520E1400ED8
:10047000E66E85C0E6FF86C0E6FF87C0E6FF88C05F
:10048000E6FF2CEC2BF0166E050EE15E1650F3CF56
:1004900014F0F4CF15F014C0E6FF15C0E6FF3C0ED3
:1004A000E66E95EC30F0E552E552E5521FD0400E75
:1004B000E66E85C0E6FF86C0E6FF87C0E6FF88C01F
:1004C000E6FF1FEC2CF0166E050EE15E1650F3CF22
:1004D00014F0F4CF15F014C0E6FF15C0E6FFFC0ED3
:1004E000E66E59EC30F0E552E552E55200D000D00E
:1004F0000001810502E18A8A04D0020E815D01E1DA
:100500008980810503E18A988D9405D0020E815D72
:1005100002E18994899A810505E1E66A53EC28F0A5
:10052000E55204D0E66A30EC28F0E552000181057E
:100530001DE1400EE66EE66A960EE66EE66AE66A33
:100540001FEC2CF0166E050EE15E1650F3CF14F082
:10055000F4CF15F014C0E6FF15C0E6FFFC0EE66E02
:1005600059EC30F0E552E552E5521CD0400EE66EF3
:10057000E66A960EE66EE66AE66A2CEC2BF0166EDC
:10058000050EE15E1650F3CF14F0F4CF15F014C051
:10059000E6FF15C0E6FF3C0EE66E95EC30F0E55246
:1005A000E552E552870EE66E0B0EE66EE66AE66AE7
:1005B000200EE66EB9EC1BF0146E050EE15E1450D1
:1005C000000901E12FD180C0E6FFC3EC07F0E5523E
:1005D000F3CF70F0F4CF71F00001726B736B100EFB
:1005E000805D1AE1E66AE66AE66AE66AE66AE66A53
:1005F0001AEC13F0146E060EE15E1450E66AE66A19
:10060000E66AE66AE66A010EE66E1AEC13F0146E0C
:10061000060EE15E14501BD0E66AE668070EE66E31
:10062000E66AE66AE66A1AEC13F0146E060EE15EFC
:100630001450E66AE668070EE66EE66AE66A010EA0
:10064000E66E1AEC13F0146E060EE15E1450000113
:100650007F6B7E6BDF6A100EDF5C0EE2DF50E840DE
:10066000E840E8401F0BE66EDFCFE6FFF3EC14F046
:10067000E552E552DF2AEFD7E66A70C014F071C088
:1006800015F072C016F073C017F0146A0F0E15162D
:10069000166A176A14C0E6FF15C0E6FF16C0E6FF2B
:1006A00017C0E6FFE66A1AEC16F0186E060EE15E59
:1006B0001850E66A70C014F071C015F072C016F0E0
:1006C00073C017F0F00E14160F0E1516166A176A7F
:1006D00014C0E6FF15C0E6FF16C0E6FF17C0E6FF30
:1006E000010EE66E1AEC16F0186E060EE15E18505A
:1006F000020EDF6E100EDF5C13E2E66A70C0E6FFEA
:1007000071C0E6FF72C0E6FF73C0E6FFDFCFE6FF11
:100710001AEC16F0146E060EE15E1450DF2AEAD7CA
:10072000E66AE66ACCEC13F0E552E552010EE66E9D
:10073000E66ECCEC13F0E552E552020EE66EE66E84
:10074000CCEC13F0E552E552020EE66E030EE66EB7
:10075000CCEC13F0E552E552030EE66E040EE66EA5
:10076000CCEC13F0E552E552030EE66E050EE66E94
:10077000CCEC13F0E552E552040EE66E060EE66E82
:10078000CCEC13F0E552E552040EE66E070EE66E71
:10079000CCEC13F0E552E552050EE66E080EE66E5F
:1007A000CCEC13F0E552E552050EE66E090EE66E4E
:1007B000CCEC13F0E552E552060EE66E0A0EE66E3C
:1007C000CCEC13F0E552E552060EE66E0B0EE66E2B
:1007D000CCEC13F0E552E552070EE66E0C0EE66E19
:1007E000CCEC13F0E552E552070EE66E0D0EE66E08
:1007F000CCEC13F0E552E552020EE66E0E0EE66EFC
:10080000CCEC13F0E552E552030EE66E0F0EE66EE9
:10081000CCEC13F0E552E552E668E66887EC13F09D
:10082000E552E5528386E552E552E7CFD9FF120043
:10083000D9CFE6FFE1CFD9FF030EE126FED8D58E52
:1008400043D9D59ED650E66ED950010FE96EDACF66
:10085000EAFFE552E750EE6EED6AD750000EF35016
:10086000146E156AD950010FE96EDACFEAFF145001
:10087000EE121550ED12010EDBCF14F0020EDBCF9D
:1008800015F0166A176A14500B019B5D15509C59A0
:1008900016509D5917509E5938E2010EDBCF9BFB35
:1008A000020EDBCF9CFB9D6B9E6B000181050FE16F
:1008B0009CCB14F09DCB15F09ECB16F00001176A6F
:1008C0001450E66EA2EC28F0E552DF6E0ED09CCB01
:1008D00014F09DCB15F09ECB16F00001176A145052
:1008E000E66E76EC28F0E552DF6E0001810507E147
:1008F0009BCBE6FFA2EC28F0E552DF6E06D09BCB47
:10090000E6FF76EC28F0E552DF6ED66AD76AA0ECF7
:100910001DF00001835107E1810503E170EC29F02E
:1009200002D0A5EC29F0F00EE66E000EE66E8C0EFD
:10093000E66E000EE66EB3EC20F0E552E552E552AD
:10094000E552000921E08C84000181050FE1F0519E
:10095000E66EE66A8C0EE66E000EE66E20EC29F07E
:10096000E552E552E552E552DF6E0ED0F051E66EEB
:10097000E66A8C0EE66E000EE66ED0EC28F0E552CC
:10098000E552E552E552DF6E0001810510E1F00EFF
:10099000E66E000EE66E8C0EE66E000EE66E28EC3D
:1009A0002DF0E552E552E552E552DF6E0FD0F00E24
:1009B000E66E000EE66E8C0EE66E000EE66E83ECC2
:1009C0002DF0E552E552E552E552DF6EDF5021E0B1
:1009D0008C84000181050FE1F051E66EE66A8C0E11
:1009E000E66E000EE66E20EC29F0E552E552E55287
:1009F000E552DF6E0ED0F051E66EE66A8C0EE66EC2
:100A0000000EE66ED0EC28F0E552E552E552E552D4
:100A1000DF6E00018B5107E1810503E1A5EC29F0B0
:100A200002D070EC29F0030EE15C02E2E16AE552CB
:100A3000E16EE552E7CFD9FF1200D9CFE6FFE1CF53
:100A4000D9FFE652020E0001825D07E1810503E154
:100A500022EC2DF002D025EC2DF00001845107E1AD
:100A6000810503E1FFEC29F002D05DEC2AF00B01D7
:100A70009F510BE0000180510D0A18E0050A16E0B5
:100A8000180A0DE01E0A03E019D09F2B18D09FCB47
:100A9000E6FF38EC0BF0E5520B019F6F0FD09FCBB8
:100AA000E6FF95DBE5520B019F6F08D09FCBE6FF79
:100AB000C9EC0AF0E5520B019F6F00D000D0E5525F
:100AC000E552E7CFD9FF12000B01A0510BE0000166
:100AD00080510E0A61E01E0A58E01D0A4EE0050A28
:100AE0004CE05AD04BEC1EF0600EE66E000EE66E47
:100AF000C9EC1EF0E552E552000901E151D070C089
:100B000014F071C015F072C016F073C017F0146ABB
:100B10000F0E1516166A176A00016051141809E1C4
:100B20006151151806E16251161803E16351171857
:100B300000E11BE070C018F071C019F072C01AF02B
:100B400073C01BF0F00E18160F0E19161A6A1B6AE6
:100B50006051181809E16151191806E162511A181B
:100B600003E163511B1800E105E164C0E6FF19D8F9
:100B7000E55216D00B01A02B13D0A0CBE6FF8FECD3
:100B80000AF0E5520B01A06F0AD0A0CBE6FF75DAA0
:100B9000E5520B01A06F03D00B01A06B00D000D079
:100BA0001200D9CFE6FFE1CFD9FFFE0EDB500B0AD2
:100BB00001E1E2D1010A01E1DDD1030A01E1C9D17C
:100BC000010A01E1B5D10F0A01E1A1D1010A01E158
:100BD0008DD1030A01E13DD1010A01E1EFD0070AFD
:100BE00001E1A1D0010A54E0030A05E0010A01E095
:100BF000C5D1FF00C4D10001810506E14F0EAB163F
:100C0000AC9ACF0E9D1605D04F0EA616BA9ACF0EEF
:100C1000A316000181051EE1400EE66E800EE66E11
:100C2000250EE66EE66AE66A2CEC2BF0166E050ED3
:100C3000E15E1650F3CF14F0F4CF15F014C0E6FFC8
:100C400015C0E6FF3C0EE66E95EC30F0E552E5523D
:100C5000E5521DD0400EE66E800EE66E250EE66E65
:100C6000E66AE66A1FEC2CF0166E050EE15E165081
:100C7000F3CF14F0F4CF15F014C0E6FF15C0E6FF73
:100C8000FC0EE66E59EC30F0E552E552E55277D1B4
:100C90000001810506E14F0EAB16AC9ACF0E9D16F2
:100CA00005D04F0EA616BA9ACF0EA31600018105E5
:100CB0001DE1400EE66EE66A4B0EE66EE66AE66AF7
:100CC0002CEC2BF0166E050EE15E1650F3CF14F0EF
:100CD000F4CF15F014C0E6FF15C0E6FF3C0EE66E3B
:100CE00095EC30F0E552E552E5521CD0400EE66E30
:100CF000E66A4B0EE66EE66AE66A1FEC2CF0166EAC
:100D0000050EE15E1650F3CF14F0F4CF15F014C0C9
:100D1000E6FF15C0E6FFFC0EE66E59EC30F0E5523A
:100D2000E552E5522CD10001810506E14F0EAB16CC
:100D3000AC9ACF0E9D1605D04F0EA616BA9ACF0EBE
:100D4000A316000181051DE1400EE66EE66A960ECF
:100D5000E66EE66AE66A2CEC2BF0166E050EE15E96
:100D60001650F3CF14F0F4CF15F014C0E6FF15C001
:100D7000E6FF3C0EE66E95EC30F0E552E552E552AA
:100D80001CD0400EE66EE66A960EE66EE66AE66AED
:100D90001FEC2CF0166E050EE15E1650F3CF14F02A
:100DA000F4CF15F014C0E6FF15C0E6FFFC0EE66EAA
:100DB00059EC30F0E552E552E552E1D000018105F1
:100DC00006E14F0EAB16AC9ACF0E9D1605D04F0E16
:100DD000A616BA9ACF0EA316000181051DE1400E9A
:100DE000E66EE66AE10EE66EE66AE66A2CEC2BF049
:100DF000166E050EE15E1650F3CF14F0F4CF15F029
:100E000014C0E6FF15C0E6FF3C0EE66E95EC30F030
:100E1000E552E552E5521CD0400EE66EE66AE10E60
:100E2000E66EE66AE66A1FEC2CF0166E050EE15ED1
:100E30001650F3CF14F0F4CF15F014C0E6FF15C030
:100E4000E6FFFC0EE66E59EC30F0E552E552E55255
:100E500096D00001810506E14F0EAB16AC9ACF0E7D
:100E60009D1605D04F0EA616BA9ACF0EA3160001F6
:100E700081051EE1400EE66EE66AC20EE66E010EC8
:100E8000E66EE66A2CEC2BF0166E050EE15E16504F
:100E9000F3CF14F0F4CF15F014C0E6FF15C0E6FF51
:100EA0003C0EE66E95EC30F0E552E552E5521DD071
:100EB000400EE66EE66AC20EE66E010EE66EE66A69
:100EC0001FEC2CF0166E050EE15E1650F3CF14F0F9
:100ED000F4CF15F014C0E6FF15C0E6FFFC0EE66E79
:100EE00059EC30F0E552E552E55249D00F0EE66E6E
:100EF000070EE66E070EE66E010EE66E040EE66E57
:100F00006DEC16F0146E050EE15E145038D0070E2D
:100F1000E66E060EE66E060EE66E030EE66E040E36
:100F2000E66E6DEC16F0146E050EE15E145027D0DF
:100F3000070EE66E020EE66E020EE66E030EE66E1B
:100F4000020EE66E6DEC16F0146E050EE15E1450A6
:100F500016D0030EE66E020EE66E010EE66E040E6D
:100F6000E66E010EE66E6DEC16F0146E050EE15E97
:100F7000145005D0838603D0839601D000D0E5526B
:100F8000E7CFD9FF1200D9CFE6FFE1CFD9FFFE0EA0
:100F9000DB50100A65E01E0A5DE0030A55E0010A15
:100FA0004DE0070A45E0010A3DE0030A35E0010A89
:100FB0002DE00D0A25E0010A1EE0040A17E0FE0EEE
:100FC000DB50100852E2FE0EDB500F0B146E156A58
:100FD000FF0ED8801456070E1556110E1426000E5B
:100FE000152214C0F3FF15C0F4FF43D0F368040EBC
:100FF000F46E3FD03ED0F36A050EF46E3AD039D08D
:10100000700EF36E050EF46E34D033D0110EF36E05
:10101000060EF46E2ED02DD0210EF36E060EF46E59
:1010200028D027D0220EF36E060EF46E22D021D0E7
:10103000230EF36E060EF46E1CD01BD0310EF36E31
:10104000060EF46E16D015D0320EF36E060EF46E48
:1010500010D00FD0400EF36E060EF46E0AD009D0F9
:10106000F36AF46A06D005D004D0F368070EF46E74
:1010700000D0E552E7CFD9FF1200D9CFE6FFE1CF8C
:10108000D9FFE652FE0EDB50050A73E0010A5BE071
:10109000070A43E0010A1BE0030A03E0FE0EDB6AD5
:1010A0008ED00001810507E1240EE66E76EC28F073
:1010B000E552DF6E06D0240EE66EA2EC28F0E55273
:1010C000DF6EDF5003E0FE0EDB2A01D078D0000196
:1010D00081050FE161C014F062C015F063C016F025
:1010E0000001176A1450E66E76EC28F0E552DF6EC8
:1010F0000ED061C014F062C015F063C016F000019C
:10110000176A1450E66EA2EC28F0E552DF6EDF504D
:1011100003E0FE0EDB2A01D052D00001810507E179
:1011200060C0E6FF76EC28F0E552DF6E06D060C0C6
:10113000E6FFA2EC28F0E552DF6EDF5003E0FE0E82
:10114000DB2A01D03CD00001810507E16CC0E6FF3D
:1011500076EC28F0E552DF6E06D06CC0E6FFA2EC1C
:1011600028F0E552DF6EDF5003E0FE0EDB2A01D0EF
:1011700026D0000181050FE16C51E66EE66A640E2F
:10118000E66E000EE66ED0EC28F0E552E552E55230
:10119000E552DF6E0ED06C51E66EE66A640EE66EC6
:1011A000000EE66E20EC29F0E552E552E552E552DC
:1011B000DF6EDF5003E08C72FE0EDB6A00D0FE0EA5
:1011C000DB5000D0E552E552E7CFD9FF1200D9CF6E
:1011D000E6FFE1CFD9FF020EE126010EDB6AFE0E2B
:1011E000DB50070A01E17DD1010A01E16BD1030A5D
:1011F00001E121D1010A01E1DBD0070A01E196D02A
:10120000010A40E0030A03E0FE0EDB6A79D1000127
:10121000810511E1010EDB50156A740F146E000E8A
:10122000152214C0E6FF15C0E6FFB7EC2AF0E55220
:10123000E552DF6E10D0010EDB50156A740F146E8C
:10124000000E152214C0E6FF15C0E6FFEDEC2AF0F3
:10125000E552E552DF6EDF5001E152D1010EDB5065
:10126000EA6A740FE96E000EEA22EF50240802E1E8
:10127000FE0EDB2A89C0E9FF8AC0EAFFEF50080BA7
:1012800001E03ED10001810511E1010EDB50156A3C
:10129000740F146E000E152214C0E6FF15C0E6FF91
:1012A000B7EC2AF0E552E552DF6E10D0010EDB50AC
:1012B000156A740F146E000E152214C0E6FF15C0D7
:1012C000E6FFEDEC2AF0E552E552DF6EDF5001E17A
:1012D00017D1010EDB50EA6A740FE96E000EEA22A4
:1012E000EFCF14F0156A166A176A070E1416156AFE
:1012F000166A176A080E1F0B07E0D89014361536C9
:1013000016361736E806F9E114C070F015C071F012
:1013100016C072F017C073F0FE0EDB2A89C0E9FF19
:101320008AC0EAFFEF50080B01E0EAD00001810516
:1013300011E1010EDB50156A740F146E000E1522B8
:1013400014C0E6FF15C0E6FFB7EC2AF0E552E552FF
:10135000DF6E10D0010EDB50156A740F146E000E94
:10136000152214C0E6FF15C0E6FFEDEC2AF0E552A9
:10137000E552DF6EDF5001E1C3D0010EDB50EA6AB7
:10138000740FE96E000EEA22EFCF14F00001145042
:1013900000017013000E711372137313FE0EDB2A1B
:1013A00089C0E9FF8AC0EAFFEF50080B01E0A8D02E
:1013B0000001810511E1010EDB50156A740F146EF6
:1013C000000E152214C0E6FF15C0E6FFB7EC2AF0A8
:1013D000E552E552DF6E10D0010EDB50156A740F36
:1013E000146E000E152214C0E6FF15C0E6FFEDECEA
:1013F0002AF0E552E552DF6EDF5001E181D0010EA7
:10140000DB50EA6A740FE96E000EEA22EFCFA2FB0E
:101410000B01A25106E1070EF36EFE0EF3CFDBFFC8
:1014200002D0FE0EDB2A89C0E9FF8AC0EAFFEF5036
:10143000080B01E065D089C0E9FF8AC0EAFFEF50E0
:10144000080B36E1080EF36E010EDBCFF4FFF3500C
:10145000F45C2EE20001810511E1010EDB50156AFA
:10146000740F146E000E152214C0E6FF15C0E6FFBF
:10147000B7EC2AF0E552E552DF6E10D0010EDB50DA
:10148000156A740F146E000E152214C0E6FF15C005
:10149000E6FFEDEC2AF0E552E552DF6E010EDB2AA5
:1014A0000B01A207A25103E1FE0EDB6A01D0C3D7F4
:1014B000010EDB5006E0010EDBCF7CF0FE0EDB2AD6
:1014C00001D01ED0700EE66E000EE66EB8EC1CF079
:1014D000E552E552000901E113D08C70FE0EDB6A83
:1014E0000FD0010EDB50EA6A740FE96E000EEA229B
:1014F000EF50E66ED1EC05F0E552FE0EDB6A00D04F
:10150000FE0EDB50146E020EE15C03E200D0E16AD5
:10151000E552E16E1450E552E7CFD9FF1200D9CF62
:10152000E6FFE1CFD9FFE652FE0EDB50010A03E0F1
:10153000FE0EDB6A26D0000181050FE16C51E66EDC
:10154000E66A640EE66E000EE66ED0EC28F0E55218
:10155000E552E552E552DF6E0ED06C51E66EE66A5A
:10156000640EE66E000EE66E20EC29F0E552E552C0
:10157000E552E552DF6EDF5003E08C72FE0EDB6A4F
:1015800000D0FE0EDB5000D0E552E552E7CFD9FF88
:101590001200D9CFE6FFE1CFD9FF020EE126010EFE
:1015A000DB6AFE0EDB50020A45E0030A03E0FE0E92
:1015B000DB6A4FD089C0E9FF8AC0EAFFEF50080B11
:1015C0002FE1080EF36E010EDBCFF4FFF350F45C55
:1015D00027E20001810511E1010EDB50156A740F4D
:1015E000146E000E152214C0E6FF15C0E6FFB7EC1E
:1015F0002AF0E552E552DF6E10D0010EDB50156A7D
:10160000740F146E000E152214C0E6FF15C0E6FF1D
:10161000EDEC2AF0E552E552DF6E010EDB2ACAD767
:10162000010EDB5006E0010EDBCF7CF0FE0EDB2A64
:1016300001D00FD0700EE66E000EE66EB8EC1CF016
:10164000E552E552000901E104D08C70FE0EDB6A20
:1016500000D0FE0EDB50146E020EE15C03E200D0FF
:10166000E16AE552E16E1450E552E7CFD9FF12006E
:10167000D9CFE6FFE1CFD9FFE652FE0EDB50030AD9
:1016800059E0010A1AE0030A03E0FE0EDB6A68D0A3
:101690000001810506E1E66876EC28F0E552DF6E90
:1016A00005D0E668A2EC28F0E552DF6EDF5003E0DB
:1016B000FE0EDB2A01D08C8053D00B01E80ED880BF
:1016C000A355030EA45503E2FE0EDB2A49D089C0C0
:1016D000E9FF8AC0EAFFEF50080B06E0A32B000EDB
:1016E000A423FE0EDB6A3CD0000181050AE1740EE2
:1016F000E66E000EE66EB7EC2AF0E552E552DF6EBC
:1017000009D0740EE66E000EE66EEDEC2AF0E5529E
:10171000E552DF6EFF0E0001745D07E10B01A36B64
:10172000A46BFE0EDB6A1CD004D00B01A32B000EB1
:10173000A42316D00001746B010E7C6F0B01A36B08
:10174000A46B8C70700EE66E000EE66EB8EC1CF0AA
:10175000E552E552000901E103D0FE0EDB6A00D03C
:10176000FE0EDB5000D0E552E552E7CFD9FF120064
:10177000D9CFE6FFE1CFD9FFE65282407F0B0F0BB6
:10178000DF6EDF500E0A02E10DEF12F0030A02E1F4
:1017900059EF11F0010A02E1DCEF10F0070A02E153
:1017A00019EF10F0010A01E1ABD3030A01E171D393
:1017B000010A01E1E3D20D0A01E139D2010A01E196
:1017C000C5D1040A02E0A6EF12F082A0B6D00C0E3A
:1017D000E76EFD0EDBCFE9FFFE0EDBCFEAFFE75041
:1017E000E926000EEA22500EEF6E0B0EE76EFD0E9C
:1017F000DBCFE9FFFE0EDBCFEAFFE750E926000E64
:10180000EA22430EEF6E0A0EE76EFD0EDBCFE9FF14
:10181000FE0EDBCFEAFFE750E926000EEA22200E9B
:10182000EF6E090EE76EFD0EDBCFE9FFFE0EDBCF9C
:10183000EAFFE750E926000EEA22490EEF6E080E95
:10184000E76EFD0EDBCFE9FFFE0EDBCFEAFFE750D0
:10185000E926000EEA224E0EEF6E070EE76EFD0E31
:10186000DBCFE9FFFE0EDBCFEAFFE750E926000EF3
:10187000EA22540EEF6E060EE76EFD0EDBCFE9FF97
:10188000FE0EDBCFEAFFE750E926000EEA22450E06
:10189000EF6E050EE76EFD0EDBCFE9FFFE0EDBCF30
:1018A000EAFFE750E926000EEA22520EEF6E040E20
:1018B000E76EFD0EDBCFE9FFFE0EDBCFEAFFE75060
:1018C000E926000EEA22460EEF6E030EE76EFD0ECD
:1018D000DBCFE9FFFE0EDBCFEAFFE750E926000E83
:1018E000EA22410EEF6E020EE76EFD0EDBCFE9FF3E
:1018F000FE0EDBCFEAFFE750E926000EEA22430E98
:10190000EF6E010EE76EFD0EDBCFE9FFFE0EDBCFC3
:10191000EAFFE750E926000EEA22450EEF6EFD0EC3
:10192000DBCFE9FFFE0EDBCFEAFF0D0EEF6EF36EAD
:10193000F46AA6EF12F0A6EF12F0120EE76EFD0E9B
:10194000DBCFE9FFFE0EDBCFEAFFE750E926000E12
:10195000EA224C0EEF6E110EE76EFD0EDBCFE9FFB3
:10196000FE0EDBCFEAFFE750E926000EEA22410E29
:10197000EF6E100EE76EFD0EDBCFE9FFFE0EDBCF44
:10198000EAFFE750E926000EEA22530EEF6E0F0E33
:10199000E76EFD0EDBCFE9FFFE0EDBCFEAFFE7507F
:1019A000E926000EEA22450EEF6E0E0EE76EFD0EE2
:1019B000DBCFE9FFFE0EDBCFEAFFE750E926000EA2
:1019C000EA22520EEF6E0D0EE76EFD0EDBCFE9FF41
:1019D000FE0EDBCFEAFFE750E926000EEA22200EDA
:1019E000EF6E0C0EE76EFD0EDBCFE9FFFE0EDBCFD8
:1019F000EAFFE750E926000EEA22520EEF6E0B0EC8
:101A0000E76EFD0EDBCFE9FFFE0EDBCFEAFFE7500E
:101A1000E926000EEA22410EEF6E0A0EE76EFD0E79
:101A2000DBCFE9FFFE0EDBCFEAFFE750E926000E31
:101A3000EA224E0EEF6E090EE76EFD0EDBCFE9FFD8
:101A4000FE0EDBCFEAFFE750E926000EEA22470E42
:101A5000EF6E080EE76EFD0EDBCFE9FFFE0EDBCF6B
:101A6000EAFFE750E926000EEA22450EEF6E070E68
:101A7000E76EFD0EDBCFE9FFFE0EDBCFEAFFE7509E
:101A8000E926000EEA22200EEF6E060EE76EFD0E2E
:101A9000DBCFE9FFFE0EDBCFEAFFE750E926000EC1
:101AA000EA22460EEF6E050EE76EFD0EDBCFE9FF74
:101AB000FE0EDBCFEAFFE750E926000EEA22490ED0
:101AC000EF6E040EE76EFD0EDBCFE9FFFE0EDBCFFF
:101AD000EAFFE750E926000EEA224E0EEF6E030EF3
:101AE000E76EFD0EDBCFE9FFFE0EDBCFEAFFE7502E
:101AF000E926000EEA22440EEF6E020EE76EFD0E9E
:101B0000DBCFE9FFFE0EDBCFEAFFE750E926000E50
:101B1000EA22450EEF6E010EE76EFD0EDBCFE9FF08
:101B2000FE0EDBCFEAFFE750E926000EEA22520E56
:101B3000EF6EFD0EDBCFE9FFFE0EDBCFEAFF0D0EF1
:101B4000EF6E130EF36EF46AA6EF12F0070EE76E57
:101B5000FD0EDBCFE9FFFE0EDBCFEAFFE750E92603
:101B6000000EEA22560EEF6E060EE76EFD0EDBCF7C
:101B7000E9FFFE0EDBCFEAFFE750E926000EEA227E
:101B8000450EEF6E050EE76EFD0EDBCFE9FFFE0E94
:101B9000DBCFEAFFE750E926000EEA22480EEF6E9F
:101BA000040EE76EFD0EDBCFE9FFFE0EDBCFEAFF92
:101BB000E750E926000EEA22490EEF6E030EE76EAB
:101BC000FD0EDBCFE9FFFE0EDBCFEAFFE750E92693
:101BD000000EEA22430EEF6E020EE76EFD0EDBCF23
:101BE000E9FFFE0EDBCFEAFFE750E926000EEA220E
:101BF0004C0EEF6E010EE76EFD0EDBCFE9FFFE0E21
:101C0000DBCFEAFFE750E926000EEA22450EEF6E31
:101C1000FD0EDBCFE9FFFE0EDBCFEAFF0D0EEF6E10
:101C2000080EF36EF46AA6EF12F0A6EF12F00B0E98
:101C3000E76EFD0EDBCFE9FFFE0EDBCFEAFFE750DC
:101C4000E926000EEA22520EEF6E0A0EE76EFD0E36
:101C5000DBCFE9FFFE0EDBCFEAFFE750E926000EFF
:101C6000EA224F0EEF6E090EE76EFD0EDBCFE9FFA5
:101C7000FE0EDBCFEAFFE750E926000EEA22420E15
:101C8000EF6E080EE76EFD0EDBCFE9FFFE0EDBCF39
:101C9000EAFFE750E926000EEA224F0EEF6E070E2C
:101CA000E76EFD0EDBCFE9FFFE0EDBCFEAFFE7506C
:101CB000E926000EEA22540EEF6E060EE76EFD0EC8
:101CC000DBCFE9FFFE0EDBCFEAFFE750E926000E8F
:101CD000EA22490EEF6E050EE76EFD0EDBCFE9FF3F
:101CE000FE0EDBCFEAFFE750E926000EEA22430EA4
:101CF000EF6E040EE76EFD0EDBCFE9FFFE0EDBCFCD
:101D0000EAFFE750E926000EEA22200EEF6E030EEE
:101D1000E76EFD0EDBCFE9FFFE0EDBCFEAFFE750FB
:101D2000E926000EEA22410EEF6E020EE76EFD0E6E
:101D3000DBCFE9FFFE0EDBCFEAFFE750E926000E1E
:101D4000EA22520EEF6E010EE76EFD0EDBCFE9FFC9
:101D5000FE0EDBCFEAFFE750E926000EEA224D0E29
:101D6000EF6EFD0EDBCFE9FFFE0EDBCFEAFF0D0EBF
:101D7000EF6E0C0EF36EF46AE9D3E8D3090EE76E4A
:101D8000FD0EDBCFE9FFFE0EDBCFEAFFE750E926D1
:101D9000000EEA22530EEF6E080EE76EFD0EDBCF4B
:101DA000E9FFFE0EDBCFEAFFE750E926000EEA224C
:101DB000410EEF6E070EE76EFD0EDBCFE9FFFE0E64
:101DC000DBCFEAFFE750E926000EEA22530EEF6E62
:101DD000060EE76EFD0EDBCFE9FFFE0EDBCFEAFF5E
:101DE000E750E926000EEA22530EEF6E050EE76E6D
:101DF000FD0EDBCFE9FFFE0EDBCFEAFFE750E92661
:101E0000000EEA22200EEF6E040EE76EFD0EDBCF11
:101E1000E9FFFE0EDBCFEAFFE750E926000EEA22DB
:101E2000320EEF6E030EE76EFD0EDBCFE9FFFE0E06
:101E3000DBCFEAFFE750E926000EEA22330EEF6E11
:101E4000020EE76EFD0EDBCFE9FFFE0EDBCFEAFFF1
:101E5000E750E926000EEA22300EEF6E010EE76E23
:101E6000FD0EDBCFE9FFFE0EDBCFEAFFE750E926F0
:101E7000000EEA22300EEF6EFD0EDBCFE9FFFE0E04
:101E8000DBCFEAFF0D0EEF6E0A0EF36EF46A5ED33F
:101E90005DD3030EE76EFD0EDBCFE9FFFE0EDBCF59
:101EA000EAFFE750E926000EEA22430EEF6E020E2B
:101EB000E76EFD0EDBCFE9FFFE0EDBCFEAFFE7505A
:101EC000E926000EEA22410EEF6E010EE76EFD0ECE
:101ED000DBCFE9FFFE0EDBCFEAFFE750E926000E7D
:101EE000EA224D0EEF6EFD0EDBCFE9FFFE0EDBCFDB
:101EF000EAFF0D0EEF6E040EF36EF46A27D326D3BD
:101F00000A0EE76EFD0EDBCFE9FFFE0EDBCFEAFF28
:101F1000E750E926000EEA22430EEF6E090EE76E47
:101F2000FD0EDBCFE9FFFE0EDBCFEAFFE750E9262F
:101F3000000EEA22480EEF6E080EE76EFD0EDBCFB4
:101F4000E9FFFE0EDBCFEAFFE750E926000EEA22AA
:101F5000450EEF6E070EE76EFD0EDBCFE9FFFE0EBE
:101F6000DBCFEAFFE750E926000EEA224D0EEF6EC6
:101F7000060EE76EFD0EDBCFE9FFFE0EDBCFEAFFBC
:101F8000E750E926000EEA22500EEF6E050EE76ECE
:101F9000FD0EDBCFE9FFFE0EDBCFEAFFE750E926BF
:101FA000000EEA22520EEF6E040EE76EFD0EDBCF3E
:101FB000E9FFFE0EDBCFEAFFE750E926000EEA223A
:101FC0004F0EEF6E030EE76EFD0EDBCFE9FFFE0E48
:101FD000DBCFEAFFE750E926000EEA22310EEF6E72
:101FE000020EE76EFD0EDBCFE9FFFE0EDBCFEAFF50
:101FF000E750E926000EEA22300EEF6E010EE76E82
:10200000FD0EDBCFE9FFFE0EDBCFEAFFE750E9264E
:10201000000EEA22300EEF6EFD0EDBCFE9FFFE0E62
:10202000DBCFEAFF300EEF6E0B0EF36EF46A8ED24A
:102030008DD20D0EE76EFD0EDBCFE9FFFE0EDBCF7E
:10204000EAFFE750E926000EEA224D0EEF6E0C0E75
:10205000E76EFD0EDBCFE9FFFE0EDBCFEAFFE750B8
:10206000E926000EEA22550EEF6E0B0EE76EFD0E0E
:10207000DBCFE9FFFE0EDBCFEAFFE750E926000EDB
:10208000EA224C0EEF6E0A0EE76EFD0EDBCFE9FF83
:10209000FE0EDBCFEAFFE750E926000EEA22540EDF
:1020A000EF6E090EE76EFD0EDBCFE9FFFE0EDBCF14
:1020B000EAFFE750E926000EEA22490EEF6E080E0D
:1020C000E76EFD0EDBCFE9FFFE0EDBCFEAFFE75048
:1020D000E926000EEA22520EEF6E070EE76EFD0EA5
:1020E000DBCFE9FFFE0EDBCFEAFFE750E926000E6B
:1020F000EA22410EEF6E060EE76EFD0EDBCFE9FF22
:10210000FE0EDBCFEAFFE750E926000EEA22450E7D
:10211000EF6E050EE76EFD0EDBCFE9FFFE0EDBCFA7
:10212000EAFFE750E926000EEA22200EEF6E040EC9
:10213000E76EFD0EDBCFE9FFFE0EDBCFEAFFE750D7
:10214000E926000EEA22500EEF6E030EE76EFD0E3A
:10215000DBCFE9FFFE0EDBCFEAFFE750E926000EFA
:10216000EA224C0EEF6E020EE76EFD0EDBCFE9FFAA
:10217000FE0EDBCFEAFFE750E926000EEA22550EFD
:10218000EF6E010EE76EFD0EDBCFE9FFFE0EDBCF3B
:10219000EAFFE750E926000EEA22530EEF6EFD0E2D
:1021A000DBCFE9FFFE0EDBCFEAFF0D0EEF6E0E0E6A
:1021B000F36EF46ACBD1CAD1080EE76EFD0EDBCF09
:1021C000E9FFFE0EDBCFEAFFE750E926000EEA2228
:1021D000410EEF6E070EE76EFD0EDBCFE9FFFE0E40
:1021E000DBCFEAFFE750E926000EEA224E0EEF6E43
:1021F000060EE76EFD0EDBCFE9FFFE0EDBCFEAFF3A
:10220000E750E926000EEA22500EEF6E050EE76E4B
:10221000FD0EDBCFE9FFFE0EDBCFEAFFE750E9263C
:10222000000EEA22440EEF6E040EE76EFD0EDBCFC9
:10223000E9FFFE0EDBCFEAFFE750E926000EEA22B7
:10224000520EEF6E030EE76EFD0EDBCFE9FFFE0EC2
:10225000DBCFEAFFE750E926000EEA222D0EEF6EF3
:10226000020EE76EFD0EDBCFE9FFFE0EDBCFEAFFCD
:10227000E750E926000EEA22370EEF6E010EE76EF8
:10228000FD0EDBCFE9FFFE0EDBCFEAFFE750E926CC
:10229000000EEA22370EEF6EFD0EDBCFE9FFFE0ED9
:1022A000DBCFEAFF0D0EEF6E090EF36EF46A4ED12E
:1022B0004DD10C0EE76EFD0EDBCFE9FFFE0EDBCF3E
:1022C000EAFFE750E926000EEA22490EEF6E0B0EF8
:1022D000E76EFD0EDBCFE9FFFE0EDBCFEAFFE75036
:1022E000E926000EEA22440EEF6E0A0EE76EFD0E9E
:1022F000DBCFE9FFFE0EDBCFEAFFE750E926000E59
:10230000EA22450EEF6E090EE76EFD0EDBCFE9FF08
:10231000FE0EDBCFEAFFE750E926000EEA224E0E62
:10232000EF6E080EE76EFD0EDBCFE9FFFE0EDBCF92
:10233000EAFFE750E926000EEA22540EEF6E070E80
:10234000E76EFD0EDBCFE9FFFE0EDBCFEAFFE750C5
:10235000E926000EEA22490EEF6E060EE76EFD0E2C
:10236000DBCFE9FFFE0EDBCFEAFFE750E926000EE8
:10237000EA22460EEF6E050EE76EFD0EDBCFE9FF9B
:10238000FE0EDBCFEAFFE750E926000EEA22490EF7
:10239000EF6E040EE76EFD0EDBCFE9FFFE0EDBCF26
:1023A000EAFFE750E926000EEA224E0EEF6E030E1A
:1023B000E76EFD0EDBCFE9FFFE0EDBCFEAFFE75055
:1023C000E926000EEA22440EEF6E020EE76EFD0EC5
:1023D000DBCFE9FFFE0EDBCFEAFFE750E926000E78
:1023E000EA22450EEF6E010EE76EFD0EDBCFE9FF30
:1023F000FE0EDBCFEAFFE750E926000EEA22520E7E
:10240000EF6EFD0EDBCFE9FFFE0EDBCFEAFF0D0E18
:10241000EF6EF36EF46A9AD099D00A0EE76EFD0E55
:10242000DBCFE9FFFE0EDBCFEAFFE750E926000E27
:10243000EA22450EEF6E090EE76EFD0EDBCFE9FFD7
:10244000FE0EDBCFEAFFE750E926000EEA22580E27
:10245000EF6E080EE76EFD0EDBCFE9FFFE0EDBCF61
:10246000EAFFE750E926000EEA22500EEF6E070E53
:10247000E76EFD0EDBCFE9FFFE0EDBCFEAFFE75094
:10248000E926000EEA22200EEF6E060EE76EFD0E24
:10249000DBCFE9FFFE0EDBCFEAFFE750E926000EB7
:1024A000EA22530EEF6E050EE76EFD0EDBCFE9FF5D
:1024B000FE0EDBCFEAFFE750E926000EEA22450ECA
:1024C000EF6E040EE76EFD0EDBCFE9FFFE0EDBCFF5
:1024D000EAFFE750E926000EEA224E0EEF6E030EE9
:1024E000E76EFD0EDBCFE9FFFE0EDBCFEAFFE75024
:1024F000E926000EEA22530EEF6E020EE76EFD0E85
:10250000DBCFE9FFFE0EDBCFEAFFE750E926000E46
:10251000EA224F0EEF6E010EE76EFD0EDBCFE9FFF4
:10252000FE0EDBCFEAFFE750E926000EEA22520E4C
:10253000EF6EFD0EDBCFE9FFFE0EDBCFEAFF0D0EE7
:10254000EF6E0B0EF36EF46A01D000D0E552E55247
:06255000E7CFD9FF1200E5
:0A255600D9CFE6FFE1CFD9FFE6522E
:102560006E50E00BE842E842E842E842E842DF6EA3
:102570006E50E00BE842E842E842E842E8420408D4
:1025800005E0040EE66E74EC17F0E552FE0EDB502B
:10259000766EFE0EDBCF7FFEFD0EDBCFE6FFFE0E7E
:1025A000DB50030BE552E7100E017E6F6E50E00B1F
:1025B000E842E842E842E842E842DF5C05E0DFCF7B
:1025C000E6FF74EC17F0E552E552E552E7CFD9FF8C
:1025D0001200D9CFE6FFE1CFD9FFE6526E50E00BF3
:1025E000E842E842E842E842E842DF6E6E50E00B23
:1025F000E842E842E842E842E842040805E0040E06
:10260000E66E74EC17F0E552FE0EDBCF7DFE6E50E9
:10261000E00BE842E842E842E842E842DF5C05E0DD
:10262000DFCFE6FF74EC17F0E552E552E552E7CF55
:10263000D9FF1200D9CFE6FFE1CFD9FFE6526E50A5
:10264000E00BE842E842E842E842E842DF6E6E50C2
:10265000E00BE842E842E842E842E842040805E0CC
:10266000040EE66E74EC17F0E552FE0EDB50010A24
:102670001FE0010A01E038D0F90EDBCFE6FFD950A8
:10268000FA0FE96EFF0EDA20EA6EEECFE6FFEECF2C
:10269000E6FFEECFE6FFEFCFE6FFF80EE66E0E0E9A
:1026A000E66E86EC1AF0146E070EE15E14501CD034
:1026B000F90EDBCFE6FFD950FA0FE96EFF0EDA20F4
:1026C000EA6EEECFE6FFEECFE6FFEECFE6FFEFCF0E
:1026D000E6FFFC0EE66E0E0EE66E86EC1AF0146E49
:1026E000070EE15E145000D06E50E00BE842E84265
:1026F000E842E842E842DF5C05E0DFCFE6FF74EC49
:1027000017F0E552E552E552E7CFD9FF1200D9CFD5
:10271000E6FFE1CFD9FFE6526E50E00BE842E84217
:10272000E842E842E842DF6E6E50E00BE842E842E1
:10273000E842E842E842040804E0040EE66ED4DB16
:10274000E552FF0EE76EFD0EDBCF14F0FE0EDBCF81
:1027500015F0E7501416156A14C046FEFD0EDBCFC7
:1027600014F0FE0EDBCF15F015C014F0156A1450EE
:102770000E01476F6E50E00BE842E842E842E84243
:10278000E842DF5C04E0DFCFE6FFAEDBE552E55276
:10279000E552E7CFD9FF1200D9CFE6FFE1CFD9FF4D
:1027A000E6526E50E00BE842E842E842E842E84276
:1027B000DF6E010EF36EFD0EDB5004E0D890F336B1
:1027C000E806FCE1F3500E017D1502E0000E06D193
:1027D0006E50E00BE842E842E842E842E842040872
:1027E00004E0040EE66E80DBE552FE0EDB500F0ABD
:1027F00001E1D7D0010A01E1CAD0030A01E1B9D051
:10280000010A01E1ACD0070A01E19BD0010A01E114
:102810008ED0030A01E17DD0010A71E00F0A61E068
:10282000010A55E0030A45E0010A39E0070A29E0F8
:10283000010A1DE0030A0DE0010A01E0C0D0FD0E0F
:10284000DB500E010F0BF36EF00E7115F310716F6C
:10285000B6D0FD0EDB500E010F0BF36EF346F346C0
:10286000F346F3460F0E7115F310716FA8D0FD0EED
:10287000DB500E010F0BF36EF00E7215F310726F3A
:102880009ED0FD0EDB500E010F0BF36EF346F346A8
:10289000F346F3460F0E7215F310726F90D0FD0ED3
:1028A000DB500E010F0BF36EF00E7315F310736F08
:1028B00086D0FD0EDB500E010F0BF36EF346F34690
:1028C000F346F3460F0E7315F310736F78D0FD0EB9
:1028D000DB500E010F0BF36EF00E7415F310746FD6
:1028E0006ED0FD0EDB500E010F0BF36EF346F34678
:1028F000F346F3460F0E7415F310746F60D0FD0E9F
:10290000DB500E010F0BF36EF00E7515F310756FA3
:1029100056D0FD0EDB500E010F0BF36EF346F3465F
:10292000F346F3460F0E7515F310756F48D0FD0E84
:10293000DB500E010F0BF36EF00E7615F310766F71
:102940003ED0FD0EDB500E010F0BF36EF346F34647
:10295000F346F3460F0E7615F310766F30D0FD0E6A
:10296000DB500E010F0BF36EF00E7715F310776F3F
:1029700026D0FD0EDB500E010F0BF36EF346F3462F
:10298000F346F3460F0E7715F310776F18D0FD0E50
:10299000DB500E010F0BF36EF00E7815F310786F0D
:1029A0000ED0FD0EDB500E010F0BF36EF346F34617
:1029B000F346F3460F0E7815F310786F00D06E5083
:1029C000E00BE842E842E842E842E842DF5C04E02B
:1029D000DFCFE6FF89DAE552010E00D0E552E5527D
:1029E000E7CFD9FF1200D9CFE6FFE1CFD9FFE652FA
:1029F0006E50E00BE842E842E842E842E842DF6E0F
:102A00006E50E00BE842E842E842E842E84204083F
:102A100004E0040EE66E68DAE552FE0EDB500F0AA3
:102A200001E1E6D0010A01E1D5D0030A01E1C6D0F7
:102A3000010A01E1B9D0070A01E1A6D0010A01E1CA
:102A400095D0030A01E186D0010A01E179D00F0A8D
:102A500067E0010A57E0030A49E0010A3DE0070A7E
:102A60002BE0010A1BE0030A0DE0010A01E0D0D0CF
:102A7000FD0EDB500E01030BF36EFC0E7915F31007
:102A8000796FC6D0FD0EDB500E01030BF36EF346DB
:102A9000F346F30E7915F310796FBAD0FD0EDB50C3
:102AA0000E01030BF36EF346F346F346F346CF0EE7
:102AB0007915F310796FACD0FD0EDB500E01030BCE
:102AC000F36EF346F346F346F346F346F3463F0E02
:102AD0007915F310796F9CD0FD0EDB500E01030BBE
:102AE000F36EFC0E7A15F3107A6F92D0FD0EDB5068
:102AF0000E01030BF36EF346F346F30E7A15F31053
:102B00007A6F86D0FD0EDB500E01030BF36EF34699
:102B1000F346F346F346CF0E7A15F3107A6F78D06A
:102B2000FD0EDB500E01030BF36EF346F346F34646
:102B3000F346F346F3463F0E7A15F3107A6F68D0EA
:102B4000FD0EDB500E01030BF36EFC0E7B15F31034
:102B50007B6F5ED0FD0EDB500E01030BF36EF34670
:102B6000F346F30E7B15F3107B6F52D0FD0EDB5056
:102B70000E01030BF36EF346F346F346F346CF0E16
:102B80007B15F3107B6F44D0FD0EDB500E01030B61
:102B9000F36EF346F346F346F346F346F3463F0E31
:102BA0007B15F3107B6F34D0FD0EDB500E01030B51
:102BB000F36EFC0E7C15F3107C6F2AD0FD0EDB50FB
:102BC0000E01030BF36EF346F346F30E7C15F31080
:102BD0007C6F1ED0FD0EDB500E01030BF36EF3462F
:102BE000F346F346F346CF0E7C15F3107C6F10D0FE
:102BF000FD0EDB500E01030BF36EF346F346F34676
:102C0000F346F346F3463F0E7C15F3107C6F00D07D
:102C10006E50E00BE842E842E842E842E842DF5CFE
:102C200004E0DFCFE6FF60D9E552E552E552E7CF99
:102C3000D9FF1200D9CFE6FFE1CFD9FFE6526E509F
:102C4000E00BE842E842E842E842E842DF6E6E50BC
:102C5000E00BE842E842E842E842E842040804E0C7
:102C6000040EE66E41D9E552F90EDBCFE6FFD950EE
:102C7000FA0FE96EFF0EDA20EA6EEECFE6FFEECF36
:102C8000E6FFEECFE6FFEFCFE6FFFE0EF76ADB349E
:102C9000FE0BF736F66EAE0EF626620EF722090030
:102CA000F5CFE6FF0800F5CFE6FF86EC1AF0146ECC
:102CB000070EE15E14506E50E00BE842E842E84235
:102CC000E842E842DF5C04E0DFCFE6FF0DD9E552E1
:102CD000E552E552E7CFD9FF1200D9CFE6FFE1CFA9
:102CE000D9FFE6526E50E00BE842E842E842E84283
:102CF000E842DF6EFD0EDB5000084DE2090EF36E78
:102D0000FD0EDBCFF4FFF350F45C45E2FC0EDB502C
:102D1000000841E2090EF36EFC0EDBCFF4FFF35026
:102D2000F45C39E2FB0EDB50010835E2090EF36E6C
:102D3000FB0EDBCFF4FFF350F45C2DE2FE0EDB5014
:102D4000000829E2050EF36EFE0EDBCFF4FFF35010
:102D5000F45C21E2FC0EDBCFE6FFFD0EDB50E5521A
:102D6000E724146EFB0EDB50145C09E3FE0EDB500F
:102D7000F36EFB0EDBCFF4FFF350F45C02E2000EC7
:102D80005AD06E50E00BE842E842E842E842E8429E
:102D9000040807E002D0000E4ED0040EE66EA4D860
:102DA000E552FC0EDB50010803E20E01448D02D017
:102DB0000E01449D448FFE0EDB04030BF36EF346BD
:102DC000F346F346F346F346F3463F0E4315F3103E
:102DD000436FFD0EDB04070BF36EF80E4415F31082
:102DE000446FFC0EDB04070BF36EF346F346F34629
:102DF000C70E4415F310446FFB0EDB04070BF36E94
:102E0000F80E4515F310456FFA0EDB503F0BF36ECD
:102E1000C00E4315F310436F6E50E00BE842E842DA
:102E2000E842E842E842DF5C04E0DFCFE6FF5CD83E
:102E3000E552010E00D0E552E552E7CFD9FF12006E
:102E4000D9CFE6FFE1CFD9FFFD0EDB500F0809E334
:102E5000FE0EDB50020F146E020E0E017D151418CB
:102E600003E1000E20D01DD0FE0EDB50030FE66EF6
:102E7000FD0EDBCFE6FF90DCE552E552FE0EDB50A7
:102E8000030FF66EF76AD890F636F736DE0EF626A2
:102E9000620EF7220900F5CFE9FF0800F5CFEAFF3F
:102EA000EF84010E00D0E552E7CFD9FF1200D9CF51
:102EB000E6FFE1CFD9FFFE0EDB0402E0000E10D0EA
:102EC000FE0EDB50030BF36EF346F346F346F34678
:102ED000F346F3463F0E7214F310726E010E00D0EB
:102EE000E552E7CFD9FF1200D9CFE6FFE1CFD9FFF6
:102EF000FE0EDB50070BF36EF346F346F346F34644
:102F0000F3461F0E6F14F3106F6E6E50E00BE84225
:102F1000E842E842E842E842146EFE0EDB50145CE0
:102F200001E0F3D7E552E7CFD9FF1200D9CFE6FF92
:102F3000E1CFD9FFE652080EDF6E000EDF5C28E31A
:102F4000DF5002080FE2DF50020820E2DF04146EB7
:102F5000010E145204E0E846FE0B1406FCE10E01DB
:102F60007D1514E0F76ADF34FE0BF736F66EDE0EE1
:102F7000F626620EF7220900F5CFE9FF0800F5CF2B
:102F8000EAFFEF50080B02E1DF5004D0DF06D5D78F
:102F9000FF0E00D0E552E552E7CFD9FF1200D9CF9E
:102FA000E6FFE1CFD9FFE652DF6A080EDF5C27E2D9
:102FB000DF5001080EE2010EDF5206E0DFCFF3FF23
:102FC000E846FE0BF306FCE10E017D1502E015D08C
:102FD00014D0F76ADF34FE0BF736F66ECE0EF62607
:102FE000620EF7220900F5CFE9FF0800F5CFEAFFEE
:102FF000EF50800B02E0DF5004D0DF2AD6D7FF0E5F
:1030000000D0E552E552E7CFD9FF1200D9CFE6FF55
:10301000E1CFD9FF040EE126FE0EDB50FF0813E0DE
:10302000FE0EF76ADB34FE0BF736F66EDE0EF62682
:10303000620EF7220900F5CFE9FF0800F5CFEAFF9D
:10304000EF50080B08E072DFDF6EFF0EDF5C02E17D
:10305000FF0ECCD016D0FE0EDB5002080FE2FE0EA3
:10306000DB04146E010E145204E0E846FE0B140655
:10307000FCE10E017D1502E1FF0EB8D0FE0EDB5023
:10308000DF6EDF50FF0A24E0FC0A19E0070A17E0B0
:10309000010A15E0030A13E0010A11E0070A06E03D
:1030A000010A04E0030A02E0FF0EA0D0030EDF24B1
:1030B0001F0BF36EE00E7214F310726E0BD0DF0470
:1030C0001F0BF36EE00E7214F310726E728802D052
:1030D00001D000D0FC0EDBCFE9FFFD0EDBCFEAFF15
:1030E0000E0EE926000EEA22EF50E66EFC0EDBCF54
:1030F000E9FFFD0EDBCFEAFFEECFE6FFEECFE6FF06
:10310000EECFE6FFEFCFE6FF610EE66E0F0EE66E46
:10311000FDD9146E070EE15E1450FC0EDBCFE9FF03
:10312000FD0EDBCFEAFF0C0EE926000EEA22EF507F
:10313000656EFC0EDBCFE9FFFD0EDBCFEAFF0F0E65
:10314000E926000EEA22EF50E8B0658CE8A0659C05
:10315000D950020FE96EDACFEAFF660EEE6E0F0E5F
:10316000ED6E010EDB6AFC0EDBCFE9FFFD0EDBCF5F
:10317000EAFF0C0EE926000EEA22EF50F36E010E74
:10318000DBCFF4FFF350F45C2BE2FC0EDBCFE9FF66
:10319000FD0EDBCFEAFF040EE926000EEA22E9CF9E
:1031A00014F0EACF15F0010EDB500F011424E96E84
:1031B000000E1520EA6EEF50E66E010EDB50E76E52
:1031C000020EDBCFE9FF030EDBCFEAFFE750E92673
:1031D000000EEA22E552E750EF6E010EDB2AC3D75C
:1031E000E00E72141009726EDF5000D0146E040EDF
:1031F000E15C02E2E16AE552E16E1450E552E7CF8C
:10320000D9FF1200D9CFE6FFE1CFD9FFFE0EDB5088
:1032100002080FE2FE0EDB04146E010E145204E0ED
:10322000E846FE0B1406FCE10E017D1502E1000EDE
:1032300013D0FE0EF76ADB34FE0BF736F66EDE0EA9
:10324000F626620EF7220900F5CFE9FF0800F5CF58
:10325000EAFFEF86010E00D0E552E7CFD9FF12005A
:10326000D9CFE6FFE1CFD9FF030EE126FD0EDBCF7C
:10327000E9FFFE0EDBCFEAFF0F0EE926000EEA2281
:10328000EF6AFD0EDBCFE9FFFE0EDBCFEAFF0E0E8D
:10329000E926000EEA22EF6AFC0EF76ADB34FE0B29
:1032A000F736F66ECE0EF626620EF7220900F5CF3F
:1032B000E9FF0800F5CFEAFFEF50200B0CE0FD0E10
:1032C000DBCFE9FFFE0EDBCFEAFF0F0EE926000E93
:1032D000EA22010EEF6EFC0EF76ADB34FE0BF736C6
:1032E000F66ECE0EF626620EF7220900F5CFE9FF44
:1032F0000800F5CFEAFFEF501F0BE66EFD0EDBCFA7
:10330000E9FFFE0EDBCFEAFF0D0EE926000EEA22F2
:10331000E552E750EF6EFC0EDB501F0BF36EE00E34
:103320007214F310726E7288FD0EDBCFE9FFFE0E91
:10333000DBCFEAFF0C0EE926000EEA2265CFEFFF95
:1033400062A639D0FD0EDBCFE9FFFE0EDBCFEAFF30
:103350000E0EE926000EEA22010EEF6E6350000EFB
:10336000F3CF1AF06250030BF36EF3CF19F06250F3
:10337000E00BE842E842E842E842E842F36EF3CF6D
:1033800018F06150F36EF350181019101A106410F1
:10339000146E156A166A176AFD0EDBCFE9FFFE0E82
:1033A000DBCFEAFF14C0EEFF15C0EEFF16C0EEFF44
:1033B00017C0EEFF4CD06150146E156A166A176A7A
:1033C000FD0EDBCFE9FFFE0EDBCFEAFF14C0EEFF00
:1033D00015C0EEFF16C0EEFF17C0EEFFFD0EDBCFEF
:1033E000E9FFFE0EDBCFEAFFEECF14F0EECF15F0D3
:1033F000EECF16F0EFCF17F0030E1F0B07E0D890BB
:103400001436153616361736E806F9E16250E00B29
:10341000E842E842E842E842E842186E196A1A6A4D
:103420001B6A18501412195015121A5016121B50FC
:103430001712FD0EDBCFE9FFFE0EDBCFEAFF14C053
:10344000EEFF15C0EEFF16C0EEFF17C0EEFFD9501D
:10345000010FE96EDACFEAFF660EEE6E0F0EED6E2B
:10346000DF6AFD0EDBCFE9FFFE0EDBCFEAFF0C0EBD
:10347000E926000EEA22EF50DF5C28E2DF50E76E1B
:10348000010EDBCFE9FF020EDBCFEAFFE750E926B2
:10349000000EEA22EF50E66EFD0EDBCFE9FFFE0ED6
:1034A000DBCFEAFF040EE926000EEA22E9CF14F092
:1034B000EACF15F0DF500F011424E96E000E15203D
:1034C000EA6EE552E750EF6EDF2ACBD7E00E7214BA
:1034D0001009726EFC0EF76ADB34FE0BF736F66EDF
:1034E000CE0EF626620EF7220900F5CFE9FF08009E
:1034F000F5CFEAFFEF9E7792030EE15C02E2E16A0C
:10350000E552E16EE552E7CFD9FF1200D9CFE6FFD1
:10351000E1CFD9FFF80EDB5001E1B3D0F90EDBCFDC
:1035200014F0FA0EDBCF15F0FB0EDBCF16F0FC0E1D
:10353000DBCF17F0150ED890173216321532143231
:10354000E806F9E1FD0EDBCFE9FFFE0EDBCFEAFF77
:1035500014C0EFFFFD0EDB2AFE0E01E3DB2AFD0E99
:10356000DBCFE9FFFE0EDBCFEAFF010EEF6EF90EB7
:10357000DBCF14F0FA0EDBCF15F0FB0EDBCF16F02D
:10358000FC0EDBCF17F00D0ED89017321632153225
:103590001432E806F9E1E00E186E196A1A6A1B6A1D
:1035A00018501416195015161A5016161B501716C7
:1035B000FD0EDBCFE9FFFE0EDBCFEAFF1450EF126A
:1035C000F90EDBCF18F0FA0EDBCF19F0FB0EDBCFD4
:1035D0001AF0FC0EDBCF1BF01AC014F01BC015F064
:1035E0000001166A176A030E1416156A166A176A1E
:1035F000FD0EDBCFE9FFFE0EDBCFEAFF1450EF122A
:10360000FD0EDB2AFE0E01E3DB2AF90EDBCF14F000
:10361000FA0EDBCF15F0FB0EDBCF16F0FC0EDBCF86
:1036200017F0080ED8901732163215321432E80609
:10363000F9E11450E66EFD0EDBCFE9FFFE0EDBCFA5
:10364000EAFFE552E750EF6EFD0EDB2AFE0E01E3C6
:10365000DB2AF90EDBCF14F0FA0EDBCF15F0FB0EF0
:10366000DBCF16F0FC0EDBCF17F01450E66EFD0E2C
:10367000DBCFE9FFFE0EDBCFEAFFE552E750EF6E4E
:1036800046D0F90EDBCF14F0FA0EDBCF15F0FB0EAF
:10369000DBCF16F0FC0EDBCF17F0030ED8901732FD
:1036A000163215321432E806F9E1FD0EDBCFE9FFE0
:1036B000FE0EDBCFEAFF14C0EFFFFD0EDB2AFE0E8D
:1036C00001E3DB2A070E146E156A166A176AD950D1
:1036D000F90FE96EFF0EDA20EA6EEE501416EE5086
:1036E0001516EE501616EE501716050E1F0B07E0B6
:1036F000D8901436153616361736E806F9E1FD0E61
:10370000DBCFE9FFFE0EDBCFEAFF14C0EFFFE5528F
:10371000E7CFD9FF1200D9CFE6FFE1CFD9FFFE0EE8
:10372000F76ADB34FE0BF736F66EDE0EF626620E17
:10373000F7220900F5CFE9FF0800F5CFEAFFFD0EFB
:10374000DB50EF16FE0EF76ADB34FE0BF736F66E33
:10375000DE0EF626620EF7220900F5CFE9FF08001B
:10376000F5CFEAFFFD0EDB50EF12E552E7CFD9FFB0
:02377000120045
:0E377200D9CFE6FFE1CFD9FFE6520E0100915C
:103780000083009500970099226B236B246B009BAC
:10379000008D0191009F01930195256B266B276B8E
:1037A00001970199070E286F296B2A6F2B6B2C6BE1
:1037B0009394938695968396040EE66E74EC17F0B8
:1037C000E552010EE66E57EC17F0E552000906E1EE
:1037D000E66A74EC17F0E552000EC5D0FC0EDBCFA4
:1037E000E6FFE9EC12F0E5520E017D51E8240709ED
:1037F0000E01286F296B28CE2AFE29CE2BFEFD0E46
:10380000DBCFE6FFFE0EDBCFE6FFABEC12F0E552BE
:10381000E552E66AE66AE66AE66AE66AE66A1AEC8B
:1038200013F0146E060EE15E1450E66AE66AE66A6C
:10383000E66AE66A010EE66E1AEC13F0146E060EE6
:10384000E15E1450DF6A100EDF5C0FE2E66AE66AA2
:10385000E66AE66AE66ADFCFE6FF1AEC16F0146E57
:10386000060EE15E1450DF2AEED7000EE66EE66A21
:1038700087EC13F0E552E552DF6A100EDF5C0BE2D5
:10388000DF407F0BE66EDFCFE6FFCCEC13F0E552B6
:10389000E552DF2AF2D7DF6A100EDF5C0EE2DF505E
:1038A000E840E840E8401F0BE66EDFCFE6FFF3ECB0
:1038B00014F0E552E552DF2AEFD7040EE76EFA0E58
:1038C000DBCFE9FFFB0EDBCFEAFFE750E926000E76
:1038D000EA22EF50E66E030EE76EFA0EDBCFE9FF49
:1038E000FB0EDBCFEAFFE750E926000EEA22EF509D
:1038F000E66E020EE76EFA0EDBCFE9FFFB0EDBCFC2
:10390000EAFFE750E926000EEA22EF50E66E010ECC
:10391000E76EFA0EDBCFE9FFFB0EDBCFEAFFE750E5
:10392000E926000EEA22EF50E66EFA0EDBCFE9FF41
:10393000FB0EDBCFEAFFEF50E66E6DEC16F0146E77
:10394000050EE15E1450000908E10E010187E66AE8
:1039500074EC17F0E552000E06D0E66A74EC17F02E
:10396000E552010E00D0E552E552E7CFD9FF120033
:10397000D9CFE6FFE1CFD9FFE6520E0100A102D078
:10398000000ED9D0FD0EDBCFE9FFFE0EDBCFEAFF44
:103990000C0EE926000EEA22EF50080803E2018926
:1039A000000EC9D0FD0EDBCFE9FFFE0EDBCFEAFF34
:1039B000EECF14F0EECF15F0EECF16F0EFCF17F0FC
:1039C0002351100DF3CFE9FFF4CFEAFF020EE926F1
:1039D0000E0EEA2214C0EEFF15C0EEFF16C0EEFF79
:1039E00017C0EEFFFD0EDBCFE9FFFE0EDBCFEAFFD7
:1039F0000E0EE926000EEA22EF50E66E2351100D5E
:103A0000F3CFE9FFF4CFEAFF020EE9260E0EEA2219
:103A10000E0EE926000EEA22E552E750EF6EFD0E8B
:103A2000DBCFE9FFFE0EDBCFEAFF0F0EE926000E2B
:103A3000EA22EF50E66E2351100DF3CFE9FFF4CFE9
:103A4000EAFF020EE9260E0EEA220F0EE926000E0C
:103A5000EA22E552E750EF6EFD0EDBCFE9FFFE0EE6
:103A6000DBCFEAFF0C0EE926000EEA22EF50E66EED
:103A70002351100DF3CFE9FFF4CFEAFF020EE92640
:103A80000E0EEA220C0EE926000EEA22E552E7505D
:103A9000EF6EDF6AFD0EDBCFE9FFFE0EDBCFEAFF44
:103AA0000C0EE926000EEA22EF50DF5C36E2FD0E36
:103AB000DBCFE9FFFE0EDBCFEAFF040EE926000EA6
:103AC000EA22E9CF16F0EACF17F0DF500F011624F3
:103AD000E96E000E1720EA6EEF50E66E0E012351DC
:103AE000100DF3CFE9FFF4CFEAFF020EE9260E0E28
:103AF000EA22040EE926000EEA22E9CF14F0EACF0A
:103B000015F0DF500F011424E96E000E1520EA6E47
:103B1000E552E750EF6EDF2ABDD70E010093222B4E
:103B2000020E225D01E10081232B020E235D01E1E3
:103B3000236B010E00D0E552E552E7CFD9FF12000A
:103B4000D9CFE6FFE1CFD9FF030EE126020EDB6AF3
:103B50000E0100B386D04BDA0E012A512B1101E180
:103B60007ED028512A1902E129512B1903E10E01B7
:103B7000030E2E6F0E012D5107E12E5102E1000EB2
:103B800072D0090E2D6F2E07010E2DCEDBFFDB50FC
:103B9000000833E2010EDB042ACE14F02BCE15F020
:103BA00005E0D89015321432E804FBE11450010B03
:103BB00021E0010EDB04DF6EDFCF2DFE010EDF52B0
:103BC00006E0DFCFF3FFE846FE0BF306FCE1E81C5E
:103BD000146E156A14BE156814500E012A1715507C
:103BE0002B172ECEE6FFDFCFE6FF8BEC1BF0E55266
:103BF000E55203D0010EDB06CAD70E012451100D89
:103C0000F3CF14F0F4CF15F0020E14260E0E152289
:103C100014C0E6FF15C0E6FFDFCFE6FF06EC18F0A4
:103C2000E552E552E552DF6EFF0EDF5C02E1000E69
:103C30001AD0DFCFE6FF02EC19F0E552000902E1ED
:103C4000000E11D00E0100B100912207225101E1B6
:103C50000083242B020E245D01E1246B02D0000EB0
:103C600002D0010E00D0146E030EE15C02E2E16AA4
:103C7000E552E16E1450E552E7CFD9FF1200020E73
:103C80000E01225D05E2020ED880225503D002D03B
:103C9000000E00D01200D9CFE6FFE1CFD9FF020E0F
:103CA000E1260E0100BB66D001DA0E012C5160E066
:103CB0002FCEDFFF080EDF5C2EE20E012C51DF520B
:103CC00006E0DFCFF3FFE8327F0BF306FCE1010BE8
:103CD00020E0010EDFCFDBFFDB280E012F6F010E8E
:103CE000F36EDB5004E0D890F336E806FCE1F350C5
:103CF000E81C0E012C172C51DF5206E0DFCFF3FF3A
:103D0000E8327F0BF306FCE1000902E10E012F6BA4
:103D100002D0DF2ACFD7010EDBCFE6FF0E012651FE
:103D2000100DF3CF14F0F4CF15F0000E1426010E91
:103D3000152214C0E6FF15C0E6FF30EC19F0E5527D
:103D4000E552E5520E01009D252B2551146E156A92
:103D5000800E141801E1155001E1008B262B26512D
:103D6000146E156A800E141801E1155001E1266BDE
:103D7000010E03D07692000E00D0146E020EE15CAC
:103D800002E2E16AE552E16E1450E552E7CFD9FF55
:103D90001200D9CFE6FFE1CFD9FF0E0100AD02D06E
:103DA000000EE5D0009B2751100DF3CFE9FFF4CFB3
:103DB000EAFF000EE926010EEA22EECF14F0EECF64
:103DC00015F0EECF16F0EFCF17F0FD0EDBCFE9FFC9
:103DD000FE0EDBCFEAFF14C0EEFF15C0EEFF16C0EB
:103DE000EEFF17C0EEFF2751100DF3CFE9FFF4CF20
:103DF000EAFF000EE926010EEA220E0EE926000E69
:103E0000EA22EF50E66EFD0EDBCFE9FFFE0EDBCFC0
:103E1000EAFF0E0EE926000EEA22E552E750EF6EA9
:103E20002751100DF3CFE9FFF4CFEAFF000EE9268A
:103E3000010EEA220F0EE926000EEA22EF50E66E8E
:103E4000FD0EDBCFE9FFFE0EDBCFEAFF0F0EE9260A
:103E5000000EEA22E552E750EF6E2751100DF3CF26
:103E6000E9FFF4CFEAFF000EE926010EEA220C0E6C
:103E7000E926000EEA22EF50E66EFD0EDBCFE9FFE9
:103E8000FE0EDBCFEAFF0C0EE926000EEA22E55219
:103E9000E750EF6E2751100DF3CFE9FFF4CFEAFFA3
:103EA000000EE926010EEA220D0EE926000EEA2296
:103EB000EF50E66EFD0EDBCFE9FFFE0EDBCFEAFF33
:103EC0000D0EE926000EEA22E552E750EF6E27516B
:103ED000100DF3CFE9FFF4CFEAFF000EE926010E43
:103EE000EA220C0EE926000EEA22EF50E66EE66AA0
:103EF0002751100DF3CFE9FFF4CFEAFF000EE926BA
:103F0000010EEA22040EE926000EEA22E9CF14F09F
:103F1000EACF15F014C0E6FF15C0E6FFFD0EDBCFBB
:103F2000E9FFFE0EDBCFEAFF040EE926000EEA22CF
:103F3000E9CF16F0EACF17F016C0E6FF17C0E6FF8C
:103F4000CFEC2EF0186E060EE15E18500E0125071C
:103F5000255101E1008D272B2751146E156A800E23
:103F6000141801E1155001E1276B010E00D0E55254
:103F7000E7CFD9FF12000E01255100D01200D9CF92
:103F8000E6FFE1CFD9FFE6527750800B06E076508E
:103F9000800B03E0779E0E01008F7750200B22E00C
:103FA0007650200B1FE0779A71AC04D00E0101818E
:103FB000719C18D071AA03D00E01008913D071A88A
:103FC00003D00E0100870ED071A603D00E0101852B
:103FD00009D071A403D00E01008504D071A202D0D3
:103FE0000E010183E552E552E7CFD9FF1200D9CF88
:103FF000E6FFE1CFD9FFE652DF6A090EDF5C51E24E
:10400000010EDF5206E0DFCFF3FFE846FE0BF306BA
:10401000FCE1166E176A16BE17680E0128511614B9
:10402000146E29511714156E1450151038E0F76AE4
:10403000DF34FE0BF736F66EDE0EF626620EF72242
:104040000900F5CFE9FF0800F5CFEAFFEF50080BB4
:1040500014E0010EDF5206E0DFCFF3FFE846FE0B6F
:10406000F306FCE1E81C146E156A14BE15681450C2
:104070000E012A1715502B1712D0010EDF5206E041
:10408000DFCFF3FFE846FE0BF306FCE1146E156A82
:1040900014BE156814500E012A1315502B13DF2A75
:1040A000ACD7E552E552E7CFD9FF1200D9CFE6FFF2
:1040B000E1CFD9FFE652DF6A080EDF5C4FE228CE7F
:1040C00016F029CE17F0161E171ED890173216328A
:1040D000030E1612000E1712010EDF5206E0DFCF9C
:1040E000F3FFE846FE0BF306FCE1186E196A18BEF2
:1040F000196816501814146E17501914156E1450B0
:1041000015102AE0F76ADF34FE0BF736F66ECE0E96
:10411000F626620EF7220900F5CFE9FF0800F5CF79
:10412000EAFFEF50800B0CE0010EDF5206E0DFCF1C
:10413000F3FFE846FE0BF306FCE10E012C130CD056
:10414000010EDF5206E0DFCFF3FFE846FE0BF30679
:10415000FCE1E81C0E012C17DF2AAED7E552E55230
:10416000E7CFD9FF1200D9CFE6FFE1CFD9FF0E018B
:1041700001A725D0870E146E5D0E156E166A14C049
:10418000E6FF15C0E6FF16C0E6FFFD0EDBCFE6FF3B
:10419000FE0EDBCFE6FF2DEC2FF0176E050EE15E75
:1041A0001750F350E66EFB0EDBCFE9FFFC0EDBCFC2
:1041B000EAFFE552E750EF6E0E0101973AD101A1F7
:1041C00025D06E0E146E5D0E156E166A14C0E6FFD5
:1041D00015C0E6FF16C0E6FFFD0EDBCFE6FFFE0EC4
:1041E000DBCFE6FF2DEC2FF0176E050EE15E1750CA
:1041F000F350E66EFB0EDBCFE9FFFC0EDBCFEAFFF0
:10420000E552E750EF6E0E01019113D100A925D0C0
:10421000560E146E5D0E156E166A14C0E6FF15C0BC
:10422000E6FF16C0E6FFFD0EDBCFE6FFFE0EDBCF9E
:10423000E6FF2DEC2FF0176E050EE15E1750F350E0
:10424000E66EFB0EDBCFE9FFFC0EDBCFEAFFE552AB
:10425000E750EF6E0E010099ECD000A725D03A0E82
:10426000146E5D0E156E166A14C0E6FF15C0E6FFEB
:1042700016C0E6FFFD0EDBCFE6FFFE0EDBCFE6FF4E
:104280002DEC2FF0176E050EE15E1750F350E66E21
:10429000FB0EDBCFE9FFFC0EDBCFEAFFE552E75078
:1042A000EF6E0E010097C5D001A525D01E0E146E2D
:1042B0005D0E156E166A14C0E6FF15C0E6FF16C047
:1042C000E6FFFD0EDBCFE6FFFE0EDBCFE6FF2DECBB
:1042D0002FF0176E050EE15E1750F350E66EFB0EE1
:1042E000DBCFE9FFFC0EDBCFEAFFE552E750EF6ED4
:1042F0000E0101959ED000A525D0060E146E5D0E10
:10430000156E166A14C0E6FF15C0E6FF16C0E6FF7C
:10431000FD0EDBCFE6FFFE0EDBCFE6FF2DEC2FF030
:10432000176E050EE15E1750F350E66EFB0EDBCF05
:10433000E9FFFC0EDBCFEAFFE552E750EF6E0E011E
:10434000009577D001A325D0EE0E146E5C0E156E8D
:10435000166A14C0E6FF15C0E6FF16C0E6FFFD0EA4
:10436000DBCFE6FFFE0EDBCFE6FF2DEC2FF0176E66
:10437000050EE15E1750F350E66EFB0EDBCFE9FF52
:10438000FC0EDBCFEAFFE552E750EF6E0E01019322
:1043900050D000AF25D0E20E146E5C0E156E166A7A
:1043A00014C0E6FF15C0E6FF16C0E6FFFD0EDBCF2A
:1043B000E6FFFE0EDBCFE6FF2DEC2FF0176E050EAD
:1043C000E15E1750F350E66EFB0EDBCFE9FFFC0E0B
:1043D000DBCFEAFFE552E750EF6E0E01009F29D0D8
:1043E00001A925D0D00E146E5C0E156E166A14C08D
:1043F000E6FF15C0E6FF16C0E6FFFD0EDBCFE6FFC9
:10440000FE0EDBCFE6FF2DEC2FF0176E050EE15E02
:104410001750F350E66EFB0EDBCFE9FFFC0EDBCF4F
:10442000EAFFE552E750EF6E0E01019902D0000E4F
:0E44300002D0010E00D0E552E7CFD9FF1200F6
:02443E005BEC35
:1044400027F0FB0EDBCFF3FFDB06F35000090AE099
:10445000A9EC27F0FA0E14EC28F0F3E1151CF1E1B9
:10446000010E01D0000E8AEF27F05BEC27F03B0E27
:10447000E12402E3E168E652E16E010EDB6A020E1E
:10448000DB6AF90EDBCFF6FFFA0EDBCFF7FFFB0E90
:10449000DBCFF8FF0800F550DF6EDF5002E1AEEF32
:1044A00026F0250EDF5C02E0A1EF26F0030EDB6AAA
:1044B000040EDB6A050EDB6A060EDB6A070EDB6A9A
:1044C000C3EC26F02D0EDF5C0CE02B0EDF5C09E068
:1044D000200EDF5C06E0230EDF5C03E0300EDF5CC5
:1044E0001AE1DF50300A14E0130A0FE0030A0AE071
:1044F0000B0A05E0060AE4E1030EDB80E1D7030EB8
:10450000DB82DED7030EDB84DBD7030EDB86D8D756
:10451000030EDB88D5D72A0EDF5C1BE1BFEC26F04B
:104520000DEC27F010E0030EDB8006680768130E21
:10453000DBCF0BF0140EDBCF0CF006EC31F0040EE9
:1045400004C0DBFF03D0130EF6EC26F0C3EC26F01C
:104550000BD0090EDB6A64EC27F003E0D8EC27F0FF
:10456000FAD7090EF6EC26F0030EDBB0DB982E0E20
:10457000DF5C1BE1C3EC26F02A0EDF5C0BE1BFEC35
:1045800026F00DEC27F003E1130E48EC27F0C3EC06
:1045900026F00BD0090EDB6A64EC27F003E0D8ECC0
:1045A00027F0FAD7090E48EC27F0680EDF5C07E128
:1045B000C3EC26F0680EDF5C1DE1030E18D0740E0C
:1045C000DF5C17E07A0EDF5C14E0480EDF5C06E08B
:1045D000540EDF5C03E05A0EDF5C02E1020E07D0EE
:1045E0006C0EDF5C03E06A0EDF5C04E1010E9BEC05
:1045F00027F0C9DBDF506E0A01E17FD31E0A01E11B
:1046000092D1200A01E18FD13F0A01E149D11A0A72
:1046100001E146D10D0A01E143D1200A01E140D177
:104620003A0A01E13DD1200A01E13AD1260A01E12D
:1046300035D10D0A01E132D11A0A01E1D9D0200A9F
:104640004AE0300A1FE0460A0EE0250A01E083D363
:10465000D950F90FE96EFF0EDA20EA6E010EEE5E18
:10466000000EEE5AEE5AA9EC27F0250EE66E95DB09
:1046700003E1151C01E169D3A5EC27F001E26BD33E
:10468000DB2A69D3080EDB6A040EDB50010806E260
:10469000040EDB046DEC27F0DB508BDB080EDB50E7
:1046A00009E0030EDB50010B05E172DB01E04DD3A5
:1046B000080EDB6A64DBEFCFDFFF1DEC28F003E1BF
:1046C000151C01E142D3A5EC27F001E3DB2A60DBF6
:1046D00001E141D33AD3070EDB5002080FE1E9ECC8
:1046E00027F0030EB0EC27F00E0EEECFDBFF0F0E1F
:1046F000EECFDBFF100EEECFDBFF20D0F70EDBCFCF
:1047000017F0F80EDBCF18F0020E175E000E185AE5
:10471000F70E17C0DBFFF80E18C0DBFF17C0E9FF6C
:1047200018C0EAFFA0EC27F0166A0E0E14C0DBFFDB
:104730000F0E15C0DBFF100E16C0DBFF0E0EDBCF19
:10474000E6FF0F0EDBCFE6FF100EDBCFE6FF08EC37
:104750002FF0E552E552E552130E05C0DBFF140EB3
:1047600006C0DBFF060EDB5005E0130EE4EC27F07D
:1047700001E26ADB08EC28F002E2130E37DBCBEC37
:1047800027F006E0040EE4EC27F002E2050E2EDB33
:10479000030EDBB005D0FCDA01E0D7D2080EDB6AED
:1047A000090EDB6A0E0EDBCFF6FF0F0EDBCFF7FF35
:1047B000100EDBCFF8FF0800F550DF6EDF5014E07D
:1047C0000EEC28F011E21DEC28F003E1151C01E1CC
:1047D000BCD2BBDB01E3DB2A090EDB2AD9500E0F6A
:1047E000E96E000ECBDBE7D7D3DA01E1B4D2ADD26C
:1047F000C6DA110EEECFDBFF120EEDCFDBFF110E8E
:10480000DBCFE6FF120EDBCFE6FFFAEC2EF0E5522F
:10481000E552130EF3CFDBFF140EF4CFDBFF060ED1
:10482000DB5004E0130ED0DB01E20EDB08EC28F0D5
:1048300002E2130EDBDAAFDB05E0040EC5DB02E2B9
:10484000050ED4DA030EDBB005D0A2DA01E07DD28A
:10485000080EDB6A090EDB6A110EDBCFE9FF120ED0
:10486000DBCFEAFFEFCFDFFFDF5014E0D7DB12E250
:10487000E4DB03E1151C01E168D267DB01E3DB2A1D
:10488000090EDB2A110EDB2ADBCFE9FF120EE8E36B
:10489000DB2AE6D77DDA01E15ED257D2030EDB8E4A
:1048A000070EDB0410E195DB040E5ADB0A0EEECF97
:1048B000DBFF0B0EEECFDBFF0C0EEECFDBFF0D0EA2
:1048C000EECFDBFF6CD0070EDB5003082CE1030EAC
:1048D000DBAE0DD0B2DA020E76DAEFCF14F0156A45
:1048E000166A176A14AE39D01568166835D0F70EF7
:1048F000DBCF15F0F80EDBCF16F0020E155E000EC2
:10490000165AF70E15C0DBFFF80E16C0DBFF15C0F8
:10491000E9FF16C0EAFFEFCF14F00A0E14C0DBFF68
:104920000B0EDB6A38D0070EDB50020809E1030EDC
:10493000DBAE04D059DB16AE10D00ED055DB0DD057
:10494000030EDBAE12D079DA020E3DDAF9DA166A1E
:10495000176A15AE02D016681768E2DA0C0E16C098
:10496000DBFF0D0E17C0DBFF1AD0F70EDBCF16F002
:10497000F80EDBCF17F0020E165E000E175AF70E78
:1049800016C0DBFFF80E17C0DBFF16C0E9FF17C02B
:10499000EAFFD6DAC5DA0C0EDB6A0D0EDB6A060E0C
:1049A000DB5005E1010EF36E050EF3CFDBFF150EB4
:1049B000DB6A160EDB6AD950370F146E000EDA2050
:1049C000156E390E14C0DBFF3A0E15C0DBFF380E32
:1049D000DB6A080EDB6A0A0EAEDADF50780A12E0F4
:1049E000200A10E0280A0CE0200A0AE03F0A06E04C
:1049F0000D0A02E0200A08E1020E05D0080E03D0DD
:104A0000080EDF26100E97DA030EDBBE02D0DB9213
:104A1000DB94DB50800B24E08ADAD890030EEB5055
:104A2000000A08E6000EEE5C000EEE58000EEE588E
:104A3000000EEE5815E213DA09680A680B680C6874
:104A4000CEEC30F00A0E00C0DBFF0B0E01C0DBFF26
:104A50000C0E02C0DBFF0D0E03C0DBFF2D0E08D0D5
:104A6000030EDBA202D02B0E03D0DBA408D0200E55
:104A7000F36E170EF3CFDBFF150EDB2A02D0170EF5
:104A8000DB6A050EDB5003E1B7D901E189D0880E5E
:104A9000146E640E156E000E166E070EDBCF17F047
:104AA000186A196A1A6A17C009F018C00AF019C002
:104AB0000BF01AC00CF0D3D933EC31F014500024B1
:104AC000F36E15500120F46E16500220F86EF4CFEC
:104AD000F7FFF3CFF6FF0800090EF5CFDBFF580E06
:104AE000DF5C0FE1610EF36E090E7BD90AE3200E45
:104AF000146E090EDBCFE7FF1450E75E090EE7CF17
:104B0000DBFF070EDBCF14F0156A166A176A0FDA9F
:104B100014C009F015C00AF016C00BF017C00CF055
:104B2000EECF04F0EECF05F0EECF06F0EFCF07F0BA
:104B300033EC31F007C0EDFF06C0EDFF05C0EDFF1F
:104B400004C0EFFF390EDBCFE9FFDB063A0EDBCF07
:104B5000EAFF01E2DB06090EDBCFEFFF150EDB2AD1
:104B60004BD995E1030EDBA61DD06F0EDF5C06E18D
:104B7000C1D918E3150EDB285BDA14D0780EDF5CA0
:104B800009E0580EDF5C06E0620EDF5C03E0420ED7
:104B9000DF5C08E1020EF36E160EF3CFDBFF02D0EE
:104BA000150EDB6A030EDB50100B0EE0040EDBCF9C
:104BB00014F0050EDB50D880145406E2060EDB50CC
:104BC00003E1040EDB5034DA95D90AE2050EDBCF9F
:104BD000E7FF150EDB50E75E050EE7CFDBFF02D0E7
:104BE000050EDB6A040EDBCF14F0160E45D9D88013
:104BF000145414E2160EDBCFE6FF150EDBCFE6FFF2
:104C0000040EDBCFE6FF050EDB50E552E75CE55214
:104C1000D880E754E552D880E7545FD9030EDB50C3
:104C2000010B0BE1080EDB5008E0B2D801E08DD09B
:104C3000080EDB50BED8080EDB6A170EDB5007E00B
:104C400088D9170EF1D903E1151C01E17ED0160EAB
:104C5000DB5016E07ED9300EE66E9FD802E1151CBF
:104C600074E077D9DFCFE6FF17EC30F0E552E5527C
:104C7000E552F4CF15F00001F31C02E1151C65E0CC
:104C8000050EDBCF14F0160EDB50D880145409E269
:104C9000050EDBCFE7FF160EDB50E75E050EE7CF14
:104CA000DBFF300EE66E050ECBD94FE1390EDB2A65
:104CB000DBCFE9FF3A0E01E3DB2ADBCFEAFF090E87
:104CC000EFCFDBFFDB500EE044D9090EADD902E196
:104CD000151C3BE0390EDB2ADBCFE9FF3A0EEDE392
:104CE000DB2AEBD755D831E1160EDBCFE6FF080EF5
:104CF000C3D8E552E7245DD82ED0070EDB50030A57
:104D00001CE0010A14E0030A07E07BD9DBCFEEFFC9
:104D1000020EDBCFEDFF1FD0F5D8196A17AE02D017
:104D2000186819682CD8BCD819C0EEFF14D0EAD87E
:104D300017BE186824D8B4D80ED063D9DBCFEFFFE4
:104D40000AD07BD905E1151C03E1F368F46810D0A3
:104D5000FCD801E3DB2A79D94AEF22F0010EDBCF40
:104D600014F0020EDBCF15F014C0F3FF15C0F4FFF2
:104D70003B0EE15C02E2E16AE552E16ECBD029D95B
:104D8000020EB0EF27F061D90800F550DF6E120077
:104D9000200EE66E080E20EF28F017EC30F0E552FA
:104DA000E552E552F3CF14F0F4CF15F00001F31CF7
:104DB0001200146E156AD950010F4DD91450EE2609
:104DC0001550ED221200185E000E195AF70E18C089
:104DD000DBFFF80E19C0DBFF18C0E9FF19C0EAFFBE
:104DE0001200DBCFF4FFF350F45C1200DB50E76EEF
:104DF000040EE7CFDBFF12000A0EDBCF14F00B0E20
:104E0000DBCF15F00C0EDBCF16F00D0EDBCF17F05D
:104E100014501510161017101200130EEECFDBFFF2
:104E2000140EEDCFDBFF130EDBCF14F0140EDBCF2F
:104E300015F00001800E15141200F70EDBCF18F0EC
:104E4000F80EDBCF19F01200050EDB50E66ED950DC
:104E5000130F01D9E552E750EE6EED6A12000A0E0B
:104E6000DBCF04F00B0EDBCF05F00C0EDBCF06F032
:104E70000D0EDBCF07F01200DBCFE6FF150EDBCF08
:104E8000E6FF050EDB50E552E724E552E724120069
:104E9000DB50CED8010EF36E060EF3CFDBFF12000F
:104EA000EE50EFCFEAFFE96E16C0EEFF17C0EEFF3F
:104EB00018C0EEFF1200D9CFE6FFDACFE6FFE1CF50
:104EC000D9FFE2CFDAFF1200DFCFE6FFE66AE4ECBB
:104ED00031F0E552E552F3501200E76E080EE7CFCD
:104EE000DBFF1200EECF14F0EECF15F0EFCF16F08F
:104EF000176A1200050EDBCF14F0150EDB50D880B8
:104F000014541200010EDBCF16F0020EDBCF17F0A7
:104F1000186A1200E552E5CFDAFFE7CFD9FF120099
:104F20000A0E14C0DBFF0B0E15C0DBFF1200D950B8
:104F30000A0F2BEF28F0F36E070EF3CFDBFF120002
:104F4000EECF14F0EFCF15F01200010EDB2A020EA7
:104F50001200FC0EDBCFE6FFFD0EDBCFE6FF1200FA
:104F6000145E000E155AF70E14C0DBFFF80E15C0C4
:104F7000DBFF14C0E9FF15C0EAFF1200DA20EA6E79
:104F8000EF2AEECFF6FF000EEF22EECFF7FFEF2273
:104F9000EECFF8FF1200040EDBCFE6FF130EDB505E
:104FA000E552E75C9ADFDB5004DF060EDB501200AF
:104FB000090EDB500A0DF350DF24D00FE76E090E07
:104FC000E7CFDBFFC3EF26F0DB50F36E050EF1EF0A
:104FD00026F0F70EDBCF14F0F80EDBCF15F0120041
:104FE000DFCFE6FFCDEF26F028DF030EECDE72EF19
:104FF00027F01FEC22F0E552E552E552E552000998
:105000001200BDDEEE50EFCFEAFFE96E010E120096
:10501000130EDB50F36E040EF1EF26F0040EDB509E
:10502000F36E090EF1EF26F0DBCFE6FFCDEF26F0B1
:10503000E76E050EE7CFDBFF12008BDFF0EF27F006
:10504000DBCFE6FF86DFF9EF27F0D950F90FE96EE5
:10505000FF0EBEEF27F0E96E000EDA20EA6E1200B6
:10506000D9CFE6FFE1CFD9FF0B01A591A583A76BAF
:10507000A86BA96BAA6BAB6BAC6BA595A587A59923
:10508000A59BAD6BAE6BAF6BB06BFE0EDBCFB1FB18
:10509000CC0EE66E07EC32F0E5529D989D9AE552F3
:1050A000E7CFD9FF1200D9CFE6FFE1CFD9FF0B013F
:1050B000A691A683B26BB36BB46BB56BB66BB76BD3
:1050C000A695A687A699A69BB86BB96BBA6BBB6B66
:1050D000FE0EDBCFB1FBCC0EE66EF6EC31F0E55206
:1050E000A388A38AE552E7CFD9FF1200D9CFE6FF04
:1050F000E1CFD9FF0B01A5A102D0000E1FD0000EF9
:10510000A925E96E0A0EAA21EA6EFE0EDBCFEFFF9B
:10511000A593A72B000EA8230A0EA71901E1A851F9
:1051200001E1A581A92B000EAA230A0EA91901E10C
:10513000AA5102E1A96BAA6B010E00D0E552E7CF9C
:10514000D9FF1200D9CFE6FFE1CFD9FF0B01A6A10D
:1051500002D0000E21D0A398680EB425E96E0B0E84
:10516000B521EA6EFE0EDBCFEFFFA693B22B000E49
:10517000B3231E0EB21901E1B35101E1A681B42B94
:10518000000EB5231E0EB41901E1B55102E1B46B56
:10519000B56BA388010E00D0E552E7CFD9FF12000E
:1051A000D9CFE6FFE1CFD9FF020EE126F6D8F3CF43
:1051B00014F0F4CF15F0FB0EDBCF16F0FC0EDBCFB6
:1051C00017F01650145C1750155802E2000E2CD040
:1051D000DE6ADD6ADECF14F0DDCF15F0FB0EDBCF2B
:1051E00016F0FC0EDBCF17F01650145C1750155854
:1051F00019E2FD0EDBCF14F0FE0EDBCF15F0DE5012
:105200001424E96EDD501520EA6EEF50E66E6EDF75
:10521000E552000902E1000E07D0DF2A010E01E38A
:10522000DB2AD8D7010E00D0146E020EE15C02E238
:10523000E16AE552E16E1450E552E7CFD9FF120062
:10524000D9CFE6FFE1CFD9FF020EE126BFD8F3CFD9
:1052500014F0F4CF15F0FB0EDBCF16F0FC0EDBCF15
:1052600017F01650145C1750155802E2000E2CD09F
:10527000DE6ADD6ADECF14F0DDCF15F0FB0EDBCF8A
:1052800016F0FC0EDBCF17F01650145C17501558B3
:1052900019E2FD0EDBCF14F0FE0EDBCF15F0DE5071
:1052A0001424E96EDD501520EA6EEF50E66E4ADFF9
:1052B000E552000902E1000E07D0DF2A010E01E3EA
:1052C000DB2AD8D7010E00D0146E020EE15C02E298
:1052D000E16AE552E16E1450E552E7CFD9FF1200C2
:1052E0000B01A5B331D09EA8FED7000000000B0132
:1052F000B15101E08C88000E0B01AB25E96E0A0E5E
:105300000B01AC21EA6EEF50E66ECDEC31F0E552C8
:105310000B01A5A102D00B01A5910B01A707000E5F
:10532000A85B0B01A751A81102E10B01A5830B019A
:10533000AB2B000EAC230B010A0EAB1901E1AC51F3
:1053400003E10B01AB6BAC6B12000B01A6B323D0D6
:10535000BC5101E08C88680EB625E96E0B0EB721B2
:10536000EA6EEF50E66EB6EC31F0E5520B01A6B1F5
:10537000A691B207000EB35BB251B31101E1A6834F
:10538000B62B000EB7231E0EB61901E1B75102E18C
:10539000B66BB76B01D0A39812000B010A0EA75D84
:1053A000000EA8590FE2A7CB14F0A8CB15F00A0EF7
:1053B000D8801456000E155614C0F3FF15C0F4FF24
:1053C00004D003D0F36AF46A00D012000B011E0E61
:1053D000B25D000EB3590FE2B2CB14F0B3CB15F0AF
:1053E0001E0ED8801456000E155614C0F3FF15C0BB
:1053F000F4FF04D003D0F36AF46A00D01200D9CFCE
:10540000E6FFE1CFD9FFE6529EBA02D0000E50D09F
:10541000ABA20CD00B01A58997EC31F0DF6E000038
:10542000000097EC31F0DF6EAB98AB880B01A5B5AF
:105430003BD097EC31F0DF6EABA404D00B01A58B11
:10544000000E36D00B01B15105E08C50100B02E07C
:10545000000E2ED00B01A5990B01A5970A0E0B018A
:10546000AF25E96E0A0E0B01B021EA6EDFCFEFFF28
:105470000B01AD2B000EAE235E0E0B01AD1902E148
:10548000010EAE1902E10B01A5850B01AF2B000E39
:10549000B0235E0E0B01AF1902E1010EB01903E15A
:1054A0000B01AF6BB06B02D0000E02D0010E00D02A
:1054B000E552E552E7CFD9FF1200D9CFE6FFE1CFA1
:1054C000D9FFE652A6A20CD00B01A68978EC31F0E8
:1054D000DF6E0000000078EC31F0DF6EA698A68841
:1054E0000B01A6B539D078EC31F0DF6EA6A404D05C
:1054F0000B01A68B000E36D00B01BC5105E08C5081
:10550000200B02E0000E2ED00B01A6990B01A697EE
:10551000860E0B01BA25E96E0B0E0B01BB21EA6E5C
:10552000DFCFEFFF0B01B82B000EB9230B01010EEB
:10553000B81901E1B95102E10B01A6850B01BA2BA3
:10554000000EBB230B01010EBA1901E1BB5103E1AF
:105550000B01BA6BBB6B04D00B01A689000E02D005
:10556000010E00D0E552E552E7CFD9FF1200D9CFA6
:10557000E6FFE1CFD9FF0B01A5A702D0000E29D08D
:10558000A5950A0E0001FB25E96E0A0EFC21EA6EC4
:10559000EF50E66EFD0EDBCFE9FFFE0EDBCFEAFF3C
:1055A000E552E750EF6E0B01AD07000EAE5BAD515B
:1055B000AE1101E1A5870001FB2B000EFC235E0E5E
:1055C000FB1902E1010EFC1902E1FB6BFC6B010E01
:1055D00000D0E552E7CFD9FF1200D9CFE6FFE1CFE7
:1055E000D9FF0B01A6A702D0000E2AD0A39AA69538
:1055F000860E0001FD25E96E0B0EFE21EA6EEF50CE
:10560000E66EFD0EDBCFE9FFFE0EDBCFEAFFE552D3
:10561000E750EF6E0B01B807000EB95BB851B91136
:1056200001E1A6870001FD2B000EFE23010EFD19EE
:1056300001E1FE5102E1FD6BFE6BA38A010E00D079
:10564000E552E7CFD9FF12000B01AD5100D0120097
:105650000B01B85100D01200D9CFE6FFE1CFD9FF3E
:10566000050EE126FA0EDBCF04F0056A066A076A2A
:10567000400E096E420E0A6E0F0E0B6E0C6ACEECD7
:1056800030F000C0DEFF01C0DEFF02C0DEFF03C05D
:10569000DDFFDD52DD52030EF36E040EF3CFDBFFB0
:1056A000DB50030A01E183D0020A44E0030A42E02E
:1056B000020A03E0F368F46AB8D0D9CFE9FFDACF81
:1056C000EAFFEECF18F0EECF19F0EECF1AF0EFCFE1
:1056D0001BF018C004F019C005F01AC006F01BC07A
:1056E00007F0FB0EDBCF09F0FC0EDBCF0AF0FD0E5E
:1056F000DBCF0BF0FE0EDBCF0CF033EC31F004C04F
:1057000014F005C015F006C016F007C017F0060E1D
:10571000D8901732163215321432E806F9E1140621
:10572000000E155A165A175A14C0F3FF15C0F4FF8D
:105730007CD07BD0D9CFE9FFDACFEAFFEECF18F0EB
:10574000EECF19F0EECF1AF0EFCF1BF018C004F037
:1057500019C005F01AC006F01BC007F0FB0EDBCF26
:1057600009F0FC0EDBCF0AF0FD0EDBCF0BF0FE0ED6
:10577000DBCF0CF033EC31F004C014F005C015F0B1
:1057800006C016F007C017F0040ED8901732163274
:1057900015321432E806F9E11406000E155A165AAD
:1057A000175A14C0F3FF15C0F4FF3FD03ED0D9CF35
:1057B000E9FFDACFEAFFEECF18F0EECF19F0EECF27
:1057C0001AF0EFCF1BF018C004F019C005F01AC092
:1057D00006F01BC007F0FB0EDBCF09F0FC0EDBCFA1
:1057E0000AF0FD0EDBCF0BF0FE0EDBCF0CF033EC3E
:1057F00031F004C014F005C015F006C016F007C063
:1058000017F0020ED8901732163215321432E8060D
:10581000F9E11406000E155A165A175A14C0F3FF70
:1058200015C0F4FF02D001D000D0050EE15C02E209
:10583000E16AE552E16EE552E7CFD9FF1200D9CF18
:10584000E6FFE1CFD9FF050EE126FA0EDBCF04F02B
:10585000056A066A076A400E096E420E0A6E0F0E4E
:105860000B6E0C6ACEEC30F000C0DEFF01C0DEFF34
:1058700002C0DEFF03C0DDFFDD52DD52030EF36E1A
:10588000040EF3CFDBFFDB50030A01E183D0020AF1
:1058900044E0030A42E0020A03E0F368F46AB8D085
:1058A000D9CFE9FFDACFEAFFEECF18F0EECF19F04B
:1058B000EECF1AF0EFCF1BF018C004F019C005F0BE
:1058C0001AC006F01BC007F0FB0EDBCF09F0FC0E80
:1058D000DBCF0AF0FD0EDBCF0BF0FE0EDBCF0CF0C2
:1058E00033EC31F004C014F005C015F006C016F01A
:1058F00007C017F0060ED890173216321532143240
:10590000E806F9E11406000E155A165A175A14C083
:10591000F3FF15C0F4FF7CD07BD0D9CFE9FFDACFFD
:10592000EAFFEECF18F0EECF19F0EECF1AF0EFCF7E
:105930001BF018C004F019C005F01AC006F01BC017
:1059400007F0FB0EDBCF09F0FC0EDBCF0AF0FD0EFB
:10595000DBCF0BF0FE0EDBCF0CF033EC31F004C0EC
:1059600014F005C015F006C016F007C017F0040EBD
:10597000D8901732163215321432E806F9E11406BF
:10598000000E155A165A175A14C0F3FF15C0F4FF2B
:105990003FD03ED0D9CFE9FFDACFEAFFEECF18F003
:1059A000EECF19F0EECF1AF0EFCF1BF018C004F0D5
:1059B00019C005F01AC006F01BC007F0FB0EDBCFC4
:1059C00009F0FC0EDBCF0AF0FD0EDBCF0BF0FE0E74
:1059D000DBCF0CF033EC31F004C014F005C015F04F
:1059E00006C016F007C017F0020ED8901732163214
:1059F00015321432E806F9E11406000E155A165A4B
:105A0000175A14C0F3FF15C0F4FF02D001D000D024
:105A1000050EE15C02E2E16AE552E16EE552E7CF94
:105A2000D9FF12001200A450100B04E0A350100B79
:105A300001E08BDCA450200B04E0A350200B01E01C
:105A40003CDD1200ACB28C981200BAB28C9A1200F3
:105A5000D9CFE6FFE1CFD9FF0B01A5A925D0C10E13
:105A6000146E5C0E156E166A14C0E6FF15C0E6FFD4
:105A700016C0E6FFFD0EDBCFE6FFFE0EDBCFE6FF36
:105A80002DEC2FF0176E050EE15E1750F350E66E09
:105A9000FB0EDBCFE9FFFC0EDBCFEAFFE552E75060
:105AA000EF6E0B01A59929D0A5AB25D0AE0E146ED3
