:020000040000FA
:060000001BEF41F01200AD
:020006001200E6
:0600080042EF3DF0120082
:02000E001200DE
:0400100000000000EC
:020014000000EA
:0600180099EF3DF012001B
:02001E000400DC
:100020009D8200003B0E0000030000007F82000064
:10003000E10B00001E00000014000000BF090000DA
:100040000200000010000000370E00000400000055
:10005000D9CFE6FFE1CFD9FFE65294809482948411
:1000600094869488948A968096821F0E8214090141
:10007000206F8250200B01E0010E010F256F250536
:100080000FE1A50E2D6F090E2E6F296BC20E2A6F80
:10009000010E2B6F2C6B276B286B800E2F6F0FD0F0
:1000A000A60E2D6F090E2E6F296BC20E2A6F010E40
:1000B0002B6F2C6B800E276F400E286F2F6B949C3C
:1000C000948E959C958E2051100A01E196D1020ADA
:1000D00001E193D1120A01E133D10D0A01E1D3D03C
:1000E000090A72E00C0A70E0190A6EE0180A6CE066
:1000F000030A6AE0010A68E0070A66E0020A64E0AF
:100100000B0A01E07AD1250502E1898004D0020EB4
:10011000255D01E18A8A250503E18984898A05D064
:10012000020E255D02E18A888D84250506E1010E17
:10013000E66E64EC25F0E55205D0010EE66E88EC23
:1001400025F0E552090125051EE1400EE66EE66A3E
:10015000C20EE66E010EE66EE66A6FEC28F0026EE5
:10016000050EE15E0250F3CF00F0F4CF01F000C0C5
:10017000E6FF01C0E6FF3C0EE66E82EC3FF0E55282
:10018000E552E5521DD0400EE66EE66AC20EE66EFE
:10019000010EE66EE66A62EC29F0026E050EE15E83
:1001A0000250F3CF00F0F4CF01F000C0E6FF01C031
:1001B000E6FFFC0EE66E46EC3FF0E552E552E552F6
:1001C0000901020E266F5CD2250502E1898004D068
:1001D000020E255D01E18A8A250503E18994899A49
:1001E00005D0020E255D02E18A988D94250505E172
:1001F000E66A64EC25F0E55204D0E66A88EC25F066
:10020000E552090125051EE1400EE66E800EE66E00
:10021000250EE66EE66AE66A6FEC28F0026E050EC1
:10022000E15E0250F3CF00F0F4CF01F000C0E6FF32
:1002300001C0E6FF3C0EE66E82EC3FF0E552E5526F
:10024000E5521DD0400EE66E800EE66E250EE66E7F
:10025000E66AE66A62EC29F0026E050EE15E025083
:10026000F3CF00F0F4CF01F000C0E6FF01C0E6FFDD
:10027000FC0EE66E46EC3FF0E552E552E552090110
:10028000010E266FFDD1250502E1898004D0020E02
:10029000255D01E18A8A250503E18994899A05D0C3
:1002A000020E255D02E18A988D94250505E1E66A36
:1002B00064EC25F0E55204D0E66A88EC25F0E552BE
:1002C000090125051DE1400EE66EE66A960EE66E12
:1002D000E66AE66A6FEC28F0026E050EE15E0250F7
:1002E000F3CF00F0F4CF01F000C0E6FF01C0E6FF5D
:1002F0003C0EE66E82EC3FF0E552E552E5521CD032
:10030000400EE66EE66A960EE66EE66AE66A62EC15
:1003100029F0026E050EE15E0250F3CF00F0F4CF3B
:1003200001F000C0E6FF01C0E6FFFC0EE66E46EC01
:100330003FF0E552E552E5520901010E266FA0D1CA
:10034000250502E1898004D0020E255D01E18A8A3B
:10035000250503E18994899A05D0020E255D02E105
:100360008A988D94250505E1E66A64EC25F0E5524E
:1003700004D0E66A88EC25F0E552090125051DE167
:10038000400EE66EE66AE10EE66EE66AE66A6FEC3D
:1003900028F0026E050EE15E0250F3CF00F0F4CFBC
:1003A00001F000C0E6FF01C0E6FF3C0EE66E82EC05
:1003B0003FF0E552E552E5521CD0400EE66EE66A8B
:1003C000E10EE66EE66AE66A62EC29F0026E050E60
:1003D000E15E0250F3CF00F0F4CF01F000C0E6FF81
:1003E00001C0E6FFFC0EE66E46EC3FF0E552E5523A
:1003F000E5520901010E266F43D18450020B01E042
:10040000010E006E8450010BE8240024266F265153
:10041000030A01E1D2D0010A6EE0030A0CE0010AEE
:1004200001E02DD1250502E1899004D0020E255D61
:1004300001E18A9A24D1250502E1898004D0020EC7
:10044000255D01E18A8A250503E18994899A05D011
:10045000020E255D02E18A988D94250505E1E66A84
:1004600064EC25F0E55204D0E66A88EC25F0E5520C
:100470000901250520E1400EE66E29C9E6FF2AC9DB
:10048000E6FF2BC9E6FF2CC9E6FF6FEC28F0026EF1
:10049000050EE15E0250F3CF00F0F4CF01F000C092
:1004A000E6FF01C0E6FF3C0EE66E82EC3FF0E5524F
:1004B000E552E5521FD0400EE66E29C9E6FF2AC973
:1004C000E6FF2BC9E6FF2CC9E6FF62EC29F0026EBD
:1004D000050EE15E0250F3CF00F0F4CF01F000C052
:1004E000E6FF01C0E6FFFC0EE66E46EC3FF0E5528B
:1004F000E552E552C4D0250502E1898004D0020E00
:10050000255D01E18A8A250503E18984898A05D070
:10051000020E255D02E18A888D84250506E1010E23
:10052000E66E64EC25F0E55205D0010EE66E88EC2F
:1005300025F0E5520901250520E1400EE66E29C9A6
:10054000E6FF2AC9E6FF2BC9E6FF2CC9E6FF6FECE0
:1005500028F0026E050EE15E0250F3CF00F0F4CFFA
:1005600001F000C0E6FF01C0E6FF3C0EE66E82EC43
:100570003FF0E552E552E5521FD0400EE66E29C924
:10058000E6FF2AC9E6FF2BC9E6FF2CC9E6FF62ECAD
:1005900029F0026E050EE15E0250F3CF00F0F4CFB9
:1005A00001F000C0E6FF01C0E6FFFC0EE66E46EC7F
:1005B0003FF0E552E552E55262D0250502E189801F
:1005C00004D0020E255D01E18A8A250504E18984B3
:1005D000899A8C8806D0020E255D03E18A888D9465
:1005E0008C8A250505E1E66A64EC25F0E55204D025
:1005F000E66A88EC25F0E5520901250520E1400E68
:10060000E66E29C9E6FF2AC9E6FF2BC9E6FF2CC919
:10061000E6FF6FEC28F0026E050EE15E0250F3CFAC
:1006200000F0F4CF01F000C0E6FF01C0E6FF3C0E91
:10063000E66E82EC3FF0E552E552E5521FD0400EE7
:10064000E66E29C9E6FF2AC9E6FF2BC9E6FF2CC9D9
:10065000E6FF62EC29F0026E050EE15E0250F3CF78
:1006600000F0F4CF01F000C0E6FF01C0E6FFFC0E91
:10067000E66E46EC3FF0E552E552E55200D000D080
:100680000901250502E18A8A04D0020E255D01E1F7
:100690008980250503E18A988D9405D0020E255D99
:1006A00002E18994899A250505E1E66A88EC25F03E
:1006B000E55204D0E66A64EC25F0E552090125050F
:1006C00020E1400EE66E29C9E6FF2AC9E6FF2BC9E4
:1006D000E6FF2CC9E6FF62EC29F0026E050EE15E32
:1006E0000250F3CF00F0F4CF01F000C0E6FF01C0EC
:1006F000E6FFFC0EE66E46EC3FF0E552E552E552B1
:100700001FD0400EE66E29C9E6FF2AC9E6FF2BC9B5
:10071000E6FF2CC9E6FF6FEC28F0026E050EE15EE5
:100720000250F3CF00F0F4CF01F000C0E6FF01C0AB
:10073000E6FF3C0EE66E82EC3FF0E552E552E552F4
:10074000E10EE66E0B0EE66EE66AE66A200EE66ED7
:10075000020EE66E5AEC18F0006E060EE15E0050D6
:10076000000901E179D120C9E6FF7CEC0AF0E552ED
:10077000F3CF21F9F4CF22F90901236B246B21C9AE
:1007800010F922C911F923C912F924C913F9112B3F
:10079000000E12231323100E205D1BE18386E66AF0
:1007A000E66AE66AE66AE66AE66A28EC0FF0006E38
:1007B000060EE15E0050E66AE66AE66AE66AE66A06
:1007C000010EE66E28EC0FF0006E060EE15E0050A2
:1007D0001BD0E66AE668070EE66EE66AE66AE66A37
:1007E00028EC0FF0006E060EE15E0050E66AE66847
:1007F000070EE66EE66AE66A010EE66E28EC0FF07A
:10080000006E060EE15E005009011F6B1E6BDF6A71
:10081000100EDF5C0EE2DF50E840E840E8401F0BBE
:10082000E66EDFCFE6FF03EC11F0E552E552DF2A7A
:10083000EFD7E66A21C900F022C901F023C902F00E
:1008400024C903F0006A0F0E0116026A036A00C091
:10085000E6FF01C0E6FF02C0E6FF03C0E6FFE66A6E
:100860002AEC12F0046E060EE15E0450E66A21C91D
:1008700000F022C901F023C902F024C903F0F00EF0
:1008800000160F0E0116026A036A00C0E6FF01C0DF
:10089000E6FF02C0E6FF03C0E6FF010EE66E2AECAB
:1008A00012F0046E060EE15E0450100E0901205D88
:1008B0001FE0E66A21C900F022C901F023C902F055
:1008C00024C903F00006000E015A025A035A00C060
:1008D000E6FF01C0E6FF02C0E6FF03C0E6FF020E2E
:1008E000E66E2AEC12F0046E060EE15E045011D0A2
:1008F000E66A21C9E6FF22C9E6FF23C9E6FF24C94B
:10090000E6FF020EE66E2AEC12F0006E060EE15EC5
:100910000050030EDF6E100EDF5C13E2E66A21C9A1
:10092000E6FF22C9E6FF23C9E6FF24C9E6FFDFCFC1
:10093000E6FF2AEC12F0006E060EE15E0050DF2AA0
:10094000EAD7E66AE66ADCEC0FF0E552E552010E02
:10095000E66EE66EDCEC0FF0E552E552010EE66E57
:10096000020EE66EDCEC0FF0E552E552020EE66E8A
:10097000030EE66EDCEC0FF0E552E552030EE66E78
:10098000040EE66EDCEC0FF0E552E552030EE66E67
:10099000050EE66EDCEC0FF0E552E552040EE66E55
:1009A000060EE66EDCEC0FF0E552E552040EE66E44
:1009B000070EE66EDCEC0FF0E552E552050EE66E32
:1009C000080EE66EDCEC0FF0E552E552050EE66E21
:1009D000090EE66EDCEC0FF0E552E552060EE66E0F
:1009E0000A0EE66EDCEC0FF0E552E552060EE66EFE
:1009F0000B0EE66EDCEC0FF0E552E552070EE66EEC
:100A00000C0EE66EDCEC0FF0E552E552070EE66EDA
:100A10000D0EE66EDCEC0FF0E552E552020EE66ECE
:100A20000E0EE66EDCEC0FF0E552E552030EE66EBC
:100A30000F0EE66EDCEC0FF0E552E552E668E66874
:100A400095EC0FF0E552E552100E0901205D04E02F
:100A50000C0EE66E43D9E552E552E552E7CFD9FFD9
:100A60001200D9CFE6FFE1CFD9FF030EE1263DD832
:100A70008DD84BEC1AF00901275107E1250503E158
:100A8000A6EC26F002D0E1EC26F0BAEC1DF0E76E01
:100A9000010EE7CFDBFFDB5001E08C840901250567
:100AA00007E16BEC2AF0E76E020EE7CFDBFF06D022
:100AB000D3EC2AF0E76E020EE7CFDBFFDB5001E05C
:100AC0008C8409012F5107E1250503E1E1EC26F0B3
:100AD00002D0A6EC26F0030EE15C02E2E16AE552E8
:100AE000E16EE552E7CFD9FF1200020E0901265D43
:100AF00007E1250503E165EC2AF002D068EC2AF055
:100B00000901285107E1250503E13EEC27F002D059
:100B10009EEC27F00B01F55101E001D0F52B090106
:100B20002051040A29E0010A27E0050A25E00D0A00
:100B300023E0050A21E0190A1FE0180A1DE0030A54
:100B40001BE0010A19E0070A17E01E0A15E0020A75
:100B50000BE01E0A01E010D0F5CBE6FF20EC0EF012
:100B6000E5520B01F56F10D0F5CBE6FFB2EC0BF0C0
:100B7000E5520B01F56F08D0F5CBE6FF95EC0DF0D3
:100B8000E5520B01F56F00D000D012000B01F651B9
:100B900028E009012051040A01E196D0010A01E18F
:100BA00093D0050A01E190D00D0A01E18DD0050A2C
:100BB00001E18AD0190A01E187D0180A01E184D045
:100BC000030A01E181D0010A01E17ED0070A01E1B7
:100BD0007BD01E0A01E178D01C0A73E01E0A69E08E
:100BE00073D0F6EC1AF0000EE66E090EE66E61ECBC
:100BF0001BF0E552E552000901E16FD021C900F078
:100C000022C901F023C902F024C903F0006A0F0EC3
:100C10000116026A036A09010051001809E1015135
:100C2000011806E10251021803E10351031800E123
:100C300035E021C904F022C905F023C906F024C912
:100C400007F0F00E04160F0E0516066A076A00512B
:100C5000041809E10151051806E10251061803E1E3
:100C60000351071800E11AE021C908F022C909F070
:100C700023C90AF024C90BF00806000E095A0A5AC3
:100C80000B5A0051081809E10151091806E10251F7
:100C90000A1803E103510B1800E108E10C510008A8
:100CA00004E204C9E6FF1AD8E55217D00B01F62B6F
:100CB00014D0F6CBE6FF01EC0BF0E5520B01F66F1A
:100CC0000BD00B01F66B08D0F6CBE6FF5BEC0DF01A
:100CD000E5520B01F66F00D000D01200D9CFE6FF2D
:100CE000E1CFD9FF1F0EE126DF6AFE0EDB50130AAB
:100CF00001E197D3010A01E134D3030A01E1CFD224
:100D0000010A01E16AD21C0A01E1E7D1070A01E107
:100D1000E2D1010A01E1DDD1030A01E1C9D1010AF1
:100D200001E1B5D10F0A01E1A1D1010A01E18DD1A3
:100D3000030A01E13DD1010A01E1EFD0070A01E117
:100D4000A1D0010A54E0030A05E0010A01E0C9D379
:100D5000FF00C8D30901250506E14F0EAB16AC9A7A
:100D6000CF0E9D1605D04F0EA616BA9ACF0EA3161B
:100D7000090125051EE1400EE66E800EE66E250E89
:100D8000E66EE66AE66A6FEC28F0026E050EE15E3A
:100D90000250F3CF00F0F4CF01F000C0E6FF01C035
:100DA000E6FF3C0EE66E82EC3FF0E552E552E5527E
:100DB0001DD0400EE66E800EE66E250EE66EE66AEB
:100DC000E66A62EC29F0026E050EE15E0250F3CF96
:100DD00000F0F4CF01F000C0E6FF01C0E6FFFC0E1A
:100DE000E66E46EC3FF0E552E552E5527BD3090151
:100DF000250506E14F0EAB16AC9ACF0E9D1605D019
:100E00004F0EA616BA9ACF0EA316090125051DE1AD
:100E1000400EE66EE66A4B0EE66EE66AE66A6FEC38
:100E200028F0026E050EE15E0250F3CF00F0F4CF21
:100E300001F000C0E6FF01C0E6FF3C0EE66E82EC6A
:100E40003FF0E552E552E5521CD0400EE66EE66AF0
:100E50004B0EE66EE66AE66A62EC29F0026E050E5B
:100E6000E15E0250F3CF00F0F4CF01F000C0E6FFE6
:100E700001C0E6FFFC0EE66E46EC3FF0E552E5529F
:100E8000E55230D30901250506E14F0EAB16AC9AA9
:100E9000CF0E9D1605D04F0EA616BA9ACF0EA316EA
:100EA000090125051DE1400EE66EE66A960EE66E26
:100EB000E66AE66A6FEC28F0026E050EE15E02500B
:100EC000F3CF00F0F4CF01F000C0E6FF01C0E6FF71
:100ED0003C0EE66E82EC3FF0E552E552E5521CD046
:100EE000400EE66EE66A960EE66EE66AE66A62EC2A
:100EF00029F0026E050EE15E0250F3CF00F0F4CF50
:100F000001F000C0E6FF01C0E6FFFC0EE66E46EC15
:100F10003FF0E552E552E552E5D20901250506E12B
:100F20004F0EAB16AC9ACF0E9D1605D04F0EA616DF
:100F3000BA9ACF0EA316090125051DE1400EE66EF3
:100F4000E66AE10EE66EE66AE66A6FEC28F0026E8B
:100F5000050EE15E0250F3CF00F0F4CF01F000C0C7
:100F6000E6FF01C0E6FF3C0EE66E82EC3FF0E55284
:100F7000E552E5521CD0400EE66EE66AE10EE66EE2
:100F8000E66AE66A62EC29F0026E050EE15E025046
:100F9000F3CF00F0F4CF01F000C0E6FF01C0E6FFA0
:100FA000FC0EE66E46EC3FF0E552E552E5529AD271
:100FB0000901250506E14F0EAB16AC9ACF0E9D1622
:100FC00005D04F0EA616BA9ACF0EA3160901250515
:100FD0001EE1400EE66EE66AC20EE66E010EE66E99
:100FE000E66A6FEC28F0026E050EE15E0250F3CF68
:100FF00000F0F4CF01F000C0E6FF01C0E6FF3C0EB8
:10100000E66E82EC3FF0E552E552E5521DD0400E0F
:10101000E66EE66AC20EE66E010EE66EE66A62EC07
:1010200029F0026E050EE15E0250F3CF00F0F4CF1E
:1010300001F000C0E6FF01C0E6FFFC0EE66E46ECE4
:101040003FF0E552E552E5524DD2F4CBE6FFF3CB4B
:10105000E6FFF2CBE6FFF1CBE6FFF0CBE6FF7DEC5F
:1010600012F0006E050EE15E00503CD2EFCBE6FFC1
:10107000EECBE6FFEDCBE6FFECCBE6FFEBCBE6FFFE
:101080007DEC12F0006E050EE15E00502BD2EACB33
:10109000E6FFE9CBE6FFE8CBE6FFE7CBE6FFE6CBF2
:1010A000E6FF7DEC12F0006E050EE15E00501AD2F4
:1010B000E5CBE6FFE4CBE6FFE3CBE6FFE2CBE6FFE2
:1010C000E1CBE6FF7DEC12F0006E050EE15E005014
:1010D00009D2838607D2839605D209011007000E34
:1010E0000901115B000E0901125B000E0901135B7F
:1010F00009012051040A51E0010A4FE0050A4DE0C0
:101100000D0A4BE0040A49E0030A47E0010A45E002
:10111000070A43E0020A41E01C0A3FE0030A23E019
:10112000190A01E03AD00901060E1C6FFE0EDB50D1
:1011300010090901146F09011F0E156F0901100E26
:10114000166F0901110E176F0901120E186F0901B0
:10115000130E196F100EE66E090EE66E63EC19F0B1
:10116000E552E5522ED00901040E1C6FFE0EDB5035
:1011700010090901146F09011F0E156F0901100EE6
:10118000166F0901110E176F100EE66E090EE66E4E
:1011900063EC19F0E552E55214D00901020E1C6F00
:1011A000FE0EDB5010090901146F09011F0E156FA7
:1011B000100EE66E090EE66E63EC19F0E552E5528C
:1011C00000D00901102B000E09011123000E0901A6
:1011D0001223000E0901132385D109012051080AA9
:1011E00003E0190A01E05AD08F0E006E790E016EED
:1011F000026A00C0E6FF01C0E6FF02C0E6FFD95068
:10120000010FE66E000EDA20E66E0AEC3EF0036E89
:10121000050EE15E03500901250520E1D950010FBB
:10122000E66E000EDA20E66ED7EC3DF0E552E552B0
:10123000F3CF00F0F4CF01F000C0E6FF01C0E6FFFD
:10124000D950010FE66E000EDA20E66E06EC26F0AD
:10125000E552E552E552E552DF6E1FD0D950010F3D
:10126000E66E000EDA20E66ED7EC3DF0E552E55270
:10127000F3CF00F0F4CF01F000C0E6FF01C0E6FFBD
:10128000D950010FE66E000EDA20E66E56EC26F01D
:10129000E552E552E552E552DF6E00D023D1090157
:1012A0002051080A03E0190A01E05AD08A0E006EA4
:1012B000790E016E026A00C0E6FF01C0E6FF02C0BF
:1012C000E6FFD950010FE66E000EDA20E66E0AEC5A
:1012D0003EF0036E050EE15E03500901250520E195
:1012E000D950010FE66E000EDA20E66ED7EC3DF025
:1012F000E552E552F3CF00F0F4CF01F000C0E6FF75
:1013000001C0E6FFD950010FE66E000EDA20E66E4E
:1013100006EC26F0E552E552E552E552DF6E1FD0AD
:10132000D950010FE66E000EDA20E66ED7EC3DF0E4
:10133000E552E552F3CF00F0F4CF01F000C0E6FF34
:1013400001C0E6FFD950010FE66E000EDA20E66E0E
:1013500056EC26F0E552E552E552E552DF6E00D03C
:10136000C1D009012051080A01E05AD0850E006E53
:10137000790E016E026A00C0E6FF01C0E6FF02C0FE
:10138000E6FFD950010FE66E000EDA20E66E0AEC99
:101390003EF0036E050EE15E03500901250520E1D4
:1013A000D950010FE66E000EDA20E66ED7EC3DF064
:1013B000E552E552F3CF00F0F4CF01F000C0E6FFB4
:1013C00001C0E6FFD950010FE66E000EDA20E66E8E
:1013D00006EC26F0E552E552E552E552DF6E1FD0ED
:1013E000D950010FE66E000EDA20E66ED7EC3DF024
:1013F000E552E552F3CF00F0F4CF01F000C0E6FF74
:1014000001C0E6FFD950010FE66E000EDA20E66E4D
:1014100056EC26F0E552E552E552E552DF6E00D07B
:1014200061D009012051080A01E05AD0800E006EF7
:10143000790E016E026A00C0E6FF01C0E6FF02C03D
:10144000E6FFD950010FE66E000EDA20E66E0AECD8
:101450003EF0036E050EE15E03500901250520E113
:10146000D950010FE66E000EDA20E66ED7EC3DF0A3
:10147000E552E552F3CF00F0F4CF01F000C0E6FFF3
:1014800001C0E6FFD950010FE66E000EDA20E66ECD
:1014900006EC26F0E552E552E552E552DF6E1FD02C
:1014A000D950010FE66E000EDA20E66ED7EC3DF063
:1014B000E552E552F3CF00F0F4CF01F000C0E6FFB3
:1014C00001C0E6FFD950010FE66E000EDA20E66E8D
:1014D00056EC26F0E552E552E552E552DF6E00D0BB
:1014E00001D000D01F0EE15C02E2E16AE552E16E3C
:1014F000E552E7CFD9FF1200D9CFE6FFE1CFD9FF00
:10150000FE0EDB50100A70E01E0A68E0030A60E07D
:10151000010A58E0070A50E0010A48E0030A40E0E7
:10152000180A38E0190A30E00D0A28E0010A21E023
:10153000040A19E0120EF36EFE0EDBCFF4FFF35037
:10154000F45C57E3FE0EDB500F0BE824FE0F006E39
:10155000016AFF0ED8800056060E015600C0F3FF48
:1015600001C0F4FF4AD0FE0EF36E030EF46E45D0B8
:1015700044D0F36A050EF46E40D03FD0D20EF36E25
:10158000030EF46E3AD039D0120EF36E060EF46EDE
:1015900034D033D0130EF36E060EF46E2ED02DD051
:1015A000220EF36E060EF46E28D027D0240EF36EB2
:1015B000060EF46E22D021D0260EF36E060EF46EC7
:1015C0001CD01BD0320EF36E060EF46E16D015D062
:1015D000340EF36E060EF46E10D00FD0420EF36E82
:1015E000060EF46E0AD009D0F36AF46A06D005D06C
:1015F00004D0F368060EF46E00D0E552E7CFD9FFB1
:101600001200D9CFE6FFE1CFD9FFE652FE0EDB5044
:10161000040A01E179D0070A61E0010A1BE0030A2C
:1016200003E0FE0EDB6A96D00901250507E1240ED2
:10163000E66EACEC25F0E552DF6E06D0240EE66EC9
:10164000D8EC25F0E552DF6EDF5003E0FE0EDB2A1A
:1016500001D080D0090125051EE10C51080DF3CF02
:1016600000F0016A026A036A01C904F002C905F0C8
:1016700003C906F00001076A045000120550011268
:1016800006500212075003120050E66EACEC25F033
:10169000E552DF6E1DD00C51080DF3CF00F0016A4A
:1016A000026A036A01C904F002C905F003C906F021
:1016B0000001076A04500012055001120650021280
:1016C000075003120050E66ED8EC25F0E552DF6EAD
:1016D000DF5003E0FE0EDB2A01D03CD009012505D6
:1016E00007E100C9E6FFACEC25F0E552DF6E06D05D
:1016F00000C9E6FFD8EC25F0E552DF6EDF5003E0CD
:10170000FE0EDB2A01D026D0090125050FE10C5180
:10171000E66EE66A040EE66E090EE66E06EC26F04C
:10172000E552E552E552E552DF6E0ED00C51E66E01
:10173000E66A040EE66E090EE66E56EC26F0E552F9
:10174000E552E552E552DF6EDF5003E08C72FE0E8B
:10175000DB6A00D0FE0EDB5000D0E552E552E7CF49
:10176000D9FF1200D9CFE6FFE1CFD9FF020EE12663
:10177000010EDB6AFE0EDB50060A01E157D1030AB7
:1017800001E13CD1010A01E1F1D0070A01E1ACD04D
:10179000010A40E0030A03E0FE0EDB6A7DD1090185
:1017A000250511E1010EDB50016A140F006E090ED0
:1017B000012200C0E6FF01C0E6FFFAEC27F0E55287
:1017C000E552DF6E10D0010EDB50016A140F006E7F
:1017D000090E012200C0E6FF01C0E6FF30EC28F050
:1017E000E552E552DF6EDF5001E156D1010EDB50CC
:1017F000EA6A140FE96E090EEA22EF50240802E1AA
:10180000FE0EDB2A2DC9E9FF2EC9EAFFEF50080BB7
:1018100001E042D10901250511E1010EDB50016A09
:10182000140F006E090E012200C0E6FF01C0E6FFA2
:10183000FAEC27F0E552E552DF6E10D0010EDB50D6
:10184000016A140F006E090E012200C0E6FF01C0FC
:10185000E6FF30EC28F0E552E552DF6EDF5001E1A3
:101860001BD1010EDB50EA6A140FE96E090EEA2261
:10187000EF50E840E840E8401F0B0B01F76FF751CD
:1018800006E1060EF36EFE0EF3CFDBFF05D1010E6F
:10189000DB50EA6A140FE96E090EEA22EFCF00F07E
:1018A000016A026A036A070E0016016A026A036A85
:1018B000080E1F0B07E0D8900036013602360336BB
:1018C000E806F9E100C010F901C011F902C012F9EF
:1018D00003C013F9FE0EDB2A2DC9E9FF2EC9EAFF6A
:1018E000EF50080B01E0D8D00901250511E1010EE8
:1018F000DB50016A140F006E090E012200C0E6FFE2
:1019000001C0E6FFFAEC27F0E552E552DF6E10D099
:10191000010EDB50016A140F006E090E012200C097
:10192000E6FF01C0E6FF30EC28F0E552E552DF6E3D
:10193000DF5001E1B1D0010EDB50EA6A140FE96E0D
:10194000090EEA22EFCF00F0000100500901101348
:10195000000E111312131313FE0EDB2A2DC9E9FF1B
:101960002EC9EAFFEF50080B01E096D02DC9E9FF20
:101970002EC9EAFFEF50080B37E1080EF36E010E97
:10198000DBCFF4FFF350F45C2FE20901250511E1F0
:10199000010EDB50016A140F006E090E012200C017
:1019A000E6FF01C0E6FFFAEC27F0E552E552DF6EF4
:1019B00010D0010EDB50016A140F006E090E0122D7
:1019C00000C0E6FF01C0E6FF30EC28F0E552E5522A
:1019D000DF6EDF5001E108D0010EDB2A0B01F707B3
:1019E000F75101E101D0C2D7010EDB5006E0010E34
:1019F000DBCF1CF9FE0EDB2A01D04ED0100EE66EB6
:101A0000090EE66E63EC19F0E552E552000901E1BA
:101A100043D00B01F75103E1FE0EDB6A05D0040E43
:101A2000F36EFE0EF3CFDBFF8C7036D00901250577
:101A300011E1010EDB50016A140F006E090E012244
:101A400000C0E6FF01C0E6FFFAEC27F0E552E552E0
:101A5000DF6E10D0010EDB50016A140F006E090E0C
:101A6000012200C0E6FF01C0E6FF30EC28F0E5529D
:101A7000E552DF6EDF5001E10FD0010EDB50EA6A64
:101A8000140FE96E090EEA22EF50E66E6EEC06F0D6
:101A9000E552FE0EDB6A00D0FE0EDB50006E020E39
:101AA000E15C03E200D0E16AE552E16E0050E552EC
:101AB000E7CFD9FF1200D9CFE6FFE1CFD9FFE65239
:101AC000FE0EDB50010A03E0FE0EDB6A26D00901A0
:101AD00025050FE10C51E66EE66A040EE66E090E6E
:101AE000E66E06EC26F0E552E552E552E552DF6E71
:101AF0000ED00C51E66EE66A040EE66E090EE66E36
:101B000056EC26F0E552E552E552E552DF6EDF5025
:101B100003E08C72FE0EDB6A00D0FE0EDB5000D0BC
:101B2000E552E552E7CFD9FF1200D9CFE6FFE1CF6A
:101B3000D9FFE652FE0EDB50020A6BE0030A03E017
:101B4000FE0EDB6A75D02DC9E9FF2EC9EAFFEF5002
:101B5000080B2BE1080E0B01F85D27E209012505B2
:101B600011E10B01F851016A990F006E090E012273
:101B700000C0E6FF01C0E6FFFAEC27F0E552E552AF
:101B8000DF6E10D00B01F851016A990F006E090E3B
:101B9000012200C0E6FF01C0E6FF30EC28F0E5526C
:101BA000E552DF6E0B01F82BCED70B01F851000880
:101BB00006E2080EF85D03E2F92B000EFA23080E88
:101BC000F85D09E2F851000806E2C80ED880F95520
:101BD000000EFA5503E3080EF85D1AE120C9E6FF8E
:101BE0008BDCE552F3CF95F9F4CF96F9000E09019D
:101BF0009527010E9623976B986BA46BA36BF8CB7C
:101C0000A1F90B01F96BFA6BF86BFE0EDB2A01D020
:101C10000FD0950EE66E090EE66E63EC19F0E552F4
:101C2000E552000901E104D08C70FE0EDB6A00D0A1
:101C3000FE0EDB5000D0E552E552E7CFD9FF12008F
:101C4000D9CFE6FFE1CFD9FFE652FE0EDB50030A03
:101C500059E0010A1AE0030A03E0FE0EDB6A68D0CD
:101C60000901250506E1E668ACEC25F0E552DF6EDA
:101C700005D0E668D8EC25F0E552DF6EDF5003E0D2
:101C8000FE0EDB2A01D08C8053D00B01E80ED880E9
:101C9000FD55030EFE5503E2FE0EDB2A49D02DC989
:101CA000E9FF2EC9EAFFEF50080B06E0FD2B000EFE
:101CB000FE23FE0EDB6A3CD0090125050AE1140E65
:101CC000E66E090EE66EFAEC27F0E552E552DF6E9D
:101CD00009D0140EE66E090EE66E30EC28F0E552DF
:101CE000E552DF6EFF0E0901145D07E10B01FD6B8C
:101CF000FE6BFE0EDB6A1CD004D00B01FD2B000E28
:101D0000FE2316D00901146B010E1C6F0B01FD6B35
:101D1000FE6B8C70100EE66E090EE66E63EC19F029
:101D2000E552E552000901E103D0FE0EDB6A00D066
:101D3000FE0EDB5000D0E552E552E7CFD9FF12008E
:101D4000D9CFE6FFE1CFD9FFE6526E50E00BE84273
:101D5000E842E842E842E842DF6E6E50E00BE842BB
:101D6000E842E842E842E842040805E0040EE66E74
:101D7000CBEC13F0E552FE0EDB50010A09E0030A3A
:101D800007E0020A01E020D0FD0EDB50766E1CD089
:101D9000FD0EDB50E00B7612FD0EDB50030B01E075
:101DA0007682FD0EDB501C0B01E07688FD0EDBCF4A
:101DB0007FFEFC0EDBCFE6FFFD0EDB50030BE55292
:101DC000E7100E017E6F00D06E50E00BE842E84253
:101DD000E842E842E842DF5C05E0DFCFE6FFCBEC1B
:101DE00013F0E552E552E552E7CFD9FF1200D9CF03
:101DF000E6FFE1CFD9FFE6526E50E00BE842E84241
:101E0000E842E842E842DF6E6E50E00BE842E8420A
:101E1000E842E842E842040805E0040EE66ECBEC36
:101E200013F0E552FE0EDBCF7DFE6E50E00BE84274
:101E3000E842E842E842E842DF5C05E0DFCFE6FF47
:101E4000CBEC13F0E552E552E552E7CFD9FF120093
:101E5000D9CFE6FFE1CFD9FFE6526E50E00BE84262
:101E6000E842E842E842E842DF6E6E50E00BE842AA
:101E7000E842E842E842E842040805E0040EE66E63
:101E8000CBEC13F0E552FE0EDB50010A1FE0010A15
:101E900001E038D0F90EDBCFE6FFD950FA0FE96E3A
:101EA000FF0EDA20EA6EEECFE6FFEECFE6FFEECFD2
:101EB000E6FFEFCFE6FFF80EE66E0E0EE66E27ECBD
:101EC00017F0006E070EE15E00501CD0F90EDBCF5C
:101ED000E6FFD950FA0FE96EFF0EDA20EA6EEECF78
:101EE000E6FFEECFE6FFEECFE6FFEFCFE6FFFC0E1C
:101EF000E66E0E0EE66E27EC17F0006E070EE15E42
:101F0000005000D06E50E00BE842E842E842E84260
:101F1000E842DF5C05E0DFCFE6FFCBEC13F0E552F3
:101F2000E552E552E7CFD9FF1200D9CFE6FFE1CF66
:101F3000D9FFE6526E50E00BE842E842E842E84240
:101F4000E842DF6E6E50E00BE842E842E842E842C9
:101F5000E842040805E0040EE66ECBEC13F0E5520F
:101F6000FF0EE76EFD0EDBCF00F0FE0EDBCF01F0C3
:101F7000E7500016016A00C046FEFD0EDBCF00F000
:101F8000FE0EDBCF01F001C000F0016A00500E012F
:101F9000476F6E50E00BE842E842E842E842E84210
:101FA000DF5C05E0DFCFE6FFCBEC13F0E552E55256
:101FB000E552E7CFD9FF1200D9CFE6FFE1CFD9FF35
:101FC000E6526E50E00BE842E842E842E842E8425E
:101FD000DF6E010EF36EFD0EDB5004E0D890F33699
:101FE000E806FCE1F3500E017D1502E0000E06D17B
:101FF0006E50E00BE842E842E842E842E84204085A
:1020000004E0040EE66EC7DBE552FE0EDB500F0A5D
:1020100001E1D7D0010A01E1CAD0030A01E1B9D038
:10202000010A01E1ACD0070A01E19BD0010A01E1FC
:102030008ED0030A01E17DD0010A71E00F0A61E050
:10204000010A55E0030A45E0010A39E0070A29E0E0
:10205000010A1DE0030A0DE0010A01E0C0D0FD0EF7
:10206000DB500E010F0BF36EF00E7115F310716F54
:10207000B6D0FD0EDB500E010F0BF36EF346F346A8
:10208000F346F3460F0E7115F310716FA8D0FD0ED5
:10209000DB500E010F0BF36EF00E7215F310726F22
:1020A0009ED0FD0EDB500E010F0BF36EF346F34690
:1020B000F346F3460F0E7215F310726F90D0FD0EBB
:1020C000DB500E010F0BF36EF00E7315F310736FF0
:1020D00086D0FD0EDB500E010F0BF36EF346F34678
:1020E000F346F3460F0E7315F310736F78D0FD0EA1
:1020F000DB500E010F0BF36EF00E7415F310746FBE
:102100006ED0FD0EDB500E010F0BF36EF346F3465F
:10211000F346F3460F0E7415F310746F60D0FD0E86
:10212000DB500E010F0BF36EF00E7515F310756F8B
:1021300056D0FD0EDB500E010F0BF36EF346F34647
:10214000F346F3460F0E7515F310756F48D0FD0E6C
:10215000DB500E010F0BF36EF00E7615F310766F59
:102160003ED0FD0EDB500E010F0BF36EF346F3462F
:10217000F346F3460F0E7615F310766F30D0FD0E52
:10218000DB500E010F0BF36EF00E7715F310776F27
:1021900026D0FD0EDB500E010F0BF36EF346F34617
:1021A000F346F3460F0E7715F310776F18D0FD0E38
:1021B000DB500E010F0BF36EF00E7815F310786FF5
:1021C0000ED0FD0EDB500E010F0BF36EF346F346FF
:1021D000F346F3460F0E7815F310786F00D06E506B
:1021E000E00BE842E842E842E842E842DF5C04E013
:1021F000DFCFE6FFD0DAE552010E00D0E552E5521E
:10220000E7CFD9FF1200D9CFE6FFE1CFD9FFE652E1
:102210006E50E00BE842E842E842E842E842DF6EF6
:102220006E50E00BE842E842E842E842E842040827
:1022300004E0040EE66EAFDAE552FE0EDB500F0A44
:1022400001E1E6D0010A01E1D5D0030A01E1C6D0DF
:10225000010A01E1B9D0070A01E1A6D0010A01E1B2
:1022600095D0030A01E186D0010A01E179D00F0A75
:1022700067E0010A57E0030A49E0010A3DE0070A66
:102280002BE0010A1BE0030A0DE0010A01E0D0D0B7
:10229000FD0EDB500E01030BF36EFC0E7915F310EF
:1022A000796FC6D0FD0EDB500E01030BF36EF346C3
:1022B000F346F30E7915F310796FBAD0FD0EDB50AB
:1022C0000E01030BF36EF346F346F346F346CF0ECF
:1022D0007915F310796FACD0FD0EDB500E01030BB6
:1022E000F36EF346F346F346F346F346F3463F0EEA
:1022F0007915F310796F9CD0FD0EDB500E01030BA6
:10230000F36EFC0E7A15F3107A6F92D0FD0EDB504F
:102310000E01030BF36EF346F346F30E7A15F3103A
:102320007A6F86D0FD0EDB500E01030BF36EF34681
:10233000F346F346F346CF0E7A15F3107A6F78D052
:10234000FD0EDB500E01030BF36EF346F346F3462E
:10235000F346F346F3463F0E7A15F3107A6F68D0D2
:10236000FD0EDB500E01030BF36EFC0E7B15F3101C
:102370007B6F5ED0FD0EDB500E01030BF36EF34658
:10238000F346F30E7B15F3107B6F52D0FD0EDB503E
:102390000E01030BF36EF346F346F346F346CF0EFE
:1023A0007B15F3107B6F44D0FD0EDB500E01030B49
:1023B000F36EF346F346F346F346F346F3463F0E19
:1023C0007B15F3107B6F34D0FD0EDB500E01030B39
:1023D000F36EFC0E7C15F3107C6F2AD0FD0EDB50E3
:1023E0000E01030BF36EF346F346F30E7C15F31068
:1023F0007C6F1ED0FD0EDB500E01030BF36EF34617
:10240000F346F346F346CF0E7C15F3107C6F10D0E5
:10241000FD0EDB500E01030BF36EF346F346F3465D
:10242000F346F346F3463F0E7C15F3107C6F00D065
:102430006E50E00BE842E842E842E842E842DF5CE6
:1024400004E0DFCFE6FFA7D9E552E552E552E7CF3A
:10245000D9FF1200D9CFE6FFE1CFD9FFE6526E5087
:10246000E00BE842E842E842E842E842DF6E6E50A4
:10247000E00BE842E842E842E842E842040804E0AF
:10248000040EE66E88D9E552F90EDBCFE6FFD9508F
:10249000FA0FE96EFF0EDA20EA6EEECFE6FFEECF1E
:1024A000E6FFEECFE6FFEFCFE6FFFE0EF76ADB3486
:1024B000FE0BF736F66E940EF626800EF722090014
:1024C000F5CFE6FF0800F5CFE6FF27EC17F0006E2A
:1024D000070EE15E00506E50E00BE842E842E84231
:1024E000E842E842DF5C04E0DFCFE6FF54D9E55282
:1024F000E552E552E7CFD9FF1200D9CFE6FFE1CF91
:10250000D9FFE6526E50E00BE842E842E842E8426A
:10251000E842DF6EFD0EDB5000084DE2090EF36E5F
:10252000FD0EDBCFF4FFF350F45C45E2FC0EDB5014
:10253000000841E2090EF36EFC0EDBCFF4FFF3500E
:10254000F45C39E2FB0EDB50010835E2090EF36E54
:10255000FB0EDBCFF4FFF350F45C2DE2FE0EDB50FC
:10256000000829E2050EF36EFE0EDBCFF4FFF350F8
:10257000F45C21E2FC0EDBCFE6FFFD0EDB50E55202
:10258000E724006EFB0EDB50005C09E3FE0EDB501F
:10259000F36EFB0EDBCFF4FFF350F45C02E2000EAF
:1025A0005AD06E50E00BE842E842E842E842E84286
:1025B000040807E002D0000E4ED0040EE66EEBD801
:1025C000E552FC0EDB50010803E20E01448D02D0FF
:1025D0000E01449D448FFE0EDB04030BF36EF346A5
:1025E000F346F346F346F346F3463F0E4315F31026
:1025F000436FFD0EDB04070BF36EF80E4415F3106A
:10260000446FFC0EDB04070BF36EF346F346F34610
:10261000C70E4415F310446FFB0EDB04070BF36E7B
:10262000F80E4515F310456FFA0EDB503F0BF36EB5
:10263000C00E4315F310436F6E50E00BE842E842C2
:10264000E842E842E842DF5C04E0DFCFE6FFA3D8DF
:10265000E552010E00D0E552E552E7CFD9FF120056
:10266000D9CFE6FFE1CFD9FFFD0EDB500F084CE3D9
:102670000E017D51026E036A02C0E6FF03C0E6FF51
:10268000FE0EDB50020F0C6E0CC027F0CAEC30F0CF
:1026900025C008F026C009F027C00AF028C00BF0BA
:1026A00008C0E6FF09C0E6FF0AC0E6FF0BC0E6FF70
:1026B000E66AE66AE66A400EE66E3BEC2BF00D6ECB
:1026C000080EE15E0D50E552E7CF03F0E552E7CF8B
:1026D00002F024C004F025C005F026C006F027C093
:1026E00007F004C025F005C026F006C027F007C09B
:1026F00028F0DBEC30F002502614006E0350271453
:10270000016E0050011003E1000E20D01DD0FE0E1E
:10271000DB50030FE66EFD0EDBCFE6FF4DDCE5522E
:10272000E552FE0EDB50030FF66EF76AD890F636D0
:10273000F736C40EF626800EF7220900F5CFE9FF22
:102740000800F5CFEAFFEF84010E00D0E552E7CF95
:10275000D9FF1200D9CFE6FFE1CFD9FFFE0EDB5043
:1027600004E0FE0EDB50020802E2000E10D0FE0E66
:10277000DB50030BF36EF346F346F346F346F346A2
:10278000F3463F0E7214F310726E010E00D0E55244
:10279000E7CFD9FF1200D9CFE6FFE1CFD9FFFE0E78
:1027A000DB50070BF36EF346F346F346F346F3466E
:1027B0001F0E6F14F3106F6E6E50E00BE842E8428C
:1027C000E842E842E842006EFE0EDB50005C01E0A9
:1027D000F3D7E552E7CFD9FF1200D9CFE6FFE1CF1B
:1027E000D9FFE652080EDF6E000EDF5C28E3DF50F3
:1027F00002080FE2DF50020820E2DF04006E010E43
:10280000005204E0E846FE0B0006FCE10E017D15D7
:1028100014E0F76ADF34FE0BF736F66EC40EF626C8
:10282000800EF7220900F5CFE9FF0800F5CFEAFF97
:10283000EF50080B02E1DF5004D0DF06D5D7FF0EC2
:1028400000D0E552E552E7CFD9FF1200D9CFE6FF1D
:10285000E1CFD9FFE652DF6A080EDF5C27E2DF50E6
:1028600001080EE2010EDF5206E0DFCFF3FFE8467B
:10287000FE0BF306FCE10E017D1502E015D014D02D
:10288000F76ADF34FE0BF736F66EB40EF626800ECE
:10289000F7220900F5CFE9FF0800F5CFEAFFEF5076
:1028A000800B02E0DF5004D0DF2AD6D7FF0E00D025
:1028B000E552E552E7CFD9FF1200D9CFE6FFE1CFCD
:1028C000D9FF040EE126FE0EDB50FF0813E0FE0EDA
:1028D000F76ADB34FE0BF736F66EC40EF626800E72
:1028E000F7220900F5CFE9FF0800F5CFEAFFEF5026
:1028F000080B08E072DFDF6EFF0EDF5C02E1FF0E07
:10290000CCD016D0FE0EDB5002080FE2FE0EDB0428
:10291000006E010E005204E0E846FE0B0006FCE1EA
:102920000E017D1502E1FF0EB8D0FE0EDB50DF6E0A
:10293000DF50FF0A24E0FC0A19E0070A17E0010A49
:1029400015E0030A13E0010A11E0070A06E0010A94
:1029500004E0030A02E0FF0EA0D0030EDF241F0BE9
:10296000F36EE00E7214F310726E0BD0DF041F0BC7
:10297000F36EE00E7214F310726E728802D001D002
:1029800000D0FC0EDBCFE9FFFD0EDBCFEAFF0E0E21
:10299000E926000EEA22EF50E66EFC0EDBCFE9FFDF
:1029A000FD0EDBCFEAFFEECFE6FFEECFE6FFEECF88
:1029B000E6FFEFCFE6FF610EE66E0F0EE66E47DA3A
:1029C000006E070EE15E0050FC0EDBCFE9FFFD0E4E
:1029D000DBCFEAFF0C0EE926000EEA22EF50656E0F
:1029E000FC0EDBCFE9FFFD0EDBCFEAFF0F0EE92681
:1029F000000EEA22EF50E8B0658CE8A0659CD95043
:102A0000020FE96EDACFEAFF660EEE6E0F0EED6E84
:102A1000010EDB6AFC0EDBCFE9FFFD0EDBCFEAFF28
:102A20000C0EE926000EEA22EF50F36E010EDBCF0A
:102A3000F4FFF350F45C2BE2FC0EDBCFE9FFFD0E5C
:102A4000DBCFEAFF040EE926000EEA22E9CF00F010
:102A5000EACF01F0010EDB500F010024E96E000EF9
:102A60000120EA6EEF50E66E010EDB50E76E020EBB
:102A7000DBCFE9FF030EDBCFEAFFE750E926000ECC
:102A8000EA22E552E750EF6E010EDB2AC3D7E00ED3
:102A900072141009726EDF5000D0006E040EE15CFB
:102AA00002E2E16AE552E16E0050E552E7CFD9FF5C
:102AB0001200D9CFE6FFE1CFD9FFFE0EDB500208AE
:102AC0000FE2FE0EDB04006E010E005204E0E84649
:102AD000FE0B0006FCE10E017D1502E1000E13D095
:102AE000FE0EF76ADB34FE0BF736F66EC40EF626E2
:102AF000800EF7220900F5CFE9FF0800F5CFEAFFC5
:102B0000EF86010E00D0E552E7CFD9FF1200D9CFF2
:102B1000E6FFE1CFD9FF030EE126FD0EDBCFE9FF93
:102B2000FE0EDBCFEAFF0F0EE926000EEA22EF6A67
:102B3000FD0EDBCFE9FFFE0EDBCFEAFF0E0EE9262E
:102B4000000EEA22EF6AFC0EF76ADB34FE0BF73662
:102B5000F66EB40EF626800EF7220900F5CFE9FFD7
:102B60000800F5CFEAFFEF50200B0CE0FD0EDBCFA5
:102B7000E9FFFE0EDBCFEAFF0F0EE926000EEA2288
:102B8000010EEF6EFC0EF76ADB34FE0BF736F66EC5
:102B9000B40EF626800EF7220900F5CFE9FF0800F3
:102BA000F5CFEAFFEF501F0BE66EFD0EDBCFE9FF1E
:102BB000FE0EDBCFEAFF0D0EE926000EEA22E552FB
:102BC000E750EF6EFC0EDB501F0BF36EE00E72143D
:102BD000F310726E7288FD0EDBCFE9FFFE0EDBCFC5
:102BE000EAFF0C0EE926000EEA2265CFEFFF62A68F
:102BF00039D0FD0EDBCFE9FFFE0EDBCFEAFF0E0E74
:102C0000E926000EEA22010EEF6E6350000EF3CFAC
:102C100006F06250030BF36EF3CF05F06250E00B49
:102C2000E842E842E842E842E842F36EF3CF04F0BB
:102C30006150F36EF3500410051006106410006E1E
:102C4000016A026A036AFD0EDBCFE9FFFE0EDBCFED
:102C5000EAFF00C0EEFF01C0EEFF02C0EEFF03C0BE
:102C6000EEFF4CD06150006E016A026A036AFD0EED
:102C7000DBCFE9FFFE0EDBCFEAFF00C0EEFF01C0B5
:102C8000EEFF02C0EEFF03C0EEFFFD0EDBCFE9FF5B
:102C9000FE0EDBCFEAFFEECF00F0EECF01F0EECF7D
:102CA00002F0EFCF03F0030E1F0B07E0D8900036C1
:102CB000013602360336E806F9E16250E00BE842DD
:102CC000E842E842E842E842046E056A066A076A9A
:102CD0000450001205500112065002120750031250
:102CE000FD0EDBCFE9FFFE0EDBCFEAFF00C0EEFFFB
:102CF00001C0EEFF02C0EEFF03C0EEFFD950010F8E
:102D0000E96EDACFEAFF660EEE6E0F0EED6EDF6A49
:102D1000FD0EDBCFE9FFFE0EDBCFEAFF0C0EE9264E
:102D2000000EEA22EF50DF5C28E2DF50E76E010E72
:102D3000DBCFE9FF020EDBCFEAFFE750E926000E0A
:102D4000EA22EF50E66EFD0EDBCFE9FFFE0EDBCF91
:102D5000EAFF040EE926000EEA22E9CF00F0EACFEE
:102D600001F0DF500F010024E96E000E0120EA6E31
:102D7000E552E750EF6EDF2ACBD7E00E7214100950
:102D8000726EFB0EDB5012E0FC0EF76ADB34FE0BBA
:102D9000F736F66EB40EF626800EF7220900F5CF50
:102DA000E9FF0800F5CFEAFFEF9E7792030EE15CA2
:102DB00002E2E16AE552E16EE552E7CFD9FF120087
:102DC000D9CFE6FFE1CFD9FF020EE126DF6A080E78
:102DD000DF5C33E2FE0EDBCFE6FF010EDF5206E0E2
:102DE000DFCFF3FFE846FE0BF306FCE1E552E71404
:102DF000E76E010EE7CFDBFFDB501DE0F76ADF3443
:102E0000FE0BF736F66EB40EF626800EF72209009A
:102E1000F5CFE9FF0800F5CFEAFFEF9E7792FE0EAF
:102E2000DBCFE7FF010EDB50E75EFE0EE7CFDBFFF7
:102E3000DB5001E102D0DF2ACAD7020EE15C02E2D8
:102E4000E16AE552E16EE552E7CFD9FF1200D9CF32
:102E5000E6FFE1CFD9FFF80EDB5001E1B3D0F90E68
:102E6000DBCF00F0FA0EDBCF01F0FB0EDBCF02F080
:102E7000FC0EDBCF03F0150ED89003320232013284
:102E80000032E806F9E1FD0EDBCFE9FFFE0EDBCFF5
:102E9000EAFF00C0EFFFFD0EDB2AFE0E01E3DB2A96
:102EA000FD0EDBCFE9FFFE0EDBCFEAFF080EEF6E73
:102EB000F90EDBCF00F0FA0EDBCF01F0FB0EDBCF1B
:102EC00002F0FC0EDBCF03F00D0ED890033202327D
:102ED00001320032E806F9E1E00E046E056A066A86
:102EE000076A0450001605500116065002160750D6
:102EF0000316FD0EDBCFE9FFFE0EDBCFEAFF00502D
:102F0000EF12F90EDBCF04F0FA0EDBCF05F0FB0E6B
:102F1000DBCF06F0FC0EDBCF07F006C000F007C0E9
:102F200001F00001026A036A030E0016016A026AD8
:102F3000036AFD0EDBCFE9FFFE0EDBCFEAFF005098
:102F4000EF12FD0EDB2AFE0E01E3DB2AF90EDBCFCA
:102F500000F0FA0EDBCF01F0FB0EDBCF02F0FC0E2F
:102F6000DBCF03F0080ED890033202320132003278
:102F7000E806F9E10050E66EFD0EDBCFE9FFFE0E3C
:102F8000DBCFEAFFE552E750EF6EFD0EDB2AFE0EC7
:102F900001E3DB2AF90EDBCF00F0FA0EDBCF01F004
:102FA000FB0EDBCF02F0FC0EDBCF03F00050E66E31
:102FB000FD0EDBCFE9FFFE0EDBCFEAFFE552E75067
:102FC000EF6E46D0F90EDBCF00F0FA0EDBCF01F04A
:102FD000FB0EDBCF02F0FC0EDBCF03F0030ED8902C
:102FE0000332023201320032E806F9E1FD0EDBCF96
:102FF000E9FFFE0EDBCFEAFF00C0EFFFFD0EDB2A8C
:10300000FE0E01E3DB2A070E006E016A026A036A04
:10301000D950F90FE96EFF0EDA20EA6EEE50001675
:10302000EE500116EE500216EE500316050E1F0B61
:1030300007E0D8900036013602360336E806F9E19B
:10304000FD0EDBCFE9FFFE0EDBCFEAFF00C0EFFF96
:10305000E552E7CFD9FF1200D9CFE6FFE1CFD9FF84
:10306000FE0EF76ADB34FE0BF736F66EC40EF6265C
:10307000800EF7220900F5CFE9FF0800F5CFEAFF3F
:10308000FD0EDB50EF16FE0EF76ADB34FE0BF73653
:10309000F66EC40EF626800EF7220900F5CFE9FF82
:1030A0000800F5CFEAFFFD0EDB50EF12E552E7CF47
:0430B000D9FF120032
:0C30B400D9CFE6FFE1CFD9FFE6520E01B4
:1030C00000910083009500970099226B236B246B7D
:1030D000009B008D0191009F01930195256B266B4C
:1030E000276B01970199070E286F296B2A6F2B6BAD
:1030F0002C6B9394938695968396040EE66ECBEC98
:1031000013F0E552FE0EDBCF3BFE3BCEE6FFAAEC12
:1031100013F0E552000906E1E66ACBEC13F0E55244
:10312000000ECCD0FB0EDBCFE6FFF7EC0EF0E55245
:103130000E017D51E82407090E01286F296B28CE66
:103140002AFE29CE2BFEFC0EDBCFE6FFFD0EDBCFE9
:10315000E6FF3BCEE6FFA0EC0EF0E552E552E5526D
:10316000E66AE66AE66AE66AE66AE66A28EC0FF06C
:10317000006E060EE15E0050E66AE66AE66AE66AFE
:10318000E66A010EE66E28EC0FF0006E060EE15EB8
:103190000050DF6A100EDF5C0FE2E66AE66AE66A5C
:1031A000E66AE66ADFCFE6FF2AEC12F0006E060E52
:1031B000E15E0050DF2AEED7000EE66EE66A95EC7F
:1031C0000FF0E552E552DF6A100EDF5C0FE2DF40E0
:1031D0007F0BE66EDFCFE6FFDCEC0FF0E552E55249
:1031E000000902E1000E6AD0DF2AEED7DF6A100E76
:1031F000DF5C0EE2DF50E840E840E8401F0BE66E7F
:10320000DFCFE6FF03EC11F0E552E552DF2AEFD7FE
:10321000040EE76EF90EDBCFE9FFFA0EDBCFEAFF13
:10322000E750E926000EEA22EF50E66E030EE76E45
:10323000F90EDBCFE9FFFA0EDBCFEAFFE750E92614
:10324000000EEA22EF50E66E020EE76EF90EDBCFBB
:10325000E9FFFA0EDBCFEAFFE750E926000EEA228B
:10326000EF50E66E010EE76EF90EDBCFE9FFFA0EC6
:10327000DBCFEAFFE750E926000EEA22EF50E66EC8
:10328000F90EDBCFE9FFFA0EDBCFEAFFEF50E66E77
:103290007DEC12F0006E050EE15E0050000908E1C1
:1032A0000E010187E66ACBEC13F0E552000E06D062
:1032B000E66ACBEC13F0E552010E00D0E552E55280
:1032C000E7CFD9FF1200D9CFE6FFE1CFD9FFE65211
:1032D0000E0100A102D0000ED9D0FD0EDBCFE9FF18
:1032E000FE0EDBCFEAFF0C0EE926000EEA22EF50BD
:1032F000080803E20189000EC9D0FD0EDBCFE9FF0B
:10330000FE0EDBCFEAFFEECF00F0EECF01F0EECF06
:1033100002F0EFCF03F02351100DF3CFE9FFF4CF0C
:10332000EAFF020EE9260E0EEA2200C0EEFF01C0FF
:10333000EEFF02C0EEFF03C0EEFFFD0EDBCFE9FFA4
:10334000FE0EDBCFEAFF0E0EE926000EEA22EF505A
:10335000E66E2351100DF3CFE9FFF4CFEAFF020E22
:10336000E9260E0EEA220E0EE926000EEA22E552AA
:10337000E750EF6EFD0EDBCFE9FFFE0EDBCFEAFF7D
:103380000F0EE926000EEA22EF50E66E2351100DD3
:10339000F3CFE9FFF4CFEAFF020EE9260E0EEA2290
:1033A0000F0EE926000EEA22E552E750EF6EFD0E01
:1033B000DBCFE9FFFE0EDBCFEAFF0C0EE926000EA5
:1033C000EA22EF50E66E2351100DF3CFE9FFF4CF60
:1033D000EAFF020EE9260E0EEA220C0EE926000E86
:1033E000EA22E552E750EF6EDF6AFD0EDBCFE9FF20
:1033F000FE0EDBCFEAFF0C0EE926000EEA22EF50AC
:10340000DF5C36E2FD0EDBCFE9FFFE0EDBCFEAFF2D
:10341000040EE926000EEA22E9CF02F0EACF03F01B
:10342000DF500F010224E96E000E0320EA6EEF5018
:10343000E66E0E012351100DF3CFE9FFF4CFEAFF42
:10344000020EE9260E0EEA22040EE926000EEA22FA
:10345000E9CF00F0EACF01F0DF500F010024E96E60
:10346000000E0120EA6EE552E750EF6EDF2ABDD76D
:103470000E010093222B020E225D01E10081232B1D
:10348000020E235D01E1236B010E00D0E552E552EF
:10349000E7CFD9FF1200D9CFE6FFE1CFD9FF030E66
:1034A000E126020EDB6A0E0100B386D038DA0E0187
:1034B0002A512B1101E17ED028512A1902E129510C
:1034C0002B1903E10E01030E3D6F0E013C5107E184
:1034D0003D5102E1000E72D0090E3C6F3D07010E16
:1034E0003CCEDBFFDB50000833E2010EDB042ACECA
:1034F00000F02BCE01F005E0D89001320032E80454
:10350000FBE10050010B21E0010EDB04DF6EDFCF99
:103510003CFE010EDF5206E0DFCFF3FFE846FE0B74
:10352000F306FCE1E81C006E016A00BE0168005071
:103530000E012A1701502B173DCEE6FFDFCFE6FF25
:103540002CEC18F0E552E55203D0010EDB06CAD789
:103550000E012451100DF3CF00F0F4CF01F0020E54
:1035600000260E0E012200C0E6FF01C0E6FFDFCFFD
:10357000E6FF5DEC14F0E552E552E552DF6EFF0E1A
:10358000DF5C02E1000E1AD0DFCFE6FF59EC15F048
:10359000E552000902E1000E11D00E0100B10091C8
:1035A0002207225101E10083242B020E245D01E158
:1035B000246B02D0000E02D0010E00D0006E030E6C
:1035C000E15C02E2E16AE552E16E0050E552E7CFCC
:1035D000D9FF1200020E0E01225D05E2020ED88014
:1035E000225503D002D0000E00D01200D9CFE6FF42
:1035F000E1CFD9FFE6520E0100BB5BD0EFD90E013F
:103600002C5155E0020E0E013B5D51E0DF6A080EC1
:10361000DF5C4DE20E012C51DF5206E0DFCFF3FFFD
:10362000E8327F0BF306FCE1010B3FE0010EE66E92
:10363000DFCFE6FF0E012651100DF3CF00F0F4CFDF
:1036400001F0000E0026010E012200C0E6FF01C0BD
:10365000E6FF87EC15F0E552E552E552E5520E0122
:10366000009D252B2551006E016A800E001801E196
:10367000015001E1008B262B2651006E016A800E5D
:10368000001801E1015001E1266B010EDF5206E056
:10369000DFCFF3FFE846FE0BF306FCE10E012C5FE3
:1036A0002C5101E104D000BB02D0DF2AB0D7010EBB
:1036B00003D07692000E00D0E552E552E7CFD9FF55
:1036C0001200D9CFE6FFE1CFD9FF0E0100AD02D045
:1036D000000EE5D0009B2751100DF3CFE9FFF4CF8A
:1036E000EAFF000EE926010EEA22EECF00F0EECF4F
:1036F00001F0EECF02F0EFCF03F0FD0EDBCFE9FFDC
:10370000FE0EDBCFEAFF00C0EEFF01C0EEFF02C0FD
:10371000EEFF03C0EEFF2751100DF3CFE9FFF4CF0A
:10372000EAFF000EE926010EEA220E0EE926000E3F
:10373000EA22EF50E66EFD0EDBCFE9FFFE0EDBCF97
:10374000EAFF0E0EE926000EEA22E552E750EF6E80
:103750002751100DF3CFE9FFF4CFEAFF000EE92661
:10376000010EEA220F0EE926000EEA22EF50E66E65
:10377000FD0EDBCFE9FFFE0EDBCFEAFF0F0EE926E1
:10378000000EEA22E552E750EF6E2751100DF3CFFD
:10379000E9FFF4CFEAFF000EE926010EEA220C0E43
:1037A000E926000EEA22EF50E66EFD0EDBCFE9FFC0
:1037B000FE0EDBCFEAFF0C0EE926000EEA22E552F0
:1037C000E750EF6E2751100DF3CFE9FFF4CFEAFF7A
:1037D000000EE926010EEA220D0EE926000EEA226D
:1037E000EF50E66EFD0EDBCFE9FFFE0EDBCFEAFF0A
:1037F0000D0EE926000EEA22E552E750EF6E275142
:10380000100DF3CFE9FFF4CFEAFF000EE926010E19
:10381000EA220C0EE926000EEA22EF50E66EE66A76
:103820002751100DF3CFE9FFF4CFEAFF000EE92690
:10383000010EEA22040EE926000EEA22E9CF00F08A
:10384000EACF01F000C0E6FF01C0E6FFFD0EDBCFCE
:10385000E9FFFE0EDBCFEAFF040EE926000EEA22A6
:10386000E9CF02F0EACF03F002C0E6FF03C0E6FFB3
:10387000ACEC3DF0046E060EE15E04500E0125072F
:10388000255101E1008D272B2751006E016A800E22
:10389000001801E1015001E1276B010E00D0E55253
:1038A000E7CFD9FF12000E01255100D01200D9CF69
:1038B000E6FFE1CFD9FFE6527750800B06E0765065
:1038C000800B03E0779E0E01008F7750200B22E0E3
:1038D0007650200B1FE0779A71AC04D00E01018165
:1038E000719C18D071AA03D00E01008913D071A861
:1038F00003D00E0100870ED071A603D00E01018502
:1039000009D071A403D00E01008504D071A202D0A9
:103910000E010183E552E552E7CFD9FF1200D9CF5E
:10392000E6FFE1CFD9FFE652DF6A090EDF5C51E224
:10393000010EDF5206E0DFCFF3FFE846FE0BF30691
:10394000FCE1026E036A02BE03680E0128510214F4
:10395000006E29510314016E0050011038E0F76A1F
:10396000DF34FE0BF736F66EC40EF626800EF72215
:103970000900F5CFE9FF0800F5CFEAFFEF50080B8B
:1039800014E0010EDF5206E0DFCFF3FFE846FE0B46
:10399000F306FCE1E81C006E016A00BE01680050FD
:1039A0000E012A1701502B1712D0010EDF5206E02C
:1039B000DFCFF3FFE846FE0BF306FCE1006E016A81
:1039C00000BE016800500E012A1301502B13DF2A9C
:1039D000ACD7E552E552E7CFD9FF1200D9CFE6FFC9
:1039E000E1CFD9FF030EE126010EDB6A020EDB6A8E
:1039F0000E013B51020A59E0020A03E0010A01E00C
:103A0000AFD0DF6A080EDF5C4FE228CE02F029CE8D
:103A100003F0021E031ED89003320232030E02127C
:103A2000000E0312010EDF5206E0DFCFF3FFE8467F
:103A3000FE0BF306FCE1046E056A04BE0568025045
:103A40000414006E03500514016E005001102AE0AA
:103A5000F76ADF34FE0BF736F66EB40EF626800EEC
:103A6000F7220900F5CFE9FF0800F5CFEAFFEF5094
:103A7000800B0CE0010EDF5206E0DFCFF3FFE846DB
:103A8000FE0BF306FCE10E012C130CD0010EDF52ED
:103A900006E0DFCFF3FFE846FE0BF306FCE1E81C8F
:103AA0000E012C17DF2AAED75BD0070E6F140E0164
:103AB0002C6F2C51F66EF76AD890F636F736B40EA6
:103AC000F626800EF7220900F5CFE9FF0800F5CFB2
:103AD000EAFFEF50800B01E143D02C51F66EF76AFC
:103AE000D890F636F736B40EF626800EF722090087
:103AF000F5CFE9FF0800F5CFEAFFEF50800B2FE08C
:103B0000010EE66E2CCEE6FF2651100DF3CF00F02D
:103B1000F4CF01F0000E0026010E012200C0E6FFE6
:103B200001C0E6FF87EC15F0E552E552E552E5529B
:103B30000E01009D262B2651006E016A800E001892
:103B400001E1015001E1266B252B2551006E016A30
:103B5000800E001801E1015002E1008B01D000D07D
:103B6000030EE15C02E2E16AE552E16EE552E7CF65
:103B7000D9FF12000E0101A704D00197010E32D027
:103B80002FD001A104D00191020E2CD029D000A980
:103B900004D00099030E26D023D000A704D00097AC
:103BA000040E20D01DD001A504D00195050E1AD019
:103BB00017D000A504D00095060E14D011D001A393
:103BC00004D00193070E0ED00BD000AF04D0009F9D
:103BD000080E08D005D001A903D00199090E02D022
:103BE000000E00D01200D9CFE6FFE1CFD9FFFC0EC6
:103BF000DB50090A01E12ED1010A01E108D10F0AC7
:103C000001E1E2D0010A01E1BCD0030A01E196D052
:103C1000010A71E0070A4CE0010A27E0030A02E00A
:103C2000000E3DD16D0E006E7A0E016E026A00C06C
:103C3000E6FF01C0E6FF02C0E6FFFD0EDBCFE6FFB8
:103C4000FE0EDBCFE6FF0AEC3EF0036E050EE15EF2
:103C50000350F350E66EFA0EDBCFE9FFFB0EDBCF2D
:103C6000EAFFE552E750EF6E18D1540E006E7A0E5F
:103C7000016E026A00C0E6FF01C0E6FF02C0E6FF77
:103C8000FD0EDBCFE6FFFE0EDBCFE6FF0AEC3EF0DB
:103C9000036E050EE15E0350F350E66EFA0EDBCFC5
:103CA000E9FFFB0EDBCFEAFFE552E750EF6EF5D000
:103CB0003C0E006E7A0E016E026A00C0E6FF01C083
:103CC000E6FF02C0E6FFFD0EDBCFE6FFFE0EDBCF18
:103CD000E6FF0AEC3EF0036E050EE15E0350F35082
:103CE000E66EFA0EDBCFE9FFFB0EDBCFEAFFE55213
:103CF000E750EF6ED2D0200E006E7A0E016E026A8F
:103D000000C0E6FF01C0E6FF02C0E6FFFD0EDBCF0C
:103D1000E6FFFE0EDBCFE6FF0AEC3EF0036E050E7B
:103D2000E15E0350F350E66EFA0EDBCFE9FFFB0EC7
:103D3000DBCFEAFFE552E750EF6EAFD0040E006E26
:103D40007A0E016E026A00C0E6FF01C0E6FF02C003
:103D5000E6FFFD0EDBCFE6FFFE0EDBCFE6FF0AEC53
:103D60003EF0036E050EE15E0350F350E66EFA0E70
:103D7000DBCFE9FFFB0EDBCFEAFFE552E750EF6E4A
:103D80008CD0EC0E006E790E016E026A00C0E6FF68
:103D900001C0E6FF02C0E6FFFD0EDBCFE6FFFE0E30
:103DA000DBCFE6FF0AEC3EF0036E050EE15E03504A
:103DB000F350E66EFA0EDBCFE9FFFB0EDBCFEAFF36
:103DC000E552E750EF6E69D0D40E006E790E016EA9
:103DD000026A00C0E6FF01C0E6FF02C0E6FFFD0E7A
:103DE000DBCFE6FFFE0EDBCFE6FF0AEC3EF0036E14
:103DF000050EE15E0350F350E66EFA0EDBCFE9FFED
:103E0000FB0EDBCFEAFFE552E750EF6E46D0C80E5F
:103E1000006E790E016E026A00C0E6FF01C0E6FF87
:103E200002C0E6FFFD0EDBCFE6FFFE0EDBCFE6FFB6
:103E30000AEC3EF0036E050EE15E0350F350E66EB1
:103E4000FA0EDBCFE9FFFB0EDBCFEAFFE552E750CE
:103E5000EF6E23D0B60E006E790E016E026A00C0BE
:103E6000E6FF01C0E6FF02C0E6FFFD0EDBCFE6FF86
:103E7000FE0EDBCFE6FF0AEC3EF0036E050EE15EC0
:103E80000350F350E66EFA0EDBCFE9FFFB0EDBCFFB
:103E9000EAFFE552E750EF6E00D0010E00D0E55288
:063EA000E7CFD9FF12007C
:0A3EA6008FEC24F0FB0EDBCFF3FFDE
:103EB000DB06F35000090AE0DDEC24F0FA0E48ECD2
:103EC00025F0F3E1011CF1E1010E01D0000EBEEF7F
:103ED00024F08FEC24F03B0EE12402E3E168E6528B
:103EE000E16E010EDB6A020EDB6AF90EDBCFF6FF34
:103EF000FA0EDBCFF7FFFB0EDBCFF8FF0800F55023
:103F0000DF6EDF5002E1E2EF23F0250EDF5C02E01E
:103F1000D5EF23F0030EDB6A040EDB6A050EDB6AC5
:103F2000060EDB6A070EDB6AF7EC23F02D0EDF5C72
:103F30000CE02B0EDF5C09E0200EDF5C06E0230EB8
:103F4000DF5C03E0300EDF5C1AE1DF50300A14E082
:103F5000130A0FE0030A0AE00B0A05E0060AE4E18F
:103F6000030EDB80E1D7030EDB82DED7030EDB849A
:103F7000DBD7030EDB86D8D7030EDB88D5D72A0E16
:103F8000DF5C1BE1F3EC23F041EC24F010E0030EC6
:103F9000DB8026682768130EDBCF2BF0140EDBCFF7
:103FA0002CF0FCEC32F0040E24C0DBFF03D0130E27
:103FB0002AEC24F0F7EC23F00BD0090EDB6A98EC26
:103FC00024F003E00CEC25F0FAD7090E2AEC24F0DB
:103FD000030EDBB0DB982E0EDF5C1BE1F7EC23F069
:103FE0002A0EDF5C0BE1F3EC23F041EC24F003E15B
:103FF000130E7CEC24F0F7EC23F00BD0090EDB6AF7
:1040000098EC24F003E00CEC25F0FAD7090E7CECD8
:1040100024F0680EDF5C07E1F7EC23F0680EDF5C4C
:104020001DE1030E18D0740EDF5C17E07A0EDF5C22
:1040300014E0480EDF5C06E0540EDF5C03E05A0E2D
:10404000DF5C02E1020E07D06C0EDF5C03E06A0E5B
:10405000DF5C04E1010ECFEC24F0C9DBDF506E0A17
:1040600001E17FD31E0A01E192D1200A01E18FD143
:104070003F0A01E149D11A0A01E146D10D0A01E1E5
:1040800043D1200A01E140D13A0A01E13DD1200AA1
:1040900001E13AD1260A01E135D10D0A01E132D11F
:1040A0001A0A01E1D9D0200A4AE0300A1FE0460A84
:1040B0000EE0250A01E083D3D950F90FE96EFF0E17
:1040C000DA20EA6E010EEE5E000EEE5AEE5ADDECDC
:1040D00024F0250EE66E95DB03E1011C01E169D3B6
:1040E000D9EC24F001E26BD3DB2A69D3080EDB6A3A
:1040F000040EDB50010806E2040EDB04A1EC24F000
:10410000DB508BDB080EDB5009E0030EDB50010BAC
:1041100005E172DB01E04DD3080EDB6A64DBEFCF13
:10412000DFFF51EC25F003E1011C01E142D3D9ECA2
:1041300024F001E3DB2A60DB01E141D33AD3070E2F
:10414000DB5002080FE11DEC25F0030EE4EC24F037
:104150000E0EEECFDBFF0F0EEECFDBFF100EEECF1D
:10416000DBFF20D0F70EDBCF03F0F80EDBCF04F03F
:10417000020E035E000E045AF70E03C0DBFFF80EBA
:1041800004C0DBFF03C0E9FF04C0EAFFD4EC24F065
:10419000026A0E0E00C0DBFF0F0E01C0DBFF100E27
:1041A00002C0DBFF0E0EDBCFE6FF0F0EDBCFE6FF1C
:1041B000100EDBCFE6FFE5EC3DF0E552E552E552AF
:1041C000130E25C0DBFF140E26C0DBFF060EDB50EE
:1041D00005E0130E18EC25F001E26ADB3CEC25F05B
:1041E00002E2130E37DBFFEC24F006E0040E18ECBD
:1041F00025F002E2050E2EDB030EDBB005D0FCDA63
:1042000001E0D7D2080EDB6A090EDB6A0E0EDBCFA7
:10421000F6FF0F0EDBCFF7FF100EDBCFF8FF080025
:10422000F550DF6EDF5014E042EC25F011E251EC66
:1042300025F003E1011C01E1BCD2BBDB01E3DB2A79
:10424000090EDB2AD9500E0FE96E000ECBDBE7D743
:10425000D3DA01E1B4D2ADD2C6DA110EEECFDBFF74
:10426000120EEDCFDBFF110EDBCFE6FF120EDBCF20
:10427000E6FFD7EC3DF0E552E552130EF3CFDBFF3E
:10428000140EF4CFDBFF060EDB5004E0130ED0DB80
:1042900001E20EDB3CEC25F002E2130EDBDAAFDBD1
:1042A00005E0040EC5DB02E2050ED4DA030EDBB036
:1042B00005D0A2DA01E07DD2080EDB6A090EDB6AC6
:1042C000110EDBCFE9FF120EDBCFEAFFEFCFDFFFEE
:1042D000DF5014E0D7DB12E2E4DB03E1011C01E173
:1042E00068D267DB01E3DB2A090EDB2A110EDB2A29
:1042F000DBCFE9FF120EE8E3DB2AE6D77DDA01E146
:104300005ED257D2030EDB8E070EDB0410E195DB85
:10431000040E5ADB0A0EEECFDBFF0B0EEECFDBFFF7
:104320000C0EEECFDBFF0D0EEECFDBFF6CD0070ED9
:10433000DB5003082CE1030EDBAE0DD0B2DA020E27
:1043400076DAEFCF00F0016A026A036A00AE39D074
:104350000168026835D0F70EDBCF01F0F80EDBCF35
:1043600002F0020E015E000E025AF70E01C0DBFFE2
:10437000F80E02C0DBFF01C0E9FF02C0EAFFEFCF89
:1043800000F00A0E00C0DBFF0B0EDB6A38D0070E10
:10439000DB50020809E1030EDBAE04D059DB02AEAC
:1043A00010D00ED055DB0DD0030EDBAE12D079DA73
:1043B000020E3DDAF9DA026A036A01AE02D002683F
:1043C0000368E2DA0C0E02C0DBFF0D0E03C0DBFF58
:1043D0001AD0F70EDBCF02F0F80EDBCF03F0020E9F
:1043E000025E000E035AF70E02C0DBFFF80E03C098
:1043F000DBFF02C0E9FF03C0EAFFD6DAC5DA0C0E24
:10440000DB6A0D0EDB6A060EDB5005E1010EF36E72
:10441000050EF3CFDBFF150EDB6A160EDB6AD950F3
:10442000370F006E000EDA20016E390E00C0DBFF80
:104430003A0E01C0DBFF380EDB6A080EDB6A0A0E9B
:10444000AEDADF50780A12E0200A10E0280A0CE009
:10445000200A0AE03F0A06E00D0A02E0200A08E10D
:10446000020E05D0080E03D0080EDF26100E97DAD4
:10447000030EDBBE02D0DB92DB94DB50800B24E02A
:104480008ADAD890030EEB50000A08E6000EEE5CC4
:10449000000EEE58000EEE58000EEE5815E213DA3C
:1044A00029682A682B682C68BBEC3FF00A0E20C0F4
:1044B000DBFF0B0E21C0DBFF0C0E22C0DBFF0D0E5D
:1044C00023C0DBFF2D0E08D0030EDBA202D02B0E83
:1044D00003D0DBA408D0200EF36E170EF3CFDBFF62
:1044E000150EDB2A02D0170EDB6A050EDB5003E146
:1044F000B7D901E189D06E0E006E820E016E000EFA
:10450000026E070EDBCF03F0046A056A066A03C079
:1045100029F004C02AF005C02BF006C02CF0D3D936
:1045200026EC40F000502024F36E01502120F46E60
:1045300002502220F86EF4CFF7FFF3CFF6FF080009
:10454000090EF5CFDBFF580EDF5C0FE1610EF36E55
:10455000090E7BD90AE3200E006E090EDBCFE7FFC0
:104560000050E75E090EE7CFDBFF070EDBCF00F060
:10457000016A026A036A0FDA00C029F001C02AF05A
:1045800002C02BF003C02CF0EECF24F0EECF25F0CC
:10459000EECF26F0EFCF27F026EC40F027C0EDFF5E
:1045A00026C0EDFF25C0EDFF24C0EFFF390EDBCFA5
:1045B000E9FFDB063A0EDBCFEAFF01E2DB06090E7C
:1045C000DBCFEFFF150EDB2A4BD995E1030EDBA6FF
:1045D0001DD06F0EDF5C06E1C1D918E3150EDB2894
:1045E0005BDA14D0780EDF5C09E0580EDF5C06E081
:1045F000620EDF5C03E0420EDF5C08E1020EF36E48
:10460000160EF3CFDBFF02D0150EDB6A030EDB5074
:10461000100B0EE0040EDBCF00F0050EDB50D8804F
:10462000005406E2060EDB5003E1040EDB5034DAE0
:1046300095D90AE2050EDBCFE7FF150EDB50E75EEA
:10464000050EE7CFDBFF02D0050EDB6A040EDBCFE1
:1046500000F0160E45D9D880005414E2160EDBCFB8
:10466000E6FF150EDBCFE6FF040EDBCFE6FF050EFF
:10467000DB50E552E75CE552D880E754E552D8803C
:10468000E7545FD9030EDB50010B0BE1080EDB5042
:1046900008E0B2D801E08DD0080EDB50BED8080E7D
:1046A000DB6A170EDB5007E088D9170EF1D903E15A
:1046B000011C01E17ED0160EDB5016E07ED9300ED3
:1046C000E66E9FD802E1011C74E077D9DFCFE6FFE8
:1046D00004EC3FF0E552E552E552F4CF01F0000161
:1046E000F31C02E1011C65E0050EDBCF00F0160EA5
:1046F000DB50D880005409E2050EDBCFE7FF160E31
:10470000DB50E75E050EE7CFDBFF300EE66E050EF1
:10471000CBD94FE1390EDB2ADBCFE9FF3A0E01E3BB
:10472000DB2ADBCFEAFF090EEFCFDBFFDB500EE029
:1047300044D9090EADD902E1011C3BE0390EDB2A58
:10474000DBCFE9FF3A0EEDE3DB2AEBD755D831E1B9
:10475000160EDBCFE6FF080EC3D8E552E7245DD87E
:104760002ED0070EDB50030A1CE0010A14E0030AF6
:1047700007E07BD9DBCFEEFF020EDBCFEDFF1FD0D2
:10478000F5D8056A03AE02D0046805682CD8BCD8F9
:1047900005C0EEFF14D0EAD803BE046824D8B4D80C
:1047A0000ED063D9DBCFEFFF0AD07BD905E1011C26
:1047B00003E1F368F46810D0FCD801E3DB2A79D96F
:1047C0007EEF1FF0010EDBCF00F0020EDBCF01F019
:1047D00000C0F3FF01C0F4FF3B0EE15C02E2E16ABE
:1047E000E552E16ECBD029D9020EE4EF24F061D975
:1047F0000800F550DF6E1200200EE66E080E54EF32
:1048000025F004EC3FF0E552E552E552F3CF00F01D
:10481000F4CF01F00001F31C1200006E016AD950C0
:10482000010F4DD90050EE260150ED221200045E1A
:10483000000E055AF70E04C0DBFFF80E05C0DBFFC3
:1048400004C0E9FF05C0EAFF1200DBCFF4FFF3501C
:10485000F45C1200DB50E76E040EE7CFDBFF1200C2
:104860000A0EDBCF00F00B0EDBCF01F00C0EDBCF1E
:1048700002F00D0EDBCF03F0005001100210031008
:104880001200130EEECFDBFF140EEDCFDBFF130E85
:10489000DBCF00F0140EDBCF01F00001800E01141D
:1048A0001200F70EDBCF04F0F80EDBCF05F012009C
:1048B000050EDB50E66ED950130F01D9E552E750D3
:1048C000EE6EED6A12000A0EDBCF24F00B0EDBCF8A
:1048D00025F00C0EDBCF26F00D0EDBCF27F01200FB
:1048E000DBCFE6FF150EDBCFE6FF050EDB50E55212
:1048F000E724E552E7241200DB50CED8010EF36E18
:10490000060EF3CFDBFF1200EE50EFCFEAFFE96EA9
:1049100002C0EEFF03C0EEFF04C0EEFF1200D9CFCD
:10492000E6FFDACFE6FFE1CFD9FFE2CFDAFF1200F0
:10493000DFCFE6FFE66AD7EC40F0E552E552F350F0
:104940001200E76E080EE7CFDBFF1200EECF00F09B
:10495000EECF01F0EFCF02F0036A1200050EDBCFBD
:1049600000F0150EDB50D88000541200010EDBCF92
:1049700002F0020EDBCF03F0046A1200E552E5CF2D
:10498000DAFFE7CFD9FF12000A0E00C0DBFF0B0EE3
:1049900001C0DBFF1200D9500A0F5FEF25F0F36E64
:1049A000070EF3CFDBFF1200EECF00F0EFCF01F0E8
:1049B0001200010EDB2A020E1200FC0EDBCFE6FF16
:1049C000FD0EDBCFE6FF1200005E000E015AF70E6F
:1049D00000C0DBFFF80E01C0DBFF00C0E9FF01C033
:1049E000EAFF1200DA20EA6EEF2AEECFF6FF000EA1
:1049F000EF22EECFF7FFEF22EECFF8FF1200040E0A
:104A0000DBCFE6FF130EDB50E552E75C9ADFDB50AD
:104A100004DF060EDB501200090EDB500A0DF350C6
:104A2000DF24D00FE76E090EE7CFDBFFF7EF23F0AF
:104A3000DB50F36E050E25EF24F0F70EDBCF00F010
:104A4000F80EDBCF01F01200DFCFE6FF01EF24F01C
:104A500028DF030EECDEA6EF24F053EC1FF0E55246
:104A6000E552E552E55200091200BDDEEE50EFCFEF
:104A7000EAFFE96E010E1200130EDB50F36E040E16
:104A800025EF24F0040EDB50F36E090E25EF24F021
:104A9000DBCFE6FF01EF24F0E76E050EE7CFDBFF8B
:104AA00012008BDF24EF25F0DBCFE6FF86DF2DEF52
:104AB00025F0D950F90FE96EFF0EF2EF24F0E96E00
:084AC000000EDA20EA6E12007C
:084AC800D9CFE6FFE1CFD9FFD1
:104AD0000901A591A583A76BA86BA96BAA6BAB6B0A
:104AE000AC6BA595A587A599A59BAD6BAE6BAF6B80
:104AF000B06BFE0EDBCFB1F9B86BCC0EE66EFAEC04
:104B000040F0E5529D989D9AE552E7CFD9FF1200FB
:104B1000D9CFE6FFE1CFD9FF0901A691A683B26BF9
:104B2000B36BB46BB56BB66BB76BA695A687A6993E
:104B3000A69BB96BBA6BBB6BBC6BFE0EDBCFBDF932
:104B4000BE6BCC0EE66EE9EC40F0E552A388A38A7A
:104B5000E552E7CFD9FF1200D9CFE6FFE1CFD9FF69
:104B60000901A5A102D0000E1FD0000EA925E96EF3
:104B70000A0EAA21EA6EFE0EDBCFEFFFA593A72B4C
:104B8000000EA823640EA71901E1A85101E1A58137
:104B9000A92B000EAA23640EA91901E1AA5102E172
:104BA000A96BAA6B010E00D0E552E7CFD9FF120026
:104BB000D9CFE6FFE1CFD9FF0901A6A102D0000EAF
:104BC00021D0A398C20EB425E96E0B0EB521EA6E72
:104BD000FE0EDBCFEFFFA693B22B000EB3231E0E0B
:104BE000B21901E1B35101E1A681B42B000EB52346
:104BF0001E0EB41901E1B55102E1B46BB56BA38887
:104C0000010E00D0E552E7CFD9FF1200D9CFE6FF61
:104C1000E1CFD9FF020EE126FFD8F3CF00F0F4CFA9
:104C200001F0FB0EDBCF02F0FC0EDBCF03F00250F5
:104C3000005C0350015802E2000E2CD0DE6ADD6AEF
:104C4000DECF00F0DDCF01F0FB0EDBCF02F0FC0E7B
:104C5000DBCF03F00250005C0350015819E2FD0E57
:104C6000DBCF00F0FE0EDBCF01F0DE500024E96E5A
:104C7000DD500120EA6EEF50E66E6EDFE55200096E
:104C800002E1000E07D0DF2A010E01E3DB2AD8D7AC
:104C9000010E00D0006E020EE15C02E2E16AE55214
:104CA000E16E0050E552E7CFD9FF1200D9CFE6FF01
:104CB000E1CFD9FF020EE126C8D8F3CF00F0F4CF40
:104CC00001F0FB0EDBCF02F0FC0EDBCF03F0025055
:104CD000005C0350015802E2000E2CD0DE6ADD6A4F
:104CE000DECF00F0DDCF01F0FB0EDBCF02F0FC0EDB
:104CF000DBCF03F00250005C0350015819E2FD0EB7
:104D0000DBCF00F0FE0EDBCF01F0DE500024E96EB9
:104D1000DD500120EA6EEF50E66E4ADFE5520009F1
:104D200002E1000E07D0DF2A010E01E3DB2AD8D70B
:104D3000010E00D0006E020EE15C02E2E16AE55273
:104D4000E16E0050E552E7CFD9FF12000901A5B38B
:104D500035D09EB802D0000E33D00000000009010B
:104D6000B15103E00901B82B8C88000E0901AB2575
:104D7000E96E0A0E0901AC21EA6EEF50E66EC0EC56
:104D800040F0E5520901A5A102D00901A591090150
:104D9000A707000EA85B0901A751A81102E10901AC
:104DA000A5830901AB2B000EAC230901640EAB19DE
:104DB00001E1AC5103E10901AB6BAC6B010E00D01A
:104DC00012000901A6B324D0BD5102E0BE2B8C8A8B
:104DD000C20EB625E96E0B0EB721EA6EEF50E66EF5
:104DE000A9EC40F0E5520901A6B1A691B207000E68
:104DF000B35BB251B31101E1A683B62B000EB7230A
:104E00001E0EB61901E1B75102E1B66BB76B01D0C6
:104E1000A398010E00D012000901640EA75D000ED8
:104E2000A8590FE2A7C900F0A8C901F0640ED88004
:104E30000056000E015600C0F3FF01C0F4FF04D07D
:104E400003D0F36AF46A00D0120009011E0EB25DAD
:104E5000000EB3590FE2B2C900F0B3C901F01E0E43
:104E6000D8800056000E015600C0F3FF01C0F4FFC9
:104E700004D003D0F36AF46A00D01200D9CFE6FF61
:104E8000E1CFD9FFE6529EBA02D0000E52D0ABA2BB
:104E90000CD00901A5898AEC40F0DF6E000000000B
:104EA0008AEC40F0DF6EAB98AB880901A5B53DD028
:104EB0008AEC40F0DF6EABA404D00901A58B000E94
:104EC00038D00901B15107E00901B85104E00901E6
:104ED000B807000E2ED00901A5990901A597640E07
:104EE0000901AF25E96E0A0E0901B021EA6EDFCF94
:104EF000EFFF0901AD2B000EAE235E0E0901AD19C7
:104F000002E1010EAE1902E10901A5850901AF2BED
:104F1000000EB0235E0E0901AF1902E1010EB019B7
:104F200003E10901AF6BB06B02D0000E02D0010E9D
:104F300000D0E552E552E7CFD9FF1200D9CFE6FF06
:104F4000E1CFD9FFE652A6A20CD00901A6896BECED
:104F500040F0DF6E000000006BEC40F0DF6EA698C2
:104F6000A6880901A6B53BD06BEC40F0DF6EA6A485
:104F700004D00901A68B000E38D00901BD5107E00D
:104F80000901BE5104E00901BE07000E2ED009013F
:104F9000A6990901A697E00E0901BB25E96E0B0E43
:104FA0000901BC21EA6EDFCFEFFF0901B92B000E2A
:104FB000BA230901010EB91901E1BA5102E109014F
:104FC000A6850901BB2B000EBC230901010EBB19EC
:104FD00001E1BC5103E10901BB6BBC6B04D00901C9
:104FE000A689000E02D0010E00D0E552E552E7CFAF
:104FF000D9FF1200D9CFE6FFE1CFD9FF0901A5A75C
:1050000002D0000E29D0A595640E0E013725E96E59
:105010000A0E3821EA6EEF50E66EFD0EDBCFE9FF97
:10502000FE0EDBCFEAFFE552E750EF6E0901AD0758
:10503000000EAE5BAD51AE1101E1A5870E01372B1D
:10504000000E38235E0E371902E1010E381902E115
:10505000376B386B010E00D0E552E7CFD9FF120055
:10506000D9CFE6FFE1CFD9FF0901A6A702D0000EF4
:105070002AD0A39AA695E00E0E013925E96E0B0EF3
:105080003A21EA6EEF50E66EFD0EDBCFE9FFFE0E31
:10509000DBCFEAFFE552E750EF6E0901B907000EDA
:1050A000BA5BB951BA1101E1A6870E01392B000E86
:1050B0003A23010E391901E13A5102E1396B3A6B99
:1050C000A38A010E00D0E552E7CFD9FF12000901F3
:1050D000AD5100D012000901B95100D01200D9CF52
:1050E000E6FFE1CFD9FF050EE126FA0EDBCF24F073
:1050F000256A266A276A400E296E420E2A6E0F0E16
:105100002B6E2C6ABBEC3FF020C0DEFF21C0DEFF1F
:1051100022C0DEFF23C0DDFFDD52DD52030EF36E41
:10512000040EF3CFDBFFDB50030A01E183D0020A58
:1051300044E0030A42E0020A03E0F368F46AB8D0EC
:10514000D9CFE9FFDACFEAFFEECF04F0EECF05F0DA
:10515000EECF06F0EFCF07F004C024F005C025F035
:1051600006C026F007C027F0FB0EDBCF29F0FC0EAF
:10517000DBCF2AF0FD0EDBCF2BF0FE0EDBCF2CF0C9
:1051800026EC40F024C000F025C001F026C002F05B
:1051900027C003F0060ED8900332023201320032EB
:1051A000E806F9E10006000E015A025A035A00C04F
:1051B000F3FF01C0F4FF7CD07BD0D9CFE9FFDACF79
:1051C000EAFFEECF04F0EECF05F0EECF06F0EFCF22
:1051D00007F004C024F005C025F006C026F007C083
:1051E00027F0FB0EDBCF29F0FC0EDBCF2AF0FD0E03
:1051F000DBCF2BF0FE0EDBCF2CF026EC40F024C0F2
:1052000000F025C001F026C002F027C003F0040E14
:10521000D8900332023201320032E806F9E100068A
:10522000000E015A025A035A00C0F3FF01C0F4FFF6
:105230003FD03ED0D9CFE9FFDACFEAFFEECF04F07E
:10524000EECF05F0EECF06F0EFCF07F004C024F06C
:1052500005C025F006C026F007C027F0FB0EDBCF07
:1052600029F0FC0EDBCF2AF0FD0EDBCF2BF0FE0E7B
:10527000DBCF2CF026EC40F024C000F025C001F07C
:1052800026C002F027C003F0020ED890033202328B
:1052900001320032E806F9E10006000E015A025A16
:1052A000035A00C0F3FF01C0F4FF02D001D000D0C8
:1052B000050EE15C02E2E16AE552E16EE552E7CFFC
:1052C000D9FF1200D9CFE6FFE1CFD9FF050EE126C5
:1052D000FA0EDBCF24F0256A266A276A400E296E73
:1052E000420E2A6E0F0E2B6E2C6ABBEC3FF020C0D4
:1052F000DEFF21C0DEFF22C0DEFF23C0DDFFDD5266
:10530000DD52030EF36E040EF3CFDBFFDB50030A16
:1053100001E183D0020A44E0030A42E0020A03E00A
:10532000F368F46AB8D0D9CFE9FFDACFEAFFEECF5D
:1053300004F0EECF05F0EECF06F0EFCF07F004C09B
:1053400024F005C025F006C026F007C027F0FB0EAC
:10535000DBCF29F0FC0EDBCF2AF0FD0EDBCF2BF0EC
:10536000FE0EDBCF2CF026EC40F024C000F025C070
:1053700001F026C002F027C003F0060ED8900332D9
:10538000023201320032E806F9E10006000E015A4D
:10539000025A035A00C0F3FF01C0F4FF7CD07BD057
:1053A000D9CFE9FFDACFEAFFEECF04F0EECF05F078
:1053B000EECF06F0EFCF07F004C024F005C025F0D3
:1053C00006C026F007C027F0FB0EDBCF29F0FC0E4D
:1053D000DBCF2AF0FD0EDBCF2BF0FE0EDBCF2CF067
:1053E00026EC40F024C000F025C001F026C002F0F9
:1053F00027C003F0040ED89003320232013200328B
:10540000E806F9E10006000E015A025A035A00C0EC
:10541000F3FF01C0F4FF3FD03ED0D9CFE9FFDACF90
:10542000EAFFEECF04F0EECF05F0EECF06F0EFCFBF
:1054300007F004C024F005C025F006C026F007C020
:1054400027F0FB0EDBCF29F0FC0EDBCF2AF0FD0EA0
:10545000DBCF2BF0FE0EDBCF2CF026EC40F024C08F
:1054600000F025C001F026C002F027C003F0020EB4
:10547000D8900332023201320032E806F9E1000628
:10548000000E015A025A035A00C0F3FF01C0F4FF94
:1054900002D001D000D0050EE15C02E2E16AE552E3
:1054A000E16EE552E7CFD9FF12001200A450100BB5
:1054B00004E0A350100B01E084DCA450200B04E0B6
:1054C000A350200B01E03ADD1200ACB28C98120020
:1054D000BAB28C9A12000901A5A904D0A599110E9F
:1054E00008D005D0A5AB03D0A59B120E02D0000EAC
:1054F00000D01200D9CFE6FFE1CFD9FFFC0EDB5080
:10550000120A27E0030A02E0000E49D0A70E006E3F
:10551000790E016E026A00C0E6FF01C0E6FF02C01C
:10552000E6FFFD0EDBCFE6FFFE0EDBCFE6FF0AEC6B
:105530003EF0036E050EE15E0350F350E66EFA0E88
:10554000DBCFE9FFFB0EDBCFEAFFE552E750EF6E62
:1055500024D0940E006E790E016E026A00C0E6FF40
:1055600001C0E6FF02C0E6FFFD0EDBCFE6FFFE0E48
:10557000DBCFE6FF0AEC3EF0036E050EE15E035062
:10558000F350E66EFA0EDBCFE9FFFB0EDBCFEAFF4E
:10559000E552E750EF6E01D000D0010E00D0E55289
:1055A000E7CFD9FF12000901A6A904D0A699110ED0
:1055B00008D005D0A6AB03D0A69B120E02D0000ED9
:1055C00000D01200D9CFE6FFE1CFD9FFFC0EDB50AF
:1055D000120A27E0030A02E0000E49D0A70E006E6F
:1055E000790E016E026A00C0E6FF01C0E6FF02C04C
:1055F000E6FFFD0EDBCFE6FFFE0EDBCFE6FF0AEC9B
:105600003EF0036E050EE15E0350F350E66EFA0EB7
:10561000DBCFE9FFFB0EDBCFEAFFE552E750EF6E91
:1056200024D0940E006E790E016E026A00C0E6FF6F
:1056300001C0E6FF02C0E6FFFD0EDBCFE6FFFE0E77
:10564000DBCFE6FF0AEC3EF0036E050EE15E035091
:10565000F350E66EFA0EDBCFE9FFFB0EDBCFEAFF7D
:10566000E552E750EF6E01D000D0010E00D0E552B8
:06567000E7CFD9FF120094
:0A567600D9CFE6FFDACFE6FFE1CF5F
:10568000D9FFE2CFDAFF4B0EE12402E3E168E652F4
:10569000E16ED7EC2FF0D950060FFCEC2FF07EEC2A
:1056A00030F04DEC30F002E2E16AE552E16E00507C
:1056B000DF6ED9500D0FFCEC2FF0B5EC30F04DEC57
:1056C00030F002E2E16AE552E16E0050E76E010E51
:1056D000E7CFDBFFC7EC30F0B0EC2FF0B1EC30F0EF
:1056E000000EE66EE66A84EC30F002E2E16AE55212
:1056F000E16E0050190EDB5003E01A0EDB6A16D083
:10570000B1EC30F0010EE66EE66A84EC30F002E2B5
:10571000E16AE552E16E0050190EDB5002E1030E22
:1057200001D0050EF36E1A0EF3CFDBFF010EDB0482
:1057300055E0FA0EDBCF00F0FB0EDBCF01F0FC0EE4
:10574000DBCF02F0FD0EDBCF03F08BEC30F046E058
:10575000800EDF5C04E0010EDB50800804E161ECA8
:1057600030F07F0E5BD0DF040CE1130EDB500FE056
:10577000EDDB7F0E68EC30F0210E0E013E6F3F6BCB
:105780000DD0040EDF5C22E1130EDB5003E02CECA5
:1057900030F004D0DBDB7F0E68EC30F01A0EDBA4B7
:1057A00069D30C0EDB5001E165D301EC30F0A1ECC4
:1057B00030F0020E25C0DBFF030E26C0DBFF040E17
:1057C00027C0DBFF050E28C0DBFF54D3010EDB50E2
:1057D000040816E173DB8BEC30F003E1B7DB3F0E1E
:1057E0001DD0130EDB5004E091EC30F004E106D044
:1057F00091EC30F003E12CEC30F03CD3A7DB0DD082
:105800000C0EDB500EE01A0EDB50010B0AE1210EEC
:105810000E013E6F3F6B61EC30F07F0E68EC30F0B4
:1058200029D3ABDB8BEC30F002E1C1DB23D3D950C1
:105830001B0FE2DB7EEC30F013EC3BF0006E060E4B
:10584000E15C02E2E16AE552E16E005089DB0C0E98
:10585000DB5003E1180EDB6A16D030DBA1EC30F030
:10586000140E25C0DBFF150E26C0DBFF160E27C069
:10587000DBFF170E28C0DBFF1A0EDB50040BE76EB0
:10588000180EE7CFDBFF1ADBF30E2A6E040E2B6E29
:10589000350E2C6E3F0E2D6E0DDB70EC33F0010AD1
:1058A00017E1010EE66EE66AD950140F98EC30F05D
:1058B00077EC3AF0006E060EE15C02E2E16AE55236
:1058C000E16E00504DDB1B0EDB061C0E01E2DB0619
:1058D000F60EDBCF25F0F70EDBCF26F0F80EDBCF90
:1058E00027F0F90EDBCF28F029EC33F01D0E24C091
:1058F000DBFF1E0E25C0DBFF1F0E26C0DBFF200EC8
:1059000027C0DBFF1B0EDBCF26F01C0EE6DB250ECF
:1059100025C0DBFF260E26C0DBFF270E27C0DBFFDE
:10592000280E28C0DBFF36DBF60EDBCF2AF0F70EA1
:10593000DBCF2BF0F80EDBCF2CF0F90ED2DB29EC0D
:1059400033F0210E24C0DBFF220E25C0DBFF230E27
:1059500026C0DBFF240E27C0DBFFD950210F85DBDB
:1059600008E6010EEE5C800EEE58FF0EEE58FF0EBC
:10597000EE581AE3210EDBCF25F0220EDBCF26F006
:10598000230EDBCF27F0240EDBCF28F02834000EC7
:10599000281809E6D880FF0E25547F0E2654000EE5
:1059A0002754000E285402E266DBEED1D9501D0FB9
:1059B0005CDB08E6800EEE5CFF0EEE58FF0EEE5844
:1059C000FF0EEE580CE275DB03E0800E006E05D092
:1059D000D9501B0F3DDB1FE1006A016A29D01D0E63
:1059E000DBCF25F01E0EDBCF26F01F0EDBCF27F01E
:1059F000200EDBCF28F02834000E281809E6D880C6
:105A0000800E2554000E2654000E2754000E2854F4
:105A100022E24FDB04E0800E006E016809D0D9500D
:105A20001B0F16DB02E1006A02D0800E006E016AD5
:105A3000390E00C0DBFF3A0E01C0DBFF370EDB6A18
:105A4000380EDB6A2D0EDB6A2E0EDB6A2F0EDB6A48
:105A5000300EDB6ACFD01D0EDBCF26F01E0EDBCF63
:105A600027F0370E26C0DBFF380E27C0DBFF210EE4
:105A7000DBCF26F0220EDBCF27F0390E26C0DBFF6E
:105A80003A0E27C0DBFF110EDBCF00F0120EDBCF8A
:105A900001F07F0E005E000E015A080E005E000E3F
:105AA000015A350E00C0DBFF360E01C0DBFF59DBAB
