:020000040000FA
:0600000028EF41F01200A0
:020006001200E6
:060008001AEF3DF01200AA
:02000E001200DE
:0400100000000000EC
:03001400000903DD
:060018007FEF3DF0120035
:02001E000300DD
:10002000140000003B0E0000030000009982000055
:10003000E10B00001E00000010000000370E000061
:0400400004000000B8
:0C004400D9CFE6FFE1CFD9FFE65294804F
:100050009482948494869488948A968096821F0EC3
:1000600082140901206F8250200B01E0010E010F64
:10007000256F25050FE1A50E2D6F090E2E6F296B3B
:10008000C20E2A6F010E2B6F2C6B276B286B800E14
:100090002F6F0FD0A60E2D6F090E2E6F296BC20E7B
:1000A0002A6F010E2B6F2C6B800E276F400E286F6E
:1000B0002F6B949C948E959C958E2051100A01E193
:1000C00097D1020A01E194D1120A01E134D10A0A5E
:1000D00001E1D4D0070A01E1D1D0090A70E00C0A8D
:1000E0006EE0190A6CE0180A6AE0020A68E0070A82
:1000F00066E0020A64E00B0A01E07AD1250502E11C
:10010000898004D0020E255D01E18A8A250503E17C
:100110008984898A05D0020E255D02E18A888D8452
:10012000250506E1010EE66E36EC25F0E55205D018
:10013000010EE66E5AEC25F0E552090125051EE197
:10014000400EE66EE66AC20EE66E010EE66EE66AE6
:1001500041EC28F0026E050EE15E0250F3CF00F094
:10016000F4CF01F000C0E6FF01C0E6FF3C0EE66EF2
:1001700057EC3FF0E552E552E5521DD0400EE66ED9
:10018000E66AC20EE66E010EE66EE66A34EC29F00F
:10019000026E050EE15E0250F3CF00F0F4CF01F0E5
:1001A00000C0E6FF01C0E6FFFC0EE66E1BEC3FF070
:1001B000E552E552E5520901020E266F5CD2250593
:1001C00002E1898004D0020E255D01E18A8A2505BD
:1001D00003E18994899A05D0020E255D02E18A988F
:1001E0008D94250505E1E66A36EC25F0E55204D04C
:1001F000E66A5AEC25F0E552090125051EE1400E9C
:10020000E66E800EE66E250EE66EE66AE66A41EC64
:1002100028F0026E050EE15E0250F3CF00F0F4CF3D
:1002200001F000C0E6FF01C0E6FF3C0EE66E57ECB1
:100230003FF0E552E552E5521DD0400EE66E800ECD
:10024000E66E250EE66EE66AE66A34EC29F0026E8A
:10025000050EE15E0250F3CF00F0F4CF01F000C0D4
:10026000E6FF01C0E6FFFC0EE66E1BEC3FF0E55238
:10027000E552E5520901010E266FFDD1250502E187
:10028000898004D0020E255D01E18A8A250503E1FB
:100290008994899A05D0020E255D02E18A988D9491
:1002A000250505E1E66A36EC25F0E55204D0E66A5C
:1002B0005AEC25F0E552090125051DE1400EE66ED8
:1002C000E66A960EE66EE66AE66A41EC28F0026E91
:1002D000050EE15E0250F3CF00F0F4CF01F000C054
:1002E000E6FF01C0E6FF3C0EE66E57EC3FF0E5523C
:1002F000E552E5521CD0400EE66EE66A960EE66EBA
:10030000E66AE66A34EC29F0026E050EE15E025000
:10031000F3CF00F0F4CF01F000C0E6FF01C0E6FF2C
:10032000FC0EE66E1BEC3FF0E552E552E55209018A
:10033000010E266FA0D1250502E1898004D0020EAE
:10034000255D01E18A8A250503E18994899A05D012
:10035000020E255D02E18A988D94250505E1E66A85
:1003600036EC25F0E55204D0E66A5AEC25F0E55269
:10037000090125051DE1400EE66EE66AE10EE66E16
:10038000E66AE66A41EC28F0026E050EE15E025074
:10039000F3CF00F0F4CF01F000C0E6FF01C0E6FFAC
:1003A0003C0EE66E57EC3FF0E552E552E5521CD0AC
:1003B000400EE66EE66AE10EE66EE66AE66A34EC48
:1003C00029F0026E050EE15E0250F3CF00F0F4CF8B
:1003D00001F000C0E6FF01C0E6FFFC0EE66E1BEC7C
:1003E0003FF0E552E552E5520901010E266F43D177
:1003F0008450020B01E0010E006E8450010BE824D2
:100400000024266F2651030A01E1D2D0010A6EE0D2
:10041000030A0CE0010A01E02DD1250502E18990D3
:1004200004D0020E255D01E18A9A24D1250502E15E
:10043000898004D0020E255D01E18A8A250503E149
:100440008994899A05D0020E255D02E18A988D94DF
:10045000250505E1E66A36EC25F0E55204D0E66AAA
:100460005AEC25F0E5520901250520E1400EE66E23
:1004700029C9E6FF2AC9E6FF2BC9E6FF2CC9E6FF1A
:1004800041EC28F0026E050EE15E0250F3CF00F061
:10049000F4CF01F000C0E6FF01C0E6FF3C0EE66EBF
:1004A00057EC3FF0E552E552E5521FD0400EE66EA4
:1004B00029C9E6FF2AC9E6FF2BC9E6FF2CC9E6FFDA
:1004C00034EC29F0026E050EE15E0250F3CF00F02D
:1004D000F4CF01F000C0E6FF01C0E6FFFC0EE66EBF
:1004E0001BEC3FF0E552E552E552C4D0250502E190
:1004F000898004D0020E255D01E18A8A250503E189
:100500008984898A05D0020E255D02E18A888D845E
:10051000250506E1010EE66E36EC25F0E55205D024
:10052000010EE66E5AEC25F0E5520901250520E1A1
:10053000400EE66E29C9E6FF2AC9E6FF2BC9E6FF91
:100540002CC9E6FF41EC28F0026E050EE15E025078
:10055000F3CF00F0F4CF01F000C0E6FF01C0E6FFEA
:100560003C0EE66E57EC3FF0E552E552E5521FD0E7
:10057000400EE66E29C9E6FF2AC9E6FF2BC9E6FF51
:100580002CC9E6FF34EC29F0026E050EE15E025044
:10059000F3CF00F0F4CF01F000C0E6FF01C0E6FFAA
:1005A000FC0EE66E1BEC3FF0E552E552E55262D0E0
:1005B000250502E1898004D0020E255D01E18A8AC9
:1005C000250504E18984899A8C8806D0020E255D70
:1005D00003E18A888D948C8A250505E1E66A36EC6C
:1005E00025F0E55204D0E66A5AEC25F0E5520901FF
:1005F000250520E1400EE66E29C9E6FF2AC9E6FF7F
:100600002BC9E6FF2CC9E6FF41EC28F0026E050E6F
:10061000E15E0250F3CF00F0F4CF01F000C0E6FF3E
:1006200001C0E6FF3C0EE66E57EC3FF0E552E552A6
:10063000E5521FD0400EE66E29C9E6FF2AC9E6FF43
:100640002BC9E6FF2CC9E6FF34EC29F0026E050E3B
:10065000E15E0250F3CF00F0F4CF01F000C0E6FFFE
:1006600001C0E6FFFC0EE66E1BEC3FF0E552E552E2
:10067000E55200D000D00901250502E18A8A04D0A4
:10068000020E255D01E18980250503E18A988D949C
:1006900005D0020E255D02E18994899A250505E1C0
:1006A000E66A5AEC25F0E55204D0E66A36EC25F00D
:1006B000E5520901250520E1400EE66E29C9E6FF55
:1006C0002AC9E6FF2BC9E6FF2CC9E6FF34EC29F066
:1006D000026E050EE15E0250F3CF00F0F4CF01F0A0
:1006E00000C0E6FF01C0E6FFFC0EE66E1BEC3FF02B
:1006F000E552E552E5521FD0400EE66E29C9E6FFED
:100700002AC9E6FF2BC9E6FF2CC9E6FF41EC28F019
:10071000026E050EE15E0250F3CF00F0F4CF01F05F
:1007200000C0E6FF01C0E6FF3C0EE66E57EC3FF06E
:10073000E552E552E552E10EE66E0B0EE66EE66A14
:10074000E66A200EE66E020EE66E50EC18F0006EC1
:10075000060EE15E0050000901E179D120C9E6FFF3
:1007600077EC0AF0E552F3CF21F9F4CF22F9090131
:10077000236B246B21C910F922C911F923C912F97D
:1007800024C913F9112B000E12231323100E205D20
:100790001BE18386E66AE66AE66AE66AE66AE66A74
:1007A0001EEC0FF0006E060EE15E0050E66AE66A8F
:1007B000E66AE66AE66A010EE66E1EEC0FF0006E6F
:1007C000060EE15E00501BD0E66AE668070EE66E94
:1007D000E66AE66AE66A1EEC0FF0006E060EE15E5F
:1007E0000050E66AE668070EE66EE66AE66A010E03
:1007F000E66E1EEC0FF0006E060EE15E0050090181
:100800001F6B1E6BDF6A100EDF5C0EE2DF50E840EC
:10081000E840E8401F0BE66EDFCFE6FFF9EC10F092
:10082000E552E552DF2AEFD7E66A21C900F022C976
:1008300001F023C902F024C903F0006A0F0E01166B
:10084000026A036A00C0E6FF01C0E6FF02C0E6FFDD
:1008500003C0E6FFE66A20EC12F0046E060EE15ECD
:100860000450E66A21C900F022C901F023C902F050
:1008700024C903F0F00E00160F0E0116026A036A77
:1008800000C0E6FF01C0E6FF02C0E6FF03C0E6FFCE
:10089000010EE66E20EC12F0046E060EE15E0450CE
:1008A000100E0901205D1FE0E66A21C900F022C98F
:1008B00001F023C902F024C903F00006000E015A1A
:1008C000025A035A00C0E6FF01C0E6FF02C0E6FF7D
:1008D00003C0E6FF020EE66E20EC12F0046E060E78
:1008E000E15E045011D0E66A21C9E6FF22C9E6FFA5
:1008F00023C9E6FF24C9E6FF020EE66E20EC12F0E3
:10090000006E060EE15E0050030EDF6E100EDF5C1F
:1009100013E2E66A21C9E6FF22C9E6FF23C9E6FF22
:1009200024C9E6FFDFCFE6FF20EC12F0006E060ED2
:10093000E15E0050DF2AEAD7E66AE66AD2EC0FF001
:10094000E552E552010EE66EE66ED2EC0FF0E5528E
:10095000E552010EE66E020EE66ED2EC0FF0E552A5
:10096000E552020EE66E030EE66ED2EC0FF0E55293
:10097000E552030EE66E040EE66ED2EC0FF0E55281
:10098000E552030EE66E050EE66ED2EC0FF0E55270
:10099000E552040EE66E060EE66ED2EC0FF0E5525E
:1009A000E552040EE66E070EE66ED2EC0FF0E5524D
:1009B000E552050EE66E080EE66ED2EC0FF0E5523B
:1009C000E552050EE66E090EE66ED2EC0FF0E5522A
:1009D000E552060EE66E0A0EE66ED2EC0FF0E55218
:1009E000E552060EE66E0B0EE66ED2EC0FF0E55207
:1009F000E552070EE66E0C0EE66ED2EC0FF0E552F5
:100A0000E552070EE66E0D0EE66ED2EC0FF0E552E3
:100A1000E552020EE66E0E0EE66ED2EC0FF0E552D7
:100A2000E552030EE66E0F0EE66ED2EC0FF0E552C5
:100A3000E552E668E6688BEC0FF0E552E552100EE1
:100A40000901205D04E00C0EE66E43D9E552E55243
:100A5000E552E7CFD9FF1200D9CFE6FFE1CFD9FFAA
:100A6000030EE1263DD88DD841EC1AF0090127513B
:100A700007E1250503E178EC26F002D0B3EC26F07F
:100A8000B0EC1DF0E76E010EE7CFDBFFDB5001E0BD
:100A90008C840901250507E13DEC2AF0E76E020E82
:100AA000E7CFDBFF06D0A5EC2AF0E76E020EE7CF1A
:100AB000DBFFDB5001E08C8409012F5107E12505A4
:100AC00003E1B3EC26F002D078EC26F0030EE15CF3
:100AD00002E2E16AE552E16EE552E7CFD9FF12008A
:100AE000020E0901265D07E1250503E137EC2AF036
:100AF00002D03AEC2AF00901285107E1250503E16B
:100B000010EC27F002D070EC27F00B01F55101E05A
:100B100001D0F52B09012051040A29E0010A27E040
:100B2000050A25E00D0A23E0050A21E0190A1FE065
:100B3000180A1DE0030A1BE0010A19E0070A17E082
:100B40001E0A15E0020A0BE01E0A01E010D0F5CBE8
:100B5000E6FF19EC0EF0E5520B01F56F10D0F5CB66
:100B6000E6FFADEC0BF0E5520B01F56F08D0F5CBCD
:100B7000E6FF8FEC0DF0E5520B01F56F00D000D0D1
:100B800012000B01F65128E009012051040A01E18D
:100B900096D0010A01E193D0050A01E190D00D0A37
:100BA00001E18DD0050A01E18AD0190A01E187D05F
:100BB000180A01E184D0030A01E181D0010A01E1B0
:100BC0007ED0070A01E17BD01E0A01E178D01C0A21
:100BD00073E01E0A69E073D0ECEC1AF0000EE66ECA
:100BE000090EE66E57EC1BF0E552E552000901E1F3
:100BF0006FD021C900F022C901F023C902F024C935
:100C000003F0006A0F0E0116026A036A090100511F
:100C1000001809E10151011806E10251021803E12F
:100C20000351031800E135E021C904F022C905F0A1
:100C300023C906F024C907F0F00E04160F0E05169E
:100C4000066A076A0051041809E10151051806E116
:100C50000251061803E10351071800E11AE021C907
:100C600008F022C909F023C90AF024C90BF00806CC
:100C7000000E095A0A5A0B5A0051081809E101518D
:100C8000091806E102510A1803E103510B1800E1AB
:100C900008E10C51000804E204C9E6FF1AD8E55245
:100CA00017D00B01F62B14D0F6CBE6FFFCEC0AF0C4
:100CB000E5520B01F66F0BD00B01F66B08D0F6CBAB
:100CC000E6FF55EC0DF0E5520B01F66F00D000D0B9
:100CD0001200D9CFE6FFE1CFD9FF1F0EE126DF6A70
:100CE000FE0EDB50130A01E197D3010A01E134D370
:100CF000030A01E1CFD2010A01E16AD21C0A01E133
:100D0000E7D1070A01E1E2D1010A01E1DDD1030ADD
:100D100001E1C9D1010A01E1B5D10F0A01E1A1D177
:100D2000010A01E18DD1030A01E13DD1010A01E18E
:100D3000EFD0070A01E1A1D0010A54E0030A05E05F
:100D4000010A01E0C9D3FF00C8D30901250506E166
:100D50004F0EAB16AC9ACF0E9D1605D04F0EA616B1
:100D6000BA9ACF0EA316090125051EE1400EE66EC4
:100D7000800EE66E250EE66EE66AE66A41EC28F025
:100D8000026E050EE15E0250F3CF00F0F4CF01F0E9
:100D900000C0E6FF01C0E6FF3C0EE66E57EC3FF0F8
:100DA000E552E552E5521DD0400EE66E800EE66E2D
:100DB000250EE66EE66AE66A34EC29F0026E050E50
:100DC000E15E0250F3CF00F0F4CF01F000C0E6FF87
:100DD00001C0E6FFFC0EE66E1BEC3FF0E552E5526B
:100DE000E5527BD30901250506E14F0EAB16AC9AFF
:100DF000CF0E9D1605D04F0EA616BA9ACF0EA3168B
:100E0000090125051DE1400EE66EE66A4B0EE66E11
:100E1000E66AE66A41EC28F0026E050EE15E0250D9
:100E2000F3CF00F0F4CF01F000C0E6FF01C0E6FF11
:100E30003C0EE66E57EC3FF0E552E552E5521CD011
:100E4000400EE66EE66A4B0EE66EE66AE66A34EC43
:100E500029F0026E050EE15E0250F3CF00F0F4CFF0
:100E600001F000C0E6FF01C0E6FFFC0EE66E1BECE1
:100E70003FF0E552E552E55230D30901250506E180
:100E80004F0EAB16AC9ACF0E9D1605D04F0EA61680
:100E9000BA9ACF0EA316090125051DE1400EE66E94
:100EA000E66A960EE66EE66AE66A41EC28F0026EA5
:100EB000050EE15E0250F3CF00F0F4CF01F000C068
:100EC000E6FF01C0E6FF3C0EE66E57EC3FF0E55250
:100ED000E552E5521CD0400EE66EE66A960EE66ECE
:100EE000E66AE66A34EC29F0026E050EE15E025015
:100EF000F3CF00F0F4CF01F000C0E6FF01C0E6FF41
:100F0000FC0EE66E1BEC3FF0E552E552E552E5D2F1
:100F10000901250506E14F0EAB16AC9ACF0E9D16C2
:100F200005D04F0EA616BA9ACF0EA31609012505B5
:100F30001DE1400EE66EE66AE10EE66EE66AE66ADE
:100F400041EC28F0026E050EE15E0250F3CF00F096
:100F5000F4CF01F000C0E6FF01C0E6FF3C0EE66EF4
:100F600057EC3FF0E552E552E5521CD0400EE66EDC
:100F7000E66AE10EE66EE66AE66A34EC29F0026E95
:100F8000050EE15E0250F3CF00F0F4CF01F000C097
:100F9000E6FF01C0E6FFFC0EE66E1BEC3FF0E552FB
:100FA000E552E5529AD20901250506E14F0EAB162E
:100FB000AC9ACF0E9D1605D04F0EA616BA9ACF0E3C
:100FC000A316090125051EE1400EE66EE66AC20E73
:100FD000E66E010EE66EE66A41EC28F0026E050E42
:100FE000E15E0250F3CF00F0F4CF01F000C0E6FF65
:100FF00001C0E6FF3C0EE66E57EC3FF0E552E552CD
:10100000E5521DD0400EE66EE66AC20EE66E010E97
:10101000E66EE66A34EC29F0026E050EE15E0250DF
:10102000F3CF00F0F4CF01F000C0E6FF01C0E6FF0F
:10103000FC0EE66E1BEC3FF0E552E552E5524DD258
:10104000F4CBE6FFF3CBE6FFF2CBE6FFF1CBE6FF16
:10105000F0CBE6FF73EC12F0006E050EE15E00507F
:101060003CD2EFCBE6FFEECBE6FFEDCBE6FFECCBE1
:10107000E6FFEBCBE6FF73EC12F0006E050EE15ECF
:1010800000502BD2EACBE6FFE9CBE6FFE8CBE6FF48
:10109000E7CBE6FFE6CBE6FF73EC12F0006E050E41
:1010A000E15E00501AD2E5CBE6FFE4CBE6FFE3CBEE
:1010B000E6FFE2CBE6FFE1CBE6FF73EC12F0006E59
:1010C000050EE15E005009D2838607D2839605D2D1
:1010D00009011007000E0901115B000E0901125BE6
:1010E000000E0901135B09012051040A51E0010AB5
:1010F0004FE0050A4DE00D0A4BE0040A49E0030AFF
:1011000047E0010A45E0070A43E0020A41E01C0A01
:101110003FE0030A23E0190A01E03AD00901060E74
:101120001C6FFE0EDB5010090901146F0901380E07
:10113000156F0901100E166F0901110E176F0901C5
:10114000120E186F0901130E196F100EE66E090EBC
:10115000E66E59EC19F0E552E5522ED00901040E65
:101160001C6FFE0EDB5010090901146F0901380EC7
:10117000156F0901100E166F0901110E176F100E71
:10118000E66E090EE66E59EC19F0E552E55214D000
:101190000901020E1C6FFE0EDB5010090901146FCD
:1011A0000901380E156F100EE66E090EE66E59EC49
:1011B00019F0E552E55200D00901102B000E09018B
:1011C0001123000E09011223000E0901132385D1FA
:1011D00009012051080A03E0190A01E05AD0330E30
:1011E000006E790E016E026A00C0E6FF01C0E6FFE4
:1011F00002C0E6FFD950010FE66E000EDA20E66E5F
:10120000F0EC3DF0036E050EE15E0350090125058B
:1012100020E1D950010FE66E000EDA20E66EBDEC3B
:101220003DF0E552E552F3CF00F0F4CF01F000C0FD
:10123000E6FF01C0E6FFD950010FE66E000EDA208E
:10124000E66ED8EC25F0E552E552E552E552DF6E48
:101250001FD0D950010FE66E000EDA20E66EBDEC0D
:101260003DF0E552E552F3CF00F0F4CF01F000C0BD
:10127000E6FF01C0E6FFD950010FE66E000EDA204E
:10128000E66E28EC26F0E552E552E552E552DF6EB7
:1012900000D023D109012051080A03E0190A01E016
:1012A0005AD02E0E006E790E016E026A00C0E6FF63
:1012B00001C0E6FF02C0E6FFD950010FE66E000E46
:1012C000DA20E66EF0EC3DF0036E050EE15E0350B1
:1012D0000901250520E1D950010FE66E000EDA2044
:1012E000E66EBDEC3DF0E552E552F3CF00F0F4CFF1
:1012F00001F000C0E6FF01C0E6FFD950010FE66E25
:10130000000EDA20E66ED8EC25F0E552E552E55203
:10131000E552DF6E1FD0D950010FE66E000EDA20C5
:10132000E66EBDEC3DF0E552E552F3CF00F0F4CFB0
:1013300001F000C0E6FF01C0E6FFD950010FE66EE4
:10134000000EDA20E66E28EC26F0E552E552E55272
:10135000E552DF6E00D0C1D009012051080A01E03A
:101360005AD0290E006E790E016E026A00C0E6FFA7
:1013700001C0E6FF02C0E6FFD950010FE66E000E85
:10138000DA20E66EF0EC3DF0036E050EE15E0350F0
:101390000901250520E1D950010FE66E000EDA2083
:1013A000E66EBDEC3DF0E552E552F3CF00F0F4CF30
:1013B00001F000C0E6FF01C0E6FFD950010FE66E64
:1013C000000EDA20E66ED8EC25F0E552E552E55243
:1013D000E552DF6E1FD0D950010FE66E000EDA2005
:1013E000E66EBDEC3DF0E552E552F3CF00F0F4CFF0
:1013F00001F000C0E6FF01C0E6FFD950010FE66E24
:10140000000EDA20E66E28EC26F0E552E552E552B1
:10141000E552DF6E00D061D009012051080A01E0D9
:101420005AD0240E006E790E016E026A00C0E6FFEB
:1014300001C0E6FF02C0E6FFD950010FE66E000EC4
:10144000DA20E66EF0EC3DF0036E050EE15E03502F
:101450000901250520E1D950010FE66E000EDA20C2
:10146000E66EBDEC3DF0E552E552F3CF00F0F4CF6F
:1014700001F000C0E6FF01C0E6FFD950010FE66EA3
:10148000000EDA20E66ED8EC25F0E552E552E55282
:10149000E552DF6E1FD0D950010FE66E000EDA2044
:1014A000E66EBDEC3DF0E552E552F3CF00F0F4CF2F
:1014B00001F000C0E6FF01C0E6FFD950010FE66E63
:1014C000000EDA20E66E28EC26F0E552E552E552F1
:1014D000E552DF6E00D001D000D01F0EE15C02E2C9
:1014E000E16AE552E16EE552E7CFD9FF1200D9CFAC
:1014F000E6FFE1CFD9FFFE0EDB50100A70E01E0AB6
:1015000068E0030A60E0010A58E0070A50E0010AB7
:1015100048E0030A40E0180A38E0190A30E00D0AF2
:1015200028E0010A21E0040A19E0120EF36EFE0E13
:10153000DBCFF4FFF350F45C57E3FE0EDB500F0BF0
:10154000E824FE0F006E016AFF0ED8800056060EDA
:10155000015600C0F3FF01C0F4FF4AD0FE0EF36E47
:10156000030EF46E45D044D0F36A050EF46E40D0FD
:101570003FD0D20EF36E030EF46E3AD039D0120E75
:10158000F36E060EF46E34D033D0130EF36E060EE7
:10159000F46E2ED02DD0220EF36E060EF46E28D0EF
:1015A00027D0240EF36E060EF46E22D021D0260E24
:1015B000F36E060EF46E1CD01BD0320EF36E060EC8
:1015C000F46E16D015D0340EF36E060EF46E10D0F5
:1015D0000FD0420EF36E060EF46E0AD009D0F36AF5
:1015E000F46A06D005D004D0F368060EF46E00D07D
:1015F000E552E7CFD9FF1200D9CFE6FFE1CFD9FFFF
:10160000E652FE0EDB50040A01E179D0070A61E0E0
:10161000010A1BE0030A03E0FE0EDB6A96D0090113
:10162000250507E1240EE66E7EEC25F0E552DF6E1F
:1016300006D0240EE66EAAEC25F0E552DF6EDF50F0
:1016400003E0FE0EDB2A01D080D0090125051EE152
:101650000C51080DF3CF00F0016A026A036A01C958
:1016600004F002C905F003C906F00001076A04503E
:1016700000120550011206500212075003120050CA
:10168000E66E7EEC25F0E552DF6E1DD00C51080DA4
:10169000F3CF00F0016A026A036A01C904F002C9CB
:1016A00005F003C906F00001076A04500012055056
:1016B000011206500212075003120050E66EAAEC07
:1016C00025F0E552DF6EDF5003E0FE0EDB2A01D08D
:1016D0003CD00901250507E100C9E6FF7EEC25F0B5
:1016E000E552DF6E06D000C9E6FFAAEC25F0E55210
:1016F000DF6EDF5003E0FE0EDB2A01D026D00901A9
:1017000025050FE10C51E66EE66A040EE66E090E41
:10171000E66ED8EC25F0E552E552E552E552DF6E73
:101720000ED00C51E66EE66A040EE66E090EE66E09
:1017300028EC26F0E552E552E552E552DF6EDF5027
:1017400003E08C72FE0EDB6A00D0FE0EDB5000D090
:10175000E552E552E7CFD9FF1200D9CFE6FFE1CF3E
:10176000D9FF020EE126010EDB6AFE0EDB50060AEF
:1017700001E156D1030A01E13CD1010A01E1F1D0B6
:10178000070A01E1ACD0010A40E0030A03E0FE0EC3
:10179000DB6A7CD10901250511E1010EDB50016AEC
:1017A000140F006E090E012200C0E6FF01C0E6FF23
:1017B000CCEC27F0E552E552DF6E10D0010EDB5085
:1017C000016A140F006E090E012200C0E6FF01C07D
:1017D000E6FF02EC28F0E552E552DF6EDF5001E152
:1017E00055D1010EDB50EA6A140FE96E090EEA22A8
:1017F000EF50240802E1FE0EDB2A2DC9E9FF2EC9B5
:10180000EAFFEF50080B01E041D10901250511E184
:10181000010EDB50016A140F006E090E012200C098
:10182000E6FF01C0E6FFCCEC27F0E552E552DF6EA3
:1018300010D0010EDB50016A140F006E090E012258
:1018400000C0E6FF01C0E6FF02EC28F0E552E552D9
:10185000DF6EDF5001E11AD1010EDB50EA6A140F8E
:10186000E96E090EEA22EF50E840E840E8401F0B1D
:101870000B01F76FF75106E1060EF36EFE0EF3CF84
:10188000DBFF04D1010EDB50EA6A140FE96E090E8A
:10189000EA22EFCF00F0016A026A036A070E00161F
:1018A000016A026A036A080E1F0B07E0D89000362F
:1018B000013602360336E806F9E100C010F901C02E
:1018C00011F902C012F903C013F9FE0EDB2A2DC96B
:1018D000E9FF2EC9EAFFEF50080B01E0D7D009015C
:1018E000250511E1010EDB50016A140F006E090E8F
:1018F000012200C0E6FF01C0E6FFCCEC27F0E55274
:10190000E552DF6E10D0010EDB50016A140F006E3D
:10191000090E012200C0E6FF01C0E6FF02EC28F03C
:10192000E552E552DF6EDF5001E1B0D0010EDB5031
:10193000EA6A140FE96E090EEA22EFCF00F0000107
:10194000005009011013000E111312131313FE0E91
:10195000DB2A2DC9E9FF2EC9EAFFEF50080B01E091
:1019600095D02DC9E9FF2EC9EAFFEF50080B37E1EA
:10197000080EF36E010EDBCFF4FFF350F45C2FE2A0
:101980000901250511E1010EDB50016A140F006EFB
:10199000090E012200C0E6FF01C0E6FFCCEC27F0F3
:1019A000E552E552DF6E10D0010EDB50016A140FD4
:1019B000006E090E012200C0E6FF01C0E6FF02EC46
:1019C00028F0E552E552DF6EDF5001E108D0010E4C
:1019D000DB2A0B01F707F75101E101D0C2D7010E55
:1019E000DB5006E0010EDBCF1CF9FE0EDB2A01D036
:1019F0004DD0100EE66E090EE66E59EC19F0E55268
:101A0000E552000901E142D00B01F75103E1FE0E5E
:101A1000DB6A05D0040EF36EFE0EF3CFDBFF36D08B
:101A20000901250511E1010EDB50016A140F006E5A
:101A3000090E012200C0E6FF01C0E6FFCCEC27F052
:101A4000E552E552DF6E10D0010EDB50016A140F33
:101A5000006E090E012200C0E6FF01C0E6FF02ECA5
:101A600028F0E552E552DF6EDF5001E10FD0010EA4
:101A7000DB50EA6A140FE96E090EEA22EF50E66EB7
:101A800069EC06F0E552FE0EDB6A00D0FE0EDB507C
:101A9000006E020EE15C03E200D0E16AE552E16E05
:101AA0000050E552E7CFD9FF1200D9CFE6FFE1CFD2
:101AB000D9FFE652FE0EDB50010A03E0FE0EDB6AA0
:101AC00026D0090125050FE10C51E66EE66A040EE9
:101AD000E66E090EE66ED8EC25F0E552E552E552C9
:101AE000E552DF6E0ED00C51E66EE66A040EE66E2D
:101AF000090EE66E28EC26F0E552E552E552E55275
:101B0000DF6EDF5003E08C72FE0EDB6A00D0FE0E4B
:101B1000DB5000D0E552E552E7CFD9FF1200D9CF14
:101B2000E6FFE1CFD9FFE652FE0EDB50020A6BE082
:101B3000030A03E0FE0EDB6A74D02DC9E9FF2EC94B
:101B4000EAFFEF50080B2BE1080E0B01F85D27E2CE
:101B50000901250511E10B01F851016A990F006E89
:101B6000090E012200C0E6FF01C0E6FFCCEC27F021
:101B7000E552E552DF6E10D00B01F851016A990F62
:101B8000006E090E012200C0E6FF01C0E6FF02EC74
:101B900028F0E552E552DF6E0B01F82BCED70B0192
:101BA000F851000806E2080EF85D03E2F92B000E7A
:101BB000FA23080EF85D09E2F851000806E2C80EA3
:101BC000D880F955000EFA5503E3080EF85D1AE1C6
:101BD00020C9E6FF8CDCE552F3CF95F9F4CF96F9F6
:101BE000000E09019527010E9623976B986BA46B45
:101BF000A36BF8CBA1F90B01F96BFA6BF86BFE0E36
:101C0000DB2A01D00ED0950EE66E090EE66E59EC79
:101C100019F0E552E552000901E103D0FE0EDB6A3E
:101C200000D0FE0EDB5000D0E552E552E7CFD9FFE1
:101C30001200D9CFE6FFE1CFD9FFE652FE0EDB500E
:101C4000030A57E0010A18E0030A03E0FE0EDB6A0C
:101C500065D00901250506E1E6687EEC25F0E55230
:101C6000DF6E05D0E668AAEC25F0E552DF6EDF50A6
:101C700002E0FE0EDB2A52D00B01E80ED880FD55A3
:101C8000030EFE5503E2FE0EDB2A48D02DC9E9FF04
:101C90002EC9EAFFEF50080B06E0FD2B000EFE23D5
:101CA000FE0EDB6A3BD0090125050AE1140EE66E43
:101CB000090EE66ECCEC27F0E552E552DF6E09D056
:101CC000140EE66E090EE66E02EC28F0E552E552BF
:101CD000DF6EFF0E0901145D07E10B01FD6BFE6B6A
:101CE000FE0EDB6A1BD004D00B01FD2B000EFE2381
:101CF00015D00901146B010E1C6F0B01FD6BFE6BFF
:101D0000100EE66E090EE66E59EC19F0E552E5523A
:101D1000000901E103D0FE0EDB6A00D0FE0EDB50AD
:0C1D200000D0E552E552E7CFD9FF1200D9
:041D2C00D9CFE6FF26
:101D3000E1CFD9FFE6526E50E00BE842E842E842BC
:101D4000E842E842DF6E6E50E00BE842E842E842CB
:101D5000E842E842040805E0040EE66EC1EC13F028
:101D6000E552FE0EDB50010A09E0030A07E0020A11
:101D700001E020D0FD0EDB50766E1CD0FD0EDB5056
:101D8000E00B7612FD0EDB50030B01E07682FD0EB8
:101D9000DB501C0B01E07688FD0EDBCF7FFEFC0ED6
:101DA000DBCFE6FFFD0EDB50030BE552E7100E0123
:101DB0007E6F00D06E50E00BE842E842E842E84215
:101DC000E842DF5C05E0DFCFE6FFC1EC13F0E5524F
:101DD000E552E552E7CFD9FF1200D9CFE6FFE1CFB8
:101DE000D9FFE6526E50E00BE842E842E842E84292
:101DF000E842DF6E6E50E00BE842E842E842E8421B
:101E0000E842040805E0040EE66EC1EC13F0E5526A
:101E1000FE0EDBCF7DFE6E50E00BE842E842E8426A
:101E2000E842E842DF5C05E0DFCFE6FFC1EC13F0FB
:101E3000E552E552E552E7CFD9FF1200D9CFE6FFD0
:101E4000E1CFD9FFE6526E50E00BE842E842E842AB
:101E5000E842E842DF6E6E50E00BE842E842E842BA
:101E6000E842E842040805E0040EE66EC1EC13F017
:101E7000E552FE0EDB50010A1FE0010A01E038D0F6
:101E8000F90EDBCFE6FFD950FA0FE96EFF0EDA202C
:101E9000EA6EEECFE6FFEECFE6FFEECFE6FFEFCF46
:101EA000E6FFF80EE66E0E0EE66E1DEC17F0006E05
:101EB000070EE15E00501CD0F90EDBCFE6FFD950D3
:101EC000FA0FE96EFF0EDA20EA6EEECFE6FFEECFF4
:101ED000E6FFEECFE6FFEFCFE6FFFC0EE66E0E0E5E
:101EE000E66E1DEC17F0006E070EE15E005000D0AC
:101EF0006E50E00BE842E842E842E842E842DF5C2C
:101F000005E0DFCFE6FFC1EC13F0E552E552E55204
:101F1000E7CFD9FF1200D9CFE6FFE1CFD9FFE652D4
:101F20006E50E00BE842E842E842E842E842DF6EE9
:101F30006E50E00BE842E842E842E842E84204081A
:101F400005E0040EE66EC1EC13F0E552FF0EE76EFD
:101F5000FD0EDBCF00F0FE0EDBCF01F0E7500016E8
:101F6000016A00C046FEFD0EDBCF00F0FE0EDBCFA7
:101F700001F001C000F0016A00500E01476F6E5081
:101F8000E00BE842E842E842E842E842DF5C05E074
:101F9000DFCFE6FFC1EC13F0E552E552E552E7CFA3
:101FA000D9FF1200D9CFE6FFE1CFD9FFE6526E503C
:101FB000E00BE842E842E842E842E842DF6E010E08
:101FC000F36EFD0EDB5004E0D890F336E806FCE13A
:101FD000F3500E017D1502E0000E06D16E50E00BAD
:101FE000E842E842E842E842E842040804E0040E1D
:101FF000E66EC7DBE552FE0EDB500F0A01E1D7D0DB
:10200000010A01E1CAD0030A01E1B9D0010A01E1E4
:10201000ACD0070A01E19BD0010A01E18ED0030A8E
:1020200001E17DD0010A71E00F0A61E0010A55E08B
:10203000030A45E0010A39E0070A29E0010A1DE028
:10204000030A0DE0010A01E0C0D0FD0EDB500E01D5
:102050000F0BF36EF00E7115F310716FB6D0FD0E0D
:10206000DB500E010F0BF36EF346F346F346F346D7
:102070000F0E7115F310716FA8D0FD0EDB500E011D
:102080000F0BF36EF00E7215F310726F9ED0FD0EF3
:10209000DB500E010F0BF36EF346F346F346F346A7
:1020A0000F0E7215F310726F90D0FD0EDB500E0103
:1020B0000F0BF36EF00E7315F310736F86D0FD0ED9
:1020C000DB500E010F0BF36EF346F346F346F34677
:1020D0000F0E7315F310736F78D0FD0EDB500E01E9
:1020E0000F0BF36EF00E7415F310746F6ED0FD0EBF
:1020F000DB500E010F0BF36EF346F346F346F34647
:102100000F0E7415F310746F60D0FD0EDB500E01CE
:102110000F0BF36EF00E7515F310756F56D0FD0EA4
:10212000DB500E010F0BF36EF346F346F346F34616
:102130000F0E7515F310756F48D0FD0EDB500E01B4
:102140000F0BF36EF00E7615F310766F3ED0FD0E8A
:10215000DB500E010F0BF36EF346F346F346F346E6
:102160000F0E7615F310766F30D0FD0EDB500E019A
:102170000F0BF36EF00E7715F310776F26D0FD0E70
:10218000DB500E010F0BF36EF346F346F346F346B6
:102190000F0E7715F310776F18D0FD0EDB500E0180
:1021A0000F0BF36EF00E7815F310786F0ED0FD0E56
:1021B000DB500E010F0BF36EF346F346F346F34686
:1021C0000F0E7815F310786F00D06E50E00BE842D8
:1021D000E842E842E842E842DF5C04E0DFCFE6FFA5
:1021E000D0DAE552010E00D0E552E552E7CFD9FF33
:1021F0001200D9CFE6FFE1CFD9FFE6526E50E00BD7
:10220000E842E842E842E842E842DF6E6E50E00B06
:10221000E842E842E842E842E842040804E0040EEA
:10222000E66EAFDAE552FE0EDB500F0A01E1E6D0B2
:10223000010A01E1D5D0030A01E1C6D0010A01E19A
:10224000B9D0070A01E1A6D0010A01E195D0030A3D
:1022500001E186D0010A01E179D00F0A67E0010AA5
:1022600057E0030A49E0010A3DE0070A2BE0010AB2
:102270001BE0030A0DE0010A01E0D0D0FD0EDB50A7
:102280000E01030BF36EFC0E7915F310796FC6D0B7
:10229000FD0EDB500E01030BF36EF346F346F30E17
:1022A0007915F310796FBAD0FD0EDB500E01030BD8
:1022B000F36EF346F346F346F346CF0E7915F3106B
:1022C000796FACD0FD0EDB500E01030BF36EF346BD
:1022D000F346F346F346F346F3463F0E7915F31003
:1022E000796F9CD0FD0EDB500E01030BF36EFC0EDC
:1022F0007A15F3107A6F92D0FD0EDB500E01030BAE
:10230000F36EF346F346F30E7A15F3107A6F86D028
:10231000FD0EDB500E01030BF36EF346F346F3465E
:10232000F346CF0E7A15F3107A6F78D0FD0EDB509E
:102330000E01030BF36EF346F346F346F346F34602
:10234000F3463F0E7A15F3107A6F68D0FD0EDB501E
:102350000E01030BF36EFC0E7B15F3107B6F5ED04A
:10236000FD0EDB500E01030BF36EF346F346F30E46
:102370007B15F3107B6F52D0FD0EDB500E01030B6B
:10238000F36EF346F346F346F346CF0E7B15F31098
:102390007B6F44D0FD0EDB500E01030BF36EF34652
:1023A000F346F346F346F346F3463F0E7B15F31030
:1023B0007B6F34D0FD0EDB500E01030BF36EFC0E71
:1023C0007C15F3107C6F2AD0FD0EDB500E01030B41
:1023D000F36EF346F346F30E7C15F3107C6F1ED0BC
:1023E000FD0EDB500E01030BF36EF346F346F3468E
:1023F000F346CF0E7C15F3107C6F10D0FD0EDB5032
:102400000E01030BF36EF346F346F346F346F34631
:10241000F3463F0E7C15F3107C6F00D06E50E00B3E
:10242000E842E842E842E842E842DF5C04E0DFCF0D
:10243000E6FFA7D9E552E552E552E7CFD9FF1200F2
:10244000D9CFE6FFE1CFD9FFE6526E50E00BE8426C
:10245000E842E842E842E842DF6E6E50E00BE842B4
:10246000E842E842E842E842040804E0040EE66E6E
:1024700088D9E552F90EDBCFE6FFD950FA0FE96EA5
:10248000FF0EDA20EA6EEECFE6FFEECFE6FFEECFEC
:10249000E6FFEFCFE6FFFE0EF76ADB34FE0BF73602
:1024A000F66E3E0EF626800EF7220900F5CFE6FF07
:1024B0000800F5CFE6FF1DEC17F0006E070EE15E99
:1024C00000506E50E00BE842E842E842E842E84241
:1024D000DF5C04E0DFCFE6FF54D9E552E552E55278
:1024E000E7CFD9FF1200D9CFE6FFE1CFD9FFE652FF
:1024F0006E50E00BE842E842E842E842E842DF6E14
:10250000FD0EDB5000084DE2090EF36EFD0EDBCF31
:10251000F4FFF350F45C45E2FC0EDB50000841E2AE
:10252000090EF36EFC0EDBCFF4FFF350F45C39E2DE
:10253000FB0EDB50010835E2090EF36EFB0EDBCF1C
:10254000F4FFF350F45C2DE2FE0EDB50000829E2AC
:10255000050EF36EFE0EDBCFF4FFF350F45C21E2C8
:10256000FC0EDBCFE6FFFD0EDB50E552E724006EEC
:10257000FB0EDB50005C09E3FE0EDB50F36EFB0E3E
:10258000DBCFF4FFF350F45C02E2000E5AD06E5041
:10259000E00BE842E842E842E842E842040807E08B
:1025A00002D0000E4ED0040EE66EEBD8E552FC0EC3
:1025B000DB50010803E20E01448D02D00E01449D60
:1025C000448FFE0EDB04030BF36EF346F346F34633
:1025D000F346F346F3463F0E4315F310436FFD0EEB
:1025E000DB04070BF36EF80E4415F310446FFC0E7A
:1025F000DB04070BF36EF346F346F346C70E4415B0
:10260000F310446FFB0EDB04070BF36EF80E451559
:10261000F310456FFA0EDB503F0BF36EC00E4315FF
:10262000F310436F6E50E00BE842E842E842E842A4
:10263000E842DF5C04E0DFCFE6FFA3D8E552010EFD
:1026400000D0E552E552E7CFD9FF1200D9CFE6FF1F
:10265000E1CFD9FFFD0EDB500F084CE30E017D5199
:10266000026E036A02C0E6FF03C0E6FFFE0EDB5007
:10267000020F0C6E0CC027F09CEC30F025C008F067
:1026800026C009F027C00AF028C00BF008C0E6FFFA
:1026900009C0E6FF0AC0E6FF0BC0E6FFE66AE66A8D
:1026A000E66A400EE66E0DEC2BF00D6E080EE15E54
:1026B0000D50E552E7CF03F0E552E7CF02F024C01A
:1026C00004F025C005F026C006F027C007F004C0BE
:1026D00025F005C026F006C027F007C028F0ADECB5
:1026E00030F002502614006E03502714016E005083
:1026F000011003E1000E20D01DD0FE0EDB50030FB1
:10270000E66EFD0EDBCFE6FF4DDCE552E552FE0E38
:10271000DB50030FF66EF76AD890F636F7366E0E7A
:10272000F626800EF7220900F5CFE9FF0800F5CF65
:10273000EAFFEF84010E00D0E552E7CFD9FF120087
:10274000D9CFE6FFE1CFD9FFFE0EDB5004E0FE0E4D
:10275000DB50020802E2000E10D0FE0EDB50030B2D
:10276000F36EF346F346F346F346F346F3463F0E65
:102770007214F310726E010E00D0E552E7CFD9FF4C
:102780001200D9CFE6FFE1CFD9FFFE0EDB50070BD9
:10279000F36EF346F346F346F346F3461F0E6F140B
:1027A000F3106F6E6E50E00BE842E842E842E842F8
:1027B000E842006EFE0EDB50005C01E0F3D7E5520C
:1027C000E7CFD9FF1200D9CFE6FFE1CFD9FFE6521C
:1027D000080EDF6E000EDF5C28E3DF5002080FE218
:1027E000DF50020820E2DF04006E010E005204E018
:1027F000E846FE0B0006FCE10E017D1514E0F76AC9
:10280000DF34FE0BF736F66E6E0EF626800EF722DC
:102810000900F5CFE9FF0800F5CFEAFFEF50080BFC
:1028200002E1DF5004D0DF06D5D7FF0E00D0E5521D
:10283000E552E7CFD9FF1200D9CFE6FFE1CFD9FFAC
:10284000E652DF6A080EDF5C27E2DF5001080EE285
:10285000010EDF5206E0DFCFF3FFE846FE0BF30682
:10286000FCE10E017D1502E015D014D0F76ADF34CB
:10287000FE0BF736F66E5E0EF626800EF722090086
:10288000F5CFE9FF0800F5CFEAFFEF50800B02E03B
:10289000DF5004D0DF2AD6D7FF0E00D0E552E55234
:1028A000E7CFD9FF1200D9CFE6FFE1CFD9FF040E61
:1028B000E126FE0EDB50FF0813E0FE0EF76ADB3464
:1028C000FE0BF736F66E6E0EF626800EF722090026
:1028D000F5CFE9FF0800F5CFEAFFEF50080B08E05D
:1028E00072DFDF6EFF0EDF5C02E1FF0ECCD016D090
:1028F000FE0EDB5002080FE2FE0EDB04006E010E3E
:10290000005204E0E846FE0B0006FCE10E017D15D6
:1029100002E1FF0EB8D0FE0EDB50DF6EDF50FF0A83
:1029200024E0FC0A19E0070A17E0010A15E0030A8F
:1029300013E0010A11E0070A06E0010A04E0030AB5
:1029400002E0FF0EA0D0030EDF241F0BF36EE00E9B
:102950007214F310726E0BD0DF041F0BF36EE00ED7
:102960007214F310726E728802D001D000D0FC0E87
:10297000DBCFE9FFFD0EDBCFEAFF0E0EE926000EEE
:10298000EA22EF50E66EFC0EDBCFE9FFFD0EDBCF57
:10299000EAFFEECFE6FFEECFE6FFEECFE6FFEFCFAA
:1029A000E6FF610EE66E0F0EE66E47DA006E070E6A
:1029B000E15E0050FC0EDBCFE9FFFD0EDBCFEAFF4E
:1029C0000C0EE926000EEA22EF50656EFC0EDBCFFE
:1029D000E9FFFD0EDBCFEAFF0F0EE926000EEA222B
:1029E000EF50E8B0658CE8A0659CD950020FE96E05
:1029F000DACFEAFF660EEE6E0F0EED6E010EDB6AA9
:102A0000FC0EDBCFE9FFFD0EDBCFEAFF0C0EE92663
:102A1000000EEA22EF50F36E010EDBCFF4FFF3500D
:102A2000F45C2BE2FC0EDBCFE9FFFD0EDBCFEAFF0F
:102A3000040EE926000EEA22E9CF00F0EACF01F009
:102A4000010EDB500F010024E96E000E0120EA6E3A
:102A5000EF50E66E010EDB50E76E020EDBCFE9FFB2
:102A6000030EDBCFEAFFE750E926000EEA22E5522B
:102A7000E750EF6E010EDB2AC3D7E00E7214100987
:102A8000726EDF5000D0006E040EE15C02E2E16A7B
:102A9000E552E16E0050E552E7CFD9FF1200D9CFE1
:102AA000E6FFE1CFD9FFFE0EDB5002080FE2FE0E7B
:102AB000DB04006E010E005204E0E846FE0B000647
:102AC000FCE10E017D1502E1000E13D0FE0EF76A47
:102AD000DB34FE0BF736F66E6E0EF626800EF7220E
:102AE0000900F5CFE9FF0800F5CFEAFFEF86010EF8
:102AF00000D0E552E7CFD9FF1200D9CFE6FFE1CFF2
:102B0000D9FF030EE126FD0EDBCFE9FFFE0EDBCF82
:102B1000EAFF0F0EE926000EEA22EF6AFD0EDBCF78
:102B2000E9FFFE0EDBCFEAFF0E0EE926000EEA22D9
:102B3000EF6AFC0EF76ADB34FE0BF736F66E5E0EBC
:102B4000F626800EF7220900F5CFE9FF0800F5CF41
:102B5000EAFFEF50200B0CE0FD0EDBCFE9FFFE0E8D
:102B6000DBCFEAFF0F0EE926000EEA22010EEF6E20
:102B7000FC0EF76ADB34FE0BF736F66E5E0EF626B9
:102B8000800EF7220900F5CFE9FF0800F5CFEAFF34
:102B9000EF501F0BE66EFD0EDBCFE9FFFE0EDBCF25
:102BA000EAFF0D0EE926000EEA22E552E750EF6E2D
:102BB000FC0EDB501F0BF36EE00E7214F310726EFE
:102BC0007288FD0EDBCFE9FFFE0EDBCFEAFF0C0EB5
:102BD000E926000EEA2265CFEFFF62A639D0FD0E8E
:102BE000DBCFE9FFFE0EDBCFEAFF0E0EE926000E7B
:102BF000EA22010EEF6E6350000EF3CF06F0625032
:102C0000030BF36EF3CF05F06250E00BE842E842AD
:102C1000E842E842E842F36EF3CF04F06150F36E0D
:102C2000F3500410051006106410006E016A026A69
:102C3000036AFD0EDBCFE9FFFE0EDBCFEAFF00C02B
:102C4000EEFF01C0EEFF02C0EEFF03C0EEFF4CD06E
:102C50006150006E016A026A036AFD0EDBCFE9FF74
:102C6000FE0EDBCFEAFF00C0EEFF01C0EEFF02C0A8
:102C7000EEFF03C0EEFFFD0EDBCFE9FFFE0EDBCF64
:102C8000EAFFEECF00F0EECF01F0EECF02F0EFCF93
:102C900003F0030E1F0B07E0D89000360136023612
:102CA0000336E806F9E16250E00BE842E842E84208
:102CB000E842E842046E056A066A076A0450001298
:102CC000055001120650021207500312FD0EDBCF11
:102CD000E9FFFE0EDBCFEAFF00C0EEFF01C0EEFF12
:102CE00002C0EEFF03C0EEFFD950010FE96EDACF4C
:102CF000EAFF660EEE6E0F0EED6EDF6AFD0EDBCFA5
:102D0000E9FFFE0EDBCFEAFF0C0EE926000EEA22F9
:102D1000EF50DF5C28E2DF50E76E010EDBCFE9FF0A
:102D2000020EDBCFEAFFE750E926000EEA22EF5061
:102D3000E66EFD0EDBCFE9FFFE0EDBCFEAFF040EF1
:102D4000E926000EEA22E9CF00F0EACF01F0DF50D9
:102D50000F010024E96E000E0120EA6EE552E750F3
:102D6000EF6EDF2ACBD7E00E72141009726EFB0EE5
:102D7000DB5012E0FC0EF76ADB34FE0BF736F66E22
:102D80005E0EF626800EF7220900F5CFE9FF080057
:102D9000F5CFEAFFEF9E7792030EE15C02E2E16A73
:102DA000E552E16EE552E7CFD9FF1200D9CFE6FF39
:102DB000E1CFD9FF020EE126DF6A080EDF5C33E2C5
:102DC000FE0EDBCFE6FF010EDF5206E0DFCFF3FFA2
:102DD000E846FE0BF306FCE1E552E714E76E010E50
:102DE000E7CFDBFFDB501DE0F76ADF34FE0BF73681
:102DF000F66E5E0EF626800EF7220900F5CFE9FF8B
:102E00000800F5CFEAFFEF9E7792FE0EDBCFE7FFDB
:102E1000010EDB50E75EFE0EE7CFDBFFDB5001E18A
:102E200002D0DF2ACAD7020EE15C02E2E16AE55273
:102E3000E16EE552E7CFD9FF1200D9CFE6FFE1CF2F
:102E4000D9FFF80EDB5001E1B3D0F90EDBCF00F073
:102E5000FA0EDBCF01F0FB0EDBCF02F0FC0EDBCF76
:102E600003F0150ED8900332023201320032E80628
:102E7000F9E1FD0EDBCFE9FFFE0EDBCFEAFF00C07C
:102E8000EFFFFD0EDB2AFE0E01E3DB2AFD0EDBCF9A
:102E9000E9FFFE0EDBCFEAFF080EEF6EF90EDBCF87
:102EA00000F0FA0EDBCF01F0FB0EDBCF02F0FC0EE0
:102EB000DBCF03F00D0ED890033202320132003224
:102EC000E806F9E1E00E046E056A066A076A045036
:102ED0000016055001160650021607500316FD0E87
:102EE000DBCFE9FFFE0EDBCFEAFF0050EF12F90E59
:102EF000DBCF04F0FA0EDBCF05F0FB0EDBCF06F0E4
:102F0000FC0EDBCF07F006C000F007C001F00001A7
:102F1000026A036A030E0016016A026A036AFD0E62
:102F2000DBCFE9FFFE0EDBCFEAFF0050EF12FD0E14
:102F3000DB2AFE0E01E3DB2AF90EDBCF00F0FA0EEE
:102F4000DBCF01F0FB0EDBCF02F0FC0EDBCF03F09A
:102F5000080ED8900332023201320032E806F9E15D
:102F60000050E66EFD0EDBCFE9FFFE0EDBCFEAFF81
:102F7000E552E750EF6EFD0EDB2AFE0E01E3DB2A81
:102F8000F90EDBCF00F0FA0EDBCF01F0FB0EDBCF4A
:102F900002F0FC0EDBCF03F00050E66EFD0EDBCF3F
:102FA000E9FFFE0EDBCFEAFFE552E750EF6E46D0B9
:102FB000F90EDBCF00F0FA0EDBCF01F0FB0EDBCF1A
:102FC00002F0FC0EDBCF03F0030ED8900332023286
:102FD00001320032E806F9E1FD0EDBCFE9FFFE0E1B
:102FE000DBCFEAFF00C0EFFFFD0EDB2AFE0E01E3A0
:102FF000DB2A070E006E016A026A036AD950F90FD4
:10300000E96EFF0EDA20EA6EEE500016EE50011661
:10301000EE500216EE500316050E1F0B07E0D89077
:103020000036013602360336E806F9E1FD0EDBCF45
:10303000E9FFFE0EDBCFEAFF00C0EFFFE552E7CF6E
:10304000D9FF1200D9CFE6FFE1CFD9FFFE0EF76A14
:10305000DB34FE0BF736F66E6E0EF626800EF72288
:103060000900F5CFE9FF0800F5CFEAFFFD0EDB50C0
:10307000EF16FE0EF76ADB34FE0BF736F66E6E0EB9
:10308000F626800EF7220900F5CFE9FF0800F5CFFC
:10309000EAFFFD0EDB50EF12E552E7CFD9FF120039
:1030A000D9CFE6FFE1CFD9FFE6520E0100910083B0
:1030B000009500970099226B236B246B009B008D79
:1030C0000191009F01930195256B266B276B01975A
:1030D0000199070E286F296B2A6F2B6B2C6B939429
:1030E000938695968396040EE66EC1EC13F0E55236
:1030F000FE0EDBCF3BFE3BCEE6FFA0EC13F0E5522D
:10310000000906E1E66AC1EC13F0E552000ECCD0EE
:10311000FB0EDBCFE6FFEDEC0EF0E5520E017D512C
:10312000E82407090E01286F296B28CE2AFE29CE34
:103130002BFEFC0EDBCFE6FFFD0EDBCFE6FF3BCE2A
:10314000E6FF96EC0EF0E552E552E552E66AE66AD5
:10315000E66AE66AE66AE66A1EEC0FF0006E060EA4
:10316000E15E0050E66AE66AE66AE66AE66A010E31
:10317000E66E1EEC0FF0006E060EE15E0050DF6A98
:10318000100EDF5C0FE2E66AE66AE66AE66AE66A65
:10319000DFCFE6FF20EC12F0006E060EE15E00507D
:1031A000DF2AEED7000EE66EE66A8BEC0FF0E552F2
:1031B000E552DF6A100EDF5C0FE2DF407F0BE66E48
:1031C000DFCFE6FFD2EC0FF0E552E552000902E155
:1031D000000E6AD0DF2AEED7DF6A100EDF5C0EE247
:1031E000DF50E840E840E8401F0BE66EDFCFE6FF27
:1031F000F9EC10F0E552E552DF2AEFD7040EE76E46
:10320000F90EDBCFE9FFFA0EDBCFEAFFE750E92644
:10321000000EEA22EF50E66E030EE76EF90EDBCFEA
:10322000E9FFFA0EDBCFEAFFE750E926000EEA22BB
:10323000EF50E66E020EE76EF90EDBCFE9FFFA0EF5
:10324000DBCFEAFFE750E926000EEA22EF50E66EF8
:10325000010EE76EF90EDBCFE9FFFA0EDBCFEAFFD6
:10326000E750E926000EEA22EF50E66EF90EDBCFBA
:10327000E9FFFA0EDBCFEAFFEF50E66E73EC12F0D7
:10328000006E050EE15E0050000908E10E010187A5
:10329000E66AC1EC13F0E552000E06D0E66AC1EC16
:1032A00013F0E552010E00D0E552E552E7CFD9FF09
:1032B0001200D9CFE6FFE1CFD9FFE6520E0100A1FF
:1032C00002D0000ED9D0FD0EDBCFE9FFFE0EDBCF22
:1032D000EAFF0C0EE926000EEA22EF50080803E28E
:1032E0000189000EC9D0FD0EDBCFE9FFFE0EDBCF5A
:1032F000EAFFEECF00F0EECF01F0EECF02F0EFCF1D
:1033000003F02351100DF3CFE9FFF4CFEAFF020ED3
:10331000E9260E0EEA2200C0EEFF01C0EEFF02C059
:10332000EEFF03C0EEFFFD0EDBCFE9FFFE0EDBCFAD
:10333000EAFF0E0EE926000EEA22EF50E66E235158
:10334000100DF3CFE9FFF4CFEAFF020EE9260E0ECF
:10335000EA220E0EE926000EEA22E552E750EF6E51
:10336000FD0EDBCFE9FFFE0EDBCFEAFF0F0EE926F5
:10337000000EEA22EF50E66E2351100DF3CFE9FF65
:10338000F4CFEAFF020EE9260E0EEA220F0EE9261E
:10339000000EEA22E552E750EF6EFD0EDBCFE9FFAB
:1033A000FE0EDBCFEAFF0C0EE926000EEA22EF50FC
:1033B000E66E2351100DF3CFE9FFF4CFEAFF020EC2
:1033C000E9260E0EEA220C0EE926000EEA22E5524C
:1033D000E750EF6EDF6AFD0EDBCFE9FFFE0EDBCFBD
:1033E000EAFF0C0EE926000EEA22EF50DF5C36E21F
:1033F000FD0EDBCFE9FFFE0EDBCFEAFF040EE92670
:10340000000EEA22E9CF02F0EACF03F0DF500F010D
:103410000224E96E000E0320EA6EEF50E66E0E0104
:103420002351100DF3CFE9FFF4CFEAFF020EE92696
:103430000E0EEA22040EE926000EEA22E9CF00F081
:10344000EACF01F0DF500F010024E96E000E0120E9
:10345000EA6EE552E750EF6EDF2ABDD70E0100930A
:10346000222B020E225D01E10081232B020E235D3F
:1034700001E1236B010E00D0E552E552E7CFD9FF01
:103480001200D9CFE6FFE1CFD9FF030EE126020EED
:10349000DB6A0E0100B386D038DA0E012A512B11F7
:1034A00001E17ED028512A1902E129512B1903E1AB
:1034B0000E01030E3D6F0E013C5107E13D5102E14B
:1034C000000E72D0090E3C6F3D07010E3CCEDBFFB3
:1034D000DB50000833E2010EDB042ACE00F02BCED5
:1034E00001F005E0D89001320032E804FBE1005021
:1034F000010B21E0010EDB04DF6EDFCF3CFE010E8D
:10350000DF5206E0DFCFF3FFE846FE0BF306FCE1F7
:10351000E81C006E016A00BE016800500E012A1707
:1035200001502B173DCEE6FFDFCFE6FF22EC18F06F
:10353000E552E55203D0010EDB06CAD70E01245135
:10354000100DF3CF00F0F4CF01F0020E00260E0EA6
:10355000012200C0E6FF01C0E6FFDFCFE6FF53EC2B
:1035600014F0E552E552E552DF6EFF0EDF5C02E13A
:10357000000E1AD0DFCFE6FF4FEC15F0E552000940
:1035800002E1000E11D00E0100B10091220722517C
:1035900001E10083242B020E245D01E1246B02D0A3
:1035A000000E02D0010E00D0006E030EE15C02E2BC
:1035B000E16AE552E16E0050E552E7CFD9FF120013
:1035C000020E0E01225D05E2020ED880225503D0C4
:1035D00002D0000E00D01200D9CFE6FFE1CFD9FF14
:1035E000E6520E0100BB5BD0EFD90E012C5155E025
:1035F000020E0E013B5D51E0DF6A080EDF5C4DE21A
:103600000E012C51DF5206E0DFCFF3FFE8327F0BD3
:10361000F306FCE1010B3FE0010EE66EDFCFE6FFB3
:103620000E012651100DF3CF00F0F4CF01F0000E83
:103630000026010E012200C0E6FF01C0E6FF7DEC7E
:1036400015F0E552E552E552E5520E01009D252B9D
:103650002551006E016A800E001801E1015001E160
:10366000008B262B2651006E016A800E001801E1A6
:10367000015001E1266B010EDF5206E0DFCFF3FFC0
:10368000E846FE0BF306FCE10E012C5F2C5101E134
:1036900004D000BB02D0DF2AB0D7010E03D076924F
:1036A000000E00D0E552E552E7CFD9FF1200D9CF86
:1036B000E6FFE1CFD9FF0E0100AD02D0000EE5D04C
:1036C000009B2751100DF3CFE9FFF4CFEAFF000E66
:1036D000E926010EEA22EECF00F0EECF01F0EECFA8
:1036E00002F0EFCF03F0FD0EDBCFE9FFFE0EDBCFE4
:1036F000EAFF00C0EEFF01C0EEFF02C0EEFF03C014
:10370000EEFF2751100DF3CFE9FFF4CFEAFF000ED3
:10371000E926010EEA220E0EE926000EEA22EF50FB
:10372000E66EFD0EDBCFE9FFFE0EDBCFEAFF0E0EED
:10373000E926000EEA22E552E750EF6E2751100D00
:10374000F3CFE9FFF4CFEAFF000EE926010EEA22EB
:103750000F0EE926000EEA22EF50E66EFD0EDBCFDB
:10376000E9FFFE0EDBCFEAFF0F0EE926000EEA228C
:10377000E552E750EF6E2751100DF3CFE9FFF4CF7C
:10378000EAFF000EE926010EEA220C0EE926000EE1
:10379000EA22EF50E66EFD0EDBCFE9FFFE0EDBCF37
:1037A000EAFF0C0EE926000EEA22E552E750EF6E22
:1037B0002751100DF3CFE9FFF4CFEAFF000EE92601
:1037C000010EEA220D0EE926000EEA22EF50E66E07
:1037D000FD0EDBCFE9FFFE0EDBCFEAFF0D0EE92683
:1037E000000EEA22E552E750EF6E2751100DF3CF9D
:1037F000E9FFF4CFEAFF000EE926010EEA220C0EE3
:10380000E926000EEA22EF50E66EE66A2751100D17
:10381000F3CFE9FFF4CFEAFF000EE926010EEA221A
:10382000040EE926000EEA22E9CF00F0EACF01F00B
:1038300000C0E6FF01C0E6FFFD0EDBCFE9FFFE0E94
:10384000DBCFEAFF040EE926000EEA22E9CF02F000
:10385000EACF03F002C0E6FF03C0E6FF92EC3DF0C2
:10386000046E060EE15E04500E012507255101E1AC
:10387000008D272B2751006E016A800E001801E190
:10388000015001E1276B010E00D0E552E7CFD9FFCF
:1038900012000E01255100D01200D9CFE6FFE1CF72
:1038A000D9FFE6527750800B06E07650800B03E09C
:1038B000779E0E01008F7750200B22E07650200B70
:1038C0001FE0779A71AC04D00E010181719C18D071
:1038D00071AA03D00E01008913D071A803D00E0184
:1038E00000870ED071A603D00E01018509D071A406
:1038F00003D00E01008504D071A202D00E01018315
:10390000E552E552E7CFD9FF1200D9CFE6FFE1CF6C
:10391000D9FFE652DF6A090EDF5C51E2010EDF5289
:1039200006E0DFCFF3FFE846FE0BF306FCE1026E94
:10393000036A02BE03680E0128510214006E295169
:103940000314016E0050011038E0F76ADF34FE0BFB
:10395000F736F66E6E0EF626800EF7220900F5CFCA
:10396000E9FF0800F5CFEAFFEF50080B14E0010E65
:10397000DF5206E0DFCFF3FFE846FE0BF306FCE183
:10398000E81C006E016A00BE016800500E012A1793
:1039900001502B1712D0010EDF5206E0DFCFF3FFEC
:1039A000E846FE0BF306FCE1006E016A00BE01680A
:1039B00000500E012A1301502B13DF2AACD7E55219
:1039C000E552E7CFD9FF1200D9CFE6FFE1CFD9FF0B
:1039D000030EE126010EDB6A020EDB6A0E013B518B
:1039E000020A59E0020A03E0010A01E0AFD0DF6AEF
:1039F000080EDF5C4FE228CE02F029CE03F0021E53
:103A0000031ED89003320232030E0212000E03127C
:103A1000010EDF5206E0DFCFF3FFE846FE0BF306B0
:103A2000FCE1046E056A04BE056802500414006ED1
:103A300003500514016E005001102AE0F76ADF34CC
:103A4000FE0BF736F66E5E0EF626800EF7220900A4
:103A5000F5CFE9FF0800F5CFEAFFEF50800B0CE04F
:103A6000010EDF5206E0DFCFF3FFE846FE0BF30660
:103A7000FCE10E012C130CD0010EDF5206E0DFCF6B
:103A8000F3FFE846FE0BF306FCE1E81C0E012C17E1
:103A9000DF2AAED75BD0070E6F140E012C6F2C51AE
:103AA000F66EF76AD890F636F7365E0EF626800E7A
:103AB000F7220900F5CFE9FF0800F5CFEAFFEF5044
:103AC000800B01E143D02C51F66EF76AD890F636A0
:103AD000F7365E0EF626800EF7220900F5CFE9FFD5
:103AE0000800F5CFEAFFEF50800B2FE0010EE66EE5
:103AF0002CCEE6FF2651100DF3CF00F0F4CF01F0ED
:103B0000000E0026010E012200C0E6FF01C0E6FF04
:103B10007DEC15F0E552E552E552E5520E01009DAF
:103B2000262B2651006E016A800E001801E101501B
:103B300001E1266B252B2551006E016A800E0018CD
:103B400001E1015002E1008B01D000D0030EE15CE5
:103B500002E2E16AE552E16EE552E7CFD9FF1200D9
:103B60000E0101A704D00197010E0ED00BD001A1C8
:103B700004D00191020E08D005D000A903D000990D
:103B8000030E02D0000E00D01200D9CFE6FFE1CF25
:103B9000D9FFFC0EDB50090A01E12ED1010A01E137
:103BA00008D10F0A01E1E2D0010A01E1BCD0030A09
:103BB00001E196D0010A71E0070A4CE0010A27E012
:103BC000030A02E0000E3DD11D0E006E7A0E016E5A
:103BD000026A00C0E6FF01C0E6FF02C0E6FFFD0E7C
:103BE000DBCFE6FFFE0EDBCFE6FFF0EC3DF0036E31
:103BF000050EE15E0350F350E66EFA0EDBCFE9FFEF
:103C0000FB0EDBCFEAFFE552E750EF6E18D1040E52
:103C1000006E7A0E016E026A00C0E6FF01C0E6FF88
:103C200002C0E6FFFD0EDBCFE6FFFE0EDBCFE6FFB8
:103C3000F0EC3DF0036E050EE15E0350F350E66ECE
:103C4000FA0EDBCFE9FFFB0EDBCFEAFFE552E750D0
:103C5000EF6EF5D0EC0E006E790E016E026A00C0B8
:103C6000E6FF01C0E6FF02C0E6FFFD0EDBCFE6FF88
:103C7000FE0EDBCFE6FFF0EC3DF0036E050EE15EDD
:103C80000350F350E66EFA0EDBCFE9FFFB0EDBCFFD
:103C9000EAFFE552E750EF6ED2D0D00E006E790EFB
:103CA000016E026A00C0E6FF01C0E6FF02C0E6FF47
:103CB000FD0EDBCFE6FFFE0EDBCFE6FFF0EC3DF0C6
:103CC000036E050EE15E0350F350E66EFA0EDBCF95
:103CD000E9FFFB0EDBCFEAFFE552E750EF6EAFD016
:103CE000B40E006E790E016E026A00C0E6FF01C0DC
:103CF000E6FF02C0E6FFFD0EDBCFE6FFFE0EDBCFE8
:103D0000E6FFF0EC3DF0036E050EE15E0350F3506C
:103D1000E66EFA0EDBCFE9FFFB0EDBCFEAFFE552E2
:103D2000E750EF6E8CD09C0E006E790E016E026A29
:103D300000C0E6FF01C0E6FF02C0E6FFFD0EDBCFDC
:103D4000E6FFFE0EDBCFE6FFF0EC3DF0036E050E66
:103D5000E15E0350F350E66EFA0EDBCFE9FFFB0E97
:103D6000DBCFEAFFE552E750EF6E69D0840E006EBC
:103D7000790E016E026A00C0E6FF01C0E6FF02C0D4
:103D8000E6FFFD0EDBCFE6FFFE0EDBCFE6FFF0EC3D
:103D90003DF0036E050EE15E0350F350E66EFA0E41
:103DA000DBCFE9FFFB0EDBCFEAFFE552E750EF6E1A
:103DB00046D0780E006E790E016E026A00C0E6FFF2
:103DC00001C0E6FF02C0E6FFFD0EDBCFE6FFFE0E00
:103DD000DBCFE6FFF0EC3DF0036E050EE15E035035
:103DE000F350E66EFA0EDBCFE9FFFB0EDBCFEAFF06
:103DF000E552E750EF6E23D0660E006E790E016E2D
:103E0000026A00C0E6FF01C0E6FF02C0E6FFFD0E49
:103E1000DBCFE6FFFE0EDBCFE6FFF0EC3DF0036EFE
:103E2000050EE15E0350F350E66EFA0EDBCFE9FFBC
:103E3000FB0EDBCFEAFFE552E750EF6E00D0010E3C
:0A3E400000D0E552E7CFD9FF1200D1
:063E4A0061EC24F0FB0E08
:103E5000DBCFF3FFDB06F35000090AE0AFEC24F000
:103E6000FA0E1AEC25F0F3E1011CF1E1010E01D08C
:103E7000000E90EF24F061EC24F03B0EE12402E30D
:103E8000E168E652E16E010EDB6A020EDB6AF90EB2
:103E9000DBCFF6FFFA0EDBCFF7FFFB0EDBCFF8FF31
:103EA0000800F550DF6EDF5002E1B4EF23F0250E7D
:103EB000DF5C02E0A7EF23F0030EDB6A040EDB6A8F
:103EC000050EDB6A060EDB6A070EDB6AC9EC23F01F
:103ED0002D0EDF5C0CE02B0EDF5C09E0200EDF5CBA
:103EE00006E0230EDF5C03E0300EDF5C1AE1DF50FA
:103EF000300A14E0130A0FE0030A0AE00B0A05E097
:103F0000060AE4E1030EDB80E1D7030EDB82DED795
:103F1000030EDB84DBD7030EDB86D8D7030EDB88EA
:103F2000D5D72A0EDF5C1BE1C5EC23F013EC24F09F
:103F300010E0030EDB8026682768130EDBCF2BF022
:103F4000140EDBCF2CF0CEEC32F0040E24C0DBFFDD
:103F500003D0130EFCEC23F0C9EC23F00BD0090EB8
:103F6000DB6A6AEC24F003E0DEEC24F0FAD7090EF9
:103F7000FCEC23F0030EDBB0DB982E0EDF5C1BE1C4
:103F8000C9EC23F02A0EDF5C0BE1C5EC23F013EC47
:103F900024F003E1130E4EEC24F0C9EC23F00BD017
:103FA000090EDB6A6AEC24F003E0DEEC24F0FAD7B9
:103FB000090E4EEC24F0680EDF5C07E1C9EC23F03B
:103FC000680EDF5C1DE1030E18D0740EDF5C17E095
:103FD0007A0EDF5C14E0480EDF5C06E0540EDF5C16
:103FE00003E05A0EDF5C02E1020E07D06C0EDF5CCC
:103FF00003E06A0EDF5C04E1010EA1EC24F0C9DBF2
:10400000DF506E0A01E17FD31E0A01E192D1200A3E
:1040100001E18FD13F0A01E149D11A0A01E146D1FC
:104020000D0A01E143D1200A01E140D13A0A01E140
:104030003DD1200A01E13AD1260A01E135D10D0A2C
:1040400001E132D11A0A01E1D9D0200A4AE0300A4E
:104050001FE0460A0EE0250A01E083D3D950F90F8C
:10406000E96EFF0EDA20EA6E010EEE5E000EEE5AE9
:10407000EE5AAFEC24F0250EE66E95DB03E1011C51
:1040800001E169D3ABEC24F001E26BD3DB2A69D305
:10409000080EDB6A040EDB50010806E2040EDB04A6
:1040A00073EC24F0DB508BDB080EDB5009E0030ED1
:1040B000DB50010B05E172DB01E04DD3080EDB6A3A
:1040C00064DBEFCFDFFF23EC25F003E1011C01E10E
:1040D00042D3ABEC24F001E3DB2A60DB01E141D306
:1040E0003AD3070EDB5002080FE1EFEC24F0030E89
:1040F000B6EC24F00E0EEECFDBFF0F0EEECFDBFFA3
:10410000100EEECFDBFF20D0F70EDBCF03F0F80E62
:10411000DBCF04F0020E035E000E045AF70E03C05C
:10412000DBFFF80E04C0DBFF03C0E9FF04C0EAFFB9
:10413000A6EC24F0026A0E0E00C0DBFF0F0E01C0D9
:10414000DBFF100E02C0DBFF0E0EDBCFE6FF0F0E13
:10415000DBCFE6FF100EDBCFE6FFCBEC3DF0E55208
:10416000E552E552130E25C0DBFF140E26C0DBFF1F
:10417000060EDB5005E0130EEAEC24F001E26ADBE8
:104180000EEC25F002E2130E37DBD1EC24F006E052
:10419000040EEAEC24F002E2050E2EDB030EDBB087
:1041A00005D0FCDA01E0D7D2080EDB6A090EDB6A23
:1041B0000E0EDBCFF6FF0F0EDBCFF7FF100EDBCFBF
:1041C000F8FF0800F550DF6EDF5014E014EC25F026
:1041D00011E223EC25F003E1011C01E1BCD2BBDBC1
:1041E00001E3DB2A090EDB2AD9500E0FE96E000E1F
:1041F000CBDBE7D7D3DA01E1B4D2ADD2C6DA110E08
:10420000EECFDBFF120EEDCFDBFF110EDBCFE6FFB3
:10421000120EDBCFE6FFBDEC3DF0E552E552130E8A
:10422000F3CFDBFF140EF4CFDBFF060EDB5004E010
:10423000130ED0DB01E20EDB0EEC25F002E2130ED2
:10424000DBDAAFDB05E0040EC5DB02E2050ED4DAF3
:10425000030EDBB005D0A2DA01E07DD2080EDB6AE6
:10426000090EDB6A110EDBCFE9FF120EDBCFEAFF8E
:10427000EFCFDFFFDF5014E0D7DB12E2E4DB03E136
:10428000011C01E168D267DB01E3DB2A090EDB2AAE
:10429000110EDB2ADBCFE9FF120EE8E3DB2AE6D7BB
:1042A0007DDA01E15ED257D2030EDB8E070EDB040E
:1042B00010E195DB040E5ADB0A0EEECFDBFF0B0E8E
:1042C000EECFDBFF0C0EEECFDBFF0D0EEECFDBFFF4
:1042D0006CD0070EDB5003082CE1030EDBAE0DD0D3
:1042E000B2DA020E76DAEFCF00F0016A026A036AF0
:1042F00000AE39D00168026835D0F70EDBCF01F08F
:10430000F80EDBCF02F0020E015E000E025AF70E2D
:1043100001C0DBFFF80E02C0DBFF01C0E9FF02C0F5
:10432000EAFFEFCF00F00A0E00C0DBFF0B0EDB6AE6
:1043300038D0070EDB50020809E1030EDBAE04D0D3
:1043400059DB02AE10D00ED055DB0DD0030EDBAE24
:1043500012D079DA020E3DDAF9DA026A036A01AEA6
:1043600002D002680368E2DA0C0E02C0DBFF0D0E19
:1043700003C0DBFF1AD0F70EDBCF02F0F80EDBCF65
:1043800003F0020E025E000E035AF70E02C0DBFFBE
:10439000F80E03C0DBFF02C0E9FF03C0EAFFD6DA74
:1043A000C5DA0C0EDB6A0D0EDB6A060EDB5005E18A
:1043B000010EF36E050EF3CFDBFF150EDB6A160E52
:1043C000DB6AD950370F006E000EDA20016E390E0D
:1043D00000C0DBFF3A0E01C0DBFF380EDB6A080EBF
:1043E000DB6A0A0EAEDADF50780A12E0200A10E02B
:1043F000280A0CE0200A0AE03F0A06E00D0A02E063
:10440000200A08E1020E05D0080E03D0080EDF26B0
:10441000100E97DA030EDBBE02D0DB92DB94DB508A
:10442000800B24E08ADAD890030EEB50000A08E6ED
:10443000000EEE5C000EEE58000EEE58000EEE5828
:1044400015E213DA29682A682B682C6890EC3FF093
:104450000A0E20C0DBFF0B0E21C0DBFF0C0E22C0BA
:10446000DBFF0D0E23C0DBFF2D0E08D0030EDBA2F9
:1044700002D02B0E03D0DBA408D0200EF36E170E53
:10448000F3CFDBFF150EDB2A02D0170EDB6A050E19
:10449000DB5003E1B7D901E189D0880E006E820EAE
:1044A000016E000E026E070EDBCF03F0046A056A90
:1044B000066A03C029F004C02AF005C02BF006C02C
:1044C0002CF0D3D9FBEC3FF000502024F36E0150C8
:1044D0002120F46E02502220F86EF4CFF7FFF3CFC4
:1044E000F6FF0800090EF5CFDBFF580EDF5C0FE189
:1044F000610EF36E090E7BD90AE3200E006E090EE1
:10450000DBCFE7FF0050E75E090EE7CFDBFF070ECA
:10451000DBCF00F0016A026A036A0FDA00C029F0FB
:1045200001C02AF002C02BF003C02CF0EECF24F023
:10453000EECF25F0EECF26F0EFCF27F0FBEC3FF0EB
:1045400027C0EDFF26C0EDFF25C0EDFF24C0EFFF23
:10455000390EDBCFE9FFDB063A0EDBCFEAFF01E2E3
:10456000DB06090EDBCFEFFF150EDB2A4BD995E1F9
:10457000030EDBA61DD06F0EDF5C06E1C1D918E388
:10458000150EDB285BDA14D0780EDF5C09E0580EDC
:10459000DF5C06E0620EDF5C03E0420EDF5C08E1F8
:1045A000020EF36E160EF3CFDBFF02D0150EDB6AA0
:1045B000030EDB50100B0EE0040EDBCF00F0050EF7
:1045C000DB50D880005406E2060EDB5003E1040EF7
:1045D000DB5034DA95D90AE2050EDBCFE7FF150E82
:1045E000DB50E75E050EE7CFDBFF02D0050EDB6A8E
:1045F000040EDBCF00F0160E45D9D880005414E22B
:10460000160EDBCFE6FF150EDBCFE6FF040EDBCF89
:10461000E6FF050EDB50E552E75CE552D880E75433
:10462000E552D880E7545FD9030EDB50010B0BE154
:10463000080EDB5008E0B2D801E08DD0080EDB5048
:10464000BED8080EDB6A170EDB5007E088D9170EBC
:10465000F1D903E1011C01E17ED0160EDB5016E01A
:104660007ED9300EE66E9FD802E1011C74E077D946
:10467000DFCFE6FFD9EC3EF0E552E552E552F4CF4C
:1046800001F00001F31C02E1011C65E0050EDBCF27
:1046900000F0160EDB50D880005409E2050EDBCF87
:1046A000E7FF160EDB50E75E050EE7CFDBFF300EAF
:1046B000E66E050ECBD94FE1390EDB2ADBCFE9FFE1
:1046C0003A0E01E3DB2ADBCFEAFF090EEFCFDBFF77
:1046D000DB500EE044D9090EADD902E1011C3BE0EC
:1046E000390EDB2ADBCFE9FF3A0EEDE3DB2AEBD70D
:1046F00055D831E1160EDBCFE6FF080EC3D8E552E0
:10470000E7245DD82ED0070EDB50030A1CE0010A17
:1047100014E0030A07E07BD9DBCFEEFF020EDBCF0C
:10472000EDFF1FD0F5D8056A03AE02D00468056816
:104730002CD8BCD805C0EEFF14D0EAD803BE04685C
:1047400024D8B4D80ED063D9DBCFEFFF0AD07BD901
:1047500005E1011C03E1F368F46810D0FCD801E323
:10476000DB2A79D950EF1FF0010EDBCF00F0020EEB
:10477000DBCF01F000C0F3FF01C0F4FF3B0EE15CB2
:1047800002E2E16AE552E16ECBD029D9020EB6EF22
:1047900024F061D90800F550DF6E1200200EE66E9D
:1047A000080E26EF25F0D9EC3EF0E552E552E55231
:1047B000F3CF00F0F4CF01F00001F31C1200006E03
:1047C000016AD950010F4DD90050EE260150ED225B
:1047D0001200045E000E055AF70E04C0DBFFF80E4F
:1047E00005C0DBFF04C0E9FF05C0EAFF1200DBCF14
:1047F000F4FFF350F45C1200DB50E76E040EE7CFD9
:10480000DBFF12000A0EDBCF00F00B0EDBCF01F056
:104810000C0EDBCF02F00D0EDBCF03F000500110C9
:10482000021003101200130EEECFDBFF140EEDCFBB
:10483000DBFF130EDBCF00F0140EDBCF01F0000125
:10484000800E01141200F70EDBCF04F0F80EDBCF60
:1048500005F01200050EDB50E66ED950130F01D99A
:10486000E552E750EE6EED6A12000A0EDBCF24F03F
:104870000B0EDBCF25F00C0EDBCF26F00D0EDBCFC1
:1048800027F01200DBCFE6FF150EDBCFE6FF050EAB
:10489000DB50E552E724E552E7241200DB50CED886
:1048A000010EF36E060EF3CFDBFF1200EE50EFCFDA
:1048B000EAFFE96E02C0EEFF03C0EEFF04C0EEFFA8
:1048C0001200D9CFE6FFDACFE6FFE1CFD9FFE2CF82
:1048D000DAFF1200DFCFE6FFE66AE4EC40F0E552D3
:1048E000E552F3501200E76E080EE7CFDBFF12002F
:1048F000EECF00F0EECF01F0EFCF02F0036A12002E
:10490000050EDBCF00F0150EDB50D88000541200EE
:10491000010EDBCF02F0020EDBCF03F0046A1200BF
:10492000E552E5CFDAFFE7CFD9FF12000A0E00C04B
:10493000DBFF0B0E01C0DBFF1200D9500A0F31EF75
:1049400025F0F36E070EF3CFDBFF1200EECF00F081
:10495000EFCF01F01200010EDB2A020E1200FC0E56
:10496000DBCFE6FFFD0EDBCFE6FF1200005E000EA0
:10497000015AF70E00C0DBFFF80E01C0DBFF00C0DC
:10498000E9FF01C0EAFF1200DA20EA6EEF2AEECF5B
:10499000F6FF000EEF22EECFF7FFEF22EECFF8FF8B
:1049A0001200040EDBCFE6FF130EDB50E552E75C8E
:1049B0009ADFDB5004DF060EDB501200090EDB50DD
:1049C0000A0DF350DF24D00FE76E090EE7CFDBFFAF
:1049D000C9EF23F0DB50F36E050EF7EF23F0F70E6F
:1049E000DBCF00F0F80EDBCF01F01200DFCFE6FFE7
:1049F000D3EF23F028DF030EECDE78EF24F025EC74
:104A00001FF0E552E552E552E55200091200BDDE05
:104A1000EE50EFCFEAFFE96E010E1200130EDB50ED
:104A2000F36E040EF7EF23F0040EDB50F36E090E65
:104A3000F7EF23F0DBCFE6FFD3EF23F0E76E050EB1
:104A4000E7CFDBFF12008BDFF6EF24F0DBCFE6FFD2
:104A500086DFFFEF24F0D950F90FE96EFF0EC4EFA7
:0C4A600024F0E96E000EDA20EA6E12006D
:044A6C00D9CFE6FFB9
:104A7000E1CFD9FF0901A591A583A76BA86BA96B0D
:104A8000AA6BAB6BAC6BA595A587A599A59BAD6BE8
:104A9000AE6BAF6BB06BFE0EDBCFB1F9B86BCC0E6B
:104AA000E66E07EC41F0E5529D989D9AE552E7CFFE
:104AB000D9FF1200D9CFE6FFE1CFD9FF0901A691B6
:104AC000A683B26BB36BB46BB56BB66BB76BA695C5
:104AD000A687A699A69BB96BBA6BBB6BBC6BFE0E87
:104AE000DBCFBDF9BE6BCC0EE66EF6EC40F0E552C6
:104AF000A388A38AE552E7CFD9FF1200D9CFE6FFFA
:104B0000E1CFD9FF0901A5A102D0000E1FD0000EF0
:104B1000A925E96E0A0EAA21EA6EFE0EDBCFEFFF91
:104B2000A593A72B000EA823640EA71901E1A85195
:104B300001E1A581A92B000EAA23640EA91901E1A8
:104B4000AA5102E1A96BAA6B010E00D0E552E7CF92
:104B5000D9FF1200D9CFE6FFE1CFD9FF0901A6A105
:104B600002D0000E21D0A398C20EB425E96E0B0E20
:104B7000B521EA6EFE0EDBCFEFFFA693B22B000E3F
:104B8000B3231E0EB21901E1B35101E1A681B42B8A
:104B9000000EB5231E0EB41901E1B55102E1B46B4C
:104BA000B56BA388010E00D0E552E7CFD9FF120004
:104BB000D9CFE6FFE1CFD9FF020EE126FFD8F3CF30
:104BC00000F0F4CF01F0FB0EDBCF02F0FC0EDBCFE8
:104BD00003F00250005C0350015802E2000E2CD09A
:104BE000DE6ADD6ADECF00F0DDCF01F0FB0EDBCF49
:104BF00002F0FC0EDBCF03F00250005C03500158C2
:104C000019E2FD0EDBCF00F0FE0EDBCF01F0DE502F
:104C10000024E96EDD500120EA6EEF50E66E6EDF93
:104C2000E552000902E1000E07D0DF2A010E01E380
:104C3000DB2AD8D7010E00D0006E020EE15C02E242
:104C4000E16AE552E16E0050E552E7CFD9FF12006C
:104C5000D9CFE6FFE1CFD9FF020EE126C8D8F3CFC6
:104C600000F0F4CF01F0FB0EDBCF02F0FC0EDBCF47
:104C700003F00250005C0350015802E2000E2CD0F9
:104C8000DE6ADD6ADECF00F0DDCF01F0FB0EDBCFA8
:104C900002F0FC0EDBCF03F00250005C0350015821
:104CA00019E2FD0EDBCF00F0FE0EDBCF01F0DE508F
:104CB0000024E96EDD500120EA6EEF50E66E4ADF17
:104CC000E552000902E1000E07D0DF2A010E01E3E0
:104CD000DB2AD8D7010E00D0006E020EE15C02E2A2
:104CE000E16AE552E16E0050E552E7CFD9FF1200CC
:104CF0000901A5B335D09EB802D0000E33D0000014
:104D000000000901B15103E00901B82B8C88000EA5
:104D10000901AB25E96E0A0E0901AC21EA6EEF50DC
:104D2000E66ECDEC40F0E5520901A5A102D00901E3
:104D3000A5910901A707000EA85B0901A751A811B9
:104D400002E10901A5830901AB2B000EAC23090187
:104D5000640EAB1901E1AC5103E10901AB6BAC6B23
:104D6000010E00D012000901A6B324D0BD5102E00B
:104D7000BE2B8C8AC20EB625E96E0B0EB721EA6EE9
:104D8000EF50E66EB6EC40F0E5520901A6B1A691EF
:104D9000B207000EB35BB251B31101E1A683B62B8B
:104DA000000EB7231E0EB61901E1B75102E1B66B32
:104DB000B76B01D0A398010E00D012000901640E58
:104DC000A75D000EA8590FE2A7C900F0A8C901F01D
:104DD000640ED8800056000E015600C0F3FF01C0DB
:104DE000F4FF04D003D0F36AF46A00D01200090182
:104DF0001E0EB25D000EB3590FE2B2C900F0B3C986
:104E000001F01E0ED8800056000E015600C0F3FFC0
:104E100001C0F4FF04D003D0F36AF46A00D012009A
:104E2000D9CFE6FFE1CFD9FFE6529EBA02D0000EFD
:104E300052D0ABA20CD00901A5895FEC40F0DF6E27
:104E4000000000005FEC40F0DF6EAB98AB8809011A
:104E5000A5B53DD05FEC40F0DF6EABA404D00901F6
:104E6000A58B000E38D00901B15107E00901B851F6
:104E700004E00901B807000E2ED00901A599090127
:104E8000A597640E0901AF25E96E0A0E0901B0214C
:104E9000EA6EDFCFEFFF0901AD2B000EAE235E0EF1
:104EA0000901AD1902E1010EAE1902E10901A58562
:104EB0000901AF2B000EB0235E0E0901AF1902E10C
:104EC000010EB01903E10901AF6BB06B02D0000E07
:104ED00002D0010E00D0E552E552E7CFD9FF120013
:104EE000D9CFE6FFE1CFD9FFE652A6A20CD0090147
:104EF000A68940EC40F0DF6E0000000040EC40F07E
:104F0000DF6EA698A6880901A6B53BD040EC40F01C
:104F1000DF6EA6A404D00901A68B000E38D00901CB
:104F2000BD5107E00901BE5104E00901BE07000EB2
:104F30002ED00901A6990901A697E00E0901BB250B
:104F4000E96E0B0E0901BC21EA6EDFCFEFFF09010C
:104F5000B92B000EBA230901010EB91901E1BA51AA
:104F600002E10901A6850901BB2B000EBC23090142
:104F7000010EBB1901E1BC5103E10901BB6BBC6B24
:104F800004D00901A689000E02D0010E00D0E5521E
:104F9000E552E7CFD9FF1200D9CFE6FFE1CFD9FF25
:104FA0000901A5A702D0000E29D0A595640E0E0117
:104FB0003725E96E0A0E3821EA6EEF50E66EFD0ED7
:104FC000DBCFE9FFFE0EDBCFEAFFE552E750EF6EE5
:104FD0000901AD07000EAE5BAD51AE1101E1A58731
:104FE0000E01372B000E38235E0E371902E1010E39
:104FF000381902E1376B386B010E00D0E552E7CF6C
:10500000D9FF1200D9CFE6FFE1CFD9FF0901A6A74A
:1050100002D0000E2AD0A39AA695E00E0E013925E3
:10502000E96E0B0E3A21EA6EEF50E66EFD0EDBCF15
:10503000E9FFFE0EDBCFEAFFE552E750EF6E090114
:10504000B907000EBA5BB951BA1101E1A6870E018A
:10505000392B000E3A23010E391901E13A5102E1D0
:10506000396B3A6BA38A010E00D0E552E7CFD9FF26
:1050700012000901AD5100D012000901B95100D050
:105080001200D9CFE6FFE1CFD9FF050EE126FA0ED7
:10509000DBCF24F0256A266A276A400E296E420E6D
:1050A0002A6E0F0E2B6E2C6A90EC3FF020C0DEFFB4
:1050B00021C0DEFF22C0DEFF23C0DDFFDD52DD5256
:1050C000030EF36E040EF3CFDBFFDB50030A01E1A6
:1050D00083D0020A44E0030A42E0020A03E0F368D4
:1050E000F46AB8D0D9CFE9FFDACFEAFFEECF04F007
:1050F000EECF05F0EECF06F0EFCF07F004C024F0BE
:1051000005C025F006C026F007C027F0FB0EDBCF58
:1051100029F0FC0EDBCF2AF0FD0EDBCF2BF0FE0ECC
:10512000DBCF2CF0FBEC3FF024C000F025C001F0F9
:1051300026C002F027C003F0060ED89003320232D8
:1051400001320032E806F9E10006000E015A025A67
:10515000035A00C0F3FF01C0F4FF7CD07BD0D9CF4D
:10516000E9FFDACFEAFFEECF04F0EECF05F0EECFA5
:1051700006F0EFCF07F004C024F005C025F006C00C
:1051800026F007C027F0FB0EDBCF29F0FC0EDBCFAB
:105190002AF0FD0EDBCF2BF0FE0EDBCF2CF0FBEC6C
:1051A0003FF024C000F025C001F026C002F027C067
:1051B00003F0040ED8900332023201320032E806C6
:1051C000F9E10006000E015A025A035A00C0F3FF2B
:1051D00001C0F4FF3FD03ED0D9CFE9FFDACFEAFFDC
:1051E000EECF04F0EECF05F0EECF06F0EFCF07F0F4
:1051F00004C024F005C025F006C026F007C027F043
:10520000FB0EDBCF29F0FC0EDBCF2AF0FD0EDBCF4F
:105210002BF0FE0EDBCF2CF0FBEC3FF024C000F0B7
:1052200025C001F026C002F027C003F0020ED8907E
:105230000332023201320032E806F9E10006000EC4
:10524000015A025A035A00C0F3FF01C0F4FF02D012
:1052500001D000D0050EE15C02E2E16AE552E16EA8
:10526000E552E7CFD9FF1200D9CFE6FFE1CFD9FF52
:10527000050EE126FA0EDBCF24F0256A266A276A9E
:10528000400E296E420E2A6E0F0E2B6E2C6A90EC89
:105290003FF020C0DEFF21C0DEFF22C0DEFF23C0C2
:1052A000DDFFDD52DD52030EF36E040EF3CFDBFFA4
:1052B000DB50030A01E183D0020A44E0030A42E022
:1052C000020A03E0F368F46AB8D0D9CFE9FFDACF75
:1052D000EAFFEECF04F0EECF05F0EECF06F0EFCF11
:1052E00007F004C024F005C025F006C026F007C072
:1052F00027F0FB0EDBCF29F0FC0EDBCF2AF0FD0EF2
:10530000DBCF2BF0FE0EDBCF2CF0FBEC3FF024C00C
:1053100000F025C001F026C002F027C003F0060E01
:10532000D8900332023201320032E806F9E1000679
:10533000000E015A025A035A00C0F3FF01C0F4FFE5
:105340007CD07BD0D9CFE9FFDACFEAFFEECF04F0F3
:10535000EECF05F0EECF06F0EFCF07F004C024F05B
:1053600005C025F006C026F007C027F0FB0EDBCFF6
:1053700029F0FC0EDBCF2AF0FD0EDBCF2BF0FE0E6A
:10538000DBCF2CF0FBEC3FF024C000F025C001F097
:1053900026C002F027C003F0040ED8900332023278
:1053A00001320032E806F9E10006000E015A025A05
:1053B000035A00C0F3FF01C0F4FF3FD03ED0D9CF65
:1053C000E9FFDACFEAFFEECF04F0EECF05F0EECF43
:1053D00006F0EFCF07F004C024F005C025F006C0AA
:1053E00026F007C027F0FB0EDBCF29F0FC0EDBCF49
:1053F0002AF0FD0EDBCF2BF0FE0EDBCF2CF0FBEC0A
:105400003FF024C000F025C001F026C002F027C004
:1054100003F0020ED8900332023201320032E80665
:10542000F9E10006000E015A025A035A00C0F3FFC8
:1054300001C0F4FF02D001D000D0050EE15C02E211
:10544000E16AE552E16EE552E7CFD9FF12001200A2
:10545000A450100B04E0A350100B01E084DCA45016
:10546000200B04E0A350200B01E03ADD1200ACB2A7
:105470008C981200BAB28C9A12000901A5A904D026
:10548000A599110E08D005D0A5AB03D0A59B120E8F
:1054900002D0000E00D01200D9CFE6FFE1CFD9FF35
:1054A000FC0EDB50120A27E0030A02E0000E49D08E
:1054B000570E006E790E016E026A00C0E6FF01C051
:1054C000E6FF02C0E6FFFD0EDBCFE6FFFE0EDBCF00
:1054D000E6FFF0EC3DF0036E050EE15E0350F35085
:1054E000E66EFA0EDBCFE9FFFB0EDBCFEAFFE552FB
:1054F000E750EF6E24D0440E006E790E016E026A02
:1055000000C0E6FF01C0E6FF02C0E6FFFD0EDBCFF4
:10551000E6FFFE0EDBCFE6FFF0EC3DF0036E050E7E
:10552000E15E0350F350E66EFA0EDBCFE9FFFB0EAF
:10553000DBCFEAFFE552E750EF6E01D000D0010E5D
:1055400000D0E552E7CFD9FF12000901A6A904D087
:10555000A699110E08D005D0A6AB03D0A69B120EBB
:1055600002D0000E00D01200D9CFE6FFE1CFD9FF64
:10557000FC0EDB50120A27E0030A02E0000E49D0BD
:10558000570E006E790E016E026A00C0E6FF01C080
:10559000E6FF02C0E6FFFD0EDBCFE6FFFE0EDBCF2F
:1055A000E6FFF0EC3DF0036E050EE15E0350F350B4
:1055B000E66EFA0EDBCFE9FFFB0EDBCFEAFFE5522A
:1055C000E750EF6E24D0440E006E790E016E026A31
:1055D00000C0E6FF01C0E6FF02C0E6FFFD0EDBCF24
:1055E000E6FFFE0EDBCFE6FFF0EC3DF0036E050EAE
:1055F000E15E0350F350E66EFA0EDBCFE9FFFB0EDF
:10560000DBCFEAFFE552E750EF6E01D000D0010E8C
:0A56100000D0E552E7CFD9FF1200E9
:06561A00D9CFE6FFDACF54
:10562000E6FFE1CFD9FFE2CFDAFF4B0EE12402E340
:10563000E168E652E16EA9EC2FF0D950060FCEECEE
:105640002FF050EC30F01FEC30F002E2E16AE5524E
:10565000E16E0050DF6ED9500D0FCEEC2FF087ECCD
:1056600030F01FEC30F002E2E16AE552E16E0050EA
:10567000E76E010EE7CFDBFF99EC30F082EC2FF004
:1056800083EC30F0000EE66EE66A56EC30F002E293
:10569000E16AE552E16E0050190EDB5003E01A0E8C
:1056A000DB6A16D083EC30F0010EE66EE66A56EC4B
:1056B00030F002E2E16AE552E16E0050190EDB5073
:1056C00002E1030E01D0050EF36E1A0EF3CFDBFFDD
:1056D000010EDB0455E0FA0EDBCF00F0FB0EDBCF52
:1056E00001F0FC0EDBCF02F0FD0EDBCF03F05DEC32
:1056F00030F046E0800EDF5C04E0010EDB508008F5
:1057000004E133EC30F07F0E5BD0DF040CE1130ECC
:10571000DB500FE0EDDB7F0E3AEC30F0210E0E0196
:105720003E6F3F6B0DD0040EDF5C22E1130EDB50A9
:1057300003E0FEEC2FF004D0DBDB7F0E3AEC30F020
:105740001A0EDBA469D30C0EDB5001E165D3D3EC58
:105750002FF073EC30F0020E25C0DBFF030E26C0E5
:10576000DBFF040E27C0DBFF050E28C0DBFF54D390
:10577000010EDB50040816E173DB5DEC30F003E151
:10578000B7DB3F0E1DD0130EDB5004E063EC30F0AE
:1057900004E106D063EC30F003E1FEEC2FF03CD3E3
:1057A000A7DB0DD00C0EDB500EE01A0EDB50010B08
:1057B0000AE1210E0E013E6F3F6B33EC30F07F0E9D
:1057C0003AEC30F029D3ABDB5DEC30F002E1C1DB29
:1057D00023D3D9501B0FE2DB50EC30F0E5EC3AF06C
:1057E000006E060EE15C02E2E16AE552E16E0050F5
:1057F00089DB0C0EDB5003E1180EDB6A16D030DBC0
:1058000073EC30F0140E25C0DBFF150E26C0DBFF55
:10581000160E27C0DBFF170E28C0DBFF1A0EDB5069
:10582000040BE76E180EE7CFDBFF1ADBF30E2A6ED0
:10583000040E2B6E350E2C6E3F0E2D6E0DDB42ECE2
:1058400033F0010A17E1010EE66EE66AD950140F33
:105850006AEC30F049EC3AF0006E060EE15C02E2D0
:10586000E16AE552E16E00504DDB1B0EDB061C0EBB
:1058700001E2DB06F60EDBCF25F0F70EDBCF26F0DC
:10588000F80EDBCF27F0F90EDBCF28F0FBEC32F07F
:105890001D0E24C0DBFF1E0E25C0DBFF1F0E26C021
:1058A000DBFF200E27C0DBFF1B0EDBCF26F01C0E1C
:1058B000E6DB250E25C0DBFF260E26C0DBFF270E0C
:1058C00027C0DBFF280E28C0DBFF36DBF60EDBCF60
:1058D0002AF0F70EDBCF2BF0F80EDBCF2CF0F90E11
:1058E000D2DBFBEC32F0210E24C0DBFF220E25C000
:1058F000DBFF230E26C0DBFF240E27C0DBFFD950C1
:10590000210F85DB08E6010EEE5C800EEE58FF0EDF
:10591000EE58FF0EEE581AE3210EDBCF25F0220ED3
:10592000DBCF26F0230EDBCF27F0240EDBCF28F0D1
:105930002834000E281809E6D880FF0E25547F0E63
:105940002654000E2754000E285402E266DBEED1E6
:10595000D9501D0F5CDB08E6800EEE5CFF0EEE58A2
:10596000FF0EEE58FF0EEE580CE275DB03E0800EE2
:10597000006E05D0D9501B0F3DDB1FE1006A016AA4
:1059800029D01D0EDBCF25F01E0EDBCF26F01F0E1B
:10599000DBCF27F0200EDBCF28F02834000E2818AC
:1059A00009E6D880800E2554000E2654000E275498
:1059B000000E285422E24FDB04E0800E006E0168E6
:1059C00009D0D9501B0F16DB02E1006A02D0800E0D
:1059D000006E016A390E00C0DBFF3A0E01C0DBFF2A
:1059E000370EDB6A380EDB6A2D0EDB6A2E0EDB6AA1
:1059F0002F0EDB6A300EDB6ACFD01D0EDBCF26F018
:105A00001E0EDBCF27F0370E26C0DBFF380E27C077
:105A1000DBFF210EDBCF26F0220EDBCF27F0390E85
:105A200026C0DBFF3A0E27C0DBFF110EDBCF00F0F4
:105A3000120EDBCF01F07F0E005E000E015A080E41
:105A4000005E000E015A350E00C0DBFF360E01C0AD
:105A5000DBFF59DB350EDBCFE6FF360EDBCFE6FF93
:105A600025DB02E2E16AE552E16E0050470E24C0F8
:105A7000DBFF480E25C0DBFF490E26C0DBFF4A0EC8
:105A800027C0DBFF4CDA470EDBCF04F0480EDBCF3C
:105A900005F0490EDBCF06F04A0EDBCF07F004C05D
:105AA0002AF005C02BF006C02CF007C02DF0D4D989
