:020000040000FA
:06000000A5EF1CF0120048
:020006001200E6
:060008007EEF19F012006A
:02000E001200DE
:0400100000000000EC
:03001400090300DD
:06001800DAEF19F01200FE
:02001E000300DD
:1000200014000000370E000003000000AF3900008C
:10003000E60000001600000010000000FC000000B8
:0400400004000000B8
:0C004400D9CFE6FFE1CFD9FFE6526E50A5
:10005000E00BE842E842E842E842E842DF6E6E50D8
:10006000E00BE842E842E842E842E842040805E0E2
:10007000040EE66EEBEC04F0E552FE0EDB50766EFD
:10008000FE0EDBCF7FFEFD0EDBCFE6FFFE0EDB506C
:10009000030BE552E7100E017E6F6E50E00BE84255
:1000A000E842E842E842E842DF5C05E0DFCFE6FFF5
:1000B000EBEC04F0E552E552E552E7CFD9FF120030
:1000C000D9CFE6FFE1CFD9FFE6526E50E00BE84210
:1000D000E842E842E842E842DF6E6E50E00BE84258
:1000E000E842E842E842E842040805E0040EE66E11
:1000F000EBEC04F0E552FE0EDBCF7DFE6E50E00B24
:10010000E842E842E842E842E842DF5C05E0DFCF4F
:10011000E6FFEBEC04F0E552E552E552E7CFD9FFFC
:100120001200D9CFE6FFE1CFD9FFE6526E50E00BC7
:10013000E842E842E842E842E842DF6E6E50E00BF7
:10014000E842E842E842E842E842040805E0040EDA
:10015000E66EEBEC04F0E552FE0EDB50010A1FE008
:10016000010A01E038D0F90EDBCFE6FFD950FA0FD3
:10017000E96EFF0EDA20EA6EEECFE6FFEECFE6FF85
:10018000EECFE6FFEFCFE6FFF80EE66E0E0EE66E60
:10019000FDEC07F0146E070EE15E14501CD0F90E52
:1001A000DBCFE6FFD950FA0FE96EFF0EDA20EA6ED8
:1001B000EECFE6FFEECFE6FFEECFE6FFEFCFE6FFB6
:1001C000FC0EE66E0E0EE66EFDEC07F0146E070EEA
:1001D000E15E145000D06E50E00BE842E842E84285
:1001E000E842E842DF5C05E0DFCFE6FFEBEC04F03D
:1001F000E552E552E552E7CFD9FF1200D9CFE6FF2D
:10020000E1CFD9FFE6526E50E00BE842E842E84207
:10021000E842E842DF6E6E50E00BE842E842E84216
:10022000E842E842040804E0040EE66ED4DBE5523E
:10023000FF0EE76EFD0EDBCF14F0FE0EDBCF15F0E8
:10024000E7501416156A14C046FEFD0EDBCF14F0FD
:10025000FE0EDBCF15F015C014F0156A14500E0118
:10026000476F6E50E00BE842E842E842E842E8425D
:10027000DF5C04E0DFCFE6FFAEDBE552E552E5529E
:10028000E7CFD9FF1200D9CFE6FFE1CFD9FFE65281
:100290006E50E00BE842E842E842E842E842DF6E96
:1002A000010EF36EFD0EDB5004E0D890F336E80645
:1002B000FCE1F3500E017D1502E0000E06D16E50F8
:1002C000E00BE842E842E842E842E842040804E081
:1002D000040EE66E80DBE552FE0EDB500F0A01E1F4
:1002E000D7D0010A01E1CAD0030A01E1B9D0010A5D
:1002F00001E1ACD0070A01E19BD0010A01E18ED0F7
:10030000030A01E17DD0010A71E00F0A61E0010AF0
:1003100055E0030A45E0010A39E0070A29E0010A2D
:100320001DE0030A0DE0010A01E0C0D0FD0EDB5024
:100330000E010F0BF36EF00E7115F310716FB6D046
:10034000FD0EDB500E010F0BF36EF346F346F34642
:10035000F3460F0E7115F310716FA8D0FD0EDB5030
:100360000E010F0BF36EF00E7215F310726F9ED02C
:10037000FD0EDB500E010F0BF36EF346F346F34612
:10038000F3460F0E7215F310726F90D0FD0EDB5016
:100390000E010F0BF36EF00E7315F310736F86D012
:1003A000FD0EDB500E010F0BF36EF346F346F346E2
:1003B000F3460F0E7315F310736F78D0FD0EDB50FC
:1003C0000E010F0BF36EF00E7415F310746F6ED0F8
:1003D000FD0EDB500E010F0BF36EF346F346F346B2
:1003E000F3460F0E7415F310746F60D0FD0EDB50E2
:1003F0000E010F0BF36EF00E7515F310756F56D0DE
:10040000FD0EDB500E010F0BF36EF346F346F34681
:10041000F3460F0E7515F310756F48D0FD0EDB50C7
:100420000E010F0BF36EF00E7615F310766F3ED0C3
:10043000FD0EDB500E010F0BF36EF346F346F34651
:10044000F3460F0E7615F310766F30D0FD0EDB50AD
:100450000E010F0BF36EF00E7715F310776F26D0A9
:10046000FD0EDB500E010F0BF36EF346F346F34621
:10047000F3460F0E7715F310776F18D0FD0EDB5093
:100480000E010F0BF36EF00E7815F310786F0ED08F
:10049000FD0EDB500E010F0BF36EF346F346F346F1
:1004A000F3460F0E7815F310786F00D06E50E00B06
:1004B000E842E842E842E842E842DF5C04E0DFCF9D
:1004C000E6FF89DAE552010E00D0E552E552E7CFAA
:1004D000D9FF1200D9CFE6FFE1CFD9FFE6526E5027
:1004E000E00BE842E842E842E842E842DF6E6E5044
:1004F000E00BE842E842E842E842E842040804E04F
:10050000040EE66E68DAE552FE0EDB500F0A01E1DA
:10051000E6D0010A01E1D5D0030A01E1C6D0010A03
:1005200001E1B9D0070A01E1A6D0010A01E195D0A5
:10053000030A01E186D0010A01E179D00F0A67E0E0
:10054000010A57E0030A49E0010A3DE0070A2BE0EF
:10055000010A1BE0030A0DE0010A01E0D0D0FD0E04
:10056000DB500E01030BF36EFC0E7915F310796F5F
:10057000C6D0FD0EDB500E01030BF36EF346F346BF
:10058000F30E7915F310796FBAD0FD0EDB500E0122
:10059000030BF36EF346F346F346F346CF0E79159D
:1005A000F310796FACD0FD0EDB500E01030BF36E30
:1005B000F346F346F346F346F346F3463F0E79150A
:1005C000F310796F9CD0FD0EDB500E01030BF36E20
:1005D000FC0E7A15F3107A6F92D0FD0EDB500E01EF
:1005E000030BF36EF346F346F30E7A15F3107A6FAE
:1005F00086D0FD0EDB500E01030BF36EF346F3467F
:10060000F346F346CF0E7A15F3107A6F78D0FD0ECD
:10061000DB500E01030BF36EF346F346F346F3464D
:10062000F346F3463F0E7A15F3107A6F68D0FD0E4D
:10063000DB500E01030BF36EFC0E7B15F3107B6F8A
:100640005ED0FD0EDB500E01030BF36EF346F34656
:10065000F30E7B15F3107B6F52D0FD0EDB500E01B5
:10066000030BF36EF346F346F346F346CF0E7B15CA
:10067000F3107B6F44D0FD0EDB500E01030BF36EC5
:10068000F346F346F346F346F346F3463F0E7B1537
:10069000F3107B6F34D0FD0EDB500E01030BF36EB5
:1006A000FC0E7C15F3107C6F2AD0FD0EDB500E0182
:1006B000030BF36EF346F346F30E7C15F3107C6FD9
:1006C0001ED0FD0EDB500E01030BF36EF346F34616
:1006D000F346F346CF0E7C15F3107C6F10D0FD0E61
:1006E000DB500E01030BF36EF346F346F346F3467D
:1006F000F346F3463F0E7C15F3107C6F00D06E502E
:10070000E00BE842E842E842E842E842DF5C04E00D
:10071000DFCFE6FF60D9E552E552E552E7CFD9FFDA
:100720001200D9CFE6FFE1CFD9FFE6526E50E00BC1
:10073000E842E842E842E842E842DF6E6E50E00BF1
:10074000E842E842E842E842E842040804E0040ED5
:10075000E66E41D9E552F90EDBCFE6FFD950FA0F2C
:10076000E96EFF0EDA20EA6EEECFE6FFEECFE6FF8F
:10077000EECFE6FFEFCFE6FFFE0EF76ADB34FE0BAF
:10078000F736F66EC40EF626380EF7220900F5CFBE
:10079000E6FF0800F5CFE6FFFDEC07F0146E070E4C
:1007A000E15E14506E50E00BE842E842E842E84255
:1007B000E842DF5C04E0DFCFE6FF0DD9E552E55209
:1007C000E552E7CFD9FF1200D9CFE6FFE1CFD9FF3D
:1007D000E6526E50E00BE842E842E842E842E84266
:1007E000DF6EFD0EDB5000084DE2090EF36EFD0ECC
:1007F000DBCFF4FFF350F45C45E2FC0EDB50000865
:1008000041E2090EF36EFC0EDBCFF4FFF350F45C13
:1008100039E2FB0EDB50010835E2090EF36EFB0EE8
:10082000DBCFF4FFF350F45C2DE2FE0EDB5000084A
:1008300029E2050EF36EFE0EDBCFF4FFF350F45CFD
:1008400021E2FC0EDBCFE6FFFD0EDB50E552E72494
:10085000146EFB0EDB50145C09E3FE0EDB50F36EEE
:10086000FB0EDBCFF4FFF350F45C02E2000E5AD033
:100870006E50E00BE842E842E842E842E8420408F1
:1008800007E002D0000E4ED0040EE66EA4D8E5526A
:10089000FC0EDB50010803E20E01448D02D00E0174
:1008A000449D448FFE0EDB04030BF36EF346F346C8
:1008B000F346F346F346F3463F0E4315F310436FFA
:1008C000FD0EDB04070BF36EF80E4415F310446FB6
:1008D000FC0EDB04070BF36EF346F346F346C70E3C
:1008E0004415F310446FFB0EDB04070BF36EF80E98
:1008F0004515F310456FFA0EDB503F0BF36EC00E3B
:100900004315F310436F6E50E00BE842E842E842B3
:10091000E842E842DF5C04E0DFCFE6FF5CD8E55266
:10092000010E00D0E552E552E7CFD9FF1200D9CF32
:10093000E6FFE1CFD9FFFD0EDB500F0809E3FE0E05
:10094000DB50020F146E020E0E017D15141803E128
:10095000000E20D01DD0FE0EDB50030FE66EFD0E04
:10096000DBCFE6FF90DCE552E552FE0EDB50030FD5
:10097000F66EF76AD890F636F736F40EF626380E8D
:10098000F7220900F5CFE9FF0800F5CFEAFFEF8471
:10099000010E00D0E552E7CFD9FF1200D9CFE6FF14
:1009A000E1CFD9FFFE0EDB0402E0000E10D0FE0EF8
:1009B000DB50030BF36EF346F346F346F346F34680
:1009C000F3463F0E7214F310726E010E00D0E55222
:1009D000E7CFD9FF1200D9CFE6FFE1CFD9FFFE0E56
:1009E000DB50070BF36EF346F346F346F346F3464C
:1009F0001F0E6F14F3106F6E6E50E00BE842E8426A
:100A0000E842E842E842146EFE0EDB50145C01E05E
:100A1000F3D7E552E7CFD9FF1200D9CFE6FFE1CFF8
:100A2000D9FFE652080EDF6E000EDF5C28E3DF50D0
:100A300002080FE2DF50020820E2DF04146E010E0C
:100A4000145204E0E846FE0B1406FCE10E017D158D
:100A500014E0F76ADF34FE0BF736F66EF40EF62676
:100A6000380EF7220900F5CFE9FF0800F5CFEAFFBD
:100A7000EF50080B02E1DF5004D0DF06D5D7FF0EA0
:100A800000D0E552E552E7CFD9FF1200D9CFE6FFFB
:100A9000E1CFD9FFE652DF6A080EDF5C27E2DF50C4
:100AA00001080EE2010EDF5206E0DFCFF3FFE84659
:100AB000FE0BF306FCE10E017D1502E015D014D00B
:100AC000F76ADF34FE0BF736F66EE40EF626380EC4
:100AD000F7220900F5CFE9FF0800F5CFEAFFEF5054
:100AE000800B02E0DF5004D0DF2AD6D7FF0E00D003
:100AF000E552E552E7CFD9FF1200D9CFE6FFE1CFAB
:100B0000D9FF040EE126FE0EDB50FF0813E0FE0EB7
:100B1000F76ADB34FE0BF736F66EF40EF626380E67
:100B2000F7220900F5CFE9FF0800F5CFEAFFEF5003
:100B3000080B08E072DFDF6EFF0EDF5C02E1FF0EE4
:100B4000CCD016D0FE0EDB5002080FE2FE0EDB0406
:100B5000146E010E145204E0E846FE0B1406FCE18C
:100B60000E017D1502E1FF0EB8D0FE0EDB50DF6EE8
:100B7000DF50FF0A24E0FC0A19E0070A17E0010A27
:100B800015E0030A13E0010A11E0070A06E0010A72
:100B900004E0030A02E0FF0EA0D0030EDF241F0BC7
:100BA000F36EE00E7214F310726E0BD0DF041F0BA5
:100BB000F36EE00E7214F310726E728802D001D0E0
:100BC00000D0FC0EDBCFE9FFFD0EDBCFEAFF0E0EFF
:100BD000E926000EEA22EF50E66EFC0EDBCFE9FFBD
:100BE000FD0EDBCFEAFFEECFE6FFEECFE6FFEECF66
:100BF000E6FFEFCFE6FF610EE66E0F0EE66EFDD963
:100C0000146E070EE15E1450FC0EDBCFE9FFFD0E03
:100C1000DBCFEAFF0C0EE926000EEA22EF50656EEC
:100C2000FC0EDBCFE9FFFD0EDBCFEAFF0F0EE9265E
:100C3000000EEA22EF50E8B0658CE8A0659CD95020
:100C4000020FE96EDACFEAFF660EEE6E0F0EED6E62
:100C5000010EDB6AFC0EDBCFE9FFFD0EDBCFEAFF06
:100C60000C0EE926000EEA22EF50F36E010EDBCFE8
:100C7000F4FFF350F45C2BE2FC0EDBCFE9FFFD0E3A
:100C8000DBCFEAFF040EE926000EEA22E9CF14F0DA
:100C9000EACF15F0010EDB500F011424E96E000EAF
:100CA0001520EA6EEF50E66E010EDB50E76E020E85
:100CB000DBCFE9FF030EDBCFEAFFE750E926000EAA
:100CC000EA22E552E750EF6E010EDB2AC3D7E00EB1
:100CD00072141009726EDF5000D0146E040EE15CC5
:100CE00002E2E16AE552E16E1450E552E7CFD9FF26
:100CF0001200D9CFE6FFE1CFD9FFFE0EDB5002088C
:100D00000FE2FE0EDB04146E010E145204E0E846FE
:100D1000FE0B1406FCE10E017D1502E1000E13D05E
:100D2000FE0EF76ADB34FE0BF736F66EF40EF6268F
:100D3000380EF7220900F5CFE9FF0800F5CFEAFFEA
:100D4000EF86010E00D0E552E7CFD9FF1200D9CFD0
:100D5000E6FFE1CFD9FF030EE126FD0EDBCFE9FF71
:100D6000FE0EDBCFEAFF0F0EE926000EEA22EF6A45
:100D7000FD0EDBCFE9FFFE0EDBCFEAFF0E0EE9260C
:100D8000000EEA22EF6AFC0EF76ADB34FE0BF73640
:100D9000F66EE40EF626380EF7220900F5CFE9FFCD
:100DA0000800F5CFEAFFEF50200B0CE0FD0EDBCF83
:100DB000E9FFFE0EDBCFEAFF0F0EE926000EEA2266
:100DC000010EEF6EFC0EF76ADB34FE0BF736F66EA3
:100DD000E40EF626380EF7220900F5CFE9FF0800E9
:100DE000F5CFEAFFEF501F0BE66EFD0EDBCFE9FFFC
:100DF000FE0EDBCFEAFF0D0EE926000EEA22E552D9
:100E0000E750EF6EFC0EDB501F0BF36EE00E72141A
:100E1000F310726E7288FD0EDBCFE9FFFE0EDBCFA2
:100E2000EAFF0C0EE926000EEA2265CFEFFF62A66C
:100E300039D0FD0EDBCFE9FFFE0EDBCFEAFF0E0E51
:100E4000E926000EEA22010EEF6E6350000EF3CF8A
:100E50001AF06250030BF36EF3CF19F06250E00BFF
:100E6000E842E842E842E842E842F36EF3CF18F085
:100E70006150F36EF350181019101A106410146EAC
:100E8000156A166A176AFD0EDBCFE9FFFE0EDBCF8F
:100E9000EAFF14C0EEFF15C0EEFF16C0EEFF17C04C
:100EA000EEFF4CD06150146E156A166A176AFD0E7B
:100EB000DBCFE9FFFE0EDBCFEAFF14C0EEFF15C06B
:100EC000EEFF16C0EEFF17C0EEFFFD0EDBCFE9FF11
:100ED000FE0EDBCFEAFFEECF14F0EECF15F0EECF33
:100EE00016F0EFCF17F0030E1F0B07E0D890143663
:100EF000153616361736E806F9E16250E00BE8427F
:100F0000E842E842E842E842186E196A1A6A1B6A27
:100F100018501412195015121A5016121B5017128D
:100F2000FD0EDBCFE9FFFE0EDBCFEAFF14C0EEFFC4
:100F300015C0EEFF16C0EEFF17C0EEFFD950010F2F
:100F4000E96EDACFEAFF660EEE6E0F0EED6EDF6A27
:100F5000FD0EDBCFE9FFFE0EDBCFEAFF0C0EE9262C
:100F6000000EEA22EF50DF5C28E2DF50E76E010E50
:100F7000DBCFE9FF020EDBCFEAFFE750E926000EE8
:100F8000EA22EF50E66EFD0EDBCFE9FFFE0EDBCF6F
:100F9000EAFF040EE926000EEA22E9CF14F0EACFB8
:100FA00015F0DF500F011424E96E000E1520EA6ED3
:100FB000E552E750EF6EDF2ACBD7E00E721410092E
:100FC000726EFC0EF76ADB34FE0BF736F66EE40E3B
:100FD000F626380EF7220900F5CFE9FF0800F5CF15
:100FE000EAFFEF9E7792030EE15C02E2E16AE552CE
:100FF000E16EE552E7CFD9FF1200D9CFE6FFE1CF8E
:10100000D9FFF80EDB5001E1B3D0F90EDBCF14F0BD
:10101000FA0EDBCF15F0FB0EDBCF16F0FC0EDBCFAC
:1010200017F0150ED8901732163215321432E80622
:10103000F9E1FD0EDBCFE9FFFE0EDBCFEAFF14C0C6
:10104000EFFFFD0EDB2AFE0E01E3DB2AFD0EDBCFF8
:10105000E9FFFE0EDBCFEAFF010EEF6EF90EDBCFEC
:1010600014F0FA0EDBCF15F0FB0EDBCF16F0FC0E02
:10107000DBCF17F00D0ED89017321632153214321E
:10108000E806F9E1E00E186E196A1A6A1B6A185030
:101090001416195015161A5016161B501716FD0E59
:1010A000DBCFE9FFFE0EDBCFEAFF1450EF12F90EA3
:1010B000DBCF18F0FA0EDBCF19F0FB0EDBCF1AF006
:1010C000FC0EDBCF1BF01AC014F01BC015F00001A2
:1010D000166A176A030E1416156A166A176AFD0E49
:1010E000DBCFE9FFFE0EDBCFEAFF1450EF12FD0E5F
:1010F000DB2AFE0E01E3DB2AF90EDBCF14F0FA0E39
:10110000DBCF15F0FB0EDBCF16F0FC0EDBCF17F0BC
:10111000080ED8901732163215321432E806F9E16B
:101120001450E66EFD0EDBCFE9FFFE0EDBCFEAFFCB
:10113000E552E750EF6EFD0EDB2AFE0E01E3DB2ADF
:10114000F90EDBCF14F0FA0EDBCF15F0FB0EDBCF80
:1011500016F0FC0EDBCF17F01450E66EFD0EDBCF61
:10116000E9FFFE0EDBCFEAFFE552E750EF6E46D017
:10117000F90EDBCF14F0FA0EDBCF15F0FB0EDBCF50
:1011800016F0FC0EDBCF17F0030ED8901732163294
:1011900015321432E806F9E1FD0EDBCFE9FFFE0E51
:1011A000DBCFEAFF14C0EFFFFD0EDB2AFE0E01E3EA
:1011B000DB2A070E146E156A166A176AD950F90FE2
:1011C000E96EFF0EDA20EA6EEE501416EE50151698
:1011D000EE501616EE501716050E1F0B07E0D890AE
:1011E0001436153616361736E806F9E1FD0EDBCF54
:1011F000E9FFFE0EDBCFEAFF14C0EFFFE552E7CFB9
:10120000D9FF1200D9CFE6FFE1CFD9FFFE0EF76A72
:10121000DB34FE0BF736F66EF40EF626380EF722A8
:101220000900F5CFE9FF0800F5CFEAFFFD0EDB501E
:10123000EF16FE0EF76ADB34FE0BF736F66EF40E91
:10124000F626380EF7220900F5CFE9FF0800F5CFA2
:10125000EAFFFD0EDB50EF12E552E7CFD9FF120097
:10126000D9CFE6FFE1CFD9FFE6520E01009100830E
:10127000009500970099226B236B246B009B008DD7
:101280000191009F01930195256B266B276B0197B8
:101290000199070E286F296B2A6F2B6B2C6B939487
:1012A000938695968396040EE66EEBEC04F0E55279
:1012B000010EE66ECEEC04F0E552000906E1E66AA6
:1012C000EBEC04F0E552000EC5D0FC0EDBCFE6FFE0
:1012D00060EC00F0E5520E017D51E82407090E0193
:1012E000286F296B28CE2AFE29CE2BFEFD0EDBCFE0
:1012F000E6FFFE0EDBCFE6FF22EC00F0E552E55202
:10130000E66AE66AE66AE66AE66AE66A91EC00F090
:10131000146E060EE15E1450E66AE66AE66AE66A54
:10132000E66A010EE66E91EC00F0146E060EE15EC8
:101330001450DF6A100EDF5C0FE2E66AE66AE66AC6
:10134000E66AE66ADFCFE6FF91EC03F0146E060E64
:10135000E15E1450DF2AEED7000EE66EE66AFEEC80
:1013600000F0E552E552DF6A100EDF5C0BE2DF4071
:101370007F0BE66EDFCFE6FF43EC01F0E552E5526E
:10138000DF2AF2D7DF6A100EDF5C0EE2DF50E840A2
:10139000E840E8401F0BE66EDFCFE6FF6AEC02F0A4
:1013A000E552E552DF2AEFD7040EE76EFA0EDBCFE7
:1013B000E9FFFB0EDBCFEAFFE750E926000EEA2249
:1013C000EF50E66E030EE76EFA0EDBCFE9FFFB0E81
:1013D000DBCFEAFFE750E926000EEA22EF50E66E87
:1013E000020EE76EFA0EDBCFE9FFFB0EDBCFEAFF62
:1013F000E750E926000EEA22EF50E66E010EE76E96
:10140000FA0EDBCFE9FFFB0EDBCFEAFFE750E92660
:10141000000EEA22EF50E66EFA0EDBCFE9FFFB0E7C
:10142000DBCFEAFFEF50E66EE4EC03F0146E050E3E
:10143000E15E1450000908E10E010187E66AEBEC59
:1014400004F0E552000E06D0E66AEBEC04F0E5523B
:10145000010E00D0E552E552E7CFD9FF1200D9CFF7
:10146000E6FFE1CFD9FFE6520E0100A102D0000E47
:10147000D9D0FD0EDBCFE9FFFE0EDBCFEAFF0C0E6D
:10148000E926000EEA22EF50080803E20189000E67
:10149000C9D0FD0EDBCFE9FFFE0EDBCFEAFFEECFBA
:1014A00014F0EECF15F0EECF16F0EFCF17F023517A
:1014B000100DF3CFE9FFF4CFEAFF020EE9260E0E7E
:1014C000EA2214C0EEFF15C0EEFF16C0EEFF17C0F3
:1014D000EEFFFD0EDBCFE9FFFE0EDBCFEAFF0E0EC7
:1014E000E926000EEA22EF50E66E2351100DF3CFED
:1014F000E9FFF4CFEAFF020EE9260E0EEA220E0EF5
:10150000E926000EEA22E552E750EF6EFD0EDBCF32
:10151000E9FFFE0EDBCFEAFF0F0EE926000EEA22FE
:10152000EF50E66E2351100DF3CFE9FFF4CFEAFF41
:10153000020EE9260E0EEA220F0EE926000EEA221E
:10154000E552E750EF6EFD0EDBCFE9FFFE0EDBCF7D
:10155000EAFF0C0EE926000EEA22EF50E66E235158
:10156000100DF3CFE9FFF4CFEAFF020EE9260E0ECD
:10157000EA220C0EE926000EEA22E552E750EF6E51
:10158000DF6AFD0EDBCFE9FFFE0EDBCFEAFF0C0EBC
:10159000E926000EEA22EF50DF5C36E2FD0EDBCFDB
:1015A000E9FFFE0EDBCFEAFF040EE926000EEA2279
:1015B000E9CF16F0EACF17F0DF500F011624E96EDD
:1015C000000E1720EA6EEF50E66E0E012351100D4B
:1015D000F3CFE9FFF4CFEAFF020EE9260E0EEA226E
:1015E000040EE926000EEA22E9CF14F0EACF15F046
:1015F000DF500F011424E96E000E1520EA6EE5524B
:10160000E750EF6EDF2ABDD70E010093222B020EAA
:10161000225D01E10081232B020E235D01E1236B9A
:10162000010E00D0E552E552E7CFD9FF1200D9CF25
:10163000E6FFE1CFD9FF030EE126020EDB6A0E01C1
:1016400000B386D04BDA0E012A512B1101E17ED076
:1016500028512A1902E129512B1903E10E01030E29
:10166000386F0E01375107E1385102E1000E72D098
:10167000090E376F3807010E37CEDBFFDB5000084D
:1016800033E2010EDB042ACE14F02BCE15F005E078
:10169000D89015321432E804FBE11450010B21E01C
:1016A000010EDB04DF6EDFCF37FE010EDF5206E0F6
:1016B000DFCFF3FFE846FE0BF306FCE1E81C146EF7
:1016C000156A14BE156814500E012A1715502B17F1
:1016D00038CEE6FFDFCFE6FF02EC09F0E552E55237
:1016E00003D0010EDB06CAD70E012451100DF3CF33
:1016F00014F0F4CF15F0020E14260E0E152214C0AD
:10170000E6FF15C0E6FFDFCFE6FF7DEC05F0E55212
:10171000E552E552DF6EFF0EDF5C02E1000E1AD0EB
:10172000DFCFE6FF79EC06F0E552000902E1000E9A
:1017300011D00E0100B100912207225101E1008376
:10174000242B020E245D01E1246B02D0000E02D096
:10175000010E00D0146E030EE15C02E2E16AE55274
:10176000E16E1450E552E7CFD9FF1200020E0E01D0
:10177000225D05E2020ED880225503D002D0000E71
:1017800000D01200D9CFE6FFE1CFD9FF020EE1264B
:101790000E0100BB66D001DA0E012C5160E039CE9B
:1017A000DFFF080EDF5C2EE20E012C51DF5206E057
:1017B000DFCFF3FFE8327F0BF306FCE1010B20E003
:1017C000010EDFCFDBFFDB280E01396F010EF36E58
:1017D000DB5004E0D890F336E806FCE1F350E81C57
:1017E0000E012C172C51DF5206E0DFCFF3FFE83259
:1017F0007F0BF306FCE1000902E10E01396B02D018
:10180000DF2ACFD7010EDBCFE6FF0E012651100DE8
:10181000F3CF14F0F4CF15F0000E1426010E1522AC
:1018200014C0E6FF15C0E6FFA7EC06F0E552E5524E
:10183000E5520E01009D252B2551146E156A800E70
:10184000141801E1155001E1008B262B2651146E6E
:10185000156A800E141801E1155001E1266B010E86
:1018600003D07692000E00D0146E020EE15C02E20C
:10187000E16AE552E16E1450E552E7CFD9FF12005C
:10188000D9CFE6FFE1CFD9FF0E0100AD02D0000EA7
:10189000E5D0009B2751100DF3CFE9FFF4CFEAFF0D
:1018A000000EE926010EEA22EECF14F0EECF15F07D
:1018B000EECF16F0EFCF17F0FD0EDBCFE9FFFE0EF7
:1018C000DBCFEAFF14C0EEFF15C0EEFF16C0EEFF3F
:1018D00017C0EEFF2751100DF3CFE9FFF4CFEAFF59
:1018E000000EE926010EEA220E0EE926000EEA227B
:1018F000EF50E66EFD0EDBCFE9FFFE0EDBCFEAFF19
:101900000E0EE926000EEA22E552E750EF6E27514F
:10191000100DF3CFE9FFF4CFEAFF000EE926010E28
:10192000EA220F0EE926000EEA22EF50E66EFD0EC7
:10193000DBCFE9FFFE0EDBCFEAFF0F0EE926000E3C
:10194000EA22E552E750EF6E2751100DF3CFE9FF81
:10195000F4CFEAFF000EE926010EEA220C0EE9267A
:10196000000EEA22EF50E66EFD0EDBCFE9FFFE0E21
:10197000DBCFEAFF0C0EE926000EEA22E552E75023
:10198000EF6E2751100DF3CFE9FFF4CFEAFF000E01
:10199000E926010EEA220D0EE926000EEA22EF509A
:1019A000E66EFD0EDBCFE9FFFE0EDBCFEAFF0D0E8C
:1019B000E926000EEA22E552E750EF6E2751100D9E
:1019C000F3CFE9FFF4CFEAFF000EE926010EEA2289
:1019D0000C0EE926000EEA22EF50E66EE66A275169
:1019E000100DF3CFE9FFF4CFEAFF000EE926010E58
:1019F000EA22040EE926000EEA22E9CF14F0EACF2B
:101A000015F014C0E6FF15C0E6FFFD0EDBCFE9FFC1
:101A1000FE0EDBCFEAFF040EE926000EEA22E9CF34
:101A200016F0EACF17F016C0E6FF17C0E6FF54EC39
:101A30001AF0186E060EE15E18500E0125072551AA
:101A400001E1008D272B2751146E156A800E1418A2
:101A500001E1155001E1276B010E00D0E552E7CFFF
:101A6000D9FF12000E01255100D01200D9CFE6FF98
:101A7000E1CFD9FFE6527750800B06E07650800B1D
:101A800003E0779E0E01008F7750200B22E0765006
:101A9000200B1FE0779A71AC04D00E010181719C7C
:101AA00018D071AA03D00E01008913D071A803D0F9
:101AB0000E0100870ED071A603D00E01018509D05A
:101AC00071A403D00E01008504D071A202D00E01D2
:101AD0000183E552E552E7CFD9FF1200D9CFE6FFE7
:101AE000E1CFD9FFE652DF6A090EDF5C51E2010E59
:101AF000DF5206E0DFCFF3FFE846FE0BF306FCE122
:101B0000166E176A16BE17680E0128511614146E49
:101B100029511714156E1450151038E0F76ADF3488
:101B2000FE0BF736F66EF40EF626380EF722090095
:101B3000F5CFE9FF0800F5CFEAFFEF50080B14E0FE
:101B4000010EDF5206E0DFCFF3FFE846FE0BF3069F
:101B5000FCE1E81C146E156A14BE156814500E01E1
:101B60002A1715502B1712D0010EDF5206E0DFCFD7
:101B7000F3FFE846FE0BF306FCE1146E156A14BE93
:101B8000156814500E012A1315502B13DF2AACD7F9
:101B9000E552E552E7CFD9FF1200D9CFE6FFE1CFFA
:101BA000D9FFE652DF6A080EDF5C4FE228CE16F05E
:101BB00029CE17F0161E171ED89017321632030EB4
:101BC0001612000E1712010EDF5206E0DFCFF3FFF0
:101BD000E846FE0BF306FCE1186E196A18BE196898
:101BE00016501814146E17501914156E1450151041
:101BF0002AE0F76ADF34FE0BF736F66EE40EF626BF
:101C0000380EF7220900F5CFE9FF0800F5CFEAFF0B
:101C1000EF50800B0CE0010EDF5206E0DFCFF3FF48
:101C2000E846FE0BF306FCE10E012C130CD0010E6E
:101C3000DF5206E0DFCFF3FFE846FE0BF306FCE1E0
:101C4000E81C0E012C17DF2AAED7E552E552E7CF8C
:101C5000D9FF1200D9CFE6FFE1CFD9FF0E0101A7CE
:101C600025D0910E146E340E156E166A14C0E6FF60
:101C700015C0E6FF16C0E6FFFD0EDBCFE6FFFE0E49
:101C8000DBCFE6FFB2EC1AF0176E050EE15E1750DF
:101C9000F350E66EFB0EDBCFE9FFFC0EDBCFEAFF75
:101CA000E552E750EF6E0E0101973AD101A125D020
:101CB000780E146E340E156E166A14C0E6FF15C049
:101CC000E6FF16C0E6FFFD0EDBCFE6FFFE0EDBCF24
:101CD000E6FFB2EC1AF0176E050EE15E1750F350F6
:101CE000E66EFB0EDBCFE9FFFC0EDBCFEAFFE55231
:101CF000E750EF6E0E01019113D100A925D0600EBF
:101D0000146E340E156E166A14C0E6FF15C0E6FF99
:101D100016C0E6FFFD0EDBCFE6FFFE0EDBCFE6FFD3
:101D2000B2EC1AF0176E050EE15E1750F350E66E36
:101D3000FB0EDBCFE9FFFC0EDBCFEAFFE552E750FD
:101D4000EF6E0E010099ECD000A725D0440E146E62
:101D5000340E156E166A14C0E6FF15C0E6FF16C0F5
:101D6000E6FFFD0EDBCFE6FFFE0EDBCFE6FFB2ECBB
:101D70001AF0176E050EE15E1750F350E66EFB0E7B
:101D8000DBCFE9FFFC0EDBCFEAFFE552E750EF6E59
:101D90000E010097C5D001A525D0280E146E340E73
:101DA000156E166A14C0E6FF15C0E6FF16C0E6FF02
:101DB000FD0EDBCFE6FFFE0EDBCFE6FFB2EC1AF046
:101DC000176E050EE15E1750F350E66EFB0EDBCF8B
:101DD000E9FFFC0EDBCFEAFFE552E750EF6E0E01A4
:101DE00001959ED000A525D0100E146E340E156EF0
:101DF000166A14C0E6FF15C0E6FF16C0E6FFFD0E2A
:101E0000DBCFE6FFFE0EDBCFE6FFB2EC1AF0176E7B
:101E1000050EE15E1750F350E66EFB0EDBCFE9FFD7
:101E2000FC0EDBCFEAFFE552E750EF6E0E010095A6
:101E300077D001A325D0F80E146E330E156E166AF6
:101E400014C0E6FF15C0E6FF16C0E6FFFD0EDBCFAF
:101E5000E6FFFE0EDBCFE6FFB2EC1AF0176E050EC2
:101E6000E15E1750F350E66EFB0EDBCFE9FFFC0E90
:101E7000DBCFEAFFE552E750EF6E0E01019350D041
:101E800000AF25D0EC0E146E330E156E166A14C01A
:101E9000E6FF15C0E6FF16C0E6FFFD0EDBCFE6FF4E
:101EA000FE0EDBCFE6FFB2EC1AF0176E050EE15E18
:101EB0001750F350E66EFB0EDBCFE9FFFC0EDBCFD5
:101EC000EAFFE552E750EF6E0E01009F29D001A90D
:101ED00025D0DA0E146E330E156E166A14C0E6FFA6
:101EE00015C0E6FF16C0E6FFFD0EDBCFE6FFFE0ED7
:101EF000DBCFE6FFB2EC1AF0176E050EE15E17506D
:101F0000F350E66EFB0EDBCFE9FFFC0EDBCFEAFF02
:101F1000E552E750EF6E0E01019902D0000E02D09B
:0C1F2000010E00D0E552E7CFD9FF1200FF
:041F2C00D2EC14F0EF
:101F3000FB0EDBCFF3FFDB06F35000090AE020ECD9
:101F400015F0FA0E8BEC15F0F3E1151CF1E1010E22
:101F500001D0000E01EF15F0D2EC14F03B0EE1249D
:101F600002E3E168E652E16E010EDB6A020EDB6A13
:101F7000F90EDBCFF6FFFA0EDBCFF7FFFB0EDBCF60
:101F8000F8FF0800F550DF6EDF5002E125EF14F096
:101F9000250EDF5C02E018EF14F0030EDB6A040E7E
:101FA000DB6A050EDB6A060EDB6A070EDB6A3AECBB
:101FB00014F02D0EDF5C0CE02B0EDF5C09E0200E30
:101FC000DF5C06E0230EDF5C03E0300EDF5C1AE12D
:101FD000DF50300A14E0130A0FE0030A0AE00B0A8C
:101FE00005E0060AE4E1030EDB80E1D7030EDB82A5
:101FF000DED7030EDB84DBD7030EDB86D8D7030ED8
:10200000DB88D5D72A0EDF5C1BE136EC14F084ECBC
:1020100014F010E0030EDB8008680968130EDBCFB4
:102020000DF0140EDBCF0EF011EC1CF0040E06C008
:10203000DBFF03D0130E6DEC14F03AEC14F00BD070
:10204000090EDB6ADBEC14F003E04FEC15F0FAD775
:10205000090E6DEC14F0030EDBB0DB982E0EDF5C86
:102060001BE13AEC14F02A0EDF5C0BE136EC14F0C5
:1020700084EC14F003E1130EBFEC14F03AEC14F00E
:102080000BD0090EDB6ADBEC14F003E04FEC15F02B
:10209000FAD7090EBFEC14F0680EDF5C07E13AECEA
:1020A00014F0680EDF5C1DE1030E18D0740EDF5CC7
:1020B00017E07A0EDF5C14E0480EDF5C06E0540E99
:1020C000DF5C03E05A0EDF5C02E1020E07D06C0E0B
:1020D000DF5C03E06A0EDF5C04E1010E12EC15F038
:1020E000C9DBDF506E0A01E17FD31E0A01E192D104
:1020F000200A01E18FD13F0A01E149D11A0A01E129
:1021000046D10D0A01E143D1200A01E140D13A0A4A
:1021100001E13DD1200A01E13AD1260A01E135D1A0
:102120000D0A01E132D11A0A01E1D9D0200A4AE0B0
:10213000300A1FE0460A0EE0250A01E083D3D95099
:10214000F90FE96EFF0EDA20EA6E010EEE5E000E68
:10215000EE5AEE5A20EC15F0250EE66E95DB03E103
:10216000151C01E169D31CEC15F001E26BD3DB2AED
:1021700069D3080EDB6A040EDB50010806E2040E88
:10218000DB04E4EC14F0DB508BDB080EDB5009E0E1
:10219000030EDB50010B05E172DB01E04DD3080EAD
:1021A000DB6A64DBEFCFDFFF94EC15F003E1151C75
:1021B00001E142D31CEC15F001E3DB2A60DB01E115
:1021C00041D33AD3070EDB5002080FE160EC15F063
:1021D000030E27EC15F00E0EEECFDBFF0F0EEECF49
:1021E000DBFF100EEECFDBFF20D0F70EDBCF17F0BA
:1021F000F80EDBCF18F0020E175E000E185AF70E1D
:1022000017C0DBFFF80E18C0DBFF17C0E9FF18C0CE
:10221000EAFF17EC15F0166A0E0E14C0DBFF0F0E66
:1022200015C0DBFF100E16C0DBFF0E0EDBCFE6FF86
:102230000F0EDBCFE6FF100EDBCFE6FF8DEC1AF0C2
:10224000E552E552E552130E07C0DBFF140E08C03D
:10225000DBFF060EDB5005E0130E5BEC15F001E230
:102260006ADB7FEC15F002E2130E37DB42EC15F06F
:1022700006E0040E5BEC15F002E2050E2EDB030E09
:10228000DBB005D0FCDA01E0D7D2080EDB6A090E1C
:10229000DB6A0E0EDBCFF6FF0F0EDBCFF7FF100E63
:1022A000DBCFF8FF0800F550DF6EDF5014E085EC5F
:1022B00015F011E294EC15F003E1151C01E1BCD21C
:1022C000BBDB01E3DB2A090EDB2AD9500E0FE96ED6
:1022D000000ECBDBE7D7D3DA01E1B4D2ADD2C6DA58
:1022E000110EEECFDBFF120EEDCFDBFF110EDBCFB9
:1022F000E6FF120EDBCFE6FF7FEC1AF0E552E55267
:10230000130EF3CFDBFF140EF4CFDBFF060EDB5012
:1023100004E0130ED0DB01E20EDB7FEC15F002E2ED
:10232000130EDBDAAFDB05E0040EC5DB02E2050EBF
:10233000D4DA030EDBB005D0A2DA01E07DD2080EBC
:10234000DB6A090EDB6A110EDBCFE9FF120EDBCF71
:10235000EAFFEFCFDFFFDF5014E0D7DB12E2E4DB70
:1023600003E1151C01E168D267DB01E3DB2A090EFA
:10237000DB2A110EDB2ADBCFE9FF120EE8E3DB2AB2
:10238000E6D77DDA01E15ED257D2030EDB8E070E6F
:10239000DB0410E195DB040E5ADB0A0EEECFDBFF07
:1023A0000B0EEECFDBFF0C0EEECFDBFF0D0EEECFF4
:1023B000DBFF6CD0070EDB5003082CE1030EDBAE15
:1023C0000DD0B2DA020E76DAEFCF14F0156A166A83
:1023D000176A14AE39D01568166835D0F70EDBCF02
:1023E00015F0F80EDBCF16F0020E155E000E165A31
:1023F000F70E15C0DBFFF80E16C0DBFF15C0E9FFB6
:1024000016C0EAFFEFCF14F00A0E14C0DBFF0B0E6C
:10241000DB6A38D0070EDB50020809E1030EDBAEA1
:1024200004D059DB16AE10D00ED055DB0DD0030E04
:10243000DBAE12D079DA020E3DDAF9DA166A176AE3
:1024400015AE02D016681768E2DA0C0E16C0DBFF74
:102450000D0E17C0DBFF1AD0F70EDBCF16F0F80E0B
:10246000DBCF17F0020E165E000E175AF70E16C0DD
:10247000DBFFF80E17C0DBFF16C0E9FF17C0EAFF4D
:10248000D6DAC5DA0C0EDB6A0D0EDB6A060EDB50FF
:1024900005E1010EF36E050EF3CFDBFF150EDB6ACF
:1024A000160EDB6AD950370F146E000EDA20156E47
:1024B000390E14C0DBFF3A0E15C0DBFF380EDB6AA5
:1024C000080EDB6A0A0EAEDADF50780A12E0200A44
:1024D00010E0280A0CE0200A0AE03F0A06E00D0A94
:1024E00002E0200A08E1020E05D0080E03D0080E13
:1024F000DF26100E97DA030EDBBE02D0DB92DB94F0
:10250000DB50800B24E08ADAD890030EEB50000AEF
:1025100008E6000EEE5C000EEE58000EEE58000EBF
:10252000EE5815E213DA0B680C680D680E68D9ECEA
:102530001BF00A0E02C0DBFF0B0E03C0DBFF0C0E0C
:1025400004C0DBFF0D0E05C0DBFF2D0E08D0030E0F
:10255000DBA202D02B0E03D0DBA408D0200EF36E3A
:10256000170EF3CFDBFF150EDB2A02D0170EDB6A46
:10257000050EDB5003E1B7D901E189D09E0E146E40
:10258000390E156E000E166E070EDBCF17F0186AA7
:10259000196A1A6A17C00BF018C00CF019C00DF0B8
:1025A0001AC00EF0D3D93EEC1CF014500224F36E86
:1025B00015500320F46E16500420F86EF4CFF7FF88
:1025C000F3CFF6FF0800090EF5CFDBFF580EDF5CF6
:1025D0000FE1610EF36E090E7BD90AE3200E146E33
:1025E000090EDBCFE7FF1450E75E090EE7CFDBFFF4
:1025F000070EDBCF14F0156A166A176A0FDA14C0DB
:102600000BF015C00CF016C00DF017C00EF0EECF99
:1026100006F0EECF07F0EECF08F0EFCF09F03EEC7A
:102620001CF009C0EDFF08C0EDFF07C0EDFF06C0BC
:10263000EFFF390EDBCFE9FFDB063A0EDBCFEAFF17
:1026400001E2DB06090EDBCFEFFF150EDB2A4BD9CB
:1026500095E1030EDBA61DD06F0EDF5C06E1C1D94C
:1026600018E3150EDB285BDA14D0780EDF5C09E086
:10267000580EDF5C06E0620EDF5C03E0420EDF5CBA
:1026800008E1020EF36E160EF3CFDBFF02D0150E3B
:10269000DB6A030EDB50100B0EE0040EDBCF14F0F0
:1026A000050EDB50D880145406E2060EDB5003E121
:1026B000040EDB5034DA95D90AE2050EDBCFE7FFD2
:1026C000150EDB50E75E050EE7CFDBFF02D0050EEF
:1026D000DB6A040EDBCF14F0160E45D9D8801454F3
:1026E00014E2160EDBCFE6FF150EDBCFE6FF040E7D
:1026F000DBCFE6FF050EDB50E552E75CE552D88004
:10270000E754E552D880E7545FD9030EDB50010B44
:102710000BE1080EDB5008E0B2D801E08DD0080EC6
:10272000DB50BED8080EDB6A170EDB5007E088D9F5
:10273000170EF1D903E1151C01E17ED0160EDB5016
:1027400016E07ED9300EE66E9FD802E1151C74E0CB
:1027500077D9DFCFE6FF57EC1BF0E552E552E552A3
:10276000F4CF15F00001F31C02E1151C65E0050E25
:10277000DBCF14F0160EDB50D880145409E2050E9E
:10278000DBCFE7FF160EDB50E75E050EE7CFDBFF82
:10279000300EE66E050ECBD94FE1390EDB2ADBCFCA
:1027A000E9FF3A0E01E3DB2ADBCFEAFF090EEFCFA8
:1027B000DBFFDB500EE044D9090EADD902E1151C58
:1027C0003BE0390EDB2ADBCFE9FF3A0EEDE3DB2AF3
:1027D000EBD755D831E1160EDBCFE6FF080EC3D894
:1027E000E552E7245DD82ED0070EDB50030A1CE02B
:1027F000010A14E0030A07E07BD9DBCFEEFF020EEB
:10280000DBCFEDFF1FD0F5D8196A17AE02D01868DC
:1028100019682CD8BCD819C0EEFF14D0EAD817BE5E
:10282000186824D8B4D80ED063D9DBCFEFFF0AD014
:102830007BD905E1151C03E1F368F46810D0FCD8DE
:1028400001E3DB2A79D9C1EF0FF0010EDBCF14F0E1
:10285000020EDBCF15F014C0F3FF15C0F4FF3B0EE2
:10286000E15C02E2E16AE552E16ECBD029D9020EC9
:1028700027EF15F061D90800F550DF6E1200200E29
:10288000E66E080E97EF15F057EC1BF0E552E55297
:10289000E552F3CF14F0F4CF15F00001F31C120051
:1028A000146E156AD950010F4DD91450EE261550EB
:1028B000ED221200185E000E195AF70E18C0DBFF49
:1028C000F80E19C0DBFF18C0E9FF19C0EAFF1200BB
:1028D000DBCFF4FFF350F45C1200DB50E76E040E24
:1028E000E7CFDBFF12000A0EDBCF14F00B0EDBCFBD
:1028F00015F00C0EDBCF16F00D0EDBCF17F01450D9
:102900001510161017101200130EEECFDBFF140E69
:10291000EDCFDBFF130EDBCF14F0140EDBCF15F081
:102920000001800E15141200F70EDBCF18F0F80E20
:10293000DBCF19F01200050EDB50E66ED950130FF5
:1029400001D9E552E750EE6EED6A12000A0EDBCFB8
:1029500006F00B0EDBCF07F00C0EDBCF08F00D0EF0
:10296000DBCF09F01200DBCFE6FF150EDBCFE6FF71
:10297000050EDB50E552E724E552E7241200DB5058
:10298000CED8010EF36E060EF3CFDBFF1200EE5031
:10299000EFCFEAFFE96E16C0EEFF17C0EEFF18C0DA
:1029A000EEFF1200D9CFE6FFDACFE6FFE1CFD9FF85
:1029B000E2CFDAFF1200DFCFE6FFE66A83EC1CF01D
:1029C000E552E552F3501200E76E080EE7CFDBFF49
:1029D0001200EECF14F0EECF15F0EFCF16F0176A1D
:1029E0001200050EDBCF14F0150EDB50D880145406
:1029F0001200010EDBCF16F0020EDBCF17F0186AC3
:102A00001200E552E5CFDAFFE7CFD9FF12000A0E38
:102A100014C0DBFF0B0E15C0DBFF1200D9500A0FEC
:102A2000A2EF15F0F36E070EF3CFDBFF1200EECF2F
:102A300014F0EFCF15F01200010EDB2A020E120087
:102A4000FC0EDBCFE6FFFD0EDBCFE6FF1200145ECF
:102A5000000E155AF70E14C0DBFFF80E15C0DBFF91
:102A600014C0E9FF15C0EAFF1200DA20EA6EEF2A6F
:102A7000EECFF6FF000EEF22EECFF7FFEF22EECF04
:102A8000F8FF1200040EDBCFE6FF130EDB50E55219
:102A9000E75C9ADFDB5004DF060EDB501200090E04
:102AA000DB500A0DF350DF24D00FE76E090EE7CF9D
:102AB000DBFF3AEF14F0DB50F36E050E68EF14F015
:102AC000F70EDBCF14F0F80EDBCF15F01200DFCFDE
:102AD000E6FF44EF14F028DF030EECDEE9EF14F01C
:102AE00096EC0FF0E552E552E552E552000912006E
:102AF000BDDEEE50EFCFEAFFE96E010E1200130EBD
:102B0000DB50F36E040E68EF14F0040EDB50F36E2E
:102B1000090E68EF14F0DBCFE6FF44EF14F0E76E28
:102B2000050EE7CFDBFF12008BDF67EF15F0DBCF81
:102B3000E6FF86DF70EF15F0D950F90FE96EFF0E52
:0E2B400035EF15F0E96E000EDA20EA6E120095
:022B4E00D9CFDD
:102B5000E6FFE1CFD9FFE652948094829484948674
:102B60009488948A968096821F0E82140001806F4A
:102B700053EC18F0E60EE66E000EE66EE66AE66AC4
:102B8000200EE66E30EC09F0146E050EE15E145076
:102B9000000901E1B4D00001706B716B726B736B53
:102BA0007F6B7E6BE66AE66AE66AE66AE66AE66A72
:102BB00091EC00F0146E060EE15E1450E66AE66ACF
:102BC000E66AE66AE66A010EE66E91EC00F0146EC3
:102BD000060EE15E1450DF6A100EDF5C0EE2DF507D
:102BE000E840E840E8401F0BE66EDFCFE6FF6AEC06
:102BF00002F0E552E552DF2AEFD7E66AE66A43ECD7
:102C000001F0E552E552010EE66EE66E43EC01F08E
:102C1000E552E552020EE66EE66E43EC01F0E55237
:102C2000E552020EE66E030EE66E43EC01F0E5524D
:102C3000E552030EE66E040EE66E43EC01F0E5523B
:102C4000E552030EE66E050EE66E43EC01F0E5522A
:102C5000E552040EE66E060EE66E43EC01F0E55218
:102C6000E552040EE66E070EE66E43EC01F0E55207
:102C7000E552050EE66E080EE66E43EC01F0E552F5
:102C8000E552050EE66E090EE66E43EC01F0E552E4
:102C9000E552060EE66E0A0EE66E43EC01F0E552D2
:102CA000E552060EE66E0B0EE66E43EC01F0E552C1
:102CB000E552070EE66E0C0EE66E43EC01F0E552AF
:102CC000E552070EE66E0D0EE66E43EC01F0E5529E
:102CD000E552020EE66E0E0EE66E43EC01F0E55292
:102CE000E552030EE66E0F0EE66E43EC01F0E55280
:102CF000E552E668E668FEEC00F0E552E552BFD822
:102D0000E552E552E7CFD9FF1200D9CFE6FFE1CF78
:102D1000D9FFE6521BD817EC0BF0E50EE66E000E5D
:102D2000E66E810EE66E000EE66E2AEC0EF0E552BF
:102D3000E552E552E552000901E08C8429D8C4EC43
:102D400018F0E552E552E7CFD9FF12000001FA5121
:102D500006E00001805113E00001FA6B17D0C2ECCD
:102D60000BF0600EE66E000EE66E40EC0CF0E552E5
:102D7000E552000901E10BD00001FA2B08D0FAC09E
:102D8000E6FF13D8E5520001FA6F00D000D0120020
:102D90000001FB5107E0FBC0E6FF2CD8E552000123
:102DA000FB6F02D0FB2B00D01200D9CFE6FFE1CFA2
:102DB000D9FFE652FE0EDB50010A03E0FE0EDB6A8D
:102DC00011D06CC0E6FF640EE66E000EE66E97EC66
:102DD00018F0E552E552E552000903E08C72FE0E50
:102DE000DB6A00D0FE0EDB5000D0E552E552E7CFA3
:102DF000D9FF1200D9CFE6FFE1CFD9FFE652DF6A53
:102E0000FE0EDB50020A24E0030A03E0FE0EDB6A3A
:102E10002ED009010051080B13E1080EDF5C10E20F
:102E2000DF50156A740F146E000E152214C0E6FFF1
:102E300015C0E6FF45EC19F0E552E552DF2AE9D767
:102E4000DF5005E0DFCF7CF0FE0EDB2A01D00FD093
:102E5000700EE66E000EE66E2FEC0AF0E552E552BB
:102E6000000901E104D08C70FE0EDB6A00D0FE0E7A
:102E7000DB5000D0E552E552E7CFD9FF1200070E34
:102E8000E66E240EE66E84D8E552E552980EE66EA4
:102E9000180EE66E7DD8E552E552950EE66E2E0EC2
:102EA000E66E76D8E552E552030EE66EE66A020E4D
:102EB000E66EA2D8E552E552E552010EE66EE66EE8
:102EC000020EE66E99D8E552E552E552800EE66EA6
:102ED000020EE66EE66E90D8E552E552E552900E8F
:102EE000E66E060EE66E020EE66E86D8E552E552F6
:102EF000E552800EE66E070EE66E020EE66E7CD898
:102F0000E552E552E552100EE66E080EE66E020E30
:102F1000E66E72D8E552E552E552210EE66E200EBD
:102F2000E66E020EE66E68D8E552E552E552800E76
:102F3000E66E3A0EE66E2CD8E552E552600EE66E6D
:102F40003F0EE66E25D8E552E552400EE66E3E0E87
:102F5000E66E1ED8E552E552E66A030EE66E020EF4
:102F6000E66E4AD8E552E552E552040EE66E360E9C
:102F7000E66E0ED8E552E552E66A360EE66E08D8E1
:102F8000E552E552230EE66EC1EC1CF0E55212004C
:102F9000D9CFE6FFE1CFD9FFE652FE0EDB50E824A1
:102FA0007E0B010FDF6E8B940000DF50C96EFD0EAB
:102FB000DB50C96EC6BEFBD700008B84010E00D06B
:102FC000E552E552E7CFD9FF1200D9CFE6FFE1CFB6
:102FD000D9FFE652FE0EDB50E8247E0BDF6E8B94A9
:102FE0000000DF50C96EC7A0FED7C95000D0E5521F
:102FF000E552E7CFD9FF1200D9CFE6FFE1CFD9FFE5
:10300000E652FD0EDBCF14F0FE0EDBCF15F0D890AC
:1030100014361536FE0E14160F0E1516010E14106A
:10302000DF6E8B940000DF380F0BC96EDF38F00BBA
:10303000C96EC6BEFBD7FC0EDB50C96EC6BEFBD741
:1030400000008B84010E00D0E552E552E7CFD9FF96
:103050001200D9CFE6FFE1CFD9FFE652FD0EDBCF5C
:1030600014F0FE0EDBCF15F0D89014361536FE0E98
:1030700014160F0E1516000E1410DF6E8B94000040
:10308000DF380F0BC96EDF38F00BC96EC6BEFBD739
:10309000DF50C96EC7A0FED7C95000D0E552E55237
:0630A000E7CFD9FF12008A
:0A30A600949A949694948B84090187
:1030B00000910083156B166B176B186B00950087DA
:1030C0000099196B1A6B1B6B1C6BF00EC61402096E
:1030D000C66EC68A1200D9CFE6FFE1CFD9FF09013B
:1030E00000A102D0000E1FD0010E1725E96E090EB7
:1030F0001821EA6EFE0EDBCFEFFF0093152B000EBA
:1031000016230A0E151901E1165101E10081172B52
:10311000000E18230A0E171901E1185102E1176B6E
:10312000186B010E00D0E552E7CFD9FF1200D9CFBE
:10313000E6FFE1CFD9FFE6528B940000DF6AFC0E78
:10314000DB50DF5C18E2DF50E76EFD0EDBCFE9FFFE
:10315000FE0EDBCFEAFFE750E926000EEA22EF5031
:10316000E66EB9DFE552000904E100008B84000E31
:1031700006D0DF2AE4D700008B84010E00D0E55290
:10318000E552E7CFD9FF1200090100B323D0010EA9
:103190000001FC25E96E090EFD21EA6EEF50C96EB3
:1031A000C6AE03D0C69E000E17D0090100B1009133
:1031B0001507000E165B1551161101E10083000181
:1031C000FC2B000EFD230A0EFC1901E1FD5102E16A
:1031D000FC6BFD6B010E00D0120009010A0E155D9B
:1031E000000E16590FE215C914F016C915F00A0E93
:1031F000D8801456000E155614C0F3FF15C0F4FF06
:1032000004D003D0F36AF46A00D01200D9CFE6FFED
:10321000E1CFD9FFE652C7B002D0000E31D0C7507F
:10322000800B08E1C650400B05E009010089C95038
:10323000DF6EC69C090100B521D0C950DF6E009930
:1032400000970B0E1B25E96E090E1C21EA6EDFCFDD
:10325000EFFF192B000E1A230A0E191901E11A515A
:1032600001E100851B2B000E1C230A0E1B1901E136
:103270001C5102E11B6B1C6B010E02D0000E00D032
:10328000E552E552E7CFD9FF1200D9CFE6FFE1CFF3
:10329000D9FF090100A702D0000E28D000950B0E1F
:1032A0000001FE25E96E090EFF21EA6EEF50E66E81
:1032B000FD0EDBCFE9FFFE0EDBCFEAFFE552E75064
:1032C000EF6E09011907000E1A5B19511A1101E17D
:1032D00000870001FE2B000EFF230A0EFE1901E1FC
:1032E000FF5102E1FE6BFF6B010E00D0E552E7CF0C
:0C32F000D9FF12000901195100D0120092
:0432FC00DACFE4FF42
:10330000E2CFDAFFE9CFE4FFEACFE4FFF6CFE4FF54
:10331000F7CFE4FFF5CFE4FFF3CFE4FFF4CFE4FF12
:10332000FACFE4FF00EE00F0140EE80403E3EECF62
:10333000E4FFFBD700EE14F0080EE80403E3EECF41
:10334000E4FFFBD7E652D9CFE6FFE1CFD9FF100E5D
:10335000E126F2B2F29236EC0DF0100EE15C02E2E0
:10336000E16AE552E16EE552E7CFD9FFE55200EEA2
:103370001BF0080EE80403E3E5CFEDFFFBD700EEFA
:1033800013F0140EE80403E3E5CFEDFFFBD7E5CF20
:10339000FAFFE5CFF4FFE5CFF3FFE5CFF5FFE5CF8B
:1033A000F7FFE5CFF6FFE5CFEAFFE5CFE9FFE5CF91
:1033B000DAFF1100D8CFE4FFE0CFE4FFE46EDACF0C
:1033C000E4FFE2CFDAFFE652E552E5CFDAFFE5505F
:0A33D000E5CFE0FFE5CFD8FF1000C5
:0633DA00496E76616C698A
:1033E000642063616E206D73670D0A0043616E2077
:1033F0004572726F720D0A0043414E206275666617
:103400006572207278205761726E696E670D0A00CE
:1034100043414E206275666665722074782057615C
:10342000726E696E670D0A0043414E2062756666D2
:103430006572207278204275732D506173736976BE
:10344000650D0A0043414E20627566666572207400
:1034500078204275732D506173736976650D0A008B
:1034600043414E206275666665722074782042750D
:10347000732D6F66660D0A0043414E2062756666C5
:103480006572207278206F766572666C6F770D0AB0
:103490000043616E20496E76616C696420626175DB
:0834A00064726174650D0A00FD
:0834A800D9CFE6FFDACFE6FF01
:1034B000FA0EE3CFD9FFFB0EE3CFDAFFFC0EE3CF2A
:1034C000E9FFFD0EE3CFEAFFE9CFF3FFEACFF4FF18
:1034D000F80EE35003E1F90EE35008E0F80EE306BE
:1034E00002E2F90EE306DECFEEFFF2D7FF0EE3CFE6
:1034F000DAFFE552FF0EE3CFD9FFE5521200FE0ED0
:10350000E3CFE9FFFF0EE3CFEAFFF36AF46AEE527E
:1035100003E0F34AF42AFBD71200FF0EE3CFF8FFD3
:10352000E552FF0EE3CFF7FFE552FF0EE3CFF6FFC4
:10353000E552E66AE66AE66A0900F55209E0FD0E20
:10354000E32A05E1FE0EE32A02E1FF0EE32AF4D7A7
:10355000FD0EE3CF07F0FE0EE3CF08F0FF0EE3CF42
:0435600009F012005C
:0C356400D9CFE6FFDACFE6FFE1CFD9FFB8
:10357000E2CFDAFFE652E652E652E652D950F90FB0
:10358000146EFF0EDA20156E020E14C0DBFF030E60
:1035900015C0DBFF020EDBCFE6FF030EDBCFE6FF3D
:1035A000F90EDBCFE6FFFA0EDBCFE6FFFB0EDBCF3B
:1035B000E6FFD950FC0FE66EFF0EDA20E66EACECAB
:1035C0000FF0146E070EE15C02E2E16AE552E16E73
:1035D0001450F3CFDEFFF4CFDDFFFC0EDBCFE9FFAD
:1035E000FD0EDBCFEAFFEF6ADECF14F0DDCF15F082
:1035F00014C0F3FF15C0F4FF040EE15C02E2E16ABF
:10360000E552E16EE552E5CFDAFFE7CFD9FF1200D0
:103610001E0EF66E000EF76E000EF86E0E0109001B
:10362000F550326F0900F550336F03E1326701D076
:103630003DD00900F5502D6F0900F5502E6F09009F
:10364000F5502F6F09000900F550E96E0900F5509B
:10365000EA6E090009000900F550306F0900F550C5
:10366000316F09000900F6CF34FEF7CF35FEF8CFF1
:1036700036FE2DCEF6FF2ECEF7FF2FCEF8FF0E0131
:10368000305302E1315307E00900F550EE6E300788
:10369000F8E23107F9D734CEF6FF35CEF7FF36CE54
:0E36A000F8FF0E013207000E335BBFD7120099
:0236AE00D9CF72
:1036B000E6FFDACFE6FFE1CFD9FFE2CFDAFFFB0E7C
:1036C000DBCF14F0FC0EDBCF15F00001800E1514DB
:1036D0001AE1FB0EDBCFE9FFFC0EDBCFEAFFEECFFA
:1036E000F3FFEDCFF4FFEE2A000EEF22F3CFE9FF58
:1036F000F4CFEAFFFD0EDBCFEFFFEF50156AF36E5C
:1037000015C0F4FF10D0FB0EDB50FE0806E1FD0EE5
:10371000DBCFE6FFB3EC1CF005D0FD0EDBCFE6FF00
:1037200003EC00F0E552E552E5CFDAFFE7CFD9FF31
:02373000120085
:0E3732000BD8A7EC15F0F19CF288F292F28C05
:10374000F28E85EC16F0FDD712000F015D6B5C6BFD
:10375000926A936A946A956A966A926A936A946A7C
:10376000956A966A9590959295948C908C928C948B
:10377000938094809482948494869488948A96808A
:103780009682929092929294929A939A939293980C
:10379000969489828A828994899A8A988D94899A42
:1037A0008D9489908A9A9598959A8C988C9A9596EA
:0237B000120005
:0E37B20006500B02F3CF02F0F4CF03F00C022E
:1037C000F3500326000EF420046E06500D02F35051
:1037D0000426000EF420056E06500E02F350052656
:1037E00007500B02F3500326F4500422000E05226A
:1037F00007500C02F3500426F450052207500D0226
:10380000F350052608500B02F3500426F45005220D
:1038100008500C02F350052609500B02F350052600
:02382000120094
:0E38220009C013F008C012F008500D02F4CFD8
:1038300007F0F3CF06F009500E02F4CF09F0F3CFF2
:1038400008F00D02F3500726F4500822E86A092216
:1038500012500E02F3500726F4500822E86A09229B
:103860000EAE37EF1CF01250085E1350095A13AE1B
:0C387000000C0D50085E0E50095A000CB0
:04387C00056A046A6B
:10388000036A026A200EE76ED890063607360836BD
:10389000093602360336043605360B50025C0C50EE
:1038A00003580D5004580E50055809E30B50025EA2
:1038B0000C50035A0D50045A0E50055A062AE72E92
:0438C000E4D7120037
:0C38C400E00EE40EE80EEC0EF00EF40E28
:1038D000480E4C0E500E540E580E5C0E600E640EC8
:1038E000680E6C0E600F300F800E900EA00EB00EA2
:1038F000C00ED00E200F100F000F800E900EA00EE5
:06390000B00EC00ED00E57
:0A390600F36AF46AFF0EE124E96E93
:10391000FF0EE220EA6EED6607D02F0EEF6404D0B2
:0A3920003A0EEF6001D0F32A120006
:06392A00410EF36E00EEF9
:1039300000F00E0E01D81200EA6002D0EE6AFCD749
:0A394000F350E9601200EE6AFCD7B4
:06394A001DEE00F02DEE61
:1039500000F0F86A019C08EC1BF007EC00F099EC11
:063960001BF0FBD7120072
:0A396600FF0EE350ACBA04D0AF6AC4
:10397000AB8EAC8A949CACA2FED7AD6EF36EF46AAB
:02398000120033
:0E398200FF0EE3501C6E1B0E00D001D0200E75
:0E399000E76EE72EFED71C2EFAD700D01200ED
:02399E003031C6
:0F39A00032333435363738396162636465660017
:0139AF000116
:1039B00004010203020302020704030606040401D1
:0539C00007070F0000E5
:020000040030CA
:0100000015EA
:0100010012EC
:010002001FDE
:010003000CF0
:010005008971
:010006008178
:010008000FE8
:01000900C036
:01000A000FE6
:01000B00E014
:01000C000FE4
:01000D0040B2
:00000001FF
