:020000040000FA
:0600000078EF01F0120090
:020006001200E6
:0600080016EF00F01200EB
:02000E000000F0
:060018007EEF00F0120073
:02001E000100DF
:0C0020000E0000000A0E000002000000AC
:04002C00DACFE4FF44
:10003000E2CFDAFFE9CFE4FFEACFE4FFF6CFE4FF57
:10004000F7CFE4FFF5CFE4FFF3CFE4FFF4CFE4FF15
:10005000FACFE4FF00EE00F0020EE80403E3EECF77
:10006000E4FFFBD700EE02F0000EE80403E3EECF5E
:10007000E4FFFBD7E652D9CFE6FFE1CFD9FF040E6C
:10008000E126F2A40CD0F29AF2948C70DC0EE66EAB
:100090000B0EE66E30EC01F0E552E552F28AF2B258
:1000A000F292040EE15C02E2E16AE552E16EE55291
:1000B000E7CFD9FFE55200EE01F0000EE80403E3BC
:1000C000E5CFEDFFFBD700EE01F0020EE80403E3FD
:1000D000E5CFEDFFFBD7E5CFFAFFE5CFF4FFE5CFA6
:1000E000F3FFE5CFF5FFE5CFF7FFE5CFF6FFE5CF6F
:1000F000EAFFE5CFE9FFE5CFDAFF1100D8CFE4FF53
:10010000E0CFE4FFE46EDACFE4FFE2CFDAFFE652BD
:10011000E552E5CFDAFFE550E5CFE0FFE5CFD8FFC8
:020120001000CD
:0E012200D9CFE6FFE1CFD9FF040EE12614D8B5
:10013000970EE66E4CEC01F0E552F28CF28ED58E05
:100140000000FED7040EE15C02E2E16AE552E16ED6
:10015000E552E7CFD9FF12000F015D6B5C6B926A2D
:10016000936A946A956A966A926A936A946A956A9F
:10017000966A9590959295948C908C928C9493809D
:1001800094809482948494869488948A96809682AB
:10019000929092929294929A939A93929398969420
:1001A00089828A828994899A8A988D94899A8D9471
:1001B00089908A9A9598959A8C988C9A95968C960F
:0201C00012002B
:0E01C2001E0EF66E000EF76E000EF86E0E01A9
:1001D0000900F550056F0900F550066F03E105674A
:1001E00001D03DD00900F550006F0900F550016FB6
:1001F0000900F550026F09000900F550E96E090089
:10020000F550EA6E090009000900F550036F090076
:10021000F550046F09000900F6CF07FEF7CF08FE7E
:10022000F8CF09FE00CEF6FF01CEF7FF02CEF8FFB1
:100230000E01035302E1045307E00900F550EE6E8E
:100240000307F8E20407F9D707CEF6FF08CEF7FF59
:1002500009CEF8FF0E010507000E065BBFD712009E
:10026000D9CFE6FFDACFE6FFE1CFD9FFE2CFDAFF61
:10027000E652E652FC0EDBCFDEFFDBCFDDFF010EE8
:10028000DB50D76EDF50D66EE552E552E552E5CF32
:08029000DAFFE7CFD9FF1200ED
:08029800D9CFE6FFDACFE6FF43
:1002A000E1CFD9FFE2CFDAFFFD0EDB507F0BD56E39
:1002B000D76AD66AF294FD0EDBAE02D0F28A01D084
:1002C000F29AD58EE552E5CFDAFFE7CFD9FF1200DB
:1002D000410EF36E00EE00F00E0E01D81200EA603F
:1002E00002D0EE6AFCD7F350E9601200EE6AFCD748
:1002F0001DEE00F02DEE00F0F86A019CE1EC00F03C
:0C03000003EC00F091EC00F0FBD71200C1
:020000040030CA
:0100000015EA
:0100010012EC
:010002001FDE
:010003000CF0
:010005008971
:010006008178
:010008000FE8
:01000900C036
:01000A000FE6
:01000B00E014
:01000C000FE4
:01000D0040B2
:00000001FF
