:020000040000FA
:060000004AEF22F012009D
:020006001200E6
:060008004EEF1FF0120094
:06001800DCEF1FF01200F6
:02001E000100DF
:0C002000C4440000E50100000E000000D8
:04002C00D9CFE6FF43
:10003000E1CFD9FFE6526E50E00BE842E842E842D9
:10004000E842E842DF6E6E50E00BE842E842E842E8
:10005000E842E842040805E0040EE66E87EC05F08D
:10006000E552FE0EDB50766EFE0EDBCF7FFEFD0E00
:10007000DBCFE6FFFE0EDB50030BE552E7100E016F
:100080007E6F6E50E00BE842E842E842E842E84208
:10009000DF5C05E0DFCFE6FF87EC05F0E552E552D7
:1000A000E552E7CFD9FF1200D9CFE6FFE1CFD9FF64
:1000B000E6526E50E00BE842E842E842E842E8428D
:1000C000DF6E6E50E00BE842E842E842E842E84268
:1000D000040805E0040EE66E87EC05F0E552FE0E1E
:1000E000DBCF7DFE6E50E00BE842E842E842E8429A
:1000F000E842DF5C05E0DFCFE6FF87EC05F0E55284
:10010000E552E552E7CFD9FF1200D9CFE6FFE1CFA4
:10011000D9FFE6526E50E00BE842E842E842E8427E
:10012000E842DF6E6E50E00BE842E842E842E84207
:10013000E842040805E0040EE66E87EC05F0E5529F
:10014000FE0EDB50010A1FE0010A01E038D0F90E73
:10015000DBCFE6FFD950FA0FE96EFF0EDA20EA6E28
:10016000EECFE6FFEECFE6FFEECFE6FFEFCFE6FF06
:10017000F80EE66E0E0EE66E9CEC08F0106E070EA2
:10018000E15E10501CD0F90EDBCFE6FFD950FA0F1C
:10019000E96EFF0EDA20EA6EEECFE6FFEECFE6FF65
:1001A000EECFE6FFEFCFE6FFFC0EE66E0E0EE66E3C
:1001B0009CEC08F0106E070EE15E105000D06E50FF
:1001C000E00BE842E842E842E842E842DF5C05E052
:1001D000DFCFE6FF87EC05F0E552E552E552E7CFC9
:1001E000D9FF1200D9CFE6FFE1CFD9FFE6526E501A
:1001F000E00BE842E842E842E842E842DF6E6E5037
:10020000E00BE842E842E842E842E842040805E040
:10021000040EE66E87EC05F0E552FF0EE76EFD0E6C
:10022000DBCF10F0FE0EDBCF11F0E7501016116A95
:1002300010C046FEFD0EDBCF10F0FE0EDBCF11F03E
:1002400011C010F0116A10500E01476F6E50E00B94
:10025000E842E842E842E842E842DF5C05E0DFCFFE
:10026000E6FF87EC05F0E552E552E552E7CFD9FF0E
:100270001200D9CFE6FFE1CFD9FFE6526E50E00B76
:10028000E842E842E842E842E842DF6E010EF36EDF
:10029000FD0EDB5004E0D890F336E806FCE1F350A5
:1002A0000E017D1502E0000E07D16E50E00BE84212
:1002B000E842E842E842E842040805E0040EE66E3F
:1002C00087EC05F0E552FE0EDB500F0A01E1D7D0B6
:1002D000010A01E1CAD0030A01E1B9D0010A01E132
:1002E000ACD0070A01E19BD0010A01E18ED0030ADC
:1002F00001E17DD0010A71E00F0A61E0010A55E0D9
:10030000030A45E0010A39E0070A29E0010A1DE075
:10031000030A0DE0010A01E0C0D0FD0EDB500E0122
:100320000F0BF36EF00E7115F310716FB6D0FD0E5A
:10033000DB500E010F0BF36EF346F346F346F34624
:100340000F0E7115F310716FA8D0FD0EDB500E016A
:100350000F0BF36EF00E7215F310726F9ED0FD0E40
:10036000DB500E010F0BF36EF346F346F346F346F4
:100370000F0E7215F310726F90D0FD0EDB500E0150
:100380000F0BF36EF00E7315F310736F86D0FD0E26
:10039000DB500E010F0BF36EF346F346F346F346C4
:1003A0000F0E7315F310736F78D0FD0EDB500E0136
:1003B0000F0BF36EF00E7415F310746F6ED0FD0E0C
:1003C000DB500E010F0BF36EF346F346F346F34694
:1003D0000F0E7415F310746F60D0FD0EDB500E011C
:1003E0000F0BF36EF00E7515F310756F56D0FD0EF2
:1003F000DB500E010F0BF36EF346F346F346F34664
:100400000F0E7515F310756F48D0FD0EDB500E0101
:100410000F0BF36EF00E7615F310766F3ED0FD0ED7
:10042000DB500E010F0BF36EF346F346F346F34633
:100430000F0E7615F310766F30D0FD0EDB500E01E7
:100440000F0BF36EF00E7715F310776F26D0FD0EBD
:10045000DB500E010F0BF36EF346F346F346F34603
:100460000F0E7715F310776F18D0FD0EDB500E01CD
:100470000F0BF36EF00E7815F310786F0ED0FD0EA3
:10048000DB500E010F0BF36EF346F346F346F346D3
:100490000F0E7815F310786F00D06E50E00BE84225
:1004A000E842E842E842E842DF5C04E0DFCFE6FFF2
:1004B0002EDBE552010E00D0E552E552E7CFD9FF21
:1004C0001200D9CFE6FFE1CFD9FFE6526E50E00B24
:1004D000E842E842E842E842E842DF6E6E50E00B54
:1004E000E842E842E842E842E842040804E0040E38
:1004F000E66E0DDBE552FE0EDB500F0A01E1E6D0A1
:10050000010A01E1D5D0030A01E1C6D0010A01E1E7
:10051000B9D0070A01E1A6D0010A01E195D0030A8A
:1005200001E186D0010A01E179D00F0A67E0010AF2
:1005300057E0030A49E0010A3DE0070A2BE0010AFF
:100540001BE0030A0DE0010A01E0D0D0FD0EDB50F4
:100550000E01030BF36EFC0E7915F310796FC6D004
:10056000FD0EDB500E01030BF36EF346F346F30E64
:100570007915F310796FBAD0FD0EDB500E01030B25
:10058000F36EF346F346F346F346CF0E7915F310B8
:10059000796FACD0FD0EDB500E01030BF36EF3460A
:1005A000F346F346F346F346F3463F0E7915F31050
:1005B000796F9CD0FD0EDB500E01030BF36EFC0E29
:1005C0007A15F3107A6F92D0FD0EDB500E01030BFB
:1005D000F36EF346F346F30E7A15F3107A6F86D076
:1005E000FD0EDB500E01030BF36EF346F346F346AC
:1005F000F346CF0E7A15F3107A6F78D0FD0EDB50EC
:100600000E01030BF36EF346F346F346F346F3464F
:10061000F3463F0E7A15F3107A6F68D0FD0EDB506B
:100620000E01030BF36EFC0E7B15F3107B6F5ED097
:10063000FD0EDB500E01030BF36EF346F346F30E93
:100640007B15F3107B6F52D0FD0EDB500E01030BB8
:10065000F36EF346F346F346F346CF0E7B15F310E5
:100660007B6F44D0FD0EDB500E01030BF36EF3469F
:10067000F346F346F346F346F3463F0E7B15F3107D
:100680007B6F34D0FD0EDB500E01030BF36EFC0EBE
:100690007C15F3107C6F2AD0FD0EDB500E01030B8E
:1006A000F36EF346F346F30E7C15F3107C6F1ED009
:1006B000FD0EDB500E01030BF36EF346F346F346DB
:1006C000F346CF0E7C15F3107C6F10D0FD0EDB507F
:1006D0000E01030BF36EF346F346F346F346F3467F
:1006E000F3463F0E7C15F3107C6F00D06E50E00B8C
:1006F000E842E842E842E842E842DF5C04E0DFCF5B
:10070000E6FF05DAE552E552E552E7CFD9FF1200E0
:10071000D9CFE6FFE1CFD9FFE6526E50E00BE842B9
:10072000E842E842E842E842DF6E6E50E00BE84201
:10073000E842E842E842E842040804E0040EE66EBB
:10074000E6D9E552F90EDBCFE6FFD950FA0FE96E94
:10075000FF0EDA20EA6EEECFE6FFEECFE6FFEECF39
:10076000E6FFEFCFE6FFFE0EF76ADB34FE0BF7364F
:10077000F66EEA0EF626420EF7220900F5CFE6FFE6
:100780000800F5CFE6FF9CEC08F0106E070EE15E66
:1007900010506E50E00BE842E842E842E842E8427E
:1007A000DF5C04E0DFCFE6FFB2D9E552E552E55267
:1007B000E7CFD9FF1200D9CFE6FFE1CFD9FF040E72
:1007C000E1266E50E00BE842E842E842E842E842A7
:1007D000E76E030EE7CFDBFF6E50E00BE842E84226
:1007E000E842E842E842040804E0040EE66E8FD9CD
:1007F000E552FD0EDB50000801E3B9D0090EF36E9F
:10080000FD0EDBCFF4FFF350F45C01E3B0D0FC0E3F
:10081000DB50000801E3ABD0090EF36EFC0EDBCF1A
:10082000F4FFF350F45C01E3A2D0FB0EDB500108AF
:1008300001E39DD0090EF36EFB0EDBCFF4FFF35006
:10084000F45C01E394D0FE0EDB50000801E38FD08E
:10085000050EF36EFE0EDBCFF4FFF350F45C01E304
:1008600086D0FC0EDBCFE6FFFD0EDB50E552E72421
:10087000106EFB0EDB50105C01E277D0FB0EDBCF7D
:1008800011F0FE0EDB50D88011546FE2FB0EDBCF6F
:10089000E6FFFC0EDBCFE6FFFD0EDBCFE6FFFE0E34
:1008A000DB50E552E724E552E724E552E724E76E02
:1008B000020EE7CFDBFFDB50070801E3C5D01A0EBD
:1008C000F36E020EDBCFF4FFF350F45C01E3BCD017
:1008D000040EE66E1CD9E5520E01449D448FFE0EB7
:1008E000DB04030BF36EF346F346F346F346F3469D
:1008F000F3463F0E4315F310436FFD0EDB04070B69
:10090000F36EF80E4415F310446FFC0EDB04070B76
:10091000F36EF346F346F346C70E4415F310446FE7
:10092000FB0EDB04070BF36EF80E4515F310456F55
:10093000FB0EDBCFE6FFFC0EDBCFE6FFFD0EDBCFD1
:10094000E6FFFE0EDB50E552E724E552E724E552D0
:10095000E724E76E020EE7CFDBFFDBCFE6FF010EF9
:10096000F36EF80EDB5009E004D0000E6FD0000EDD
:100970006DD0D890F336E806FCE1F350E552E7027B
:10098000F350146E156AF90EDBCF12F0FA0EDBCFBE
:1009900013F0020ED89012361336E806FBE112C0AF
:1009A00006F013C007F014C00BF015C00CF002ECF9
:1009B00022F006C010F007C011F01006000E115A08
:1009C00010C0DEFF11C0DDFFDECF10F0DDCF11F073
:1009D000105C000E11581EE3DECF12F0DDCF13F0D5
:1009E0003F0E125C000E135815E2DF500E013F0B54
:1009F000F36EC00E4315F310436F6E50E00BE842E8
:100A0000E842E842E842E842F36E030EDB50F35C52
:100A100019E013D06E50E00BE842E842E842E842A9
:100A2000E842F36E030EDB50F35C05E0030EDBCF10
:100A3000E6FF6DD8E552000E09D0030EDBCFE6FFCE
:100A400066D8E552010E02D0000E00D0106E040EE2
:100A5000E15C02E2E16AE552E16E1050E552E7CF57
:100A6000D9FF1200D9CFE6FFE1CFD9FFFD0EDB5051
:100A70000F0809E3FE0EDB50020F106E020E0E018E
:100A80007D15101803E1000E21D01ED0FE0EDB50A4
:100A9000030FE66EFD0EDBCFE6FF39EC01F0E55209
:100AA000E552FE0EDB50030FF66EF76AD890F6366D
:100AB000F7361A0EF626430EF7220900F5CFE9FFA6
:100AC0000800F5CFEAFFEF84010E00D0E552E7CF32
:100AD000D9FF1200D9CFE6FFE1CFD9FFFE0EDB042C
:100AE00002E0000E10D0FE0EDB50030BF36EF34657
:100AF000F346F346F346F346F3463F0E7214F31003
:100B0000726E010E00D0E552E7CFD9FF1200D9CFA7
:100B1000E6FFE1CFD9FFFE0EDB50070BF36EF34685
:100B2000F346F346F346F3461F0E6F14F3106F6E51
:100B30006E50E00BE842E842E842E842E842106EBC
:100B4000FE0EDB50105C01E0F3D7E552E7CFD9FF92
:100B50001200D9CFE6FFE1CFD9FFE652080EDF6ED3
:100B6000000EDF5C28E3DF5002080FE2DF500208CE
:100B700020E2DF04106E010E105204E0E846FE0B86
:100B80001006FCE10E017D1514E0F76ADF34FE0B60
:100B9000F736F66E1A0EF626430EF7220900F5CF49
:100BA000E9FF0800F5CFEAFFEF50080B02E1DF5044
:100BB00004D0DF06D5D7FF0E00D0E552E552E7CFCF
:100BC000D9FF1200D9CFE6FFE1CFD9FFE652DF6AA5
:100BD000080EDF5C27E2DF5001080EE2010EDF5253
:100BE00006E0DFCFF3FFE846FE0BF306FCE10E0163
:100BF0007D1502E015D014D0F76ADF34FE0BF7360E
:100C0000F66E0A0EF626430EF7220900F5CFE9FF2D
:100C10000800F5CFEAFFEF50800B02E0DF5004D070
:100C2000DF2AD6D7FF0E00D0E552E552E7CFD9FF35
:100C30001200D9CFE6FFE1CFD9FF040EE126FE0E68
:100C4000DB50FF0813E0FE0EF76ADB34FE0BF736CD
:100C5000F66E1A0EF626430EF7220900F5CFE9FFCD
:100C60000800F5CFEAFFEF50080B08E072DFDF6EF7
:100C7000FF0EDF5C02E1FF0ECFD016D0FE0EDB5080
:100C800002080FE2FE0EDB04106E010E105204E0AB
:100C9000E846FE0B1006FCE10E017D1502E1FF0E99
:100CA000BBD0FE0EDB50DF6EFE0EDB50FF0A26E0EF
:100CB000FC0A1AE0070A18E0010A16E0030A14E029
:100CC000010A12E0070A06E0010A04E0030A02E052
:100CD000FF0EA2D0FE0EDB50030F1F0BF36EE00ED3
:100CE0007214F310726E0CD0FE0EDB041F0BF36E49
:100CF000E00E7214F310726E728802D001D000D030
:100D0000FC0EDBCFE9FFFD0EDBCFEAFF100EE9267C
:100D1000000EEA22EF50E66EFC0EDBCFE9FFFD0E7F
:100D2000DBCFEAFFEECFE6FFEECFE6FFEECFE6FF4A
:100D3000EFCFE6FF610EE66E0F0EE66EFDD9106E88
:100D4000070EE15E1050FC0EDBCFE9FFFD0EDBCF9E
:100D5000EAFF0C0EE926000EEA22EF50656EFC0E4B
:100D6000DBCFE9FFFD0EDBCFEAFF110EE926000E17
:100D7000EA22EF50E8B0658CE8A0659CD950020FDC
:100D8000E96EDACFEAFF660EEE6E0F0EED6E010E23
:100D9000DB6AFC0EDBCFE9FFFD0EDBCFEAFF0C0EBA
:100DA000E926000EEA22EF50F36E010EDBCFF4FFCE
:100DB000F350F45C2BE2FC0EDBCFE9FFFD0EDBCF42
:100DC000EAFF040EE926000EEA22E9CF10F0EACF8E
:100DD00011F0010EDB500F011024E96E000E1120FE
:100DE000EA6EEF50E66E010EDB50E76E020EDBCFCF
:100DF000E9FF030EDBCFEAFFE750E926000EEA2207
:100E0000E552E750EF6E010EDB2AC3D7E00E7214F5
:100E10001009726EDF5000D0106E040EE15C02E229
:100E2000E16AE552E16E1050E552E7CFD9FF1200BA
:100E3000D9CFE6FFE1CFD9FFFE0EDB5002080FE26B
:100E4000FE0EDB04106E010E105204E0E846FE0BAD
:100E50001006FCE10E017D1502E1000E13D0FE0E1E
:100E6000F76ADB34FE0BF736F66E1A0EF626430EE3
:100E7000F7220900F5CFE9FF0800F5CFEAFFEF867A
:100E8000010E00D0E552E7CFD9FF1200D9CFE6FF1F
:100E9000E1CFD9FF030EE126FD0EDBCFE9FFFE0E09
:100EA000DBCFEAFF110EE926000EEA22EF6AFD0E03
:100EB000DBCFE9FFFE0EDBCFEAFF100EE926000EC6
:100EC000EA22EF6AFC0EF76ADB34FE0BF736F66EA9
:100ED0000A0EF626430EF7220900F5CFE9FF0800B7
:100EE000F5CFEAFFEF50200B0CE0FD0EDBCFE9FF62
:100EF000FE0EDBCFEAFF110EE926000EEA22010EFC
:100F0000EF6EFC0EF76ADB34FE0BF736F66E0A0E58
:100F1000F626430EF7220900F5CFE9FF0800F5CFCA
:100F2000EAFFEF501F0BE66EFD0EDBCFE9FFFE0E72
:100F3000DBCFEAFF0D0EE926000EEA22E552E7506C
:100F4000EF6EFC0EDB501F0BF36EE00E7214F3100D
:100F5000726E7288FD0EDBCFE9FFFE0EDBCFEAFF7B
:100F60000C0EE926000EEA2265CFEFFF62A639D00B
:100F7000FD0EDBCFE9FFFE0EDBCFEAFF100EE92608
:100F8000000EEA22010EEF6E6350000EF3CF16F052
:100F90006250030BF36EF3CF15F06250E00BE842A2
:100FA000E842E842E842E842F36EF3CF14F06150C1
:100FB000F36EF3501410151016106410106E116AB1
:100FC000126A136AFD0EDBCFE9FFFE0EDBCFEAFFEC
:100FD00010C0EEFF11C0EEFF12C0EEFF13C0EEFF17
:100FE0004CD06150106E116A126A136AFD0EDBCF8D
:100FF000E9FFFE0EDBCFEAFF10C0EEFF11C0EEFFEF
:1010000012C0EEFF13C0EEFFFD0EDBCFE9FFFE0EB8
:10101000DBCFEAFFEECF10F0EECF11F0EECF12F003
:10102000EFCF13F0030E1F0B07E0D89010361136E8
:1010300012361336E806F9E16250E00BE842E84266
:10104000E842E842E842146E156A166A176A1450BC
:101050001012155011121650121217501312FD0EC5
:10106000DBCFE9FFFE0EDBCFEAFF10C0EEFF11C0C1
:10107000EEFF12C0EEFF13C0EEFFD950010FE96E74
:10108000DACFEAFF660EEE6E0F0EED6EDF6AFD0E32
:10109000DBCFE9FFFE0EDBCFEAFF0C0EE926000EE8
:1010A000EA22EF50DF5C28E2DF50E76E010EDBCF73
:1010B000E9FF020EDBCFEAFFE750E926000EEA2245
:1010C000EF50E66EFD0EDBCFE9FFFE0EDBCFEAFF51
:1010D000040EE926000EEA22E9CF10F0EACF11F063
:1010E000DF500F011024E96E000E1120EA6EE55268
:1010F000E750EF6EDF2ACBD7E00E72141009726E44
:10110000FC0EF76ADB34FE0BF736F66E0A0EF62697
:10111000430EF7220900F5CFE9FF0800F5CFEAFFFB
:10112000EF9E7792030EE15C02E2E16AE552E16E26
:10113000E552E7CFD9FF1200D9CFE6FFE1CFD9FFC3
:10114000F80EDB5001E1B3D0F90EDBCF10F0FA0E50
:10115000DBCF11F0FB0EDBCF12F0FC0EDBCF13F078
:10116000150ED8901332123211321032E806F9E11E
:10117000FD0EDBCFE9FFFE0EDBCFEAFF10C0EFFF75
:10118000FD0EDB2AFE0E01E3DB2AFD0EDBCFE9FFBD
:10119000FE0EDBCFEAFF010EEF6EF90EDBCF10F093
:1011A000FA0EDBCF11F0FB0EDBCF12F0FC0EDBCF23
:1011B00013F00D0ED8901332123211321032E806AD
:1011C000F9E1E00E146E156A166A176A14501016CB
:1011D000155011161650121617501316FD0EDBCFB0
:1011E000E9FFFE0EDBCFEAFF1050EF12F90EDBCF66
:1011F00014F0FA0EDBCF15F0FB0EDBCF16F0FC0E71
:10120000DBCF17F016C010F017C011F00001126A02
:10121000136A030E1016116A126A136AFD0EDBCFF1
:10122000E9FFFE0EDBCFEAFF1050EF12FD0EDB2AC6
:10123000FE0E01E3DB2AF90EDBCF10F0FA0EDBCF56
:1012400011F0FB0EDBCF12F0FC0EDBCF13F0080E1B
:10125000D8901332123211321032E806F9E11050F0
:10126000E66EFD0EDBCFE9FFFE0EDBCFEAFFE552B7
:10127000E750EF6EFD0EDB2AFE0E01E3DB2AF90ECE
:10128000DBCF10F0FA0EDBCF11F0FB0EDBCF12F04C
:10129000FC0EDBCF13F01050E66EFD0EDBCFE9FF46
:1012A000FE0EDBCFEAFFE552E750EF6E46D0F90EB7
:1012B000DBCF10F0FA0EDBCF11F0FB0EDBCF12F01C
:1012C000FC0EDBCF13F0030ED89013321232113222
:1012D0001032E806F9E1FD0EDBCFE9FFFE0EDBCFB1
:1012E000EAFF10C0EFFFFD0EDB2AFE0E01E3DB2A52
:1012F000070E106E116A126A136AD950F90FE96E5F
:10130000FF0EDA20EA6EEE501016EE501116EE5077
:101310001216EE501316050E1F0B07E0D89010366C
:10132000113612361336E806F9E1FD0EDBCFE9FF80
:10133000FE0EDBCFEAFF10C0EFFFE552E7CFD9FF8B
:02134000120099
:0E134200D9CFE6FFE1CFD9FFE65282407F0B04
:101350000F0BDF6EDF500E0A4AE0030A42E0010A7B
:101360003AE0070A32E0010A2AE0030A22E0010A11
:101370001AE00D0A12E0010A0BE0040A04E0F36827
:10138000070EF46E3BD0F368040EF46E37D036D0FF
:10139000F36A050EF46E32D031D0700EF36E050E86
:1013A000F46E2CD02BD0110EF36E060EF46E26D0F8
:1013B00025D0210EF36E060EF46E20D01FD0220E23
:1013C000F36E060EF46E1AD019D0230EF36E060ECD
:1013D000F46E14D013D0310EF36E060EF46E0ED0F0
:1013E0000DD0320EF36E060EF46E08D007D0400E0C
:1013F000F36E060EF46E02D001D000D0E552E55235
:10140000E7CFD9FF1200D9CFE6FFE1CFD9FFE652EF
:1014100082407F0B0F0BDF6EDF500E0A02E158EFA8
:1014200010F0030A02E1A4EF0FF0010A02E127EF36
:101430000FF0070A02E164EF0EF0010A01E1ABD3FD
:10144000030A01E171D3010A01E1E3D20D0A01E1CE
:1014500039D2010A01E1C5D1040A02E0F1EF10F02E
:1014600082A0B6D00C0EE76EFD0EDBCFE9FFFE0EBC
:10147000DBCFEAFFE750E926000EEA22500EEF6EBE
:101480000B0EE76EFD0EDBCFE9FFFE0EDBCFEAFFB2
:10149000E750E926000EEA22430EEF6E0A0EE76ED1
:1014A000FD0EDBCFE9FFFE0EDBCFEAFFE750E926BA
:1014B000000EEA22200EEF6E090EE76EFD0EDBCF66
:1014C000E9FFFE0EDBCFEAFFE750E926000EEA2235
:1014D000490EEF6E080EE76EFD0EDBCFE9FFFE0E44
:1014E000DBCFEAFFE750E926000EEA224E0EEF6E50
:1014F000070EE76EFD0EDBCFE9FFFE0EDBCFEAFF46
:10150000E750E926000EEA22540EEF6E060EE76E53
:10151000FD0EDBCFE9FFFE0EDBCFEAFFE750E92649
:10152000000EEA22450EEF6E050EE76EFD0EDBCFD4
:10153000E9FFFE0EDBCFEAFFE750E926000EEA22C4
:10154000520EEF6E040EE76EFD0EDBCFE9FFFE0ECE
:10155000DBCFEAFFE750E926000EEA22460EEF6EE7
:10156000030EE76EFD0EDBCFE9FFFE0EDBCFEAFFD9
:10157000E750E926000EEA22410EEF6E020EE76EFA
:10158000FD0EDBCFE9FFFE0EDBCFEAFFE750E926D9
:10159000000EEA22430EEF6E010EE76EFD0EDBCF6A
:1015A000E9FFFE0EDBCFEAFFE750E926000EEA2254
:1015B000450EEF6EFD0EDBCFE9FFFE0EDBCFEAFF3F
:1015C0000D0EEF6EF36EF46AF1EF10F0F1EF10F024
:1015D000120EE76EFD0EDBCFE9FFFE0EDBCFEAFF5A
:1015E000E750E926000EEA224C0EEF6E110EE76E70
:1015F000FD0EDBCFE9FFFE0EDBCFEAFFE750E92669
:10160000000EEA22410EEF6E100EE76EFD0EDBCFEC
:10161000E9FFFE0EDBCFEAFFE750E926000EEA22E3
:10162000530EEF6E0F0EE76EFD0EDBCFE9FFFE0EE1
:10163000DBCFEAFFE750E926000EEA22450EEF6E07
:101640000E0EE76EFD0EDBCFE9FFFE0EDBCFEAFFED
:10165000E750E926000EEA22520EEF6E0D0EE76EFD
:10166000FD0EDBCFE9FFFE0EDBCFEAFFE750E926F8
:10167000000EEA22200EEF6E0C0EE76EFD0EDBCFA1
:10168000E9FFFE0EDBCFEAFFE750E926000EEA2273
:10169000520EEF6E0B0EE76EFD0EDBCFE9FFFE0E76
:1016A000DBCFEAFFE750E926000EEA22410EEF6E9B
:1016B0000A0EE76EFD0EDBCFE9FFFE0EDBCFEAFF81
:1016C000E750E926000EEA224E0EEF6E090EE76E95
:1016D000FD0EDBCFE9FFFE0EDBCFEAFFE750E92688
:1016E000000EEA22470EEF6E080EE76EFD0EDBCF0E
:1016F000E9FFFE0EDBCFEAFFE750E926000EEA2203
:10170000450EEF6E070EE76EFD0EDBCFE9FFFE0E16
:10171000DBCFEAFFE750E926000EEA22200EEF6E4B
:10172000060EE76EFD0EDBCFE9FFFE0EDBCFEAFF14
:10173000E750E926000EEA22460EEF6E050EE76E30
:10174000FD0EDBCFE9FFFE0EDBCFEAFFE750E92617
:10175000000EEA22490EEF6E040EE76EFD0EDBCF9F
:10176000E9FFFE0EDBCFEAFFE750E926000EEA2292
:101770004E0EEF6E030EE76EFD0EDBCFE9FFFE0EA1
:10178000DBCFEAFFE750E926000EEA22440EEF6EB7
:10179000020EE76EFD0EDBCFE9FFFE0EDBCFEAFFA8
:1017A000E750E926000EEA22450EEF6E010EE76EC5
:1017B000FD0EDBCFE9FFFE0EDBCFEAFFE750E926A7
:1017C000000EEA22520EEF6EFD0EDBCFE9FFFE0E99
:1017D000DBCFEAFF0D0EEF6E130EF36EF46AF1EF3E
:1017E00010F0070EE76EFD0EDBCFE9FFFE0EDBCF3C
:1017F000EAFFE750E926000EEA22560EEF6E060ECB
:10180000E76EFD0EDBCFE9FFFE0EDBCFEAFFE75010
:10181000E926000EEA22450EEF6E050EE76EFD0E7C
:10182000DBCFE9FFFE0EDBCFEAFFE750E926000E33
:10183000EA22480EEF6E040EE76EFD0EDBCFE9FFE5
:10184000FE0EDBCFEAFFE750E926000EEA22490E42
:10185000EF6E030EE76EFD0EDBCFE9FFFE0EDBCF72
:10186000EAFFE750E926000EEA22430EEF6E020E71
:10187000E76EFD0EDBCFE9FFFE0EDBCFEAFFE750A0
:10188000E926000EEA224C0EEF6E010EE76EFD0E09
:10189000DBCFE9FFFE0EDBCFEAFFE750E926000EC3
:1018A000EA22450EEF6EFD0EDBCFE9FFFE0EDBCF29
:1018B000EAFF0D0EEF6E080EF36EF46AF1EF10F012
:1018C000F1EF10F00B0EE76EFD0EDBCFE9FFFE0E21
:1018D000DBCFEAFFE750E926000EEA22520EEF6E58
:1018E0000A0EE76EFD0EDBCFE9FFFE0EDBCFEAFF4F
:1018F000E750E926000EEA224F0EEF6E090EE76E62
:10190000FD0EDBCFE9FFFE0EDBCFEAFFE750E92655
:10191000000EEA22420EEF6E080EE76EFD0EDBCFE0
:10192000E9FFFE0EDBCFEAFFE750E926000EEA22D0
:101930004F0EEF6E070EE76EFD0EDBCFE9FFFE0EDA
:10194000DBCFEAFFE750E926000EEA22540EEF6EE5
:10195000060EE76EFD0EDBCFE9FFFE0EDBCFEAFFE2
:10196000E750E926000EEA22490EEF6E050EE76EFB
:10197000FD0EDBCFE9FFFE0EDBCFEAFFE750E926E5
:10198000000EEA22430EEF6E040EE76EFD0EDBCF73
:10199000E9FFFE0EDBCFEAFFE750E926000EEA2260
:1019A000200EEF6E030EE76EFD0EDBCFE9FFFE0E9D
:1019B000DBCFEAFFE750E926000EEA22410EEF6E88
:1019C000020EE76EFD0EDBCFE9FFFE0EDBCFEAFF76
:1019D000E750E926000EEA22520EEF6E010EE76E86
:1019E000FD0EDBCFE9FFFE0EDBCFEAFFE750E92675
:1019F000000EEA224D0EEF6EFD0EDBCFE9FFFE0E6C
:101A0000DBCFEAFF0D0EEF6E0C0EF36EF46AE9D336
:101A1000E8D3090EE76EFD0EDBCFE9FFFE0EDBCF4C
:101A2000EAFFE750E926000EEA22530EEF6E080E99
:101A3000E76EFD0EDBCFE9FFFE0EDBCFEAFFE750DE
:101A4000E926000EEA22410EEF6E070EE76EFD0E4C
:101A5000DBCFE9FFFE0EDBCFEAFFE750E926000E01
:101A6000EA22530EEF6E060EE76EFD0EDBCFE9FFA6
:101A7000FE0EDBCFEAFFE750E926000EEA22530E06
:101A8000EF6E050EE76EFD0EDBCFE9FFFE0EDBCF3E
:101A9000EAFFE750E926000EEA22200EEF6E040E60
:101AA000E76EFD0EDBCFE9FFFE0EDBCFEAFFE7506E
:101AB000E926000EEA22320EEF6E030EE76EFD0EEF
:101AC000DBCFE9FFFE0EDBCFEAFFE750E926000E91
:101AD000EA22330EEF6E020EE76EFD0EDBCFE9FF5A
:101AE000FE0EDBCFEAFFE750E926000EEA22300EB9
:101AF000EF6E010EE76EFD0EDBCFE9FFFE0EDBCFD2
:101B0000EAFFE750E926000EEA22300EEF6EFD0EE6
:101B1000DBCFE9FFFE0EDBCFEAFF0D0EEF6E0A0E04
:101B2000F36EF46A5ED35DD3030EE76EFD0EDBCF7A
:101B3000E9FFFE0EDBCFEAFFE750E926000EEA22BE
:101B4000430EEF6E020EE76EFD0EDBCFE9FFFE0ED9
:101B5000DBCFEAFFE750E926000EEA22410EEF6EE6
:101B6000010EE76EFD0EDBCFE9FFFE0EDBCFEAFFD5
:101B7000E750E926000EEA224D0EEF6EFD0EDBCF98
:101B8000E9FFFE0EDBCFEAFF0D0EEF6E040EF36EE3
:101B9000F46A27D326D30A0EE76EFD0EDBCFE9FFEA
:101BA000FE0EDBCFEAFFE750E926000EEA22430EE5
:101BB000EF6E090EE76EFD0EDBCFE9FFFE0EDBCF09
:101BC000EAFFE750E926000EEA22480EEF6E080E03
:101BD000E76EFD0EDBCFE9FFFE0EDBCFEAFFE7503D
:101BE000E926000EEA22450EEF6E070EE76EFD0EA7
:101BF000DBCFE9FFFE0EDBCFEAFFE750E926000E60
:101C0000EA224D0EEF6E060EE76EFD0EDBCFE9FF0A
:101C1000FE0EDBCFEAFFE750E926000EEA22500E67
:101C2000EF6E050EE76EFD0EDBCFE9FFFE0EDBCF9C
:101C3000EAFFE750E926000EEA22520EEF6E040E8C
:101C4000E76EFD0EDBCFE9FFFE0EDBCFEAFFE750CC
:101C5000E926000EEA224F0EEF6E030EE76EFD0E30
:101C6000DBCFE9FFFE0EDBCFEAFFE750E926000EEF
:101C7000EA22310EEF6E020EE76EFD0EDBCFE9FFBA
:101C8000FE0EDBCFEAFFE750E926000EEA22300E17
:101C9000EF6E010EE76EFD0EDBCFE9FFFE0EDBCF30
:101CA000EAFFE750E926000EEA22300EEF6EFD0E45
:101CB000DBCFE9FFFE0EDBCFEAFF300EEF6E0B0E3F
:101CC000F36EF46A8ED28DD20D0EE76EFD0EDBCF71
:101CD000E9FFFE0EDBCFEAFFE750E926000EEA221D
:101CE0004D0EEF6E0C0EE76EFD0EDBCFE9FFFE0E24
:101CF000DBCFEAFFE750E926000EEA22550EEF6E31
:101D00000B0EE76EFD0EDBCFE9FFFE0EDBCFEAFF29
:101D1000E750E926000EEA224C0EEF6E0A0EE76E3F
:101D2000FD0EDBCFE9FFFE0EDBCFEAFFE750E92631
:101D3000000EEA22540EEF6E090EE76EFD0EDBCFA9
:101D4000E9FFFE0EDBCFEAFFE750E926000EEA22AC
:101D5000490EEF6E080EE76EFD0EDBCFE9FFFE0EBB
:101D6000DBCFEAFFE750E926000EEA22520EEF6EC3
:101D7000070EE76EFD0EDBCFE9FFFE0EDBCFEAFFBD
:101D8000E750E926000EEA22410EEF6E060EE76EDE
:101D9000FD0EDBCFE9FFFE0EDBCFEAFFE750E926C1
:101DA000000EEA22450EEF6E050EE76EFD0EDBCF4C
:101DB000E9FFFE0EDBCFEAFFE750E926000EEA223C
:101DC000200EEF6E040EE76EFD0EDBCFE9FFFE0E78
:101DD000DBCFEAFFE750E926000EEA22500EEF6E55
:101DE000030EE76EFD0EDBCFE9FFFE0EDBCFEAFF51
:101DF000E750E926000EEA224C0EEF6E020EE76E67
:101E0000FD0EDBCFE9FFFE0EDBCFEAFFE750E92650
:101E1000000EEA22550EEF6E010EE76EFD0EDBCFCF
:101E2000E9FFFE0EDBCFEAFFE750E926000EEA22CB
:101E3000530EEF6EFD0EDBCFE9FFFE0EDBCFEAFFA8
:101E40000D0EEF6E0E0EF36EF46ACBD1CAD1080EF2
:101E5000E76EFD0EDBCFE9FFFE0EDBCFEAFFE750BA
:101E6000E926000EEA22410EEF6E070EE76EFD0E28
:101E7000DBCFE9FFFE0EDBCFEAFFE750E926000EDD
:101E8000EA224E0EEF6E060EE76EFD0EDBCFE9FF87
:101E9000FE0EDBCFEAFFE750E926000EEA22500EE5
:101EA000EF6E050EE76EFD0EDBCFE9FFFE0EDBCF1A
:101EB000EAFFE750E926000EEA22440EEF6E040E18
:101EC000E76EFD0EDBCFE9FFFE0EDBCFEAFFE7504A
:101ED000E926000EEA22520EEF6E030EE76EFD0EAB
:101EE000DBCFE9FFFE0EDBCFEAFFE750E926000E6D
:101EF000EA222D0EEF6E020EE76EFD0EDBCFE9FF3C
:101F0000FE0EDBCFEAFFE750E926000EEA22370E8D
:101F1000EF6E010EE76EFD0EDBCFE9FFFE0EDBCFAD
:101F2000EAFFE750E926000EEA22370EEF6EFD0EBB
:101F3000DBCFE9FFFE0EDBCFEAFF0D0EEF6E090EE1
:101F4000F36EF46A4ED14DD10C0EE76EFD0EDBCF71
:101F5000E9FFFE0EDBCFEAFFE750E926000EEA229A
:101F6000490EEF6E0B0EE76EFD0EDBCFE9FFFE0EA6
:101F7000DBCFEAFFE750E926000EEA22440EEF6EBF
:101F80000A0EE76EFD0EDBCFE9FFFE0EDBCFEAFFA8
:101F9000E750E926000EEA22450EEF6E090EE76EC5
:101FA000FD0EDBCFE9FFFE0EDBCFEAFFE750E926AF
:101FB000000EEA224E0EEF6E080EE76EFD0EDBCF2E
:101FC000E9FFFE0EDBCFEAFFE750E926000EEA222A
:101FD000540EEF6E070EE76EFD0EDBCFE9FFFE0E2F
:101FE000DBCFEAFFE750E926000EEA22490EEF6E4A
:101FF000060EE76EFD0EDBCFE9FFFE0EDBCFEAFF3C
:10200000E750E926000EEA22460EEF6E050EE76E57
:10201000FD0EDBCFE9FFFE0EDBCFEAFFE750E9263E
:10202000000EEA22490EEF6E040EE76EFD0EDBCFC6
:10203000E9FFFE0EDBCFEAFFE750E926000EEA22B9
:102040004E0EEF6E030EE76EFD0EDBCFE9FFFE0EC8
:10205000DBCFEAFFE750E926000EEA22440EEF6EDE
:10206000020EE76EFD0EDBCFE9FFFE0EDBCFEAFFCF
:10207000E750E926000EEA22450EEF6E010EE76EEC
:10208000FD0EDBCFE9FFFE0EDBCFEAFFE750E926CE
:10209000000EEA22520EEF6EFD0EDBCFE9FFFE0EC0
:1020A000DBCFEAFF0D0EEF6EF36EF46A9AD099D093
:1020B0000A0EE76EFD0EDBCFE9FFFE0EDBCFEAFF77
:1020C000E750E926000EEA22450EEF6E090EE76E94
:1020D000FD0EDBCFE9FFFE0EDBCFEAFFE750E9267E
:1020E000000EEA22580EEF6E080EE76EFD0EDBCFF3
:1020F000E9FFFE0EDBCFEAFFE750E926000EEA22F9
:10210000500EEF6E070EE76EFD0EDBCFE9FFFE0E01
:10211000DBCFEAFFE750E926000EEA22200EEF6E41
:10212000060EE76EFD0EDBCFE9FFFE0EDBCFEAFF0A
:10213000E750E926000EEA22530EEF6E050EE76E19
:10214000FD0EDBCFE9FFFE0EDBCFEAFFE750E9260D
:10215000000EEA22450EEF6E040EE76EFD0EDBCF99
:10216000E9FFFE0EDBCFEAFFE750E926000EEA2288
:102170004E0EEF6E030EE76EFD0EDBCFE9FFFE0E97
:10218000DBCFEAFFE750E926000EEA22530EEF6E9E
:10219000020EE76EFD0EDBCFE9FFFE0EDBCFEAFF9E
:1021A000E750E926000EEA224F0EEF6E010EE76EB1
:1021B000FD0EDBCFE9FFFE0EDBCFEAFFE750E9269D
:1021C000000EEA22520EEF6EFD0EDBCFE9FFFE0E8F
:1021D000DBCFEAFF0D0EEF6E0B0EF36EF46A01D04B
:0C21E00000D0E552E552E7CFD9FF120015
:0421EC00D9CFE6FF62
:1021F000E1CFD9FFE65294809482948494869488A7
:10220000948A968096820E01276B296B286B8250E8
:10221000200B01E0010E010F256F25050FE1600E77
:10222000306F000E316F800E2C6F250E2D6F2E6BD0
:102230002F6B800E2A6F400E2B6F0ED0610E306F09
:10224000000E316F800E2C6F250E2D6F2E6B2F6BB5
:10225000800E2A6F400E2B6F949C948E959C958EC9
:102260008450020B01E0010E106E8450010B10240B
:10227000266F26514EE0250502E1898001D0898034
:10228000250503E1A2EC16F002D0BDEC16F00E011C
:10229000250520E1400EE66E2CCEE6FF2DCEE6FFB2
:1022A0002ECEE6FF2FCEE6FF58EC19F0126E050E8B
:1022B000E15E1250F3CF10F0F4CF11F010C0E6FF42
:1022C00011C0E6FFFC0EE66EB5EC20F0E552E552DB
:1022D000E5521FD0400EE66E2CCEE6FF2DCEE6FF77
:1022E0002ECEE6FF2FCEE6FF4BEC1AF0126E050E57
:1022F000E15E1250F3CF10F0F4CF11F010C0E6FF02
:1023000011C0E6FFFC0EE66E3EEC20F0E552E55211
:10231000E552030EE66EE66AE668BF0EE66E4DEC29
:102320001BF0E552E552E552E552000901E130D1DA
:1023300082A01FD00E01126B136B146B156BE66A33
:10234000E66AE66AE66AE66AE66A85EC00F0106E1E
:10235000060EE15E1050E66AE66AE66AE66AE66A3A
:10236000010EE66E85EC00F0106E060EE15E105078
:1023700024D0A1EC09F0F3CF12FEF4CF13FE0E012E
:10238000146B156BE66AE668070EE66EE66AE66AA7
:10239000E66A85EC00F0106E060EE15E1050E66A0B
:1023A000E668070EE66EE66AE66A010EE66E85EC02
:1023B00000F0106E060EE15E10500E01236B226BD2
:1023C000DF6A100EDF5C0EE2DF50E840E840E840D4
:1023D0001F0BE66EDFCFE6FF61EC02F0E552E5523F
:1023E000DF2AEFD7E66A12CE10F013CE11F014CE2A
:1023F00012F015CE13F0106A0F0E1116126A136A3E
:1024000010C0E6FF11C0E6FF12C0E6FF13C0E6FFF2
:10241000E66A88EC03F0146E060EE15E1450E66A7C
:1024200012CE10F013CE11F014CE12F015CE13F020
:10243000F00E10160F0E1116126A136A10C0E6FF86
:1024400011C0E6FF12C0E6FF13C0E6FF010EE66E04
:1024500088EC03F0146E060EE15E1450020EDF6E7F
:10246000100EDF5C13E2E66A12CEE6FF13CEE6FF43
:1024700014CEE6FF15CEE6FFDFCFE6FF88EC03F0D3
:10248000106E060EE15E1050DF2AEAD7E66AE66AB1
:1024900039EC01F0E552E552010EE66EE66E39ECDC
:1024A00001F0E552E552020EE66EE66E39EC01F0FF
:1024B000E552E552020EE66E030EE66E39EC01F0CF
:1024C000E552E552030EE66E040EE66E39EC01F0BD
:1024D000E552E552030EE66E050EE66E39EC01F0AC
:1024E000E552E552040EE66E060EE66E39EC01F09A
:1024F000E552E552040EE66E070EE66E39EC01F089
:10250000E552E552050EE66E080EE66E39EC01F076
:10251000E552E552050EE66E090EE66E39EC01F065
:10252000E552E552060EE66E0A0EE66E39EC01F053
:10253000E552E552060EE66E0B0EE66E39EC01F042
:10254000E552E552070EE66E0C0EE66E39EC01F030
:10255000E552E552070EE66E0D0EE66E39EC01F01F
:10256000E552E552020EE66E0E0EE66E39EC01F013
:10257000E552E552030EE66E0F0EE66E39EC01F001
:10258000E552E552E668E668F2EC00F0E552E55205
:102590000E01246BE552E552E7CFD9FF120002D8B5
:1025A000B3EF13F0D9CFE6FFE1CFD9FFE652DF6AF0
:1025B0000E012B5107E1250503E15CEC18F002D078
:1025C0009BEC18F00E0124510DE0120EE66E0E0E7B
:1025D000E66E11EC1CF0E552E552000902E00E0136
:1025E000246BB7D030CEE9FF31CEEAFFEF50080BB5
:1025F00001E09DD0080EDF5C01E399D00E012505B6
:102600000FE1DF50116A160F106E0E0E112210C06E
:10261000E6FF11C0E6FFD9EC18F0E552E5520ED006
:10262000DF50116A160F106E0E0E112210C0E6FF59
:1026300011C0E6FF0DEC19F0E552E55282A075D00D
:102640000E012751050A63E0010A5BE0070A4AE030
:10265000010A36E0030A0FE0010A02E0276B64D0AA
:10266000DF50EA6A160FE96E0E0EEA22EF502408D8
:1026700001E1272B59D0DF50EA6A160FE96E0E0EE2
:10268000EA22EFCF10F0116A126A136A070E1016D1
:10269000116A126A136A080E1F0B07E0D8901036F1
:1026A000113612361336E806F9E110C012FE11C0D9
:1026B00013FE12C014FE13C015FE0E01272B34D0DA
:1026C000DF50EA6A160FE96E0E0EEA22EFCF10F025
:1026D000000110500E011213000E131314131513E2
:1026E000272B22D0DF50EA6A160FE96E0E0EEA227F
:1026F000EFCF29FE295103E1050E276F01D0272BCB
:1027000013D0DF2A2907295101E1276B0DD0DF50B3
:10271000EA6A160FE96E0E0EEA22EF50E66E15D940
:10272000E5520E01276B00D001D0DF2A5BD7DF50C6
:1027300010E08C70DFCF1EFE120EE66E0E0EE66EFF
:1027400011EC1CF0E552E552000903E10E01010E07
:10275000246F010100B302D0EDEC1CF0E552E5520C
:10276000E7CFD9FF1200D9CFE6FFE1CFD9FFE6527C
:102770000E012851050A01E1BED0010A01E1A6D0EF
:10278000070A01E18ED0010A67E0030A50E0010A5E
:1027900002E0276BD5D0000EE66E0E0EE66EC9EC99
:1027A0001DF0E552E552000941E012CE10F013CEC3
:1027B00011F014CE12F015CE13F0106A0F0E111690
:1027C000126A136A0E010051101809E10151111823
:1027D00006E10251121803E10351131800E11BE056
:1027E00012CE14F013CE15F014CE16F015CE17F04D
:1027F000F00E14160F0E1516166A176A00511418EB
:1028000009E10151151806E10251161803E10351BF
:10281000171800E105E104CEE6FF97D8E55206D08F
:1028200082A002D0282B02D0050E286F89D0250562
:1028300007E1240EE66ED8EC16F0E552DF6E06D006
:10284000240EE66E06EC17F0E552DF6EDF5003E073
:102850000E01282B01D074D025050FE101CE10F018
:1028600002CE11F003CE12F00001136A1050E66E92
:10287000D8EC16F0E552DF6E0ED001CE10F002CE8D
:1028800011F003CE12F00001136A1050E66E06EC50
:1028900017F0E552DF6EDF5003E00E01282B01D068
:1028A0004FD0250507E100CEE6FFD8EC16F0E55243
:1028B000DF6E06D000CEE6FF06EC17F0E552DF6EC5
:1028C000DF5003E00E01282B01D03AD0250507E1A7
:1028D0000CCEE6FFD8EC16F0E552DF6E06D00CCE3B
:1028E000E6FF06EC17F0E552DF6EDF5003E00E0165
:1028F000282B01D025D025050FE10C51E66EE66AA4
:10290000040EE66E0E0EE66E34EC17F0E552E5525C
:10291000E552E552DF6E0ED00C51E66EE66A040E0B
:10292000E66E0E0EE66E8AEC17F0E552E552E552C1
:10293000E552DF6EDF5003E08C720E01286B00D091
:10294000E552E552E7CFD9FF1200D9CFE6FFE1CF3C
:10295000D9FFFE0EDB500B0A01E1EDD1010A01E1C6
:10296000E8D1030A01E1D1D1010A01E1BAD10F0A8C
:1029700001E1A3D1010A01E18DD1030A01E13DD1B9
:10298000010A01E1EFD0070A01E1A1D0010A54E0F8
:10299000030A05E0010A01E0D0D1FF00CFD10E010A
:1029A000250506E14F0EAB16AC9ACF0E9D1605D04D
:1029B0004F0EA616BA9ACF0EA3160E0125051EE1DC
:1029C000400EE66E800EE66E250EE66EE66AE66A5C
:1029D00058EC19F0126E050EE15E1250F3CF10F0B4
:1029E000F4CF11F010C0E6FF11C0E6FFFC0EE66E5A
:1029F000B5EC20F0E552E552E5521DD0400EE66EF2
:102A0000800EE66E250EE66EE66AE66A4BEC1AF07C
:102A1000126E050EE15E1250F3CF10F0F4CF11F0FC
:102A200010C0E6FF11C0E6FFFC0EE66E3EEC20F0A3
:102A3000E552E552E55282D10E01250506E14F0E21
:102A4000AB16AC9ACF0E9D1605D04F0EA616BA9AAD
:102A5000CF0EA3160E0125051DE1400EE66EE66AB7
:102A60004B0EE66EE66AE66A58EC19F0126E050E39
:102A7000E15E1250F3CF10F0F4CF11F010C0E6FF7A
:102A800011C0E6FFFC0EE66EB5EC20F0E552E55213
:102A9000E5521CD0400EE66EE66A4B0EE66EE66A24
:102AA000E66A4BEC1AF0126E050EE15E1250F3CF9F
:102AB00010F0F4CF11F010C0E6FF11C0E6FFFC0EDD
:102AC000E66E3EEC20F0E552E552E55237D10E01BC
:102AD000250506E14F0EAB16AC9ACF0E9D1605D01C
:102AE0004F0EA616BA9ACF0EA3160E0125051DE1AC
:102AF000400EE66EE66A960EE66EE66AE66A58EC08
:102B000019F0126E050EE15E1250F3CF10F0F4CF03
:102B100011F010C0E6FF11C0E6FFFC0EE66EB5EC4A
:102B200020F0E552E552E5521CD0400EE66EE66A12
:102B3000960EE66EE66AE66A4BEC1AF0126E050E29
:102B4000E15E1250F3CF10F0F4CF11F010C0E6FFA9
:102B500011C0E6FFFC0EE66E3EEC20F0E552E552B9
:102B6000E552ECD00E01250506E14F0EAB16AC9AEE
:102B7000CF0E9D1605D04F0EA616BA9ACF0EA316ED
:102B80000E0125051DE1400EE66EE66AE10EE66ED9
:102B9000E66AE66A58EC19F0126E050EE15E125014
:102BA000F3CF10F0F4CF11F010C0E6FF11C0E6FF34
:102BB000FC0EE66EB5EC20F0E552E552E5521CD075
:102BC000400EE66EE66AE10EE66EE66AE66A4BECF9
:102BD0001AF0126E050EE15E1250F3CF10F0F4CF32
:102BE00011F010C0E6FF11C0E6FFFC0EE66E3EECF1
:102BF00020F0E552E552E552A1D00E01250506E18F
:102C00004F0EAB16AC9ACF0E9D1605D04F0EA616E2
:102C1000BA9ACF0EA3160E0125051EE1400EE66EF0
:102C2000E66AC20EE66E010EE66EE66A58EC19F030
:102C3000126E050EE15E1250F3CF10F0F4CF11F0DA
:102C400010C0E6FF11C0E6FFFC0EE66EB5EC20F00A
:102C5000E552E552E5521DD0400EE66EE66AC20E20
:102C6000E66E010EE66EE66A4BEC1AF0126E050E89
:102C7000E15E1250F3CF10F0F4CF11F010C0E6FF78
:102C800011C0E6FFFC0EE66E3EEC20F0E552E55288
:102C9000E55254D0E66A400EE66EE66A020EE66E33
:102CA000020EE66E030EE66E010EE66EDBEC03F03E
:102CB000106E070EE15E105041D0010EE66E400E20
:102CC000E66EE66A020EE66E020EE66E030EE66E33
:102CD000010EE66EDBEC03F0106E070EE15E1050A5
:102CE0002DD0020EE66E400EE66EE66A020EE66E2D
:102CF000020EE66E030EE66E010EE66EDBEC03F0EE
:102D0000106E070EE15E105019D0030EE66E400EF5
:102D1000E66EE66A020EE66E020EE66E030EE66EE2
:102D2000010EE66EDBEC03F0106E070EE15E105054
:102D300005D0838603D0839601D000D0E552E7CF3B
:042D4000D9FF1200A5
:0C2D4400000160916083826B836B846BE4
:102D5000856B866B876B609560876099609BA86BBD
:102D6000A96BAA6BAB6BAC6BAD6BCC0EE66E29ECB2
:102D700022F0E5529D889D8A1200000161916183D5
:102D8000CE6BCF6BD06BD16BD26BD36B6195618700
:102D90006199619BF46BF56BF66BF76BF86BF96BF4
:102DA000CC0EE66E18EC22F0E552A388A38A12003E
:102DB000D9CFE6FFE1CFD9FF000160A102D0000E1C
:102DC00021D09D98620E8425E96E000E8521EA6E61
:102DD000FE0EDBCFEFFF6093822B000E8323200ECD
:102DE000821901E1835101E16081842B000E85236A
:102DF000200E841901E1855102E1846B856B9D8869
:102E0000010E00D0E552E7CFD9FF1200D9CFE6FF7F
:102E1000E1CFD9FF000161A102D0000E21D0A3981B
:102E2000AE0ED025E96E000ED121EA6EFE0EDBCF8C
:102E3000EFFF6193CE2B000ECF23200ECE1901E1C0
:102E4000CF5101E16181D02B000ED123200ED0198A
:102E500001E1D15102E1D06BD16BA388010E00D00A
:102E6000E552E7CFD9FF1200D9CFE6FFE1CFD9FF76
:102E7000020EE126EFD8F3CF12F0F4CF13F0FB0EE1
:102E8000DB50125C106EFC0EDB501358116E000EFE
:102E9000105C000E115802E2000E30D0FB0EDBCFAA
:102EA00010F0FC0EDBCF11F01006000E115A10C00E
:102EB000DEFF11C0DDFFDECF10F0DDCF11F000012D
:102EC000800E111419E1FD0EDBCF10F0FE0EDBCFEA
:102ED00011F0DE501024E96EDD501120EA6EEF5043
:102EE000E66E66DFE552000902E1000E07D0DF065C
:102EF000010E01E2DB06DFD7010E00D0106E020EDC
:102F0000E15C02E2E16AE552E16E1050E552E7CF82
:102F1000D9FF1200D9CFE6FFE1CFD9FF020EE1269B
:102F2000B2D8F3CF12F0F4CF13F0FB0EDB50125CEB
:102F3000106EFC0EDB501358116E000E105C000E6C
:102F4000115802E2000E30D0FB0EDBCF10F0FC0E69
:102F5000DBCF11F01006000E115A10C0DEFF11C0B9
:102F6000DDFFDECF10F0DDCF11F00001800E111477
:102F700019E1FD0EDBCF10F0FE0EDBCF11F0DE50BD
:102F80001024E96EDD501120EA6EEF50E66E3EDF50
:102F9000E552000902E1000E07D0DF06010E01E252
:102FA000DB06DFD7010E00D0106E020EE15C02E2FC
:102FB000E16AE552E16E1050E552E7CFD9FF120009
:102FC000000160B320D0620E8625E96E000E8721D5
:102FD000EA6EEF50E66EEBEC21F0E552000160B1D5
:102FE00060918207000E835B8251831101E160834F
:102FF000862B000E8723200E861901E1875102E1FE
:10300000866B876B01D09D981200000161B320D0C0
:10301000AE0ED225E96E000ED321EA6EEF50E66EB9
:10302000D4EC21F0E552000161B16191CE07000EB0
:10303000CF5BCE51CF1101E16183D22B000ED323A0
:10304000200ED21901E1D35102E1D26BD36B01D032
:10305000A39812000001200E825D000E83590FE23A
:1030600082C010F083C011F0200ED8801056000EE0
:10307000115610C0F3FF11C0F4FF04D003D0F36A5F
:10308000F46A00D012000001200ECE5D000ECF5970
:103090000FE2CEC010F0CFC011F0200ED880105635
:1030A000000E115610C0F3FF11C0F4FF04D003D07E
:1030B000F36AF46A00D01200D9CFE6FFE1CFD9FF5E
:1030C000E652000160B52FD0B5EC21F0DF6EABA465
:1030D00002D0000E2BD0AB50020B05E09E50200B0F
:1030E00002E1AB98AB88000160996097880EAA2531
:1030F000E96E000EAB21EA6EDFCFEFFFA82B000ECA
:10310000A923200EA81901E1A95101E16085AA2B8C
:10311000000EAB23200EAA1901E1AB5102E1AA6B0C
:10312000AB6B010E03D06089000E00D0E552E55272
:10313000E7CFD9FF1200D9CFE6FFE1CFD9FFE652A2
:1031400096EC21F0DF6E000161B52BD0A6A402D071
:10315000000E2AD0A650020B05E0A450200B02E17D
:10316000A698A68861996197D40EF625E96E000E9F
:10317000F721EA6EDFCFEFFFF42B000EF523200ED0
:10318000F41901E1F55101E16185F62B000EF723F9
:10319000200EF61901E1F75102E1F66BF76B010E13
:1031A00003D06189000E00D0E552E552E7CFD9FF88
:1031B0001200D9CFE6FFE1CFD9FF000160A702D00E
:1031C000000E27D09D9A6095880EAC25E96E000E02
:1031D000AD21EA6EEF50E66EFD0EDBCFE9FFFE0E8D
:1031E000DBCFEAFFE552E750EF6EA807000EA95BC0
:1031F000A851A91101E16087AC2B000EAD23200E70
:10320000AC1901E1AD5102E1AC6BAD6B9D8A010ED1
:1032100000D0E552E7CFD9FF1200D9CFE6FFE1CFCA
:10322000D9FF000161A702D0000E27D0A39A6195B3
:10323000D40EF825E96E000EF921EA6EEF50E66E25
:10324000FD0EDBCFE9FFFE0EDBCFEAFFE552E750D4
:10325000EF6EF407000EF55BF451F51101E16187A3
:10326000F82B000EF923200EF81901E1F95102E1C3
:10327000F86BF96BA38A010E00D0E552E7CFD9FFB6
:1032800012000001A85100D012000001F45100D03A
:1032900012009E50100B04E09D50100B01E090DED8
:1032A0009E50200B04E09D50200B01E005DF120032
:1032B000D9CFE6FFE1CFD9FF050EE126FA0EDBCF2D
:1032C00004F0056A066A076A400E096E420E0A6E2D
:1032D0000F0E0B6E0C6AEEEC20F000C0DEFF01C09A
:1032E000DEFF02C0DEFF03C0DDFFDD52DD52030E54
:1032F000F36E040EF3CFDBFFDB50030A01E183D052
:10330000020A44E0030A42E0020A03E0F368F46AB6
:10331000B8D0D9CFE9FFDACFEAFFEECF14F0EECF85
:1033200015F0EECF16F0EFCF17F014C004F015C073
:1033300005F016C006F017C007F0FB0EDBCF09F052
:10334000FC0EDBCF0AF0FD0EDBCF0BF0FE0EDBCF69
:103350000CF051EC21F004C010F005C011F006C0D3
:1033600012F007C013F0060ED89013321232113249
:103370001032E806F9E11006000E115A125A135ADB
:1033800010C0F3FF11C0F4FF7CD07BD0D9CFE9FF90
:10339000DACFEAFFEECF14F0EECF15F0EECF16F055
:1033A000EFCF17F014C004F015C005F016C006F0FA
:1033B00017C007F0FB0EDBCF09F0FC0EDBCF0AF0E5
:1033C000FD0EDBCF0BF0FE0EDBCF0CF051EC21F04D
:1033D00004C010F005C011F006C012F007C013F0D1
:1033E000040ED8901332123211321032E806F9E18D
:1033F0001006000E115A125A135A10C0F3FF11C0D2
:10340000F4FF3FD03ED0D9CFE9FFDACFEAFFEECFCD
:1034100014F0EECF15F0EECF16F0EFCF17F014C08A
:1034200004F015C005F016C006F017C007F0FB0E3B
:10343000DBCF09F0FC0EDBCF0AF0FD0EDBCF0BF08B
:10344000FE0EDBCF0CF051EC21F004C010F005C0F3
:1034500011F006C012F007C013F0020ED89013321C
:10346000123211321032E806F9E11006000E115A3C
:10347000125A135A10C0F3FF11C0F4FF02D001D04A
:1034800000D0050EE15C02E2E16AE552E16EE55230
:10349000E7CFD9FF1200D9CFE6FFE1CFD9FF050E64
:1034A000E126FA0EDBCF04F0056A066A076A400ED1
:1034B000096E420E0A6E0F0E0B6E0C6AEEEC20F0D7
:1034C00000C0DEFF01C0DEFF02C0DEFF03C0DDFF83
:1034D000DD52DD52030EF36E040EF3CFDBFFDB5043
:1034E000030A01E183D0020A44E0030A42E0020A2F
:1034F00003E0F368F46AB8D0D9CFE9FFDACFEAFF86
:10350000EECF14F0EECF15F0EECF16F0EFCF17F0B0
:1035100014C004F015C005F016C006F017C007F07F
:10352000FB0EDBCF09F0FC0EDBCF0AF0FD0EDBCF8C
:103530000BF0FE0EDBCF0CF051EC21F004C010F0CC
:1035400005C011F006C012F007C013F0060ED890A7
:103550001332123211321032E806F9E11006000E71
:10356000115A125A135A10C0F3FF11C0F4FF7CD045
:103570007BD0D9CFE9FFDACFEAFFEECF14F0EECF60
:1035800015F0EECF16F0EFCF17F014C004F015C011
:1035900005F016C006F017C007F0FB0EDBCF09F0F0
:1035A000FC0EDBCF0AF0FD0EDBCF0BF0FE0EDBCF07
:1035B0000CF051EC21F004C010F005C011F006C071
:1035C00012F007C013F0040ED890133212321132E9
:1035D0001032E806F9E11006000E115A125A135A79
:1035E00010C0F3FF11C0F4FF3FD03ED0D9CFE9FFA8
:1035F000DACFEAFFEECF14F0EECF15F0EECF16F0F3
:10360000EFCF17F014C004F015C005F016C006F097
:1036100017C007F0FB0EDBCF09F0FC0EDBCF0AF082
:10362000FD0EDBCF0BF0FE0EDBCF0CF051EC21F0EA
:1036300004C010F005C011F006C012F007C013F06E
:10364000020ED8901332123211321032E806F9E12C
:103650001006000E115A125A135A10C0F3FF11C06F
:10366000F4FF02D001D000D0050EE15C02E2E16A75
:10367000E552E16EE552E7CFD9FF1200A450100BDE
:1036800004E0A350100B01E0C0DCA450200B04E0C8
:0A369000A350200B01E04FDD1200F3
:06369A00D9CFE6FFE1CFED
:1036A000D9FFE6520101E36BE46B00910083256BC7
:1036B000266B276B009500870099009BDC6BDD6B08
:1036C000DE6B070EDF6FE06BE16FE26B9394938626
:1036D00095968396040EE66E87EC05F0E552010E92
:1036E000E66E6AEC05F0E552000906E1E66A87EC51
:1036F00005F0E552000E90D0FC0EDBCFE6FF54EC57
:1037000000F0E5520E017D51E82407090101DF6F49
:10371000E06BDFC1E1F1E0C1E2F1FD0EDBCFE6FFDE
:10372000FE0EDBCFE6FF16EC00F0E552E552E66A4E
:10373000E66AE66AE66AE66AE66A85EC00F0106E1A
:10374000060EE15E1050E66AE66AE66AE66AE66A36
:10375000010EE66E85EC00F0106E060EE15E105074
:10376000DF6A100EDF5C0FE2E66AE66AE66AE66A86
:10377000E66ADFCFE6FF88EC03F0106E060EE15E2E
:103780001050DF2AEED7000EE66EE66AF2EC00F08B
:10379000E552E552DF6A100EDF5C0BE2DF407F0B83
:1037A000E66EDFCFE6FF39EC01F0E552E552DF2AA5
:1037B000F2D7DF6A100EDF5C0EE2DF50E840E8402F
:1037C000E8401F0BE66EDFCFE6FF61EC02F0E5524A
:1037D000E552DF2AEFD7FB0EDBCFE6FF400EE66EA9
:1037E000E66A020EE66EE66E030EE66E010EE66E09
:1037F000DBEC03F0106E070EE15E1050000906E1ED
:10380000E66A87EC05F0E552000E06D0E66A87EC22
:1038100005F0E552010E00D0E552E552E7CFD9FFA1
:103820001200D9CFE6FFE1CFD9FF010100A102D0FC
:10383000000ECFD0FD0EDBCFE9FFFE0EDBCFEAFF9F
:10384000EECF10F0EECF11F0EECF12F0EFCF13F07D
:103850002651120DF3CFE9FFF4CFEAFF010EE9265E
:10386000010EEA2210C0EEFF11C0EEFF12C0EEFF03
:1038700013C0EEFFFD0EDBCFE9FFFE0EDBCFEAFF4C
:10388000100EE926000EEA22EF50E66E2651120DC8
:10389000F3CFE9FFF4CFEAFF010EE926010EEA2299
:1038A000100EE926000EEA22E552E750EF6EFD0EFB
:1038B000DBCFE9FFFE0EDBCFEAFF110EE926000E9B
:1038C000EA22EF50E66E2651120DF3CFE9FFF4CF56
:1038D000EAFF010EE926010EEA22110EE926000E8A
:1038E000EA22E552E750EF6EFD0EDBCFE9FFFE0E58
:1038F000DBCFEAFF0C0EE926000EEA22EFCF10F034
:10390000090E105C1DE2FD0EDBCFE9FFFE0EDBCFE2
:10391000EAFF0C0EE926000EEA22EF50E66E265171
:10392000120DF3CFE9FFF4CFEAFF010EE926010EF5
:10393000EA220C0EE926000EEA22E552E750EF6E6D
:10394000FD0EDBCFE9FFFE0EDBCFEAFF0C0EE92612
:10395000000EEA22EF50E66EE66AFD0EDBCFE9FFCD
:10396000FE0EDBCFEAFF040EE926000EEA22E9CFC5
:1039700010F0EACF11F010C0E6FF11C0E6FF2651AB
:10398000120DF3CFE9FFF4CFEAFF010EE926010E95
:10399000EA22040EE926000EEA22E9CF12F0EACF6D
:1039A00013F012C0E6FF13C0E6FF26EC21F0146E00
:1039B000060EE15E145001010093252B020E255DD9
:1039C00001E10081262B020E265D01E1266B010E2E
:1039D00000D0E552E7CFD9FF1200D9CFE6FFE1CF03
:1039E000D9FF030EE126020EDB6A010100B380D08D
:1039F000E151E21101E17CD076A807D07698010E62
:103A0000F36E020EF3CFDBFF02D0020EDB6ADE5252
:103A1000090EDD6E010EDB50000830E20101E151BC
:103A2000DF15126EE251E015136E010EDB0412C0B9
:103A300010F013C011F005E0D89011321032E804F4
:103A4000FBE11050010B17E0010EDB04DF6E010EED
:103A5000DF5206E0DFCFF3FFE846FE0BF306FCE1A2
:103A6000E81C106E116A10BE116810500101E117B8
:103A70001150E21703D0010EDB06CCD7020EDB504B
:103A800001E0768801012751120DF3CF10F0F4CF39
:103A900011F0010E1026010E112210C0E6FF11C018
:103AA000E6FFDFCFE6FF19EC06F0E552E552E552FE
:103AB000DF6EFF0EDF5C02E1000E1CD0DFCFE6FF01
:103AC00018EC07F0E552000903E1000E13D004D012
:103AD0000101E32B000EE423010100B10091250751
:103AE000255101E10083272B020E275D01E1276BA1
:103AF000010E00D0106E030EE15C02E2E16AE552B5
:103B0000E16E1050E552E7CFD9FF1200020E01011D
:103B1000255D05E2020ED880255503D002D0000EA7
:103B200000D01200D9CFE6FFE1CFD9FFE652010164
:103B300000B527D00F0E6E14DF6EDFCFE6FFDD512C
:103B4000120DF3CF10F0F4CF11F0280E1026010E55
:103B5000112210C0E6FF11C0E6FF46EC07F0E55267
:103B6000E552E552010100990097DC2B0A0EDC5D5D
:103B700001E10085DD2B0A0EDD5D01E1DD6B010E4B
:103B800003D07692000E00D0E552E552E7CFD9FF80
:103B90001200D9CFE6FFE1CFD9FF010100A702D083
:103BA000000EE2D076920095DE51120DF3CFE9FFC0
:103BB000F4CFEAFF280EE926010EEA22EECF10F03C
:103BC000EECF11F0EECF12F0EFCF13F0FD0EDBCF02
:103BD000E9FFFE0EDBCFEAFF10C0EEFF11C0EEFFE3
:103BE00012C0EEFF13C0EEFFDE51120DF3CFE9FF5E
:103BF000F4CFEAFF280EE926010EEA22100EE9268C
:103C0000000EEA22EF50E66EFD0EDBCFE9FFFE0E5E
:103C1000DBCFEAFF100EE926000EEA22E552E7505C
:103C2000EF6EDE51120DF3CFE9FFF4CFEAFF280E5D
:103C3000E926010EEA22110EE926000EEA22EF50D3
:103C4000E66EFD0EDBCFE9FFFE0EDBCFEAFF110EC5
:103C5000E926000EEA22E552E750EF6EDE51120D22
:103C6000F3CFE9FFF4CFEAFF280EE926010EEA229E
:103C70000C0EE926000EEA22EF50E66EFD0EDBCFB9
:103C8000E9FFFE0EDBCFEAFF0C0EE926000EEA226A
:103C9000E552E750EF6EDE51120DF3CFE9FFF4CF9E
:103CA000EAFF280EE926010EEA220D0EE926000E93
:103CB000EA22EF50E66EFD0EDBCFE9FFFE0EDBCF12
:103CC000EAFF0D0EE926000EEA22E552E750EF6EFC
:103CD000DE51120DF3CFE9FFF4CFEAFF280EE926FB
:103CE000010EEA220C0EE926000EEA22EF50E66EE3
:103CF000E66ADE51120DF3CFE9FFF4CFEAFF280E9A
:103D0000E926010EEA22040EE926000EEA22E9CF96
:103D100010F0EACF11F010C0E6FF11C0E6FFFD0E73
:103D2000DBCFE9FFFE0EDBCFEAFF040EE926000E33
:103D3000EA22E9CF12F0EACF13F012C0E6FF13C077
:103D4000E6FF26EC21F0146E060EE15E1450010130
:103D5000DC07DC5101E10087DE2B0A0EDE5D01E1AC
:103D6000DE6B7682010E00D0E552E7CFD9FF12005C
:103D70000101DC5100D01200D9CFE6FFE1CFD9FF1D
:103D8000020EE1267750100B51E07650100B4EE0FA
:103D900076981F0E6E14120A1CE0010A1AE0070A38
:103DA00018E0010A16E0030A14E0010A12E01F0AF3
:103DB0000DE00E0A07E0020A01E013D0DE52020E07
:103DC000DD6E0FD0DE52010EDD6E0BD0010EDB6A10
:103DD00008D00F0E6E14010FE76E010EE7CFDBFF68
:103DE00000D0010EF76ADB34FE0BF736F66E1A0EC2
:103DF000F626430EF7220900F5CFE9FF0800F5CFBC
:103E0000EAFFEF9E7798010EF36EDB5004E0D89046
:103E1000F336E806FCE1F350106E116A10BE11682B
:103E200010500101E1131150E21376887750020B14
:103E300018E07650020B15E00F0E6E14DF6E72DE86
:103E4000F76ADF34FE0BF736F66E0A0EF626430EDF
:103E5000F7220900F5CFE9FF0800F5CFEAFFEF9E52
:103E600077927750800B06E07650800B03E0779EC8
:103E70000101008B7750200B07E07650200B04E007
:103E8000779A01010089719C020EE15C02E2E16A0D
:0C3E9000E552E16EE552E7CFD9FF1200C9
:043E9C00DACFE4FF96
:103EA000E2CFDAFFE9CFE4FFEACFE4FFF6CFE4FFA9
:103EB000F7CFE4FFF5CFE4FFF3CFE4FFF4CFE4FF67
:103EC000FACFE4FF00EE00F0100EE80403E3EECFBB
:103ED000E4FFFBD700EE10F0080EE80403E3EECF9A
:103EE000E4FFFBD7E652D9CFE6FFE1CFD9FF120EB0
:103EF000E126F2A22AD0F292100EDB6A110EDB6AE2
:103F0000DE680F0EDE6EDE6ADD6ADD52DD52020E05
:103F1000F36E0C0EF3CFDBFFE4C118F0196A040E48
:103F200018C0DBFF0101E351E76E050EE7CFDBFFB1
:103F3000D9CFE6FFDACFE6FF11EC1CF0E552E552EF
:103F4000EDEC1CF00101E36BE46B0E01250503E1D0
:103F500049EC19F002D03EEC1BF0BCEC1EF0120E46
:103F6000E15C02E2E16AE552E16EE552E7CFD9FF9A
:103F7000E55200EE17F0080EE80403E3E5CFEDFF8D
:103F8000FBD700EE0FF0100EE80403E3E5CFEDFFE2
:103F9000FBD7E5CFFAFFE5CFF4FFE5CFF3FFE5CFA1
:103FA000F5FFE5CFF7FFE5CFF6FFE5CFEAFFE5CF79
:103FB000E9FFE5CFDAFF1100D8CFE4FFE0CFE4FF5F
:103FC000E46EDACFE4FFE2CFDAFFE652E552E5CF66
:0E3FD000DAFFE550E5CFE0FFE5CFD8FF1000A7
:023FDE001E0EB5
:103FE000F66E000EF76E000EF86E01010900F55036
:103FF000F86F0900F550F96F03E1F86701D03DD083
:104000000900F550F36F0900F550F46F0900F55001
:10401000F56F09000900F550E96E0900F550EA6EE8
:10402000090009000900F550F66F0900F550F76F17
:1040300009000900F6CFFAF1F7CFFBF1F8CFFCF158
:10404000F3C1F6FFF4C1F7FFF5C1F8FF0101F65324
:1040500002E1F75307E00900F550EE6EF607F8E2CB
:10406000F707F9D7FAC1F6FFFBC1F7FFFCC1F8FF6C
:0C4070000101F807000EF95BBFD7120039
:04407C00D9CFE6FFB3
:10408000DACFE6FFE1CFD9FFE2CFDAFFBA6AA66A5C
:10409000FD0EDBB0BA88DBA202D0BA8CA68CDBB4F2
:1040A000BA8EDBA602D0A68801D0A68ADBA802D0F1
:1040B000BA8401D0BA94DBBAA686DBAC02D0A38A5C
:1040C00001D0A39ADBAE02D0A38801D0A398FB0E47
:1040D000DB507B6EFC0EDBCF11F011C010F0116ACB
:1040E00010507C6EBA8AA68EE552E5CFDAFFE7CF94
:0440F000D9FF1200E2
:0C40F4000BD8F6EC10F0F19CF288F29270
:10410000F28CF28ECFEC12F0FDD712000F015D6B36
:104110005C6B926A936A946A956A966A926A936AE9
:10412000946A956A966A9590959295948C908C92E3
:104130008C94938094809482948494869488948AB6
:1041400096809682929092929294929A9290939262
:104150009398969489828A8289948A98899A8D9470
:0A4160008990899095968C861200D4
:06416A00D9CFE6FFDACF19
:10417000E6FFE1CFD9FFE2CFDAFFAC6AAB6AFD0E12
:10418000DBB0AC88DBA202D0AC8CAB8CDBB4AC8EE9
:10419000DBA602D0AB8801D0AB8ADBB8AC84DBBA3B
:1041A000AB86DBAC02D09D8A01D09D9ADBAE02D0FB
:1041B0009D8801D09D98FB0EDB50AF6EFC0EDBCFCF
:1041C00011F011C010F0116A10507D6EAC8AAB8EE8
:0C41D000E552E5CFDAFFE7CFD9FF12007F
:0441DC000450090280
:1041E000F3CF00F0F4CF01F00A02F3500126000EE5
:1041F000F420026E04500B02F3500226000EF4204D
:10420000036E04500C02F350032605500902F350CC
:104210000126F4500222000E032205500A02F35038
:104220000226F450032205500B02F35003260650D9
:104230000902F3500226F450032206500A02F350FA
:0C424000032607500902F3500326120069
:04424C00D9CFE6FFE1
:10425000DACFE6FFFA0EE3CFD9FFFB0EE3CFDAFFAA
:10426000FC0EE3CFE9FFFD0EE3CFEAFFE9CFF3FF5A
:10427000EACFF4FFF80EE35003E1F90EE35008E053
:10428000F80EE30602E2F90EE306DECFEEFFF2D708
:10429000FF0EE3CFDAFFE552FF0EE3CFD9FFE55281
:0242A00012000A
:0E42A200036A026A016A006A200EE76ED89075
:1042B0000436053606360736003601360236033632
:1042C0000950005C0A5001580B5002580C5003581A
:1042D00009E30950005E0A50015A0B50025A0C5073
:0A42E000035A042AE72EE4D7120067
:0642EA00E00EE40EE80EF8
:1042F000EC0EF00EF40E480E4C0E500E540E580EEE
:104300005C0E600E640E680E6C0E600F300F800E37
:10431000900EA00EB00EC00ED00E200F100F000F8A
:0C432000800E900EA00EB00EC00ED00E4D
:04432C00D9CFE6FF00
:10433000DACFE6FFE1CFD9FFE2CFDAFFE652F20EA5
:104340000101FD17A6AC03D0FD91A6B0FD81A6B476
:10435000FD85A6B2FD877A50DF6EDF50E552E5524B
:0A436000E5CFDAFFE7CFD9FF120026
:06436A00D9CFE6FFDACF17
:10437000E6FFE1CFD9FFE2CFDAFFE652F20E01010C
:10438000FE17ABAC03D0FE91ABB0FE81ABB4FE85A3
:10439000ABB2FE87AE50DF6EDF50E552E552E5CF9F
:0843A000DAFFE7CFD9FF12009C
:0843A800D9CFE6FFDACFE6FFF2
:1043B000E1CFD9FFE2CFDAFFBAAC04D0BA90010165
:1043C000FDB3BA80FD0EDB50796EE552E5CFDAFF22
:0643D000E7CFD9FF120047
:0A43D600D9CFE6FFDACFE6FFE1CF12
:1043E000D9FFE2CFDAFFACAC04D0AC900101FEB350
:1043F000AC80FD0EDB50AD6EE552E5CFDAFFE7CFC6
:04440000D9FF1200CE
:0C440400036A026A100EE76ED8900636BC
:104410000736023603360B50025C0C50035805E396
:104420000B50025E0C50035A062AE72EF0D71200FA
:10443000D9CFE6FFDACFE6FFE1CFD9FFE2CFDAFF4F
:10444000FD0EDB50B96EE552E5CFDAFFE7CFD9FFBD
:02445000120058
:0E445200D9CFE6FFDACFE6FFE1CFD9FFE2CF08
:10446000DAFFFD0EDB50A76EE552E5CFDAFFE7CFAE
:04447000D9FF12005E
:0C447400410EF36E00EE00F00E0E01D8B9
:104480001200EA6002D0EE6AFCD7F350E960120035
:04449000EE6AFCD7FD
:0C4494001DEE00F02DEE00F0F86A0F9C09
:1044A000EFEC1FF003EC00F07AEC20F0FBD71200E9
:1044B00000000000000000000000000000000000FC
:0444C00000000000F8
:0C44C400646174613A20000A0069643AE7
:0244D0002000CA
:020000040030CA
:0100000015EA
:0100010012EC
:010002001FDE
:010003000CF0
:010005008971
:010006008178
:010008000FE8
:01000900C036
:01000A000FE6
:01000B00E014
:01000C000FE4
:01000D0040B2
:00000001FF
