:020000040000FA
:0600000073EF00F0120096
:020006000000F8
:08000800060EF66E000EF76E05
:10001000000EF86E0E010900F550056F0900F5504D
:10002000066F03E1056701D03DD00900F550006F70
:100030000900F550016F0900F550026F0900090031
:10004000F550E96E0900F550EA6E09000900090053
:10005000F550036F0900F550046F09000900F6CF51
:1000600007FEF7CF08FEF8CF09FE00CEF6FF01CE5F
:10007000F7FF02CEF8FF0E01035302E1045307E03D
:100080000900F550EE6E0307F8E20407F9D707CE32
:10009000F6FF08CEF7FF09CEF8FF0E010507000EA8
:0600A000065BBFD7120051
:0A00A60095909592959493809480B4
:1000B0009482948494869488948A968096828C8480
:0600C0000400FED712004F
:0A00C600410EF36E00EE00F00E0E86
:1000D00001D81200EA6002D0EE6AFCD7F350E96062
:0600E0001200EE6AFCD7DD
:0A00E6001DEE00F02DEE00F0F86AA8
:1000F000019C04EC00F081EC00F053EC00F0FBD725
:020100001200EB
:020102001200E9
:020000040030CA
:0100000015EA
:0100010012EC
:010002001FDE
:010003000FED
:010005008971
:010006008178
:010008000FE8
:01000900C036
:01000A000FE6
:01000B00E014
:01000C000FE4
:01000D0040B2
:00000001FF
