:020000040000FA
:0600000060EF07F01200A2
:020006001200E6
:0600080050EF05F01200AC
:02000E000000F0
:06001800C2EF05F012002A
:02001E000100DF
:0C0020000E000000FA00000002000000CA
:04002C0000016091DE
:100030006083826B836B846B856B866B876B60954B
:1000400060876099609BA86BA96BAA6BAB6BAC6B6C
:10005000AD6BCC0EE66E3FEC07F0E5529D889D8AB5
:100060001200000161916183CE6BCF6BD06BD16BBD
:10007000D26BD36B619561876199619BF46BF56B72
:10008000F66BF76BF86BF96BCC0EE66E2EEC07F0A7
:10009000E552A388A38A1200D9CFE6FFE1CFD9FFAA
:1000A000000160A102D0000E21D09D98620E84252F
:1000B000E96E000E8521EA6EFE0EDBCFEFFF609346
:1000C000822B000E8323200E821901E1835101E16E
:1000D0006081842B000E8523200E841901E1855157
:1000E00002E1846B856B9D88010E00D0E552E7CF5D
:1000F000D9FF1200D9CFE6FFE1CFD9FF000161A1FE
:1001000002D0000E21D0A398AE0ED025E96E000ECD
:10011000D121EA6EFE0EDBCFEFFF6193CE2B000EF6
:10012000CF23200ECE1901E1CF5101E16181D02B07
:10013000000ED123200ED01901E1D15102E1D06B84
:10014000D16BA388010E00D0E552E7CFD9FF120092
:10015000D9CFE6FFE1CFD9FF020EE126E7D8F3CFF2
:1001600012F0F4CF13F0FB0EDB50125C106EFC0E9D
:10017000DB501358116E000E105C000E115802E295
:10018000000E2CD0DE6ADD6ADECF10F0DDCF11F07C
:10019000FB0EDBCF12F0FC0EDBCF13F01250105C25
:1001A0001350115819E2FD0EDBCF10F0FE0EDBCF1D
:1001B00011F0DE501024E96EDD501120EA6EEF5090
:1001C000E66E6ADFE552000902E1000E07D0DF2A81
:1001D000010E01E3DB2AD8D7010E00D0106E020E0B
:1001E000E15C02E2E16AE552E16E1050E552E7CFD0
:1001F000D9FF1200D9CFE6FFE1CFD9FF020EE126E9
:10020000AED8F3CF12F0F4CF13F0FB0EDB50125C3C
:10021000106EFC0EDB501358116E000E105C000EB9
:10022000115802E2000E2CD0DE6ADD6ADECF10F03B
:10023000DDCF11F0FB0EDBCF12F0FC0EDBCF13F0A5
:100240001250105C1350115819E2FD0EDBCF10F064
:10025000FE0EDBCF11F0DE501024E96EDD501120D0
:10026000EA6EEF50E66E46DFE552000902E1000E4D
:1002700007D0DF2A010E01E3DB2AD8D7010E00D018
:10028000106E020EE15C02E2E16AE552E16E10508E
:10029000E552E7CFD9FF1200000160B320D0620E13
:1002A0008625E96E000E8721EA6EEF50E66E17ECA8
:1002B00007F0E552000160B160918207000E835B98
:1002C0008251831101E16083862B000E8723200E6B
:1002D000861901E1875102E1866B876B01D09D98F9
:1002E0001200000161B320D0AE0ED225E96E000EDF
:1002F000D321EA6EEF50E66E00EC07F0E552000104
:1003000061B16191CE07000ECF5BCE51CF1101E1FB
:100310006183D22B000ED323200ED21901E1D351D9
:1003200002E1D26BD36B01D0A39812000001200E22
:10033000825D000E83590FE282C010F083C011F07D
:10034000200ED8801056000E115610C0F3FF11C0B9
:10035000F4FF04D003D0F36AF46A00D01200000165
:10036000200ECE5D000ECF590FE2CEC010F0CFC0F0
:1003700011F0200ED8801056000E115610C0F3FF59
:1003800011C0F4FF04D003D0F36AF46A00D0120065
:10039000D9CFE6FFE1CFD9FFE652000160B52FD0FB
:1003A000E1EC06F0DF6EABA402D0000E2BD0AB5018
:1003B000020B05E09E50200B02E1AB98AB880001D8
:1003C00060996097880EAA25E96E000EAB21EA6E4F
:1003D000DFCFEFFFA82B000EA923200EA81901E103
:1003E000A95101E16085AA2B000EAB23200EAA19AA
:1003F00001E1AB5102E1AA6BAB6B010E03D0608946
:10040000000E00D0E552E552E7CFD9FF1200D9CF58
:10041000E6FFE1CFD9FFE652C2EC06F0DF6E000145
:1004200061B52BD06BA402D0000E2AD06B50020B0A
:1004300005E0A450200B02E16B986B8861996197ED
:10044000D40EF625E96E000EF721EA6EDFCFEFFF3E
:10045000F42B000EF523200EF41901E1F55101E112
:100460006185F62B000EF723200EF61901E1F751F6
:1004700002E1F66BF76B010E03D06189000E00D02C
:10048000E552E552E7CFD9FF1200D9CFE6FFE1CF21
:10049000D9FF000160A702D0000E27D09D9A609579
:1004A000880EAC25E96E000EAD21EA6EEF50E66EC7
:1004B000FD0EDBCFE9FFFE0EDBCFEAFFE552E75092
:1004C000EF6EA807000EA95BA851A91101E1608792
:1004D000AC2B000EAD23200EAC1901E1AD5102E1B1
:1004E000AC6BAD6B9D8A010E00D0E552E7CFD9FF12
:1004F0001200D9CFE6FFE1CFD9FF000161A702D0FA
:10050000000E27D0A39A6195D40EF825E96E000E4F
:10051000F921EA6EEF50E66EFD0EDBCFE9FFFE0E2D
:10052000DBCFEAFFE552E750EF6EF407000EF55B14
:10053000F451F51101E16187F82B000EF923200E2B
:10054000F81901E1F95102E1F86BF96BA38A010E88
:1005500000D0E552E7CFD9FF12000001A85100D02A
:1005600012000001F45100D012009EA807D09E5046
:10057000100B04E09D50100B01E08EDE9E50200B0E
:1005800004E09D50200B01E003DF1200D9CFE6FF0D
:10059000E1CFD9FF050EE126FA0EDBCF04F0056AA4
:1005A000066A076A400E096E420E0A6E0F0E0B6E47
:1005B0000C6A66EC06F000C0DEFF01C0DEFF02C080
:1005C000DEFF03C0DDFFDD52DD52030EF36E040ECD
:1005D000F3CFDBFFDB50030A01E183D0020A44E0E2
:1005E000030A42E0020A03E0F368F46AB8D0D9CF04
:1005F000E9FFDACFEAFFEECF14F0EECF15F0EECF41
:1006000016F0EFCF17F014C004F015C005F016C0B7
:1006100006F017C007F0FB0EDBCF09F0FC0EDBCFB6
:100620000AF0FD0EDBCF0BF0FE0EDBCF0CF09EECE4
:1006300006F004C010F005C011F006C012F007C0AB
:1006400013F0060ED8901332123211321032E8062F
:10065000F9E11006000E115A125A135A10C0F3FF96
:1006600011C0F4FF7CD07BD0D9CFE9FFDACFEAFF0D
:10067000EECF14F0EECF15F0EECF16F0EFCF17F06F
:1006800014C004F015C005F016C006F017C007F03E
:10069000FB0EDBCF09F0FC0EDBCF0AF0FD0EDBCF4B
:1006A0000BF0FE0EDBCF0CF09EEC06F004C010F059
:1006B00005C011F006C012F007C013F0040ED89068
:1006C0001332123211321032E806F9E11006000E30
:1006D000115A125A135A10C0F3FF11C0F4FF3FD041
:1006E0003ED0D9CFE9FFDACFEAFFEECF14F0EECF5C
:1006F00015F0EECF16F0EFCF17F014C004F015C0D0
:1007000005F016C006F017C007F0FB0EDBCF09F0AE
:10071000FC0EDBCF0AF0FD0EDBCF0BF0FE0EDBCFC5
:100720000CF09EEC06F004C010F005C011F006C0FD
:1007300012F007C013F0020ED890133212321132A9
:100740001032E806F9E11006000E115A125A135A37
:1007500010C0F3FF11C0F4FF02D001D000D0050E8D
:10076000E15C02E2E16AE552E16EE552E7CFD9FFD2
:100770001200D9CFE6FFE1CFD9FF050EE126FA0E30
:10078000DBCF04F0056A066A076A400E096E420E66
:100790000A6E0F0E0B6E0C6A66EC06F000C0DEFFF0
:1007A00001C0DEFF02C0DEFF03C0DDFFDD52DD520F
:1007B000030EF36E040EF3CFDBFFDB50030A01E1FF
:1007C00083D0020A44E0030A42E0020A03E0F3682D
:1007D000F46AB8D0D9CFE9FFDACFEAFFEECF14F050
:1007E000EECF15F0EECF16F0EFCF17F014C004F0F7
:1007F00015C005F016C006F017C007F0FB0EDBCFE2
:1008000009F0FC0EDBCF0AF0FD0EDBCF0BF0FE0E85
:10081000DBCF0CF09EEC06F004C010F005C011F028
:1008200006C012F007C013F0060ED8901332123231
:1008300011321032E806F9E11006000E115A125A70
:10084000135A10C0F3FF11C0F4FF7CD07BD0D9CF76
:10085000E9FFDACFEAFFEECF14F0EECF15F0EECFDE
:1008600016F0EFCF17F014C004F015C005F016C055
:1008700006F017C007F0FB0EDBCF09F0FC0EDBCF54
:100880000AF0FD0EDBCF0BF0FE0EDBCF0CF09EEC82
:1008900006F004C010F005C011F006C012F007C049
:1008A00013F0040ED8901332123211321032E806CF
:1008B000F9E11006000E115A125A135A10C0F3FF34
:1008C00011C0F4FF3FD03ED0D9CFE9FFDACFEAFF25
:1008D000EECF14F0EECF15F0EECF16F0EFCF17F00D
:1008E00014C004F015C005F016C006F017C007F0DC
:1008F000FB0EDBCF09F0FC0EDBCF0AF0FD0EDBCFE9
:100900000BF0FE0EDBCF0CF09EEC06F004C010F0F6
:1009100005C011F006C012F007C013F0020ED89007
:100920001332123211321032E806F9E11006000ECD
:10093000115A125A135A10C0F3FF11C0F4FF02D01B
:1009400001D000D0050EE15C02E2E16AE552E16E01
:10095000E552E7CFD9FF1200A450100B04E0A350DA
:10096000100B01E0BEDCA450200B04E0A350200BD0
:0609700001E04DDD120064
:0A097600D9CFE6FFE1CFD9FFE6522A
:100980006CD8640E0F01346F356B010E326F336B10
:10099000DF6ADFCF10F03251105C000E33550AE2EF
:1009A000DF50EA6A000FE96E0F0EEA22DFCFEFFF99
:1009B000DF2AEFD795908C9095928C9295948C9499
:1009C00095968C9695988C98959A8C9A959C8C9CDB
:1009D000959E8C9E929A899AD59AD59CF294F29A79
:1009E000D596F80ED5140309D56E1E0E366FFB0E84
:1009F000376F36CFE6FF37CFE6FF3CD8E552E552FA
:100A0000D58E949C948E16EC00F0280EE66EE66A65
:100A1000C20EE66E010EE66EE66AC6EC02F0126EDB
:100A2000050EE15E1250F3CF10F0F4CF11F010C0BC
:100A3000E6FF11C0E6FFFC0EE66E24EC06F0E55280
:100A4000E552E552F19CF288F292F28CF28EFFD7D9
:100A5000E552E552E7CFD9FF12000F0EC16E070E27
:100A6000B46E95909592959495969598959A959C37
:100A700093801200D9CFE6FFE1CFD9FFFD0EDB5006
:100A8000D66EFD0EDBCF10F0FE0EDBCF11F011C0E5
:100A900010F0116A1050D76EE552E7CFD9FF12005F
:100AA000DACFE4FFE2CFDAFFE9CFE4FFEACFE4FFF9
:100AB000F6CFE4FFF7CFE4FFF5CFE4FFF3CFE4FF99
:100AC000F4CFE4FFFACFE4FF00EE00F0100EE804EC
:100AD00003E3EECFE4FFFBD700EE10F0080EE804CE
:100AE00003E3EECFE4FFFBD7E652F2A420D0F2946A
:100AF000898AFAC0E6FF4CEC00F0E55236CFE6FFFB
:100B000037CFE6FF3AEC05F0E552E5520001FA2B4B
:100B1000000EFB230F0134510001FA5D0F01355126
:100B20000001FB5903E3FA6BFB6BF29A899AF2A27C
:100B300003D08C70F292F27AB5EC02F0E55200EE3E
:100B400017F0080EE80403E3E5CFEDFFFBD700EE56
:100B50000FF0100EE80403E3E5CFEDFFFBD7E5CF80
:100B6000FAFFE5CFF4FFE5CFF3FFE5CFF5FFE5CFE3
:100B7000F7FFE5CFF6FFE5CFEAFFE5CFE9FFE5CFE9
:100B8000DAFF1100D8CFE4FFE0CFE4FFE46EDACF64
:100B9000E4FFE2CFDAFFE652E552E5CFDAFFE550B7
:0A0BA000E5CFE0FFE5CFD8FF10001D
:060BAA001E0EF66E000EA7
:100BB000F76E000EF86E0F010900F5503D6F090049
:100BC000F5503E6F03E13D6701D03DD00900F5507F
:100BD000386F0900F550396F0900F5503A6F090078
:100BE0000900F550E96E0900F550EA6E09000900A8
:100BF0000900F5503B6F0900F5503C6F09000900F2
:100C0000F6CF3FFFF7CF40FFF8CF41FF38CFF6FFD9
:100C100039CFF7FF3ACFF8FF0F013B5302E13C53C6
:100C200007E00900F550EE6E3B07F8E23C07F9D704
:100C30003FCFF6FF40CFF7FF41CFF8FF0F013D0751
:080C4000000E3E5BBFD712005D
:080C4800D9CFE6FFDACFE6FF89
:100C5000E1CFD9FFE2CFDAFFAC6AAB6AFD0EDBB0C1
:100C6000AC88DBA202D0AC8CAB8CDBB4AC8EDBA648
:100C700002D0AB8801D0AB8ADBB8AC84DBBAAB86E0
:100C8000DBAC02D09D8A01D09D9ADBAE02D09D885C
:100C900001D09D98FB0EDB50AF6EFC0EDBCF11F048
:100CA00011C010F0116A10507F6EAC8AAB8E949C0C
:100CB000948EAC50100B04E0AC50800B01E1948C8E
:0C0CC000E552E5CFDAFFE7CFD9FF1200C4
:040CCC0004500902C5
:100CD000F3CF00F0F4CF01F00A02F3500126000E2A
:100CE000F420026E04500B02F3500226000EF42092
:100CF000036E04500C02F350032605500902F35012
:100D00000126F4500222000E032205500A02F3507D
:100D10000226F450032205500B02F350032606501E
:100D20000902F3500226F450032206500A02F3503F
:0C0D3000032607500902F35003261200AE
:040D3C00036A026ADA
:100D4000016A006A200EE76ED89004360536063632
:100D5000073600360136023603360950005C0A5069
:100D600001580B5002580C50035809E30950005E1B
:100D70000A50015A0B50025A0C50035A042AE72E0B
:040D8000E4D71200A2
:0C0D8400D9CFE6FFDACFE6FFE1CFD9FFC0
:100D9000E2CFDAFFE652F20E0001FC176BAC03D093
:100DA000FC916BB0FC816BB4FC856BB2FC876E5020
:100DB000DF6EDF50E552E552E5CFDAFFE7CFD9FF2E
:020DC00012001F
:0E0DC200D9CFE6FFDACFE6FFE1CFD9FFE2CFCF
:100DD000DAFFE652F20E0001FD17ABAC03D0FD9135
:100DE000ABB0FD81ABB4FD85ABB2FD87AE50DF6E1D
:100DF000DF50E552E552E5CFDAFFE7CFD9FF120029
:100E0000D9CFE6FFDACFE6FFE1CFD9FFE2CFDAFFB5
:100E10006CAC04D06C900001FCB36C80FD0EDB5018
:0E0E20006D6EE552E5CFDAFFE7CFD9FF120085
:020E2E00D9CF1A
:100E3000E6FFDACFE6FFE1CFD9FFE2CFDAFFACACD5
:100E400004D0AC900001FDB3AC80FD0EDB50AD6E64
:0C0E5000E552E5CFDAFFE7CFD9FF120032
:040E5C00D9CFE6FF05
:100E6000DACFE6FFE1CFD9FFE2CFDAFFFD0EDB50AC
:0E0E70007C6EE552E5CFDAFFE7CFD9FF120026
:020E7E00D9CFCA
:100E8000E6FFDACFE6FFE1CFD9FFE2CFDAFFFD0ED2
:100E9000DB507E6EE552E5CFDAFFE7CFD9FF1200D7
:100EA000600EF36E00EE00F00F0E01D81200EA6043
:100EB00002D0EE6AFCD7F350E9601200EE6AFCD76C
:100EC0001EEE00F02EEE00F0F86A0F9CD5EC05F057
:0C0ED00003EC00F0BBEC04F0FBD71200B8
:020000040030CA
:0100010006F8
:0100020001FC
:010003001EDE
:010004008378
:01000500807A
:010006008079
:01000800FFF8
:01000900C036
:01000A00FFF6
:01000B00E014
:01000C00FFF4
:01000D0040B2
:00000001FF
